S0100000656D3236302D7370692E73333701
S315080020009021002075510208B54D0208B94D020805
S31508002010A70A0A0100210008040303AC1063F500AF
S3150800202000000000000000000000000000000000A2
S315080020300000000000000000000000000000000092
S315080020400000000000000000FFFFFFFFFFFFFFFF8A
S31508002050FFFFFFFF007002080000000000000000FC
S31508002060FFFFFFFFFFFFFFFFFF000000000000006B
S315080020700000000000000000000000000000000052
S31508002080F02F002000000000F02F0020F02F002085
S31508002090902100207E580208465202083018002077
S311080020A0000000000000030800300020CB
S315080021009021002075510208D9500208DD500208B6
S31508002110E1500208E5500208E950020800000000F4
S31508002120000000000000000000000000F550020852
S31508002130F950020800000000FD500208E9DE010817
S3150800214009510208155102081951020825510208B9
S315080021502951020835510208395102084551020829
S31508002160495102084D5102085151020855510208B9
S315080021706151020865510208695102086D51020849
S315080021807151020810B58C0801EB5474E408A1EBF0
S31508002190C4010368012409E010B54C0801EB9474E6
S315080021A0A408A1EB8401036889000F2400F05EF8F7
S315080021B0016010BD38B500F0D9F8044600F0D6F82D
S315080021C0054600F0D3F800F00102182C05F00F05BB
S315080021D028BF362038D245F20F40E040C00748BF36
S315080021E0382031D4E00803D0022807D003D309E009
S315080021F021464F4804E021464E4801E021464E4814
S31508002200FFF7C0FFA00805281DD8DFE800F0030780
S315080022100B0F13172A462146484812E02A4621463C
S3150800222047480EE02A46214646480AE02A462146FD
S31508002230454806E02A462146444802E02A46214601
S315080022404348FFF7A9FF0020BDE8324000F0A7B8D1
S315080022504B0810B501EB93739B08A1EB830189002A
S3150800226003880F2400F002F8018010BD8C40A343B8
S3150800227002FA01F1194370478B0810B501EB537345
S31508002280DB08A1EBC30103780124FFF7EFFF017018
S3150800229010BD2DE9F04100F069F8044600F066F833
S315080022A0054600F063F8064600F060F8074600F0B9
S315080022B05DF805F00F0200F00108182C06F001057C
S315080022C007F00F0728BF362022D245F20F40E0401C
S315080022D0C00748BF38201BD4600804EB90708608F6
S315080022E01C4800F019F81C483A4600F015F8A008F2
S315080022F004EB5070C70819482A4621463844FFF7A8
S31508002300BBFF1748424621463844FFF7B5FF002071
S31508002310BDE8F04100F043B8214600EB460097E7D8
S3150800232080B500F05FF80F4908400F49086001BD05
S315080023300CB000400CB400400CB8004000B000409F
S3150800234004B0004000B4004004B4004000B80040A7
S3150800235004B800408C220020982200208422002005
S3150800236088220020F0ABFF00A42200202A4801683A
S31508002370491C016011F8010D704738B50446264D11
S3150800238008462968224600F08FFA28682044286003
S3150800239031BD214A116808441060084670471F4934
S315080023A01F4B0A681B68D31ADC2BB8BF1070086865
S315080023B0401C0860704710B50446C0B2FFF7EFFF2F
S315080023C0200A48E010B5FFF7D1FF00F042F904EB08
S315080023D0002080B210BD10B5044680B2FFF7EBFFAF
S315080023E0200CB7E010B5FFF7EDFF00F05EF804EB40
S315080023F0004010BD38B5094C094A236812680546DD
S315080024009A1AAA18DD2A03DA0246184600F04CFA88
S3150800241020682844206031BD482800204C28002028
S31508002420EC2A002010B500F042F8FFF7CBFF208118
S31508002430FFF79CFFA072FFF799FFE072FFF796FF80
S315080024402073FFF7BFFFE081FFF790FF2074FFF7C7
S31508002450C9FF606110BDBDE81040A0E710B500F0E7
S3150800246024F82080FFF7AEFF6080FFF77FFF20711A
S31508002470FFF77CFF6071FFF7A5FFE080FFF7A2FF7B
S315080024802081FFF773FFA07210BD10B500F00AF89F
S31508002490A078E0E710B500F008F82080FFF766FF9F
S315080024A0A07010BD0446208885E704468AE70446DE
S315080024B02146082061E710B500F0CBF8A070FFF7B9
S315080024C081FF2080211D00F0C2F8FFF74FFF00B101
S315080024D00120E070FFF74AFF2073FFF747FF60739C
S315080024E010BD10B50446214600F07FF82069BDE806
S315080024F0104070E710B50446214600F078F8FFF75B
S3150800250071FF206110BD10B5FFF7CFFF208010BD09
S31508002510207944E710B50446FFF7CDFF04F1100013
S3150800252000F01BF804F11C0100F091F8FFF74AFFD0
S3150800253024F8240FFFF746FF6080FFF717FF207186
S31508002540FFF714FF6071FFF711FFA071FFF70EFF89
S31508002550E07110BDBDE810402DE710B50446FFF741
S3150800256041FF2060FFF73EFF6060FFF72BFF2081E9
S3150800257010BD10B500F010F800F0ACF8E088FFF7D1
S315080025801AFF2089FFF717FF6089FFF714FFA08954
S31508002590FFF711FFA07B5EE7044620681BE710B52E
S315080025A00446FFF71FFF2060FFF70CFFA080FFF728
S315080025B009FFE080FFF706FF2081FFF703FF608130
S315080025C0FFF700FFA081FFF7D1FEA07310BD10B57D
S315080025D0FFF7E2FFFFF79CFF611D00F006F804F124
S315080025E01501BDE81040102004E7102002E710206E
S315080025F0C3E610B50446207AFFF7D1FE207A01001B
S3150800260006D12068FFF7E7FE2068FFF7E4FE04E03E
S31508002610022802D1214600F002F8607A1BE708205A
S31508002620E8E610B500F015F80100207206D1FFF7AC
S31508002630D9FE2060FFF7D6FE206004E0022802D10A
S31508002640214600F004F8FFF791FE607210BD0820DD
S3150800265093E604468AE638B504460225FFF786FE61
S315080026602070401E012806D9FFF7ACFE6081A11C28
S31508002670FFF7EDFF0BE0FFF7A5FEA080FFF7A2FE30
S315080026806080FFF79FFEFFF79DFEFFF79BFE0C3469
S315080026906D1EE3D131BD38B5044602252078FFF713
S315080026A07EFE2078401E012806D96089FFF783FE42
S315080026B0A11CFFF7B4FF09E000F00CF800F00CF8D5
S315080026C000F008F800F008F800F004F80C346D1E65
S315080026D0E4D131BDA0886EE660886CE610B5044684
S315080026E02078FFF75CFE6068FFF775FE04F10800C6
S315080026F0FFF77FFFA08AFFF75EFEA07DFFF74FFE7C
S31508002700A069FFF768FE04F11C01FFF76EFF04F1EC
S315080027102C00FFF7C0FF14F8440FFFF740FE60785F
S3150800272099E638B5FFF795FF207004F12C05FFF7F9
S3150800273049FE6080201DFFF774FFFFF717FE20741F
S3150800274004F11200FFF787FFFFF73CFE6085FFF7ED
S315080027500DFE2870FFF70AFE6870FFF743FE04F1C6
S31508002760340168601020BDE8344006E638B50446F2
S3150800277004F12C052078FFF712FEFFF7ADFF201DA8
S31508002780FFF737FF207CFFF70AFE04F11200FFF778
S3150800279082FF608DFFF70FFE2878FFF700FE687846
S315080027A0FFF7FDFD6868FFF716FE04F13401BDE882
S315080027B0344018E710B5FFF775FEFFF78DFFA088C0
S315080027C0C8E610B5FFF771FE2080FFF7FBFD6080B5
S315080027D0FFF7F8FDA08010BD30B502F8010B002305
S315080027E012E031F8234002F8014B31F82340240A5D
S315080027F002F8014B01EB83045B1C658802F8015B58
S315080028006488240A02F8014B8342EADB30BD0CB423
S31508002810F8B505460C4606AE08E056F8040B29003E
S3150800282003D00078FFF7B5FD3860641C20780100F6
S3150800283037D056F8047B622827D07028EDD0732845
S3150800284018BF752804D076280CD0772814D0ECE762
S31508002850280003D0FFF78AFD3870E6E73878FFF7D7
S315080028609EFDE2E7280003D0FFF7ACFD3880DCE7E1
S315080028703888FFF7A0FDD8E7280002D0FFF7B2FD99
S31508002880D2E73868FFF7A7FDCFE756F8040B0078BC
S315080028902900394602D0FFF770FDC6E7FFF7AAFD03
S315080028A0C3E7F1BC5DF80CFB814233D210441144F6
S315080028B0401E491E10E011F8013900F80139121FAF
S315080028C011F8013900F8013911F8013900F8013910
S315080028D011F8013900F8013992B2042AEBDA93B2F9
S315080028E0002B1EBF11F8013900F80139521EF6D126
S315080028F0704711F8013B00F8013B121F11F8013B24
S3150800290000F8013B11F8013B00F8013B11F8013BC7
S3150800291000F8013B92B2042AEBDA93B2002B1EBFF1
S3150800292011F8013B00F8013B521EF6D1704713001F
S3150800293003D00A46194600F021B8704710B500E0E2
S31508002940521E93B223B100F012F8F9D0181B10BD2D
S31508002950002010BD10B500E0521E93B22BB100F056
S3150800296006F8F9D0181B40B210BD002010BD10F8AB
S31508002970013B11F8014BA3427047000062F30F2296
S3150800298062F31F42401810F0030308D0C91A1FD378
S31508002990DB0748BF00F8012D28BF20F8022D1300D9
S315080029A030B414461546103928BF20E93C00FAD839
S315080029B0490728BF20E90C0048BF40F8042D8900C4
S315080029C028BF20F8022D48BF00F8012D30BC7047FB
S315080029D0C91818BF00F8012DCB0728BF00F8012D2C
S315080029E07047000010B5044600F0E6FD204601F0E9
S315080029F0D8FD204602F0ECFA2046BDE8104002F069
S31508002A00ABBC01F016BE10B5044600F032FE2046F7
S31508002A1001F041FE204602F003FB204602F001FDCC
S31508002A202046BDE8104002F099BC10B500E010B58C
S31508002A30044600F096FE204601F054FF204602F0B8
S31508002A400BFB204602F057FD2046BDE8104002F079
S31508002A509ABF10B5044600F0B1FE204601F070FF9B
S31508002A60204602F028FB09E010B5044600F0CBFE2C
S31508002A70204601F0A7FF204602F03AFB204602F066
S31508002A8052FD204602F097FF2046BDE8104002F0AE
S31508002A90FCBC80B503F0F5F9BDE8014002F020BAA8
S31508002AA010B5044602F028FE2046BDE8104002F0A4
S31508002AB000BD0198704703F054BA7047002070476C
S31508002AC02DE9F04701241028A4B00FF65825DFF8A1
S31508002AD0CC79A8A3A8A60FF2A429A9A10FF2A42825
S31508002AE00FF2A42A00F0588118281CBF1D28202898
S31508002AF06FD0212800F01F8122286AD0282800F0EC
S31508002B00C280292800F0E5802A2862D02B2800F008
S31508002B1070812D2800F08E812E285AD0302826D094
S31508002B20332800F08C81342800F08C81352800F099
S31508002B300883362800F0AB81372800F0368238281B
S31508002B4000F0D081392800F064823A2800F0F68136
S31508002B50422800F072824A2800F0CF804C2800F004
S31508002B60FA825A2800F07B825B2832D05D2800F072
S31508002B70EB83632800F0BE82642800F0C8826A28C6
S31508002B8003D06F2800F02F83712800F0FC82732889
S31508002B9018BF772800F0E6837A281AD0822800F032
S31508002BA07782832800F0AB83842818BF852810D045
S31508002BB086281CBF872888280BD0892800F0A6837A
S31508002BC08A281CBF8B288D2803D0902800F03584CE
S31508002BD0952800F0A783962800F0AB829A281CBF98
S31508002BE0A128A428F5D0A62800F07883A82800F004
S31508002BF01683A92800F02F83AF2800F04983B1284F
S31508002C00E7D0B22800F0BC83B92800F0D583BA28EB
S31508002C1000F0D783BC2800F0D783BD2800F0DF83F7
S31508002C20C12800F09480C22800F0B380C32800F0C1
S31508002C30AD80CE2800F03983D42800F0D783D52874
S31508002C4000F0D983D62800F0DB83D72800F0DD838F
S31508002C50D82800F0DD83D92800F0DD83DA2800F0D3
S31508002C60DD83DB2800F0DF83DC2800F0E183E82839
S31508002C70AFD0ED2800F03F83EE28AAD0FE2800F05A
S31508002C80518200F0F9BB01A9684601F03DFC00F04D
S31508002C9032FC31460020FFF7BAFD00F020FCBDF8F3
S31508002CA00C00FFF788FB9DF80E00FFF778FB9DF8F0
S31508002CB00F00FFF774FB9DF81000FFF770FBBDF8D7
S31508002CC01200FFF778FB9DF81400FFF768FB0698DB
S31508002CD0A6E308208DF809000DF10A0103A801F002
S31508002CE039FC8DF8080003AB0DF10A00019002AA21
S31508002CF00DF109000090E2A141E200F009FC9DF8FF
S31508002D00010001A901F037FC00F0FBFB00F0E7FB2E
S31508002D109DF80C00FFF743FBBDF80E00FFF74BFBD1
S31508002D209DF81000FFF73BFB9DF81100FFF737FBF6
S31508002D309DF812009DE301AB0DF10102D1A100F04F
S31508002D40C5FB01999DF8010001F017FC29E30DF177
S31508002D50060200F0A9FB9DF8060001AA02A901F0E7
S31508002D6082FB8DF8050002AB01A800900DF1050263
S31508002D70C5A104E27600000075750000757570003F
S31508002D8062000000757000007500000001F06DFB20
S31508002D906FE301F06CFB6CE30DF1150004900DF187
S31508002DA01E030DF11600039006AA0DF117000290F6
S31508002DB00DF11A00019007A8009001200FF25C712E
S31508002DC0FFF725FD9DF81500BDF81A30BDF81C2043
S31508002DD0BDF81E1002909DF8160001909DF8170088
S31508002DE000909DF8180003F04DF98DF8140005AA17
S31508002DF0DAE2FFF7BBFA0546FFF7B8FA8DF80000E6
S31508002E00FFF7B4FA8DF80100FFF7DCFAADF8020017
S31508002E10FFF7ACFA8DF804000DF105010820FFF75D
S31508002E20ACFAFFF7A3FA8DF80D006946284602F0BA
S31508002E30A7FD1EE3FFF79AFA02F0A3FD19E303F0D4
S31508002E405BFDAEE20DF1120304AA90A100F03EFB71
S31508002E5006A8FFF703FB03A8019003AB05A800909B
S31508002E600DF10F02494600F025FB0DF10D00029009
S31508002E7006AA05989DF80F30BDF8121001909DF826
S31508002E800C0000909DF8100001F035FA23E00DF1D2
S31508002E90120219460120FFF7BAFC06A8FFF7DEFA68
S31508002EA003A802900DF10F0305A8019004AA03A830
S31508002EB000F0FEFA0DF10D00029006A905989DF89E
S31508002EC00F309DF8102001909DF80C000090BDF879
S31508002ED0120001F019FA8DF80E000DF10D030DF12F
S31508002EE00E0233E107A8FFF7B9FA04A8039005AB69
S31508002EF006A802900DF1150204A801900DF1130021
S31508002F00009001200FF22461FFF781FC0DF11100FA
S31508002F10029006989DF813309DF814209DF8151018
S31508002F2001909DF81000009007A801F0F9F98DF8B6
S31508002F3012000DF111030DF1120207E10AA8FFF7BD
S31508002F408DFA06A805900DF11D0309A804900DF148
S31508002F501E0206A803900DF11B00029007A8019017
S31508002F6008A8009001200FF2CC51FFF750FC0DF194
S31508002F70190004900998BDF820309DF81D209DF889
S31508002F801E1003909DF8180002909DF81B000190F2
S31508002F909DF81C0000900AA801F0DDF98DF81A00CA
S31508002FA00DF119030DF11A02D0E00DF11900009088
S31508002FB00DF11A0307AAB5A100F07CFA09A8FFF7D4
S31508002FC04DFA05A802900DF1170308A8019006AA64
S31508002FD005A800F06DFA0DF11500049009AB0898E4
S31508002FE09DF81920BDF81A1003909DF81400029058
S31508002FF09DF8170001909DF818000090BDF81C0078
S3150800300001F0CEF98DF816000DF115030DF1160233
S315080030109CE00DF1060219460120FFF7F8FB03A80C
S31508003020FFF71CFA00F049FA029B9DF80420BDF848
S31508003030060003A901F0E9F96FE10DF1050000901A
S315080030400DF1060302AADAA100F034FA9DF805206C
S315080030509DF80610BDF8080003F084FD11E100F0A4
S3150800306042FAD4A100F026FA039A9DF80810BDF892
S315080030700A0003F0F1FE8DF809000DF1090293E14B
S3150800308075627600757700007576750075760000AE
S3150800309008208DF811008DF810000DF10E00029031
S315080030A005A801900DF11100009008AB0FF28C45B0
S315080030B00DF10F0200F0FDF903A802900DF11200C0
S315080030C0019006A800909DF80E30BDF814209DF8D2
S315080030D00F0008A901F0CDF98DF80D0006AB03A87D
S315080030E002900DF10D020DF112000190294604A877
S315080030F0009044E000F00CFA9DF8010001A901F0E7
S31508003100DDF900F0FEF901A8FFF7BFF9B7E100F015
S31508003110FFF901A8FFF7BEF99DF8010001A901F022
S31508003120E0F93EE100F0F4F99DF8010004F022FE12
S3150800313037E100F0C2F902999DF8040001F000F9A0
S31508003140EBE0684605F0CAFB00F0D5F931460020E9
S31508003150FFF75DFB93E186208DF806000DF1050269
S3150800316000F0A2F99DF8050002A901F009FA8DF808
S31508003170040002AB0DF10600009001AAC2A10020CE
S31508003180FFF745FB7BE16A4600F08EF938786A2836
S315080031909DF8000001A902D105F0AAFB01E005F09F
S315080031A00EFF8DF801000DF1010200F0ADF9BDF832
S315080031B00400FFF700F99DF80600FFF7F0F80DF197
S315080031C007011020FFF716F90698FFF704F9079884
S315080031D0FFF701F99DF82000FFF7E1F80DF121014D
S315080031E000F07EF94BE109A8FFF784F900F07BF9B6
S315080031F0494600F05FF904A80090039B9DF8082053
S315080032009DF80A1009A801F0B9FE8DF809000DF11C
S31508003210090200F079F904A8FFF763F92FE10820FD
S315080032208DF80E008DF80D0007AB0DF10D0002901C
S3150800323004AA05A8019095A10DF10E00009000F0D2
S3150800324039F9BDF8100005AA07A906F09EF88DF809
S315080032500C0003AAA8E008208DF8050002AB0DF1C2
S31508003260050000900DF1060289A100F023F904A9D2
S315080032701020FFF782F8BDF8060004AA02A906F096
S31508003280C4F88DF8040001AA8EE000BF76767500B2
S3150800329000F01FF900F019F903A91020FFF76DF8DF
S315080032A003A901A801F084FE7BE000F012F90220D0
S315080032B08DF8000000F009F903A901A801F080FEC5
S315080032C000F01FF903A900F00BF905A91020FFF774
S315080032D091F80998FFF77FF80A98A1E000F0EDF851
S315080032E002999DF8040002F03BF88DF805000DF1EF
S315080032F0050200F009F902F04EF8FFF750F8FFF75B
S3150800330035F800B1012001F0F2FFB2E000F0D5F87F
S3150800331002999DF8040001F0F3FF8DF805000DF100
S31508003320050241E03A780FF21C20002500E06D1CEA
S31508003330EDB2415D9142FAD1FFF718F80FF21C2160
S3150800334051F82510884794E0FFF710F80546FFF76F
S3150800335039F80146387830280CBF514A514A284670
S3150800336090478CE069461020FFF707F838787728E9
S31508003370684602D106F062FB7BE006F03DF878E08D
S3150800338001A8FFF7C7F80DF101030DF1020241A1EB
S3150800339000F09CF89DF901209DF8021001A802F0A2
S315080033A09FF88DF800006A4600F0AEF867E000BFA7
S315080033B07675750076757000FEF7D8FF07F068F821
S315080033C057E007F070F854E004A9684607F040F89B
S315080033D06846FFF7CEF804A8FFF7F9F84FE0684605
S315080033E0FFF7DDF8684607F03BF848E0FEF7BEFF52
S315080033F006F068FD43E0FEF7B9FF06F0DEFC3EE0A6
S31508003400FEF7E0FF07F066F839E006F035FB30E036
S3150800341006F050FD2DE007F069F801E007F069F8BD
S31508003420FEF7D9FF2BE0FEF7DDFF07F065F826E08B
S31508003430FEF7D8FF07F063F821E008208DF81200A0
S3150800344006AB04A803900DF1110205A8029012A17B
S3150800345004A801900DF11200009000F02BF89DF8D9
S31508003460110000B10120059B9DF8102006A901F066
S315080034702FFBFEF794FF02E007F070F8044620469B
S3150800348024B0BDE8F087000075620000766262002D
S31508003490766200007573000075627000AC2F00201C
S315080034A09F5B00081D00010851460120FFF7AFB9D0
S315080034B0009029460120FFF7AAB901A8009002AB9F
S315080034C001AA41460120FFF7A2B901AA0120FFF788
S315080034D09EB908208DF801000DF10103704701A976
S315080034E00820FEF787BF02A8019002AB03A8009048
S315080034F00DF10A0270478DF801006B460DF10102C5
S3150800350070478DF800006A4651460020FFF77FB9DC
S315080035100DF1010251460120FFF779B975767676E5
S31508003520757575007575757000000000757575758B
S31508003530700000007575767575757000756276751C
S3150800354000000000181D207A2A84858687888B8AC1
S315080035508D959A2E5BB1A4A122E8EE00A5ED000890
S31508003560399701088D1D010889390108CD5E0008C3
S315080035709D8201081D8301083383010847830108DA
S3150800358063830108FB830108E58301082984010890
S31508003590B1CF0008A7860008498D01084D8D01089E
S315080035A007920008E1CF0108EFCF01087D720008F5
S315080035B095840108A3840108F8B5044620780028F4
S315080035C056D1607000250120207220700026A07850
S315080035D00027032840D0072842D011280AD01528EA
S315080035E041D030281AD031281BD032281CD0352893
S315080035F026D03CE00720DFF8985B207204F109002A
S31508003600298807F0E1FBA878E072E8782073287922
S3150800361060736879A073A879E073F1BD07F0FAFBC7
S3150800362023E007F08BFC20E00420207207F049FC19
S3150800363004F10901BDE8F8400246012007F0C8BBBD
S315080036400320207207F07EFC10B10578467887784B
S315080036506572A672E772F1BDDFF8380B007804E0F0
S3150800366007F040FD01E008F008FA6072F1BD257028
S31508003670F1BD38B504462078002871D101202070A4
S31508003680A078042816D007281AD00E2820D011288A
S3150800369061D0152849D017284CD0182854D0192895
S315080036A055D030283BD031281AD0322820D035289A
S315080036B02AD053E0207A012814BF362000204BE098
S315080036C0607A10B107F0DCFC46E007F0EBFC43E05B
S315080036D0607A00B1012007F03EFC00283CD022E0C9
S315080036E0607A00B1012007F027FC002834D01AE0E0
S315080036F0207A042817D104F10901012007F076FB86
S3150800370007F0E2FB40B30EE0207A03280BD1E37AF8
S31508003710A27A607A002107F013FCE8B103E0607A28
S3150800372007F07AFBC0B1362016E094F9090008F0D4
S315080037307CF90EE0657A04F10A0007F03EFB0146C3
S31508003740284608F0AEFA04E008F0A6FA01E008F008
S3150800375096FA002000E03720607031BD0020207006
S3150800376031BD10B50446DFF8300A007921785628AD
S315080037700CBF0120002001BBA1706178072910D178
S3150800378030B108F0ADFA012814BF632062200EE0BC
S31508003790E07862280CBF0120002008F0A4FAA07087
S315080037A009E0042909D1DFF8F41910B10878E070A6
S315080037B001E0E07808700120207010BD017809BB8F
S315080037C0817001210170417801290ED00C2909D098
S315080037D017290DD02D2902D034290CD010E0DFF896
S315080037E0C0190AE0DFF8BC1907E0DFF8BC1904E0E5
S315080037F0DFF8B81901E0DFF8B81909788180704751
S3150800380000210170704738B50446207800285AD13F
S31508003810012020700020A0706078012815D00C289F
S315080038200FD017283DD02D2802D0342844D048E0A0
S31508003830A18803293DDAC9B2DFF8640908F0C2FB9A
S3150800384038E0A088DFF85C1939E0DFF868090088F5
S3150800385028BBA08818B3DFF86059287808F0DCFD83
S3150800386009F029F980B1A188DFF83C09C9B208F046
S31508003870A9FBA07009F029F9DFF84009DFF840191B
S315080038800068401D086001E03820A070012008F09B
S3150800389058FD28700020DFF82C19088031BD382023
S315080038A008E0A08809F0D1F918B9A088DFF8FC1853
S315080038B005E03620A07031BDA088DFF8F41808703E
S315080038C031BD0020207031BD80B501208DF8000083
S315080038D06846FFF7E5F89DF8000002BD2DE9F04FB0
S315080038E0A7B009F017F909F025F9DFF8D0880446DA
S315080038F0D8F80000817800270225FF294FF0030930
S315080039002DD1C1780679042511F03F004FF005093D
S3150800391018BF492723D108060AD509F041FC28B162
S3150800392009F042FC123C0746E4B218E0482716E0C4
S3150800393009F03DFC002818BFCB2E0AD0CA2E18BFA6
S31508003940CC2E06D0CD2E18BF002E02D0AA2E18BF18
S31508003950482709F025FC00281CBFCC2E4A27D8F892
S315080039600000465D90F801A0DFF82C580AF0030124
S315080039708DF808102E71017869704844DFF84818E8
S315080039800860DFF83C1808604FEA5A1000F0030098
S31508003990687109F0D2FC380018BF582604D15FEACE
S315080039A00A6002D55826322078E2A87820B9287904
S315080039B010B15826302071E209F09CFF10B958263C
S315080039C042206BE2FFF780FF002800F06982287921
S315080039D0A978DFF8F8B7020093A70FF2502A4FF636
S315080039E0FF7971D0012800F0E881022800F0A9804B
S315080039F0032800F0FB80052834D0062800F0418112
S31508003A00092818BF0A2800F044810B2818BF0C287B
S31508003A1000F046810E2800F05A81122800F09F8196
S31508003A20132800F0CF81172800F0DF81262800F040
S31508003A30CF81272800F0D481472800F0C68149287D
S31508003A4000F035814E2800F06981522851D053285C
S31508003A5066D0552800F08D80562800F0A18065288C
S31508003A6027D0812800F002818F2800F0EB81912869
S31508003A7000F00382942800F0F281AA2800F0AC80B6
S31508003A80AB2800F0D580AC2800F0E780AD2800F020
S31508003A90E780AE2800F0E780CA2800F0B081CB287E
S31508003AA000F0B681CC2800F0C181CD2800F0C18194
S31508003AB0F12800F06F81F5281AD0F62800F0058164
S31508003AC0FC2800F09981E4E1FEF750FC0446062044
S31508003AD0FEF765FC0220FEF762FC46F21030FEF7A0
S31508003AE06AFCA878002808BF062C01D10120A87016
S31508003AF0D6E100F003FAFEF739FC8DF801006846B6
S31508003B00FEF7A7FF9DF8000028B937208DF80200B8
S31508003B100020ADF8040001AB0DF10202AFA157E099
S31508003B20012918BF382023D100F0E8F901AB0DF1BF
S31508003B300102AAA10120FEF76AFE6846FEF794FF75
S31508003B4025E03827012912D1611FC9B2052008F0DE
S31508003B50ECFF0446FF2C08BF352708D009F0DCFE29
S31508003B60002814BF00273627204608F055FC38469B
S31508003B7094E1042200F0C3F90DF103030DF10102EB
S31508003B8039460120FEF743FE6846FEF750FF9DF8CA
S31508003B90000010B937208DF802009DF802007DE17B
S31508003BA0042200F0ACF9FEF7E1FB8DF80100684647
S31508003BB0FEF73BFF9DF8000028B937208DF8020074
S31508003BC000208DF803000DF103030DF102023946BA
S31508003BD00020FEF71CFE63E100F08BF9FEF7C6FB3A
S31508003BE08DF80E0003A8FEF7FDFE0BE000F081F944
S31508003BF004AB0DF10E02CFA10120FEF708FE03A8C3
S31508003C00FEF7FFFE9DF80C0028B937208DF80D0049
S31508003C1000208DF8140000F065F90DF10D025146EB
S31508003C200020FEF7F4FD3BE175750000757562002E
S31508003C3000F05FF900F056F90DF10E025146012029
S31508003C40FEF7E5FD03A8FEF7DEFE9DF80C0000284A
S31508003C500CBF37209DF80D0020E1FEF7ABFA1FE1F7
S31508003C60FEF717FB1CE1FEF75BFB19E1062CFCDBF4
S31508003C70DFF84C05DFF8481500680019401F086092
S31508003C800EE1012000F03FF9002840F024810726C4
S31508003C9006E109280CBF0120002002F03BF9FFE0ED
S31508003CA00C280CBF0120002000F0D8F9F8E001210B
S31508003CB068460AF0E2FA28B10020FEF770FBBDF864
S31508003CC000008FE03620FEF76AFB00208AE0FEF748
S31508003CD04DFB8246FEF776FB8146FEF747FB074615
S31508003CE0FEF744FB0446B9F5004FB4BF042F702015
S31508003CF011DABAF1020F0FDA0BEBCA0A3A46DAF80A
S31508003D00000049460AF066FBAAF8049004B90027A1
S31508003D108AF806700020C1E07020BFE0FEF726FB97
S31508003D20814600240020B9F1020FADF802008DF893
S31508003D3000000BDA5BF839006A460DF102010AF059
S31508003D4059FB0BEBC900807900B10124BDF80200CC
S31508003D50FEF731FB9DF80000FEF721FB7DE0FEF73C
S31508003D6005FB040018BF01240AF076FB07463A460D
S31508003D70FF2A08BF182024D0002C14BF484602206A
S31508003D80B5A10AF0ABFB0020FEF709FB384608F0A0
S31508003D9043FB85E04FF00009DFF8344434F8190096
S31508003DA0FEF709FB09F10109B9F1280FF6DB2879B5
S31508003DB0652875D107F063FF72E0FEF7D7FA0AF0B7
S31508003DC0DFFC6BE009F0A5FD6AE009F099FD67E004
S31508003DD0DFF800140820FEF70DFB61E07576000099
S31508003DE00AF0BEFEFEF7E7FA5AE06846FEF78BFBD6
S31508003DF0684603F05BFB51E00BF072F84EE000F00A
S31508003E006DF8FEF7EFFA014603A80BF083F845E0D4
S31508003E10FEF7ACFA044607A900F061F803AA07A959
S31508003E2020460BF079F8FEF7BAFA21E00BF076F89F
S31508003E3034E068460BF074F8FEF7B1FA0098FEF71E
S31508003E40CAFA2DE00BF09AF80124484505D0FEF78A
S31508003E508DFADFF884130024087020461EE000F06F
S31508003E603DF807A900F03BF807A903A80BF0CCF822
S31508003E7003A91020FEF7BEFA12E00BF07FF8FEF752
S31508003E809AFA0420FEF78BFA0320FEF788FA032035
S31508003E9004E0FEF715FE18B958263120FEF77FFA1A
S31508003EA0D8F8001068780870D8F8000081780029DA
S31508003EB002BF29780029867004D0FF218170D8F8BE
S31508003EC000000671072E0CBF012200229DF808008B
S31508003ED0012100F031F827B0BDE8F08F03A91020C2
S31508003EE0FEF74BBA05A8019005AB0DF11500009039
S31508003EF070478C22002103A8FEF719BD062200216F
S31508003F006846FEF714BD38B5AA4D0446288810B190
S31508003F1008F018FE08B9002032BD288808B908F04C
S31508003F2002FEAE4800780122214600F005F801207D
S31508003F3032BD0000757700002DE9F84F9F4F044603
S31508003F40386888468178934602254FF00309FF2989
S31508003F509B49096804BF04254FF005090E1A09F0A4
S31508003F601FF90028B6B21EBF3868405DCC281CBFB2
S31508003F701236B6B25FEA0B0004D038684078C0F350
S31508003F80411A02E009F0D5F98246854909788A4539
S31508003F9005D340F243410FF250200BF041F84FEAA7
S31508003FA04A1040F08000DD2E5FFA80FA05DBDC203F
S31508003FB008F0C4FD4AF0020A02E0F0B208F0BEFDBD
S31508003FC07549C87818B100204AF0020AC8708448B2
S31508003FD002781AB100224AF0010A0270754E30883A
S31508003FE008B14AF0040A38681BEA080F18BF4AF0F5
S31508003FF0080A80F801A03868807810B9012008708E
S315080040000FE009F0CDF800281EBF3868415DCC29BD
S3150800401004D08021C17009F0C5F802E03968002093
S31508004020C87009F0C4F848B13868415DCB2901BFAA
S3150800403010F809000028022009F0B8F8012C18BF6A
S31508004040022C02D1308800B100246448047040462E
S31508004050BDE8F24F08F055BD620000002DE9F041B9
S315080040609AB00446FEF782F90546062D13D1002CB0
S3150800407039D12820FEF793F95A48018802232246A7
S3150800408001A80BF001F9BDF80400FEF794F9641CC9
S31508004090142CF1DB79E0082D1DD124BB4020FEF756
S315080040A07EF9042322460E2168460BF0EDF89DF8AA
S315080040B00000FEF774F99DF80100FEF770F99DF807
S315080040C00200FEF76CF99DF80300FEF768F9641C18
S315080040D0102CE6DB59E00B2D01D124B952E0200063
S315080040E003D0092D01D170204DE000260FF20C10E7
S315080040F000EBC6073878854230D197F80180200052
S3150800410004BF4046FEF74BF978680188434600220B
S3150800411002A80BF0B9F8200027D0FEF727F997F880
S315080041200180404501D002202DE0002000E0401C1F
S31508004130C1B2414502A905D2C0B2095CFF29F6D031
S31508004140462020E04046FEF718F97868008842467F
S3150800415002A90BF02AF90020FEF721F9761CF6B21F
S315080041600A2EC3D374B1B1200DE0092D05D115224D
S3150800417000210DF14E00FEF7DAFB787802A9FEF76A
S3150800418039F902E00020FEF70AF91AB0BDE8F08115
S315080041907C560208AD230020A82F0020C823002043
S315080041A0B4230020A02F0020AC230020AE2F00202F
S315080041B0B6230020BE280020E5230020EC2A002094
S315080041C04C280020BC280020482800202C2300204A
S315080041D0042B0020F02A0020E6230020D02F002000
S315080041E0BA280020AE560208636F6D6D616E642DA5
S315080041F068616E646C6572732E63000001100000BE
S31508004200A256020802100000A45602080302000083
S31508004210A656020805100000AA560208070800005C
S31508004220AC560208000200009E560208040200006E
S31508004230A8560208095C0000B05602080A140000D5
S31508004240B25602080C080000A05602082DE9F84FDD
S3150800425080460D46DFF8140C0A99067801247E2953
S3150800426091469A46A8BF742043DA080003D00B98F3
S3150800427008F055F901E000F0C5F883460C9FBBF13C
S31508004280FF0F03D100201824387031E0342E06D0F1
S31508004290362E0ED0382E13D0962E18D01AE05B463E
S315080042A04A462946404602F051F8044602F089FD7E
S315080042B010E05B4642464946284602F0A7F808E061
S315080042C05B46EAB24146484602F01BF901E00BF0AC
S315080042D028FD0446962E1CBF99F80A00387024B9A2
S315080042E0DFF88C0B006800F80BA0584608F094F825
S315080042F02046BDE8F28F10B584B0089C0294079C4E
S315080043000194069C009407E010B584B00446104654
S3150800431000F00FF80A462146FFF798FF04B010BDD3
S3150800432010B5044684B00846114600F002F8224645
S31508004330F2E7089A0292079A0192069A0092704743
S31508004340E0B500220191009002920023002100208E
S31508004350FFF77CFF0EBD2DE9F04683B00D460C999C
S315080043600746080091469A4603D00D9808F0D7F8F4
S3150800437001E000F047F804460E9EFF2C03D100200A
S31508004380182530700BE00A980190CDF800A0234656
S315080043904A462946384602F099F800F027F822E0FE
S315080043A02DE9F04683B089460C99054608009246E1
S315080043B01F4603D00D9808F0B2F801E000F022F885
S315080043C004460E9EFF2C03D10020182530700AE003
S315080043D00A98009001943B4652464946284602F000
S315080043E037F800F003F82846BDE8FE860500B87AD7
S315080043F0307004D1DFF8781A09680B9808552046FA
S3150800440008F00AB8002008F069B838B5DFF8644A39
S315080044102080C888440606D5DFF85C4A2478202C14
S3150800442003D1000401D4702032BDDFF8504A1000D1
S31508004430216004D01146184608F071F801E0FFF72C
S31508004440E1FF0546FF2D08BF18240AD020684088DA
S31508004450294602F058FA044602F0B3FC284607F04B
S31508004460DBFF204632BD02F02CBC0BF081BD0BF001
S315080044707BBD2DE9F041069F0D4604461646984633
S3150800448039460BF0F7FD20460BF00CFE079908801D
S3150800449038460BF016FF08990870294620460BF097
S315080044A07FFD074638B9314620460BF0B7FD414631
S315080044B028460BF024FF3846BDE8F081DFF8C039FE
S315080044C01B78984201D370207047DFF8B829126824
S315080044D032F820300B8002EB80008078887000204C
S315080044E07047DFF89C391B78984201D370207047D3
S315080044F0DFF8902912680B8822F8203002EB80003A
S31508004500897881700020704730B585B00C4604F074
S31508004510F0F805460020207310230722694601207B
S3150800452006F035FD082202A92046FEF7BDF9BDF8BA
S315080045300000208104F114019DF80200A0729DF884
S315080045400300E07204F110000BF032FFE08105B0C1
S31508004550284630BD38B504460D460AF0E3FB014649
S3150800456008222046FEF7A0F90AF0D8FB2880DFF8D3
S315080045701809007832BD0CF0F1BAFF2203F013B81F
S3150800458070B5A2B00D460446694604F0ADF90600BA
S3150800459004D12A4669462046FEF71EF9304622B05F
S315080045A070BD10B504462078002841D1012020723C
S315080045B02070A078401E0BD0401E07D0801F07D061
S315080045C0401F05D0401F022802D903E002202072AE
S315080045D000206070A07801280CD0022814D0082882
S315080045E00CD00D280DD0122817D0132817D0142850
S315080045F018D01BE0DFF89408007815E002F02BFDD0
S3150800460012E00DF047F80FE0DFF88408018804F19E
S315080046100900BDE8104006F0D7BBFF2004E002F011
S31508004620BCFF01E00DF0DEF9607210BD00202070BD
S3150800463010BD10B5044682B0207858BB0120207002
S3150800464000206070A07818B1022819D00BD31FE09B
S3150800465061686A46C9B209F0C5F96070022020721D
S3150800466004F1090007E00320207268460DF085FB77
S31508004670607204F10A00BDF8001006F0A5FB13BD30
S3150800468001202072606880B202F02BFB607213BDB5
S315080046900020207013BDF0B5044687B020780028A6
S315080046A040F01A8101202070A078010027D0012847
S315080046B049D002284ED0052818BF062852D0082807
S315080046C000F0FB8009285BD00A2800F07E800B28C2
S315080046D000F080800C2800F0C4800F2800F0C58008
S315080046E0232818BF242800F0CD80252800F0DB8079
S315080046F0292800F0E480342800F0E380EAE0207AF4
S31508004700102860D100F0EAF8ADF80400082294F900
S315080047100B008DF8060004F11001207B8DF80700C8
S31508004720607B8DF80800A07B8DF80900E07BADF86A
S315080047300A0003A8FEF7B8F81023072201A90020EB
S3150800474006F025FCC3E0207A01283CD1607ADFF820
S315080047503C17BBE0207A022835D100F0BFF8DFF815
S3150800476030170BE0207A02282DD100F0B7F8A1788F
S3150800477005290CBFDFF81C17DFF81C170880A6E010
S31508004780DFF818070568207A46080DB9DEB99EE0F5
S31508004790DFF80C070078B04215DB002707E004EBCA
S315080047A04700093006F009FB25F817007F1CB742B9
S315080047B0F5DB4FF4004725F8167028460DF033FD53
S315080047C0002801D02F80362082E000F087F80DF00F
S315080047D010FF7CE000F082F8DFF8C8261268527BEA
S315080047E005464FF6F87122B9884202DA0AF0BCF992
S315080047F06DE02A002FD088422DDA0AF0B1F98542F9
S3150800480029D028460EF0D9FD28BB05A928460BF065
S31508004810F2FC00BB28460FF041FBE0B928460FF032
S3150800482063FCC0B928460FF072FEA0B928460CF002
S31508004830D8F980B9284610F04CFC60B928460AF029
S3150800484093F999231322A1A1032010F0ABFC992018
S3150800485010F0C2FD3BE00AF083F9854237D03820D4
S3150800486036E0607ADFF8401630E0657A04F10A002F
S3150800487006F0A3FAADF800006A462946012009F0B9
S31508004880B1F825E0217A042912D123280CBF032583
S31508004890012504F10901012006F0A8FA0146284677
S315080048A010F028FE14E0607A032818BF042801D007
S315080048B002200DE003F0CEFD09E0372008E0702065
S315080048C006E0607A00B10120DFF8E01508700020E4
S315080048D0607001E00020207007B0F0BD04F1090007
S315080048E006F06BBA10B50446DFF880050078217823
S315080048F056280CBF0120002009BBA170DFF87825D7
S315080049006178032905D108B150780FE0E078507036
S3150800491013E0022905D108B1107807E0E078107095
S315080049200BE009290BD118B103F09DFFE07004E0F4
S31508004930E07800B1012003F08AFF0120207010BD45
S31508004940017801B1704730B5817001210170417855
S31508004950052908D0122915D018290CD01F2914D0DA
S31508004960382915D018E0DFF84815DFF84825097802
S315080049701278891A24E0DFF840150A78511E894111
S31508004980C90F1DE0DFF8341504E0DFF8341501E03F
S31508004990DFF83015098813E000220FF2645300E0AF
S315080049A0521CD2B214461D5DFF2D02D100210170A2
S315080049B030BD8D42F4D10FF2645151F824100978B4
S315080049C0818030BD70B50446207800287BD101204F
S315080049D0207000206278A070052A0AD0122A2CD0EE
S315080049E0182A1FD0192A04D01F2A22D0382A2FD0D5
S315080049F033E0DFF8C0040578DFF8B40401784E1B0D
S31508004A00A188052A0CBF0E460D46A919C9B207F09A
S31508004A10D9FA0028A07056D1E9B2F0B2BDE87040C4
S31508004A2010F0D0BFA188481E8041C00FDFF8881457
S31508004A303FE0A088DFF888140DE0A18847F23150DE
S31508004A408142A8BF36203BDADFF87004018070BDCA
S31508004A50A088DFF87014088070BD0FF2A44100E04A
S31508004A60401CC0B20346CD5CFF2D02D10020207049
S31508004A7070BD9542F4D1A188022B08DADFF8480404
S31508004A8050F823000078884238BF362018D30FF232
S31508004A908C4050F82300092B0DDAC9B207F092FAB8
S31508004AA0A070002804BF607811280CD1A088DFF810
S31508004AB01C14087070BD342A04D1C9B207F082FAF2
S31508004AC0A07070BD017070BD000000004242000079
S31508004AD0F8B504460D461146184607F020FD182677
S31508004AE00746FF2F08D03A462946204611F0BEFA57
S31508004AF00646384607F090FC3046F2BD38B50446FF
S31508004B000D462188284606F05FF96188A81C06F03C
S31508004B105BF92079287160796871A81DE18806F02B
S31508004B2053F9218905F1080006F04EF9A07AA87212
S31508004B3031BD10B586B004461B208DF80000A0785C
S31508004B408DF801000DF10200218806F03DF90822D2
S31508004B50211D01A8FDF7A8FEE1788DF80C10217B30
S31508004B608DF80D10607B8DF80E000DF10F0000F02A
S31508004B70BEF9112100F01FF906B010BD80B51C2240
S31508004B808DF801008DF802108DF80020D9E02DE986
S31508004B90F04788B007460D46144611F0DDFA8246FE
S31508004BA022462946384608F0A9FE002863D10DF1A9
S31508004BB0090011F0D9FA30B962208DF808000921E8
S31508004BC002A810F024FBFF2C0FBF0026C049096875
S31508004BD00E5D45208DF808008DF809700DF10A0163
S31508004BE02846FFF78BFF0DF1150000F080F95146B6
S31508004BF00DF1170006F0E8F801F0AAFE8DF8190085
S31508004C000027B448DFF8AC820568DFF8A49201E013
S31508004C107F1C0C3599F8000098F80010FFB2401A6E
S31508004C2087420ADA28885045F2D108F0A9FBA97A02
S31508004C30C1F342018142EBD100E0FF278DF81A70DB
S31508004C408DF81B60504602F04CF88DF8040000B150
S31508004C500120009001AB2246142102A810F0DFFAC9
S31508004C6000281EBF84480078212804D19A48017874
S31508004C7041F00401017008B0BDE8F0872DE9F04362
S31508004C800746934800681D4687B0465D0E9C8846D1
S31508004C9091462146384601F0D4F93F208DF80400A4
S31508004CA08DF8057041460DF1060006F08DF802A94B
S31508004CB04846FFF723FF6E480068405D8DF81300ED
S31508004CC08DF8144085480078402804BF0026FF2543
S31508004CD0002000908DF8156000232A46122101A8AD
S31508004CE010F09DFA07B0BDE8F08330B589B00D46DF
S31508004CF0044604A90BF032FF23208DF800008DF836
S31508004D0001408DF802500DF10300BDF81A1006F0A7
S31508004D105BF8082204A90DF10500FDF7C5FD9DF80D
S31508004D2018008DF80D000E2100F045F809B030BDC9
S31508004D3080B57C218DF8001001460DF1010006F0C2
S31508004D4043F80321684610F062FA01BD70B586B0D3
S31508004D5004467D208DF800000D46164621460DF1C5
S31508004D60010006F031F8082229460DF10300FDF787
S31508004D709BFD8DF80B600C2100F01DF803A811F0BF
S31508004D80F3F918B903A9204610F022FE06B070BD43
S31508004D9038B504460D4601F033F980208DF8000039
S31508004DA08DF8014029460DF1020006F00DF80421A0
S31508004DB000F001F831BD684610F029BA10B584B084
S31508004DC0044646208DF8040001A8217841706178D0
S31508004DD081700DF1070000F08AF83D48A178006857
S31508004DE0405C8DF809000023002000900621A27877
S31508004DF001A810F014FA1FBD80B598208DF80000A0
S31508004E008DF80110684602219DE71FB50C469221D0
S31508004E108DF80410082201460DF10500FDF744FD42
S31508004E200DF10D0000F063F829480068005D8DF863
S31508004E300F0000230020009022460C21D8E7244AC0
S31508004E4000B5126883B0125C8DF8051093238DF8AF
S31508004E50062000218DF80430009102460023032124
S31508004E6001A810F0DCF907BD00000000AC2F0020F7
S31508004E70702C00208A2C0020D02300208C2C0020A7
S31508004E80B2230020C4210020D52F0020E12F0020C6
S31508004E90A22300208623002088230020C02C00207F
S31508004EA06C2C0020A02A0020742E0020F12300205C
S31508004EB0BA230020DD2F0020AE2300207423002013
S31508004EC07023002080230020BC220020BF2300205E
S31508004ED094210020F8210020882C0020C8230020D7
S31508004EE080B50BF051F8BDE8014011F057B910B57F
S31508004EF0044611F02AF9601CBDE8104011F027B9E4
S31508004F001102030607081A2B2C1910131B1C1D2047
S31508004F1021222A2E33343537FF000000AF23002024
S31508004F20B5230020BB230020B2230020B023002095
S31508004F30B1230020992F0020B32300206C2C0020D9
S31508004F40DD2F0020C0230020C1230020C22300201B
S31508004F50BC2300209B2F00201D230020C3230020F4
S31508004F60C42300209F2F0020A22F0020EC2300201E
S31508004F70B62300207B2C0020EB23002038B50446FE
S31508004F800029104601461A46204602D012F07FFD37
S31508004F9001E012F04DFD0546002C1EBF04980028BE
S31508004FA0A04203D02146142212F0CEFD284632BD77
S31508004FB00246022000291CBF104612F0F1BD7047B8
S31508004FC00246022000291CBF104612F080BE704718
S31508004FD01CB504460020ADF800002078F8B9022078
S31508004FE02072A0780A280AD0102810D101A813F038
S31508004FF0DEF86070BDF80400ADF8000004E000209B
S31508005000607068460DF00FFB0120207001E02078E3
S3150800501028B1BDF8001004F1090005F0D5FE13BD4E
S3150800502038B504462078002804BFA078102812D185
S3150800503004F10901012005F0D9FE054604F10D0029
S3150800504005F0BBFEADF800006946284613F084F863
S3150800505060700120207031BD7B4909780278562995
S315080050600CBF012100212ABB8270012202704278FE
S31508005070130006D1754A09B1117811E0C07810708D
S315080050807047052A05D1724A61B1117841F050017D
S3150800509006E0062A0CD16F4A21B1117841F0600169
S315080050A0C1707047C17801F00F01C1701170704767
S315080050B000210170704710B504462078B8B900F091
S315080050C045F806D01E2807D0242807D0362808D049
S315080050D00BE009F02BFE06E05F4800E05F48007829
S315080050E001E05F480088A08010BD0020207010BD38
S315080050F010B50446207840BB00F028F806D01E28D4
S315080051000AD0242812D0362819D01CE0A088BDE879
S315080051101040C0B209F00EBE5248A18800788842F5
S315080051200AD3C9B24C4806F04DFF06E0A1880B2900
S3150800513002DA4A48017010BD3620A07010BDA0885A
S315080051404749088010BD0020207010BD012020703E
S315080051500020A07060780D28704700002DE9F04FF8
S315080051601646012E93B0804689469A4612D10124E6
S31508005170002506A80DF062FA022755EA0401DFF8B1
S31508005180CCB005D058B9BDF81800800707D535B199
S31508005190032716E00024032EEAD10125E9E79BF848
S315080051A0000006280BD8DFE800F00407060A0942C3
S315080051B04500012705E085B1002702E02746022FB2
S315080051C00BD009F0CDFC824507D0514640460AF07F
S315080051D0A2FE4946404610F0FBFB019753469BF852
S315080051E000000090324649464046FDF762FC0446F8
S315080051F024208DF8080041460DF1090005F0E4FD6C
S31508005200082249460DF10B00FDF74EFB8DF8136099
S315080052108DF8144051460DF1150005F0D5FD0F2106
S3150800522002A80FF0F4FF204613B0BDE8F08F002D5A
S31508005230C2D0ADE7002CD0D009A9484612F047FDE8
S315080052400028CAD1B8E70000AC2F0020CD230020E3
S315080052509D2F0020BD2300209C2F0020A12F002079
S3150800526072230020C256020880B56E218DF8001000
S315080052708DF80100022168460FF0C9FF01BD10B57F
S3150800528084B00C469B218DF80010082201460DF1CA
S315080052900100FDF709FB8DF809400A2168460FF061
S315080052A0B6FF1FBDF0B583B010F8014B0E46174682
S315080052B0214607F034F90546FF2D03D10E49012092
S315080052C00870F7BD8E208DF804008DF80560002063
S315080052D000908DF806708DF8074000232A460421B1
S315080052E001A80FF09CFF284607F096F8F7BD00B115
S315080052F0024812F09DBF0000BA280020A5520008F7
S3150800530000B58028A1B0A8BF02200ADA8DF80000EF
S3150800531002460DF10100FDF7C7FA0021684613F0B1
S315080053202DF821B000BD10B504462078002804BF2A
S31508005330A07833280FD10120207009B1002004E09D
S31508005340607A13F073F800B136206070012020727D
S3150800535013F07CF8607210BD0121E4E70021E2E752
S3150800536030B58BB004460D462A22FF216846FDF764
S31508005370DEFA2146284607F0D2F80446FF2C08BF75
S31508005380182505D013F07EF80546204607F044F8A0
S3150800539028460BB030BD10B54E4C2178FF29A8B071
S315080053A008BF702020D0002000904A2300220AA8B7
S315080053B007F0D1F800200090252321784A221DA85D
S315080053C007F0C9F800200090242321786F2201A84D
S315080053D007F0C1F8207807F01FF8FF20207001AA0F
S315080053E00AA91DA813F05BF828B010BDF8B5394F07
S315080053F004463878FF280D46164608D19321002022
S3150800540007F08DF8FF28387001D13520F2BD01204C
S315080054100090334639782A46204607F09CF8002043
S31508005420F2BD10B50446A6B0207860BB01202070F6
S31508005430A0781A2804D024D31C2815D00AD320E033
S315080054404A2204F1090113A8FDF72EFA4A2200217F
S3150800545013A812E0252204F1090109A8FDF724FA88
S3150800546025224A2109A808E0242204F109016846F0
S31508005470FDF71AFA24226F216846FFF7B7FF607016
S3150800548001E00020207026B010BD0178002904BF75
S31508005490417829290CD110490978522904D10F4994
S315080054A009788180002100E038218170012101708E
S315080054B0704710B5074C2078FF281FBF06490978A2
S315080054C0AB29ED2903D006F0A7FFFF20207010BDF9
S315080054D000000000CF230020AC2F00209E2F0020C4
S315080054E011B1012903D004E0114604F034BB04F0DD
S315080054F083BB0220704710B504462078002804BFF5
S31508005500607808280ED114480078562803D104F08C
S31508005510DAFFE07002E0E07804F0D8FF0020A0701F
S315080055200120207010BD0178A1B941782F2908BF44
S315080055300A4902D030290DD1094959B1064A1278CB
S31508005540522A07BF0978818082880A7000218170F3
S315080055500121017070470000AC2F0020C6230020EF
S31508005560C723002030B58FB005460C463B220021E4
S315080055706846FDF7DCF9B6208DF800000DF101014B
S31508005580284600F076F8DCB100218DF829100822AB
S3150800559021460DF12A00FDF787F90DF12905207A34
S315080055A068720DF13300618905F00EFCA1890DF1D1
S315080055B0350005F009FCA07BA873E07BE87302E0E0
S315080055C001218DF829100DF13900FFF790FC3B21D8
S315080055D000F00CF80FB030BD80B5B7218DF800107B
S315080055E08DF80100022100F001F801BD68460FF0B0
S315080055F00EBE10B586B00446B8208DF800000DF131
S315080056000100218805F0E0FB61880DF1030005F033
S31508005610DBFBA1880DF1050005F0D6FBE1880DF14D
S31508005620070005F0D1FB21890DF1090005F0CCFB37
S3150800563061890DF10B0005F0C7FBA1890DF10D007D
S3150800564005F0C2FB0DF10F00FFF751FC1121FFF722
S31508005650CDFF06B010BD00B58BB0BB218DF800108C
S315080056600DF1010100F005F82921FFF7BFFF0BB086
S3150800567000BD38B504460D46A0782870681C2188F8
S3150800568005F0A2FB0822211DE81CFDF70DF9E078BC
S31508005690E87205F10E01207B2873607B6873012090
S315080056A0226905F095FB626905F11201012005F0F2
S315080056B08FFB218B05F1160005F086FB082204F105
S315080056C01C0105F11800FDF7EFF8A18C05F1200083
S315080056D005F07AFBE18C05F1220005F075FB04F173
S315080056E0280105F124000A7802704A7842708A78FF
S315080056F08270C978C17031BDF8B5BE4D04462868B8
S3150800570000792B38022801D90D382ED1FCF72EFE48
S3150800571006462868B849401D0860002131200FF068
S315080057203EFE05464FF6FF770BE005F10D0080B209
S315080057300FF062FDB04213D0294631200FF02FFE3C
S315080057400546BD42F1D1002100E0294632200FF07E
S3150800575026FE0546BD4208D00FF04EFDB042F4D1F4
S31508005760A420FCF71CFE00202070F1BD38B50446C5
S31508005770002100E029463F200FF011FE05464FF6AE
S31508005780FF7085420CD028460FF036FD0228F1D16D
S31508005790681C80B20FF030FDA042EBD1012032BD6B
S315080057A0002032BD2DE9F8438046002145200FF040
S315080057B0F6FD4FF000090446904D4FF6FF7609E0D6
S315080057C0FF21B8B20FF01DFDA1B245200FF0E7FD8D
S315080057D0A1460446B44224D004F11007B8B20FF02B
S315080057E00BFD4045F0D120460FF006FD022818BFF4
S315080057F00328E5D1A41FA0B20FF0FEFC01462888B5
S31508005800401A32187E482A800919121B92B200786B
S3150800581000924B1C9BB20246A1B207F095F84C4683
S31508005820D2E7BDE8F183F0B5764F3D788BB00646F2
S3150800583007F0A6FD07F081FD734800788C2411282F
S3150800584006D0122832D17188707808F00EF968B33C
S31508005850707804A908F0A8F880B1BDF8100040F2E5
S315080058600911884204BF7088B0F5006F06D1701D13
S3150800587012F020FEB52801D0C0B912E0002500E0DC
S315080058806D1C3978E8B2884210D206A900F09FF953
S315080058909DF818000028F3D13146E8B200F0A2F9C5
S315080058A008B9002402E0752808BF8B2431208DF83A
S315080058B0000030788DF8010070788DF802000DF13F
S315080058C00300718805F080FA30798DF80500082202
S315080058D0711D0DF10600FCF7E7FF8DF80E508DF8E7
S315080058E00F40102168460FF092FC20460BB0F0BD21
S315080058F038B5054607F044FD07F01FFD4248007815
S315080059008824112818BF122810D12846FFF72EFF21
S3150800591050B9284600F0B1F920B92846FFF742FFEA
S31508005920002404E0752802D18B2400E08D2432205F
S315080059308DF800008DF801508DF802400321684665
S315080059400FF065FC204632BD38B504460D46FFF714
S315080059500DFF08B1752511E03DB107F0EAFC687343
S315080059602946204600F03EF902E0204600F085F977
S315080059700546280004BF2046FFF714FF284632BD17
S31508005980E2E70021E0E721490978027856290CBFA9
S3150800599001210021002A04BF4278012A0AD11A4AA5
S315080059A0002919BF1178C170C17811700021817062
S315080059B001210170704710B504462078002804BFFD
S315080059C06078042814D111490E480978522903D160
S315080059D00078A080002008E00D4AA18812788A4243
S315080059E032BF3620C9B206F0EDFAA0700120207049
S315080059F010BD0000EC2A002048280020BE28002000
S31508005A00E52300209A2F0020CE230020AC2F00206B
S31508005A10C05602081FB50C4602460D2317216846D4
S31508005A2009F032FC0D2269462046FCF73DFF207836
S31508005A3040096073207800F01F0020701FBD30B544
S31508005A4085B004460D460D226846FCF72DFF9DF8E5
S31508005A500000697B40EA41108DF800000D236A4674
S31508005A602146172009F037FC05B030BD2DE9FF4166
S31508005A70044600F05FF814E03068EDB2A84630F846
S31508005A801800A0420CD16946284600F0A0F89DF8F7
S31508005A900000022804D031684FF6FD7021F818007E
S31508005AA06D1CE8B239788842E6D3BDE8FF812DE956
S31508005AB0F04588464FF6FF7AD04585B0044605D1AD
S31508005AC000F0DBF910B909F04BF830E000F032F8D5
S31508005AD00CE0D04508D0306830F81510414504BFB1
S31508005AE04FF6FD7120F815106D1CEDB23878854219
S31508005AF01CDA306830F8150000F018F9F4DA69464F
S31508005B002846FFF787FF082221460DF10500FCF716
S31508005B1015FF0028DDD13068D04502D130F81500D0
S31508005B2005E020F8158012F0F6FCDDE7504605B0D2
S31508005B30BDE8F0850025DFF8CC63DFF8CC73704745
S31508005B402DE9FF47804689460026DFF8C073DFF84F
S31508005B50B443DFF8B45316E02068F6B2B24630F81C
S31508005B601A0000F0E3F80DDA69463046FFF752FFEF
S31508005B70082241460DF10500FCF7E0FE10B9386829
S31508005B8000F80A90761CF0B229788842E4D3BDE87A
S31508005B90FF87DFF87013096831F8100070471FB5E2
S31508005BA0DFF86423127890420C460FD2D54909686B
S31508005BB031F810104FF6FE72914207DA694600F086
S31508005BC006F821460DF10500FFF771FF1FBD80B5E8
S31508005BD0CD4B1B78984201D3692002BDFFF71AFF07
S31508005BE0002002BD70B504460D4623460022B6A124
S31508005BF003200FF0D7FA28780028204602D1BDE8FE
S31508005C0070403AE0C0490978884201D3692070BDDE
S31508005C1013F09AF808B1752070BD07F067FB687332
S31508005C20681D0AF04EFB06464FF6FF71681DFFF722
S31508005C303EFF024629783346204600F006F82946F4
S31508005C402046FFF7FCFE002070BD30B54FF6FF7406
S31508005C500D0008BF224608D0032908BF4FF6FE727A
S31508005C6003D0A24208BF4FF6FD72A649096821F87B
S31508005C701020A64909680B5430BD30B505462C4698
S31508005C8085B02346012290A103200FF08BFA9E4986
S31508005C9009782846884228BF692019D213F054F893
S31508005CA008B1752014E069462846FFF7B3FE9DF84B
S31508005CB0000030B100208DF8000069462846FFF73D
S31508005CC0BEFE904909684FF6FF7021F814000020BF
S31508005CD005B030BDF0B585B007460C46894D8A4EED
S31508005CE000E07F1C3178F8B288421CD22868FFB2DF
S31508005CF030F8170000F01AF8F3D169463846FFF76E
S31508005D0089FE9DF80500E1B2884204BF9DF8061099
S31508005D10B1EB142FE5D107F0E9FA9DF80D10814291
S31508005D20DFD1384600E0FF2005B0F0BD4FF6FE7122
S31508005D30884270472DE9F14F84B00D460E9C714F8D
S31508005D40DFF8C4A190469946002607E03868BDF8F2
S31508005D50101030F81B0088422CD0761C9AF80010D8
S31508005D60F0B2884228D23868F6B2B34630F81B003B
S31508005D70FFF7DCFFF1DA69463046FFF74BFE5FEACC
S31508005D80080007D19DF80100484504BF9DF80400A6
S31508005D90A042E2D107F0AAFA9DF80D108142DCD1A3
S31508005DA0002DD3D008220DF105012846FCF7C6FDC3
S31508005DB00028D2D1304600E0FF2005B0BDE8F08FBC
S31508005DC010B51446FFF726FE2046BDE81040082207
S31508005DD04F49FCF769BD2DE9FF47804608469146BD
S31508005DE01E4600F04AF808B1002043E00027454C5B
S31508005DF0454D00E07F1C2978F8B2884226D22068F3
S31508005E00FFB2BA4630F81A004FF6FF718842F1D051
S31508005E1069463846FFF7FEFD0C220DF1010108F12F
S31508005E200100FCF78BFD0028E4D1BAF1FF0F0FD172
S31508005E30002507F07CFA0C9CB9F1000F0AD0002D5A
S31508005E4012BF00204046FFF7EEFC08E0FF27EFE709
S31508005E500125EEE7002D384604D0FFF749FD2070EE
S31508005E60012003E0FFF744FD20700020307007F0A2
S31508005E7019FA012004B0BDE8F08708222449FCF786
S31508005E805DBD30B585B000241F4D16E06946FFF7A5
S31508005E90C1FD9DF80000042806DB00208DF80000EF
S31508005EA06946E0B2FFF7CBFD9DF8001000234FF6D8
S31508005EB0FF72E0B2FFF7C9FE641C2978E0B2884297
S31508005EC0E4D305B030BD00004242000030B585B0CD
S31508005ED002220BA103200FF065F900208DF80000BF
S31508005EE00024094D03E06946FFF7A9FD641C2978DB
S31508005EF0E0B28842F7D3FFF7C4FF002005B030BDF3
S31508005F0042000000EC2100209A2F0020F0210020FA
S31508005F10F02A002030B583B00446FCF727FA054678
S31508005F20202D1ADA5CB169460820FCF726FA082300
S31508005F306A462946222009F0CEF900200EE00823F9
S31508005F402A462221684609F09FF90020FCF727FA1D
S31508005F5069460820FCF74EFA37BD7020FCF71FFA91
S31508005F6037BD704770B55D4D6E8A044605F1080069
S31508005F7012F059FF012C08BFAE8A02D0022C08BFC6
S31508005F80022618B1FA217143884206D3310205F177
S31508005F900800BDE8704012F039BF70BD7CB54F4CA3
S31508005FA00020E07020714FF6F972208A90421CBFDB
S31508005FB04FF6F872904202D00020207273BD6179C4
S31508005FC0474E4FF6FD7589B14FF6FC7001900023D8
S31508005FD0002000900022308800210BF03AF90020BA
S31508005FE0607135800120BDE87640BBE7A17810F0E6
S31508005FF0CDFA3088A842F5D0012060710220F2E778
S3150800600010B500F039F81CBF4FF6F874A34217D143
S31508006010A92818BFAA2813D1D0781378401CD070A5
S31508006020C0B298420CD32E4803884FF6FD74A3429B
S3150800603002D10180002050710020BDE8104091E790
S3150800604010BD10B500F018F81CBF4FF6F874A3423F
S3150800605011D103001CBF012802280CD166290AD1D8
S3150800606010795178401C1071C0B2884203D3BDE83C
S315080060701040002076E710BD184A138A4FF6F974C7
S31508006080A342704710B5154C2182920002992170DF
S315080060909B0003996282A38261709BB20499A170E6
S315080060A092B293420AD301001EBF218A4FF6F872B4
S315080060B091421CBF4FF6F972914201D0702010BD73
S315080060C0002161714FF6FD71054A118018B1012052
S315080060D0FFF748FF00E02072002010BDA42800202A
S315080060E0782300202DE9F54F8BB08B460C98169C2B
S315080060F01799ADF804B00026C0889A460746B046F8
S31508006100B14649B9F90607D50C9A9DF82C000094B2
S31508006110594612F0B9F916E1790548BF4FF4805887
S31508006120390548BF48F40068B90548BF48F08008F3
S3150800613003D4F90548BF48F040089DF82C10029191
S315080061405D469DF82C1003910A2966D8DFE801F010
S31508006150082F1B3C65653C06083C18004FF00209F1
S31508006160BDF80420CDF800A0334648F40271204655
S315080061700BF08EFB8246BAF1FF0F50D11820E2E0F1
S315080061804FF00309ECE706A95FFA8BF0FFF71FFD4E
S3150800619008220DF11D0104A8FCF786FBDFF8A80804
S315080061A0006830F8150004AEADF80400D8E704A975
S315080061B05FFA8BF009F05EFFDFF8900800680C21A3
S315080061C0694304AE405AEFE74FF6F8718D4224DB77
S315080061D04FF40261084220D100F012F918BF91204D
S315080061E01CD1FF2C0FD000F087FB029903290CBFA6
S315080061F001210021401ADFF858180968095D88420C
S31508006200B8BF74200ADB029803280CBF4FF00C09AC
S315080062104FF0080928F4C078A2E7012093E0DFF8D8
S31508006220345828884FF6FF71884218D0504612F025
S315080062301CFF0090001D298804F0C6FDDFF8180829
S3150800624000990078C8714FF6FF7028805FEAC84049
S3150800625005D500980822291D0830FCF725FB0C9A5D
S31508006260494650460BF0E8FC08B9182667E0DFF8FF
S31508006270EC070068C07E70B1B8060CD5F8074CBFAD
S315080062802020002040F001033246002150460FF03E
S31508006290CBFA060053D1FF2C15D0504612F0DBFE80
S315080062A0DFF8B8170968C97E01B11221DFF8A027FF
S315080062B01268135D12F80A20D218743089188842B9
S315080062C0B8BF74263BDBB80407D5504612F0DDFE8E
S315080062D040F48061504612F0DAFE0298082812BF90
S315080062E00928504612F0E0FE179848B1BDF8041088
S315080062F0504612F0F2FE179880F800A0002022E01F
S315080063000398C01E05D0C01E012884BFC01E0128E0
S3150800631007D850460FF091FF00280CBFA12600268B
S315080063200DE0B80444BF4FF6BF7007409DF82C1027
S315080063303B465FFA8BF2504612F0EEF80646504698
S3150800634006F06AF830460DB0BDE8F08F2DE9F04347
S31508006350164685B00446F08804900D4670790FF20B
S31508006360387103901F4630790290A84670880190CC
S31508006370434630880090082200F099F800F040F86B
S3150800638018BF91201AD1FF2F09D000F0B5FADFF80F
S31508006390C0160968C95D884238BF74200ED320002C
S315080063A00FD14FF6F870804528DA00200190009743
S315080063B0FF23324629462046FFF794FE05B0BDE87E
S315080063C0F083022C4FF6FE790CD1DFF89416097883
S315080063D08D4213D2DFF87006006830F81800484579
S315080063E0E3DB0BE0012C09D1DFF8781609788D423A
S315080063F004D2E8B209F056FE4845D6DB0120DDE7AF
S31508006400DFF858060068407B02287047F0B587B069
S315080064100D461646044605961F46E8880FF2806123
S31508006420049023466879039009222879029068889F
S3150800643001902888009000F03AF800200190009713
S3150800644033462A4621460620FFF74CFE07B0F0BD24
S315080064502DE9F04188B01E460E9C07948046F088C8
S3150800646006901746707905900D4630790FF23C6113
S3150800647004904346708803900A2230880290019758
S31508006480009500F014F8DFF8CC05A0F80080234644
S31508006490DFF8C40507700020019032460F98009077
S315080064A029460620FFF71EFE08B0BDE8F081032046
S315080064B00EF078BE80B538B101460822DFF8A80587
S315080064C0FCF7F2F9002002BD022002BD70B588B0C3
S315080064D000F02EF80C98DFF87C15009608802B46FD
S315080064E00D98DFF8741508702246DFF880050078E5
S315080064F0002814BF4FF6FF714FF6FD71002001907A
S3150800650011E070B588B000F013F8DFF86005007880
S315080065100096002814BF4FF6FF714FF6FD71002054
S3150800652001902B4622460320FFF7DCFD08B070BD1C
S3150800653004460D46069205951E46E0880FF27851E8
S315080065400490062260790390207902906088019071
S3150800655020880090032023890EF024BE10B5DFF8AA
S31508006560100506F03AFA0446FF2C0DD02146042001
S3150800657005F0CBFC18B10121204600F006F82046AC
S31508006580BDE8104005F048BF10BD2DE9F04F89B0B1
S3150800659082468B4612F069FD0646B01C04F00DFCD7
S315080065A0DFF8D044DFF8D054074650460BF021FAFE
S315080065B00146504606F0D6F88046504612F06FFD62
S315080065C006F03FFE301D04F0F8FB2080009708F027
S315080065D0C7FA009989B2814208F0030912D04FF62A
S315080065E0F87087420EDA7078C0070BD438460AF07E
S315080065F0E8FA002805D0208801235246394600F0DB
S31508006600AFF97FE002A950460BF082FA02A828608B
S3150800661030460BF00BFADFF8641408600321504685
S3150800662012F013FDDFF8581408700421504612F0D2
S315080066300CFDDFF8501408705FEA0B002BD09DF8AC
S315080066400E00800627D508F08BFADFF8106440B1F3
S315080066503068007D800704D4B9F1010F08BF1823FC
S3150800666000D008230022002150460FF0DDF890B133
S3150800667008F00300012802BF3068407B112805D1C5
S3150800668002F022FB10B9AF2000F060FC06F00AFE0B
S31508006690002028604DE018F0030003D002280BD034
S315080066A00FD32FE0BDF80E000006400F00F00101E1
S315080066B0504600F041F825E05146404611F05AFF91
S315080066C020E008F04DFA218881421BD0514605206A
S315080066D005F01BFCB0B12968887940060DD50C2257
S315080066E005A8FCF7E1F800200190FF23FF200090A1
S315080066F005AA21880A20FFF7F5FC21885A46504644
S315080067000BF0DEFF08F02CFA218881420DD15046A5
S315080067100BF06FF90146504606F024F80C210842A2
S3150800672003D10021504612F061F90020286006F0D6
S31508006730B9FD09B0BDE8F08F2DE9FE4F81468B46BD
S3150800674012F093FC064648460BF053F901464846B4
S3150800675006F008F805467078DFF81C43DFF814736E
S3150800676000F001000290B01C04F027FB4FF6F87108
S315080067708842ACBF4FF0010A4FF0000A08F0F0F962
S315080067803988814220684088ADF802000CBF4FF076
S3150800679001084FF00008B01C04F00FFB01460298F0
S315080067A040EA0A008DF804009DF80400002814BF8A
S315080067B006200820002206F042FF20680188BDF85E
S315080067C00260002904BF4079002829D10AF06EFF2B
S315080067D05BEA000005D1BDF802000AF087FF002831
S315080067E07CD0694648460AF075FC23689DF8001077
S315080067F0421ED2B2042012F03CFD2068408848F2BE
S315080068000201884203D13888494602F02DFB3888B0
S31508006810B6F5004F10DBBDF8022049460AF06EFCBB
S315080068202068029919B905F00C010C2935D100899F
S3150800683009F076FD30BB51E0DFF84CB202218BF847
S3150800684000105346002249460AF0BCFA20688079AF
S31508006850400604D5BDF80200FF2100F054F8132EB7
S31508006860DED02068C0884004DAD4884909789BF8C5
S315080068700000CA0701D50228D2D089072ED50128DB
S31508006880CED02BE020680189B8F1000F14BF03258C
S3150800689002250020FFF71EFA12E001790091002276
S315080068A0437938880021FFF745FA05F00C010829D5
S315080068B005D1B8F1000F0CBF0425052500E0002519
S315080068C0734908709DF8040008B9382E01D10122D1
S315080068D000E00022294648460FF0DEFBBDE8F78FA8
S315080068E010B5044600F008F8610548BF08382105C8
S315080068F048BF0838C0B210BD58490968C97E642027
S3150800690001B15220704770B55B4E0C4686B00546FD
S3150800691031680C2202A8FBF7C7FF306801798DF8A9
S315080069200D10FF2341798DF80C10ADF80A504FF67B
S31508006930BF71C08800940840ADF80E0002AA002076
S3150800694001904C4801880720FFF7CCFB06B070BDC4
S315080069505048007808B9FF2070474D4800787047BE
S315080069602DE9FB47914685B01C4648460BF041F891
S315080069700146484605F0F6FE032108428DF8000058
S315080069805ED13D4805683B48068801A948460BF094
S31508006990BFF8394901A808604FF0000ABDF814008D
S315080069A0344908809DF80900002804BFBDF8040092
S315080069B000283FD1484612F058FB801C04F0FDF928
S315080069C04FF6F8718842ACBF4FF00108D046002C4C
S315080069D014BF02240124012729E0BDF81400434608
S315080069E03A4649460AF0EEF95FEA000A1ED0022C3A
S315080069F008BF012F1AD1BDF8180016490880174894
S31508006A000068417E491C4176A1F180001249087050
S31508006A100C219DF80000084208D19DF80A0040069E
S31508006A2004D5BDF80600FF21FFF76DFF7F1CFFB2F6
S31508006A30BC42D2DA104805600E480680504600E08F
S31508006A40002008B0BDE8F087EC210020F8210020DE
S31508006A5094210020F4220020B62F0020A02A00202E
S31508006A609A2F0020BA230020F8220020A22F002007
S31508006A70282300208A2C00208C2C0020902C002013
S31508006A80012E0020022E0020B52F00209F2F002067
S31508006A90D92F0020882C00204257575742425700CA
S31508006AA04257575742425742000000004257574242
S31508006AB057574242574200004257574242425742AE
S31508006AC04200000010B5044606F037FC10F0ECFA58
S31508006AD0010018BF00F013F80C212F486143084441
S31508006AE0827981880068BDE8104007F073BC0020F1
S31508006AF0E8E70120E6E70220E4E70320E2E710B52D
S31508006B0082B0044606F03CFC0C214843224908445E
S31508006B10210017BF312C0021017A491C0172C27964
S31508006B20017A91420AD30021017243208DF80000B0
S31508006B308DF80140022168460EF069FB13BD17491E
S31508006B400978312900D0704780B544218DF80010A6
S31508006B5001460DF1010004F037F9032168460EF0ED
S31508006B6056FB01BD38B50E4C0B4B24780C256C43EF
S31508006B70B0F5004FB8BF0429234401DB702032BDAD
S31508006B80DA71988099719A799988186807F022FCC1
S31508006B90BDE8314010F088BAC4220020D123002075
S31508006BA0AD2F002070B5160004460D4602D109F037
S31508006BB0B2F902E0FF2109F05DF93246294620467E
S31508006BC0BDE87040A0E02DE9F04782B005468A4648
S31508006BD0174698460EF0FCFEC0480A9C0078B0B1ED
S31508006BE00C2F14DAFF21284609F044F981460026BD
S31508006BF00AE004EB4601C9B2404605F06EFE494676
S31508006C0009F038F98146761CF0B2B842F1D30094FF
S31508006C1043463A465146284600F08EF8BDE8F387C3
S31508006C202DE9F04704468A4600F0D5F8012846D1F2
S31508006C30204609F009F9AA4A126812F80A700025CE
S31508006C40FF281CD081464C46DFF8988200E06D1C70
S31508006C50D8F8000000EB84008478FF2CF7D1E8B25E
S31508006C6068B1EDB20C2D0ADA6800861CBAF1FF0F7E
S31508006C7024D0F119C9B2504605F02DFD08B10020FF
S31508006C801DE02A463946504605F071FD7C1C6A1EF1
S31508006C90D2B2E1B2504605F06AFD671C4C4606E0E2
S31508006CA030F82420F9B2504605F024FEBF1CD8F867
S31508006CB0000000EB84018C78FF2CF1D1F0B2BDE81E
S31508006CC0F08710B5FF280AD0864B1B6833F820409A
S31508006CD00C8003EB800080781070002010BD032024
S31508006CE010BD10B509F0B0F80024FF280AD0022418
S31508006CF001E0A41CE4B27B49096801EB80008078B6
S31508006D00FF28F6D1204610BD30B583B00C46C42105
S31508006D108DF80010154601460DF1010004F054F8EF
S31508006D2021460DF1030004F04FF88DF805500621B1
S31508006D3068460EF06CFA37BD2DE9F04186B0074675
S31508006D4088461D460DF1050014460FF0FEF901A808
S31508006D500FF0FDF959208DF8080039460DF10900A4
S31508006D6004F032F8082241460DF10B00FBF79CFDB2
S31508006D709DF805000C9B8DF8130066009DF804002D
S31508006D808DF81400F6B28DF8154000962A460021B3
S31508006D90284605F0D9FD3146284605F09CFC00201A
S31508006DA0009000232A460E2102A80EF038FA06B0F3
S31508006DB0BDE8F08110B5044600F003F84A480470AF
S31508006DC010BD10B5484C2078FF2803D005F024FBE9
S31508006DD0FF20207010BD2DE9F041DFF80C81074631
S31508006DE098F80000FF2882B00C4619D03C4D2A6856
S31508006DF0115C8E1EF6B2314605F06FFDB8420FD112
S31508006E002868075DF5052D0EFF2C02D1A81CC0B217
S31508006E1020E0F019811CC9B2204605F05CFC08B1D7
S31508006E20012017E02A463946204605F0A0FC6A1ECE
S31508006E30791CD2B2C9B2204605F099FC98F8002010
S31508006E400096B91C002389B2204605F07DFDFFF7A0
S31508006E50B8FF0020BDE8F6812DE9F04180461F48BD
S31508006E600078002688420F46154638BF742032D36C
S31508006E70012005F066FA0446380010D07900C9B238
S31508006E80204605F028FC50B907E035F816207100B1
S31508006E90C9B2204605F02EFD761CBE42F5DB20461B
S31508006EA0FF2811D00E4909680D5CA91CC9B205F066
S31508006EB012FC28B942462946204605F01BFD03E088
S31508006EC0204605F0A9FAFF242046FFF773FFFF2C9A
S31508006ED00CBF18200020BDE8F0810000992F002083
S31508006EE094210020E8210020D2230020DFF8BC2AC4
S31508006EF01268127882420AD019B1012A03D10228EF
S31508006F0005D000207047022A08BF0128F9D10120C0
S31508006F107047DFF89C1A0A78002814BF42F001006F
S31508006F2002F0FE0008707047DFF8840A0078FFE771
S31508006F3000F001007047DFF87C1A91F900101E3145
S31508006F40814201DA0120704700207047DFF8E81C0B
S31508006F500876704710B5DFF8544A2068407B112838
S31508006F6005D04FF4AD710FF2100008F059F82168FA
S31508006F704120487310BD00006173736F63696174C3
S31508006F80696F6E2E6300000080B5022006F02FFBA5
S31508006F9006F057F900F055FC042805D1DFF8980CDF
S31508006FA0C17D491DC17505E04FF47A71DFF88C0C77
S31508006FB011F02CFFBDE8014006F074B910B5DFF8F2
S31508006FC0784C002060752078FF2803D005F024FA55
S31508006FD0FF20207010BD70B582B004460D4605F03E
S31508006FE0A5F90646B01D03F0E8FE00F44040B0F5EA
S31508006FF0404F0CBF062000203118097C4A0049087A
S3150800700002F00E0201F038018918401800F1110645
S31508007010DFF8EC0C0068005DF6B286420BDA831BDB
S31508007020DBB20F2BA8BF0F23002000903246214663
S31508007030284605F090FA304676BDDFF870190968DB
S31508007040097B807802290CBF00F0040000F080005C
S3150800705000B101207047DFF854090068407B3328E7
S315080070601CBF4328532801D10120704700207047D0
S315080070701FB5012012F00CF912F00EF90FF0D0F836
S31508007080F0B1DFF8B44BA07910B104F10C0005E0BB
S3150800709020786946FFF79FFF0DF10300DFF81429F2
S315080070A000211171617901F041FAFFF787FF00F0BD
S315080070B008F80AF058F912F040F9012001F091FB9E
S315080070C01FBD10B500F03FFE017B032918BF042938
S315080070D005D1408801F056FB08BF032008D007F009
S315080070E01DFE044607F01EFE2146FEF7E0FC0220C0
S315080070F007F024FE09F052F900F028FEBDE810401A
S315080071000AF05DB938B5DFF8304BDFF8A0582076BD
S31508007110FFF754FF00214FF6FF7001F013FB2868B4
S31508007120417B032918BF00291ED0332918BF4329DC
S3150800713014D101F0B2FA2868017B032918BF042983
S3150800714006D103214173207EBDE8324006F062BABB
S31508007150207E06F05FFABDE83140B2E7212141738F
S31508007160BDE831400AF07DBE31BD10B5DFF83C18E8
S31508007170DFF8C44A0968002048734FF6FE7007F026
S31508007180F3FC4FF6FF7007F0F7FC01F086FA207E55
S31508007190BDE8104006F03EBA70B5044684B0E07A01
S315080071A00FF2D001DFF804580290234694F90A003A
S315080071B001901522208901F0FFF82868407B60B904
S315080071C0208901F0DFFA08D000F046F905D106F06B
S315080071D0E2F910B906F0F3F910B1702004B070BDE9
S315080071E02868007D80070AD507F0BAFC4FF6FE71BD
S315080071F08842024604D10DF054F8024600E0002207
S315080072002146104601F050F906000DD12868007D88
S3150800721080074CBF0220012001F01CF90021012043
S315080072200BF02DFA060001D03046D7E7DFF8080A3A
S31508007230007F08B109F08AFD00220821204607F0E0
S3150800724018FE30B10421204607F017F808B9A52022
S31508007250C4E7DFF8100B00782074DFF80C0B6061C8
S315080072600020E081204600F0FCF8064606F017F9F3
S31508007270DAE70000423870574242000010B504466B
S315080072802346182201F00BFADFF8E00A0021017103
S3150800729014B1FF2C02D10121017007E0012100F889
S315080072A0041BA100491C090211F0B0FD00F04EFDB7
S315080072B0002010BDDFF8B40A00787047DFF8AC1A72
S315080072C000200871DAE730B50D4689B004466869CA
S315080072D00FF2781107902346287C06901622E88933
S315080072E00590287B0490E87A039095F90A000290A5
S315080072F028890190009501F060F8287B00280CBFCA
S315080073004FF6FE7007F02CFC2B46224609B0BDE866
S315080073103040014601202DE9F041DFF890668046AD
S315080073203068407B00280F4614461D4649D1200088
S3150800733047D0052C45DA00F08FF842D106F02BF934
S3150800734000283ED106F03BF908B1042C39DB287B2E
S31508007350032816D14FF6FE70874214D1012C08BFB8
S31508007360002710D0022C2CD107F0FAFB4FF6FC713F
S31508007370884202DA07F0F4FB01E00CF092FF0746B8
S3150800738001E0012C1DD0B8F1000F0CD0287B032892
S315080073900CBF01210021012C0CBF012000200BF09D
S315080073A06EF901004FD12946384601F07DF80100F3
S315080073B049D105F09BFF06F0ABF820B106F0FFF8BF
S315080073C008B170203FE03068DFF86C78407B3328DE
S315080073D01EBF532800207876204601F03BF8387FF8
S315080073E020B106F0ECF808B909F0B0FC287B0328B0
S315080073F003D12846BDE8F04133E00822294607F1C3
S315080074000C00FBF751FA287B0328A8BF0020387523
S31508007410FFF7D4FD94203876387D316800280CBFF4
S315080074200120312048730020B87501203168897B16
S31508007430BA7F00FA01F1052012F0EDF8010002D03A
S31508007440326800215173BDE8F0810000424238706D
S315080074505742424257424400DFF8300D00780B2865
S31508007460704710B504460022082107F002FD08B14E
S31508007470012010BD07F074FB00224FF6FF7101F0E2
S3150800748037F8217C204601F051F86269E189207CB1
S3150800749008F0B8FFDFF814050068007B012808BF6C
S315080074A00BF084FEFFF70DFE002010BD70B5DFF867
S315080074B0FC440646206882B0407B002802BFDFF8FD
S315080074C0CC0C00780B2801D0702076BD01230D2244
S315080074D00DF1010101F05DF9DFF8D8549DF80100BE
S315080074E028702EB10222314605F10C00FBF7DCF9B3
S315080074F0684601F0FEF808B1932076BD9DF8003085
S31508007500142201F0CCF801F05BF8010044D19DF893
S31508007510000000F09FFF2068007B012818BF0228A2
S3150800752007D0032818BF042825D1002001F034F914
S3150800753008B301F05CF82068007B032814BF042810
S3150800754012F026FCFFF7BDFD012012F04DFC0100EC
S3150800755022D12068007B032818BF04281BD1287B6A
