S00F00006E6F6465746573742E7333377F
S3150000000098E50320996C0100FD630000E56B010093
S31500000010A70A02020002000004180FAC1063F500E4
S3150000002000000000000000000000000000000000CA
S3150000003000000000E0990100000000000000000040
S315000000400000000000000000FFFFFFFFFFFFFFFFB2
S31500000050FFFFFFFFFFFFFFFFFFFFFFFFFFFFFFFFAA
S3150000006000D00F000000000000000000FFFFFFFFAF
S31500000070FFFFFFFF1C000000000000000000000062
S3150000008000000000000000001CFD03201CFD0320F2
S3150000009098E503202CAB01006A6D010038DC0320D3
S311000000A00000000000F00F00000000004F
S3150000020098E50320996C0100FD630000E56B010091
S31500000210ED6B0100E96B0100F16B010000000000CD
S315000002200000000000000000000000005F16000053
S31500000230F56B010000000000971600004F1B000040
S3150000024097A60000311901005F1B0000FD6B01003D
S315000002503D15010071190100371901003919010016
S3150000026033190100F5FD00006B000100A7CD000069
S31500000270E75A0000FD6B0100FD6B0100E369010018
S31500000280FD6B0100FD6B010089000100FD6B0100A3
S31500000290FD6B0100FD6B0100FD6B0100FD6B0100B4
S315000002A0FD6B0100FD6B0100FD6B0100FD6B0100A4
S315000002B07319010035190100AFA40000A719010048
S315000002C0FD6B0100016C0100FD6B0100FD6B01007F
S315000002D0FD6B0100FD6B0100FD6B0100FD6B010074
S315000002E0FD6B0100FD6B0100FD6B0100FD6B010064
S315000002F0FD6B0100FD6B0100FD6B0100FD6B010054
S31500000300FD6B0100FD6B01000000000030278C49E9
S315000003108D4A01E021B1491E1369DB07FAD401B900
S31500000320EAE0506001201060106910F0060F05D059
S31500000330410700D5E3E08006603C00207047F0B539
S31500000340814C2668134600250022360704D425680A
S3150000035045F0040525600125002958D0784E1BBBC1
S315000003608B4254D22DB950F8047B27615B1C0827B9
S315000003700CE067693F07FCD512210E204401D58B9E
S3150000038042F6D310276760374602E0002F39D07F48
S315000003901ED4F814C05FEACC7CF7D4002FDCD13031
S315000003A0E0EFF3108772B6002305E000F032F84F55
S315000003B0F0100CC4F804C08B420CD307B962B637F0
S315000003C0461BE03220080CF0190CBCF1100F08BFD8
S315000003D01E4144600A0C7CF1D5002DE3D000F016D6
S315000003E0F81232DE721007DBE727B17F1E6069C0A4
S315000003F0EC10100FB96FF00202206820F004002004
S31500000400601046F0BDA21026CBC4F810C05B1C706D
S31500000410472DE9F0479A46474B464F1C681B683BF9
S31500000420688046002043F001033B60950881460C36
S31500000430B6102FB14404EB8604A94517D208EB8900
S31500000440063046FFF758FF010018D1C6F30A00C070
S31500000450F500608608A5EB0900B04238BF06465293
S3150000046046314620221260222020E2D0396849080F
S3150000047049003960396821F004013960BDE8F08728
S315000004802D49294A0B6809682A490B686814010B2B
S31500000490608888901348604869400704D50868401A
S315000004A008400008601EE048698010100119E0024B
S315000004B024300501E022B1521E48D66322B91C63DE
S315000004C005E00A25B811EC20050070474FF0FF3013
S315000004D00C12010C702100238CE70E48016841F0D4
S315000004E00101016046F21A31C1644FF48071416026
S315000004F04169C907FCD44FF4000C20020021C164F5
S31500000500461200011007809698000C000E40080461
S31500000510000204300E40000070472DE9F047DFF876
S3150000052034580FF29C010FF2945A0FF28058DFF8FC
S3150000053028980446287800F0E3FD0027E4A603E0A7
S3150000054000F083F97F1CBFB2206800EB07114A68F0
S31500000550287813001AD04A4509D14A69130018BFF2
S315000005604A45EFD00A68414600F0CAFDEAE78B68C3
S315000005700A68514600F0C4FD206800EB0710C26807
S315000005802878002ADCD00FF23C51EDE70FF2AC01DF
S3150000059000F0B6FD28780FF2CC0100F0B1FD287806
S315000005A00FF2F00100F0ACFD28780FF2141100F004
S315000005B0A7FD28783146BDE8F04700F0A1BD000050
S315000005C0434F4D4D414E44205B504152414D4554A1
S315000005D04552535D205B2D204445534352495054A8
S315000005E0494F4E5D0D0A202077686572653A206294
S315000005F03D6275666665722C2073313D696E74388E
S315000006005F742C2073323D696E7431365F742C2012
S3150000061075313D75696E74385F742C2075323D7581
S31500000620696E7431365F742C2075343D75696E744D
S3150000063033325F740D0A0D0A0000000020202120CD
S31500000640202D20526563616C6C7320746865207080
S31500000650726576696F757320636F6D6D616E640D7B
S315000006600A00000020205B7461625D202D20417429
S3150000067074656D70747320746F2074616220636F8B
S315000006806D706C65746520636F6D6D616E640D0AC7
S3150000069000000000202020202A2A204E4F54453AF0
S315000006A020616C6C20696E7075742076616C75655E
S315000006B0732061726520696E20686578210D0A00D5
S315000006C0202020202A2A20436F6D6D616E647320DE
S315000006D0617265204E4F5420636173652073656EA9
S315000006E07369746976650D0A00000000A0F1410186
S315000006F01A293CBF2030C0B270472DE9F84F054695
S31500000700DFF85816A86800680968DFF84876C0B2AE
S3150000071000240E5C212EA04607DB38780FF2CC01B0
S31500000720BDE8F84F202200F0EBBC00F009FD824640
S31500000730A14607E01AF80900FFF7D8FF0AF80900F2
S3150000074009F10109B145F5DB32460FF2E4015046E5
S3150000075000F072FF40B94FF0010805E038780FF25B
S31500000760D8015A4600F0CCFC296820010A185268C4
S31500000770130039D0DFF8E095641C4A45A4B2F3D1E2
S3150000078051F800B0B8F1000FE8D1584600F068FF04
S31500000790B042E9D132465146584600F041FF0028A2
S315000007A0E2D1BFA60FF21C380FF2940A03E000F064
S315000007B04CF8641CA4B2286800EB041041680A00D7
S315000007C018BF494510D0836802683878514600F052
S315000007D097FC286800EB0410C2683878002AE6D037
S315000007E0414600F08DFCE4E7BDE8F18F4572726F7B
S315000007F0723A206C69737420617267756D656E74E8
S3150000080020746F6F206C6F6E672C207765206F6E7B
S315000008106C7920737570706F727420757020746FA8
S315000008202025752062797465732E0D0A000000007C
S315000008306D6F64756C65730025700D0A000000000D
S3150000084025702025700000002078314600F058BC45
S3150000085070B5044688B0A068016801B10121DFF8CF
S3150000086000552970406800B10120DFF8F864307047
S315000008700FF2600001F00FF9A068C16801B1012113
S31500000880DFF8E4241170006900B10120DFF8DC1400
S31500000890087008782B78079004F111010FF25C00BC
S315000008A0069010780FF25C0205900FF2600004903B
S315000008B0012003907BA00290307801900FF2540043
S315000008C000900FF2580001F0E6F808B070BD000085
S315000008D00D0A00005475726E696E67206F66662099
S315000008E074616773206E6F742079657420737570F8
S315000008F0706F727465640D0A000000007465787488
S3150000090000000000686561646572000064656C69DA
S315000009106D000000636F6D6D616E64007B264E2076
S31500000920566572626F73697479206F7074696F6E41
S31500000930732073657420746F3A0D0A2674750D0A58
S315000009402674750D0A2674750D0A2674750D0A2609
S3150000095074757D0D0A000000DFF81414007C51F850
S315000009602020DFF8F0030FF20801007800F0C8BB82
S315000009704349204572726F723A2025700D0A0000B5
S3150000098038B5DFF8D043207845A500F041FA207845
S315000009900FF2340100F0B4FB00F039FA20780FF2C0
S315000009A04C0100F0ADFB20783FA100F0A9FB2078B8
S315000009B00FF2440100F0A4FB20780FF24801BDE8D5
S315000009C0344000F09DBB0000456D626572204E6F9D
S315000009D064652054657374204170706C696361743A
S315000009E0696F6E2076312E30000000004A756C204B
S315000009F0313420323031380030323A35383A3132FB
S31500000A00000000000D0A0D0A000000002DE9F24F5B
S31500000A10044682B0256BDFF83CB39046002705E01C
S31500000A201FA100F06DFB7F1CBFB210356868A8B32C
S31500000A30D5F80090DDF808A000260DE01AF8010BA5
S31500000A40FFF754FE009019F8010BFFF74FFE0099CF
S31500000A50C9B28142E7D1761CB0B24045EED32068D8
S31500000A60BD4E00EB07114B680A689BF80000B342C5
S31500000A7004D10FF2380100F043FBD4E78B680FF284
S31500000A803C0100F03DFB206800EB0710C2689BF8B4
S31500000A900000002AC4D00FF22C01ECE7BDE8F78F66
S31500000AA00D0A0000746167002C2000002D2D2D2DED
S31500000AB0202570202D2D2D2D0D0A000020202570BB
S31500000AC020257000202D2025700D0A002DE9F04309
S31500000AD09BB00EA80FF29C21342201F00DF84FF0C6
S31500000AE000098DF80190A52001F057F801F09AF859
S31500000AF000F07FF9002001F0C3F9050005D000F0F1
S31500000B0073F9002001F0BCF9054600F072F90120E6
S31500000B1001F0B6F9060005D000F066F9012001F0F3
S31500000B20AFF9064600F065F9022001F0A9F95FEA7F
S31500000B30000805D000F058F9022001F0A1F980461E
S31500000B4001F038FA834C5DB1002E68D0B8F1000F81
S31500000B506BD04FF4FD710FF2502001F031FA04E032
S31500000B60002E18BFB8F1000F62D084F80090201D47
S31500000B7001F056FB201DFFF703FF0FF23C252078FE
S31500000B800FF23C2800F044F920780FF29C2100F087
S31500000B90B7FA6DA6FFF758FE201D01F0B9FD00F06B
S31500000BA036F920780FF28C2100F0AAFAFFF74CFEF6
S31500000BB0201D01F0CAFD00F02AF920780FF28021ED
S31500000BC000F09EFAFFF740FE201D01F03AFE00F00D
S31500000BD01EF920780FF2742100F092FAFFF734FE26
S31500000BE0201D03F021FA00F012F920780FF2682197
S31500000BF000F086FAFFF728FE201D03F02AFA00F01F
S31500000C0006F920780FF2C01100F07AFAFFF71CFE01
S31500000C10201D04F03FF94DA54DA601AF3FE0B8F108
S31500000C20000F05D001202070A1E70220FBE7257008
S31500000C302078FF289BD100256946284601F06EF9E9
S31500000C4038B99DF800000D2818BF0A2818BF2A28B1
S31500000C50EDD06D1CEDB2032DEEDBE9E78DF800005B
S31500000C609DF800107A5C481C0A2A18BF0D2A18BF86
S31500000C70002AF3D10D227A548DF8000001A99DF8BF
S31500000C800020201D01F0D8FA9DF8002001A90EA829
S31500000C9000F07CFC9DF8009000208DF8010000F02B
S31500000CA0B2F820780DF10103322201A901F03BF9D7
S31500000CB00028D3D000F06EFF01F09EF803F01EFD71
S31500000CC09DF8010020B39DF8011001A8084410F812
S31500000CD0010C09281CD1FFF7B7FD9DF80100401E45
S31500000CE08DF8010001A99DF80120201DFFF78EFE59
S31500000CF09DF801100020785400F085F8002004E0EB
S31500000D0000F07CF89DF80000401C00F065F8F7D371
S31500000D109DF804002128C4D1FFF796FD4A460EA986
S31500000D2001A800F033FCA9F101008DF8010000F0E4
S31500000D306AF8002000F050F8B3D200F05FF89DF892
S31500000D400000401CF6E700005D0D0A002563000068
S31500000D500D0A0000DCE7032019050000DCE803208B
S31500000D60EEEB0320EFEB0320F0EB0320F1EB032087
S31500000D7000EA03200D000000000000000000000053
S31500000D80000000000000000000000000000000005D
S31500000D90000000000000000000000000000000004D
S31500000DA00000000000000000706C6174666F726DD8
S31500000DB0746573742E6300005B494E49542000002D
S31500000DC00D0A3E200000000073657450657254657C
S31500000DD073745478000000008DF800009DF801102F
S31500000DE09DF8000088427047012300224FF4164107
S31500000DF07047012300224FF4E13170473A5C2078B6
S31500000E00294600F07DB94146207800F079B920786E
S31500000E10294600F075B980B504F0ABF9BDE802408B
S31500000E20002053E6002070476372617368696E663E
S31500000E306F0000007265736574737472696E670083
S31500000E40696E6974546F6B656E730000696E6974C0
S31500000E50526164696F00000073656564506E726765
S31500000E600000000070B51346104402E0A4192C706F
S31500000E705B1EDCB24CB101F00F060909451E0A2EB5
S31500000E802846B4BF30243724F0E7104470BDF0B5CF
S31500000E90002341B1002806D501232D21B0F1004FD2
S31500000EA0117018BF4042002100240FF2702555F83A
S31500000EB02470002601E0C01B761CB842FBD2F7B2B4
S31500000EC00FB90F0005D0DBB206F13001D1545B1C1F
S31500000ED00121641C092CEADBDBB23030D054581CEB
S31500000EE0C0B2F0BD2DE9F24F804696B013A801902E
S31500000EF0154603A89B4603AE002700248DF8000084
S31500000F000BE0012405460198864205D300F0DCF883
S31500000F1000284FD100F0CEF86D1C9DF8000029780E
S31500000F20301A0A000BD0252903D014B906F8011B84
S31500000F30E9E7002C14BF00246D1C29780A0000F094
S31500000F40AF80B1F1250216D00B3A092A40F289800A
S31500000F50283A7DD00A3A12D0521E41D0521E5FD096
S31500000F60083A5DD0121F3ED0D21E3CD0921E57D0FA
S31500000F70D21E6DD0C7E7252006F8010BC3E7DBF8C4
S31500000F80000002904FF0000A0BF1040000F1040B80
S31500000F90D0F80090CA45B6D2029810F80A1002227C
S31500000FA03046FFF75FFF06460198864205D300F0FC
S31500000FB08BF800287AD100F07DF8A9F1010082456E
S31500000FC03CBF202006F8010B0198864205D300F0AD
S31500000FD07BF800286AD100F06DF80AF1010AD9E71A
S31500000FE05BF8040BC8E75BF8049B00F067F8002881
S31500000FF05CD100F05FF84FF0000A01E00AF1010A47
S315000010005FFA8AFA19F80A000028F7D19DF8580005
S3150000101052464946C047002848D15744FFB272E7B6
S315000010206C290AD16A785BF8040B752A0EBF002179
S315000010300121642A07D16D1C05E075295BF8040BB4
S315000010400CBF002101213246FFF721FF36185AE76F
S315000010505BF8041B0222C9B23046FFF703FF0646BF
S3150000106051E76A780124782A18BF582AF8D16D1CEE
S315000010700024681E322904D15BF8040B042281B2D5
S31500001080EAE734297FF43DAF5BF8049B04224FEA7C
S3150000109019413046FFF7E6FE04221FFA89F1DCE724
S315000010A000F00CF810B9F019C0B200E0002017B03B
S315000010B0BDE8F08FF719FFB203AE704706469DF8FC
S315000010C05800F2B203A940479DF80000361A9DF871
S315000010D05800F2B203A9404701A111E00000000048
S315000010E00D0A00000CB438B5044604AA00F010F846
S315000010F005462046FFF7F0FF284632BC5DF80CFB9C
S315000011000CB480B502AA00F003F802BC5DF80CFB33
S3150000111080B504F047FFC0B202BD000000CA9A3B8A
S3150000112000E1F5058096980040420F00A086010078
S3150000113010270000E8030000640000000A00000019
S31500001140DFF81814096801EB40107047DFF8102427
S315000011501268115470472DE9F041040035D005F0AE
S3150000116049F8DFF80014DFF800340E78FF228046D5
S31500001170FE2EDFF8F8031BD100260E70DFF8F0C351
S31500001180DFF8F06337781F70002708E007F1010EDB
S3150000119005F807E0DCF80050EA555FFA8EF796F896
S315000011A000E005687745F1DB05EB0E0606F8012C35
S315000011B01E78A6420BD2404605F022F8052005F01F
S315000011C059F800211B2005F0DBF8FF201EE0361B36
S315000011D01E70DFF8A4330E780F78D3F800E00125EF
S315000011E00EF80750641E056815F807E081F800E060
S315000011F05FFA84FEBEF1000FEED1EA5500213046BB
S31500001200FFF7A4FF404604F0FBFF3046BDE8F0813F
S315000012102DE9F041054600F031F8044604F0EAFFF6
S31500001220DFF84023DFF84033DFF84063DFF8488318
S31500001230FF2D1FD0D8F800104F5D7F1E4F557F271A
S31500001240D8F800E01EF80510394213D13168495D1F
S3150000125000270EF805701F787F1C1F70FF2937685E
S3150000126092F800E007F805E0157006BF2546FF2452
S315000012700D46DDE7BDE8F04104F0C2BF80B5DFF8FA
S31500001280F8120968095C090603D5FFF759FF0078CB
S3150000129002BDFF2002BD70B504460D4605F11F00D4
S315000012A00004400D82B0C0B2FFF755FF0646FF2E80
S315000012B00CD02946FFF74AFF3CB1012000902B468F
S315000012C000223146204600F002F8304676BD73B55E
S315000012D000F0D0F8405C15461E467119884203DAC4
S315000012E040F2651100F0EBF830000CD0294601A859
S315000012F000F0E9F8024606989DF80410009033467F
S31500001300204600F001F873BD2DE9F843089CDFF88C
S315000013105C820546894616461F460BE06A5C4254C7
S31500001320491CB142FADBD8F80000BF1BAD1910F812
S3150000133009900026F8B2D0B14846FFF701FF8019A0
S3150000134056FA87F12029B9BFFFB23E46C6F12006FC
S31500001350F6B22100324604D10146284600F016F9BD
S31500001360E1E7012C08BF2946F8D00021D9E7BDE8FE
S31500001370F1832DE9F04100F07DF882B0055D8846E5
S3150000138016467119C9B2A9421F4605DB30000CD0BA
S31500001390204600F05DF808B1182007E000973346B4
S315000013A02A4621464046FFF792FF0020BDE8F68117
S315000013B00123DEE70A4600E0521C1378002BFBD11E
S315000013C0521A0223D2B2D4E72DE9F041054601F1C3
S315000013D01F00C70402F11F00C0043F0E000E07B92C
S315000013E0012700B9012087422CD0DFF880411BDAA3
S315000013F0C01BC0B2FFF7AFFE8046B8F1FF0F08BFB3
S31500001400002020D07F1E00F020F82668305CFF28E0
S3150000141004D000F01AF8305CFFF7FAFE00F015F879
S31500001420216801F800800DE08A420BD2411EC9B244
S3150000143000F00CF805462068405DFFF7E9FE2168DC
S31500001440FF2048550120BDE8F081F9B2284616E094
S3150000145038B500F00FF80D46015D2A462046FFF725
S31500001460B3FF28B129462046FFF770FE002032BDA3
S31500001470182032BD0446DFF8E8000068704704E033
S31500001480DFF8E8201268105C491ECAB2002AF7D1BC
S31500001490704711B50C46DFF8C810096881B0095CC1
S315000014A08C4203D340F2012100F009F8214601A83D
S315000014B000F009F8044600F04EF8204416BD0FF27D
S315000014C0BC0000F07DBD38B504460D46E904207821
S315000014D0090EFFF7D4FF207005F01F0032BD80B55E
S315000014E0FFF7D7FF007802BD10B51446FFF7D1FF0E
S315000014F0047010BD2DE9FC4405B40A9C20001F466B
S3150000150027D089B26846FFF7DEFF0646B9B201A8C2
S31500001510FFF7D9FF0746BE42A8BF3046A4B2C0F1C6
S3150000152020002546C0B2A842B8BF054600F013F811
S3150000153082469DF80000FFF703FE2A460AEB0701E4
S31500001540304400F023F8641BA919EF19A0B2002853
S31500001550D7D1BDE8FF849DF80400F1E5D8E8032063
S31500001560DCE80320FBEB0320F7EB0320E4E8032091
S31500001570E8E80320F6EB0320E0E803207061636BE4
S3150000158065742D6275666665722E6300814233D27C
S3150000159010441144401E491E10E011F8013900F8AC
S315000015A00139121F11F8013900F8013911F8013912
S315000015B000F8013911F8013900F8013992B2042A0C
S315000015C0EBDA93B2002B1EBF11F8013900F801398E
S315000015D0521EF6D1704711F8013B00F8013B121F6D
S315000015E011F8013B00F8013B11F8013B00F8013B03
S315000015F011F8013B00F8013B92B2042AEBDA93B2F0
S31500001600002B1EBF11F8013B00F8013B521EF6D11C
S315000016107047130003D00A46194604F0BBBE704754
S3150000162010B500E0521E93B223B100F012F8F9D0C3
S31500001630181B10BD002010BD10B500E0521E93B25D
S315000016402BB100F006F8F9D0181B40B210BD0020EF
S3150000165010BD10F8013B11F8014BA3427047FEE79D
S3150000166000F10103810704D010F8011B89B181073D
S31500001670FAD10268B2F10131914311F0803F04BF03
S3150000168050F8042FF6E710F8011B11B110F8011BF2
S31500001690FBE7C01A7047FEE738B50446611D206AAD
S315000016A02368451A2079EAB2984708B1002032BD6E
S315000016B000F018F8601D2062012032BD38B50446DE
S315000016C0002500E06D1CEDB2485D0028FAD12079B6
S315000016D023682A46984718B900F004F8012032BD5D
S315000016E0002032BD94F82900281884F82900704794
S315000016F02DE9F04F804608F1200785B008F1050076
S3150000170038600E4608F11500786091460020787220
S31500001710DFF8B44313E018B108F105003860164647
S3150000172025B17D2000F0A0F901F8010D386879682F
S31500001730884203D300F096F9002862D0761C3078F0
S31500001740010000F075812528617818BF262809D088
S315000017507B281CBF7D28232802D10029E6D0E1E79B
S31500001760A178FAE716F8012F252A18BF262A04D1F0
S3150000177000F07AF901F8012DD8E726280BD151B1EE
S3150000178001256E2A18BF4E2A06D000F06DF97B207F
S3150000179001F8010D00E00025317800204E2906D021
S315000017A0542923D06E2902D074291FD032E0207824
S315000017B059F804BB0028B9D035B138687B210170CF
S315000017C0811C39602821417000F04CF9002818D09E
S315000017D000F03BF9002814D0002DA7D03868292145
S315000017E00170811C39607D2141709FE700F038F956
S315000017F0002806D000F029F9002802D000F032F9BE
S31500001800002800F07C8000F02FF93A2001F8010D45
S31500001810761C0120317896F801E0A1F13002D2B2AF
S31500001820911E05293CD2BEF1640F18BFBEF1750F9B
S3150000183036D159F804CB002301211FFA8CFCBEF1E6
S31500001840640FE24609D15FEA0C4E06D56FEA0C0C2E
S315000018500CF1010C01231FFA8CFCBCF1000F0AD01D
S315000018604FF00A0E9CFBFEFC5B1C1FFA8CFCBCF1C5
S31500001870000FF5D10BE05B1C09E0D7F800E00EF194
S31500001880010EC7F800E04FF0200C0EF801CD9C4683
S315000018900CF101035FFA8CFC9445EEDB761C00E04C
S315000018A000213378721E002B00F0BE80322B18BF49
S315000018B0342B00F09580482B06D0582B0FD0632B85
S315000018C00FD0642B1FD0682B00F07F806C2B52D07A
S315000018D0702B18BF732B0BD0752B14D0782B76D0AA
S315000018E019E73868411C396059F8041B017017E77D
S315000018F000F0B6F818B100F0A8F80028F7D10020DB
S3150000190005B0BDE8F08F002919BF1FFA8AFA5146C3
S3150000191059F8041B89B229B900F0A6F8302001F85D
S31500001920010DFDE60020642B0DD10A040BD53B68A2
S315000019305B1C3B602D22B1F5004F03F8012D02D050
S31500001940494289B259B10A2291FBF2F20A23C0B286
S3150000195003FB12110DF80010401C91B2F2E701468C
S31500001960481EC9B20029DCD0C0B23A681DF8001082
S3150000197000F065F8F3E759F8041B0029CCD00020E5
S3150000198000290AD53B685B1C3B602D22B1F1004F54
S3150000199003F8012D01D0494259B10A22B1FBF2F2F6
S315000019A00A2303FB121102ABC0B21954401C1146A4
S315000019B0F2E70146481EC9B2002910D002A9C0B2FA
S315000019C03A68095C00F03BF8F3E700F041F80222C0
S315000019D059F8041B3868C9B2FFF744FA38609FE625
S315000019E016F8010F682818BF48280BD100F030F808
S315000019F016F8011C386832290AD159F8041B04224A
S31500001A0089B2E9E7782818BF5828F1D0761E87E60C
S31500001A1059F804BB04224FEA1B41FFF723FA38604A
S31500001A2004221FFA8BF1D7E701007FF474AE76E645
S31500001A3000F018F800283FF462AF787A60E7521C8D
S31500001A403A60303102F8011D70475946404635E686
S31500001A50386830210170811C3960782141707047E7
S31500001A6059F804BB404617E63968491C3960704787
S31500001A700EB410B5154909788BB0002409B90020B9
S31500001A8008E000F019F801466846FFF731FE00B994
S31500001A90012420460CE00EB410B58BB000F00CF813
S31500001AA0002401466846FFF723FE00B901242046BC
S31500001AB00BB010BC5DF810FB054900910DAA054955
S31500001AC009788DF804107047EFEB0320EEEB032046
S31500001AD0D15F0000DCE7032062B38B0708D0521EFB
S31500001AE011F8013B00F8013B00F024808B07F6D18A
S31500001AF0830740F0208000BF103A07D330B4B1E826
S31500001B003810103AA0E83810F9D230BC530724BF79
S31500001B10B1E80810A0E8081044BF51F8043B40F8AB
S31500001B20043BD20724BF31F8022B20F8022B44BF16
S31500001B300B7803707047083A07D3B1E80810083AE3
S31500001B4040F8043B40F804CBF7D25307E4E7FEE73E
S31500001B50890001EB401000F184400068704704F0F2
S31500001B604DBC80B50121284804F022FD0421072040
S31500001B7005F0AEF825482649264A01600421116081
S31500001B80022141620421244A1160816A41F0020166
S31500001B90816201BD1D4805F0FFB8A52800D0704739
S31500001BA080B500F005F810B11C490020086001BDA1
S31500001BB01648006810F0010018BF0120704738B5BC
S31500001BC004460D4600F015F82A4604F00F0101B050
S31500001BD003462005BDE83040000E05F04DB900F083
S31500001BE00F010005000E30230D4A584310441C30E7
S31500001BF0AEE700F00F010005000E3023084A5843F7
S31500001C0010440C30A4E7000000250A00002005401F
S31500001C100108030080E200E000E100E00000A442C9
S31500001C2000A0004080B501217F4804F0C1FC7F4937
S31500001C3001200860002005F0DDF8012304220221BE
S31500001C40052005F019F9012004F0DEFA00F00FF87E
S31500001C5004F00BFB05F004FA0123402274490FF24D
S31500001C60102005F0CBF973490860C00F02BD10B50E
S31500001C7001220121042004F0F3FE6F486F4C016835
S31500001C8041F0010101600022C16841F08071C1602C
S31500001C9000236B496B4808606B4802606B4A13600F
S31500001CA00223236015236A4C236000230364694BD7
S31500001CB00B65694911604FF48071684A11600168CB
S31500001CC041F48071016010BD80B560480168C907A4
S31500001CD00ED563490A6822F440620A600168490821
S31500001CE04900016001680902FCD4642005F0D5F9B9
S31500001CF000220021042004F0B3FE504900200860B1
S31500001D00564908604C49086001BD4B48006800B15F
S31500001D100120C0B27047D12202704170090A817059
S31500001D2050490A78C270501C0870042070472DE98B
S31500001D30F84FDFF834A1DFF834810446DAF8000002
S31500001D40005D461D05F0EEF9F6B2002500904FF64F
S31500001D50FF7B18E0A91EC9B22046FFF7C0FB074665
S31500001D60594605F009FA83464D4638480068C007CB
S31500001D7009D535480068C00505D5D8F80000002803
S31500001D80FBD088F80070FFF7C0FFEDB228B3B5426C
S31500001D9023DA05F0C7F90099401A80B2B0F5FA7F48
S31500001DA01BDC15B95B270125DFE7012D05F10109CC
S31500001DB003D1DAF80000075DD6E7F01E854208BFBA
S31500001DC05F46D1D0B01E854208BF4FEA1B27CBD055
S31500001DD0701E8542BED15D27C6E7B5420CBF002006
S31500001DE00120BDE8F28F20490968095C0429A8BFD3
S31500001DF0FFF79DBF0120704710B50E48006890B0F0
S31500001E004022694605F0E5F858B1C1B26846FFF7C9
S31500001E1042FA04462146122005F081FA2046FFF7D1
S31500001E20F7F910B010BD000000350A001088144202
S31500001E3078F50320D4E80320F0ED00E0F00004E09C
S31500001E40B00F00E055CEACC5000E00E0800E00E0FD
S31500001E50100004E0FF0300400D000100040304E04D
S31500001E60001000E014FD0320DCE80320200000E061
S31500001E7073696C6162737675617274646F776E00F4
S31500001E802DE9F04104460125200094B00F46904606
S31500001E901E4606D001281DD0102802D0202819D0B1
S31500001EA029E0002103F078FE0546012C18BF202CFE
S31500001EB008D0022C18BF212C04D0032C1CBF222CC6
S31500001EC0232C25D1012E0197ADF80C8015D14FF4A6
S31500001ED0805016E00AA80FF2B8012422FFF70CFE84
S31500001EE068460AA92422FFF707FE1020ADF8240051
S31500001EF0ADF82600D9E701200BE0022E03D14FF4FE
S31500001F004050ADF80A006946204603F045FE0546F6
S31500001F10E8B214B0BDE8F08103F0FFBE80B503F06F
S31500001F2007FFC0B202BD80B503F054FFC0B202BDC8
S31500001F3070B582B0044600200D4616468DF80000A6
S31500001F4001E0FFF727FE6B46324629462046FFF79B
S31500001F50EAFF0028F5D176BD80B503F0C6FFC0B212
S31500001F6002BD80B504F0CCF8C0B202BD0CB480B599
S31500001F700A46014602AB0448FEF7B4FF02BC002045
S31500001F805DF80CFB00000000956000007047000043
S31500001F900000014000C20100000000100000000027
S31500001FA00300020003000000000000000000000023
S31500001FB01E1E0000002080F31188704742DE704725
S31500001FC038B504460D4605F005FEFFF7E3FD06F0BD
S31500001FD046FC2946204605F0E3F82B4622460FF23A
S31500001FE0CC110120FFF7C2FF29462046BDE8344048
S31500001FF0E4E765482DE9F047644D01682E1D4FF46E
S3150000200020687165016AB16561490A68F2654968C7
S315000020103166416A7166816AB166C16AF166016BB1
S315000020203167806B706796F8340040074CBFF46BDD
S31500002030B46B06F035FC0022F2648442554A014630
S3150000204024BFA2F1200AA2452746316505F1900377
S31500002050DFF844C1DFF844E118D3A0693064E469CD
S315000020607464746DC4F30804062C13D1704511D33F
S3150000207060450FD200884DF64264A0420AD130680E
S31500002080586040F201787068986003E00027376472
S31500002090776407464248814202D2014600E0091DA4
S315000020A00846904203D20C68B4F1CD3FF7D03D49C3
S315000020B0081AB0640021002005EB8004401C0628A5
S315000020C0E167F9D3002003E0C0B205EB8004E167C5
S315000020D0974223D252F8041D7145F9D36145F7D2D0
S315000020E0CC07F5D5002405EB8409D9F87C90894501
S315000020F002D0641C062CF6D3062CE9D1002814BFA6
S31500002100401E0520E0E7B16F002405EB8402641C45
S31500002110D2F88070D767052CF7D319600146481EA0
S31500002120C9B20029EFD1706DC0F30800032810D0A2
S31500002130042811D0052812D0062813D00C2817D051
S31500002140122818D118480068800719D540F202589D
S3150000215016E040F6012813E040F6022810E040F6AB
S3150000216003280DE0B8F5206F0AD140F6042807E0F1
S3150000217040F6052804E018B1432838BF40F6072882
S315000021804046BDE8F087000004ED00E000000020B6
S3150000219000E300E098E503206A6D010018050000E1
S315000021A09C00002098E503201C2005400D0A5B4199
S315000021B053534552543A25703A25645D0D0A000082
S315000021C02DE9F8430446DFF8B8030068055D0026EC
S315000021D0E807B14648BF002020D400270FF2C848C0
S315000021E002E04FEA00197F1CFFB2AF4211DA39460E
S315000021F02046FFF774F9F90718F8000000F00F0001
S31500002200EFD549EA0002F1B22046FFF76DF9761CD8
S31500002210E9E7F1B22046FEF799FF0120BDE8F28317
S3150000222000F12401FF228A700022C273C2830A7061
S3150000223082730068C86070472DE9F74F82B00020AE
S315000022408DF801000298041D00F1240508E0607A6B
S3150000225068720120E07202999DF8000000F0A2F970
S3150000226003980027002660BB9DF810006946FFF71B
S3150000227055FE002839D0262826D00298012100F0E4
S3150000228083F978208DF80000B046102700208DF8DD
S315000022900100E07A0828E3D8DFE810F00A004B00D6
S315000022A08E00E900E9003B014701AC009D00D7E73D
S315000022B0102FCCD09DF80000232836D10820E072DC
S315000022C0CEE79DF8100020B99DF8010005B0BDE8E5
S315000022D0F08F0398401C0390401E00788DF8000094
S315000022E09DF81000401E8DF81000B0469DF80000C5
S315000022F067280FD29DF800100FF2AC30405C00F05A
S31500002300300700F00F08400607D5687A804504DAE2
S31500002310012602E07B2838BF10279DF800000A2816
S3150000232018BF0D28B2D10120B1E7202F98D0032085
S3150000233021E1102F1CBF9DF800005F2800D01EB1C0
S3150000234028780C28F3DA86E7202F18BF302F3ED1E5
S3150000235002992A781144002048744FF00009E86871
S315000023600BE01AF8010B00F016F91BF8011B81426D
S315000023700DD00198103009F10109019001984068CB
S3150000238028B30198D0F800A0029800F1110B9BF831
S3150000239000000028E5D19AF800000028E9D1A4F849
S315000023A01A90E868618B00EB01108068E0610020FC
S315000023B0A07228700220E072607A68726EB32B20D9
S315000023C02872C5F80480607A6872042077E70321D2
S315000023D0029800F0D9F89DF80100002809D0207B6A
S315000023E020B1029821688847002020730298FFF7E1
S315000023F017FF35E79DF8010018B1029800F0DEF8E6
S31500002400F4E79DF80000232803D1029800F0D6F8DF
S3150000241054E7202FEDD00420ADE09DF800002D28D4
S3150000242018BF2B2806D1287200206860607A68726F
S31500002430032044E722280AD10120FEF78CFEFF285C
S31500002440A8700BD00021FEF781FE052037E77B2818
S31500002450D0D10120FEF77FFEFF28A87000F08A8009
S315000024600021FEF773FE10206872062027E73EB1B2
S315000024706868697A01FB00800421E1726860EFE612
S315000024809DF80010782918BF582904D16A6812B936
S3150000249010206872E4E6742918BF542903D16968CC
S315000024A009B90A20F5E7032854D0202F18BF302F8A
S315000024B050D1E0692B7A6968027840782D2B08BFE5
S315000024C04942752A08D134281AD00022312814BF6F
S315000024D04FF6FF70FF200FE0732A08D1312807BF9F
S315000024E06FF07F027F20274A47F6FF7004E0042141
S315000024F0029800F049F86EE79142A8BF884206DBD1
S315000025000298022200F079F80028F4D052E706215A
S31500002510EEE79DF8000022281ED10298002100F067
S3150000252084F80028B6D00220C9E69DF800007D2870
S315000025300DD1A878FFF744FE06460298012100F067
S3150000254074F808B10220E072002EA3D102E0202F19
S31500002550A0D00EB907200EE00949A8780968095CE1
S31500002560FF2908BF082006D001226946FEF720FF92
S3150000257000288FD002208DF800009DF8001027E774
S31500002580DCE803200080FFFF027C1AB90822C27330
S3150000259001745FE07047A0F141011A293CBF203069
S315000025A0C0B2704738B50C4694F82450FFF7F3FFD5
S315000025B061194874681C84F8240031BD10B50446BE
S315000025C0206A017831B162290CBF01210221405CE9
S315000025D02A2807D1216BE28B01EB021120464968BC
S315000025E0884706E00420207420466168884700205A
S315000025F020742046BDE810402CE038B5837B057B6F
S31500002600AB4204D10521FFF7BFFF002032BD84682D
S3150000261044F82310817B491C8173016A8B5C2A2B49
S315000026201CBF89180162012032BD10B500F12002DD
S3150000263013681B78622B04D00421FFF7A5FF002046
S3150000264010BD9379FF2494710122BDE8104003EB7D
S315000026500121D2E770B500F10804A06AE18A00EB17
S3150000266001100026856805E00220295C2A2918BF8A
S315000026702D18761CA179F0B288420BD228786228F0
S31500002680F2D12068F6B250F82600C0B2FEF7C0FDBF
S315000026900120EAE70020A071A07FFF2803D0FEF703
S315000026A0B7FDFF20A07770BD00000000000000000D
S315000026B00020202020200000000000000000000074
S315000026C00000000000000000200030300000000084
S315000026D00000003000300000404142434445464778
S315000026E04849000000000000005A5B5C5D5E5F1018
S315000026F010101010101010101010101010101010D4
S315000027001010103000000000005A5B5C5D5E5F0038
S3150000271010B506F012F940F2A174C440E0070BD5DB
S31500002720064C207806F028F9207806F0C4F92078BF
S31500002730BDE8104006F08CBA10BD00BFDCE70320F0
S315000027401F210FF22C00FFF73BBC10B502F04DFF26
S31500002750044602F03FFF0246234604480FF22001DA
S315000027600078BDE81040FEF7CBBC0000DCE7032094
S3150000277072657365742D746573742E6300000000B2
S3150000278052455345543A25702D25700D0A00000018
S3150000279010B5DFF814470FF218012078FEF7B0FCE9
S315000027A020780FF21C01BDE81040FEF7A9BC00001E
S315000027B0286C6974746C6520656E6469616E0000CE
S315000027C02C20616C6C206461746120726570726586
S315000027D073656E7465642061732062797465206127
S315000027E072726179290D0A000178A1F130030A2B72
S315000027F00AD3A1F14103062B38BF373904D3A1F11F
S315000028006102062A03D257390907090E00E00021A2
S315000028104078A0F130030A2B02D2401830380CE081
S31500002820A0F14103062B02D24018373805E0A0F18B
S315000028306102062A03D240185738C0B27047080909
S31500002840704710B506F01CFD02001BD0DFF8584695
S315000028502078042A08BF0FF2300108D0062A08BFE4
S315000028600FF2700103D0072A04D10FF2AC01FEF774
S3150000287047FC03E00FF2E801FEF742FC20780FF276
S31500002880141190E710BD000068616C537461636BAE
S31500002890496E6974546F6B656E73204641494C45A9
S315000028A044207769746820454D4245525F4545503E
S315000028B0524F4D5F4D46475F535441434B5F56451C
S315000028C05253494F4E5F4D49534D415443480D0AAB
S315000028D00000000068616C537461636B496E697433
S315000028E0546F6B656E73204641494C4544207769A9
S315000028F0746820454D4245525F454550524F4D5FE5
S315000029004D46475F56455253494F4E5F4D49534DCD
S31500002910415443480D0A000068616C537461636B4F
S31500002920496E6974546F6B656E73204641494C4518
S3150000293044207769746820454D4245525F454550AD
S31500002940524F4D5F535441434B5F56455253494F87
S315000029504E5F4D49534D415443480D0A0000000057
S3150000296068616C537461636B496E6974546F6B650F
S315000029706E73204641494C4544207769746820456A
S315000029806D6265725374617475733A2025580D0A29
S3150000299000000000546F6B656E73206172652073D2
S315000029A074696C6C20616374697665207768656EFE
S315000029B0207573696E672074686973206170706C26
S315000029C069636174696F6E2E0D0A00002DE9F04F80
S315000029D0C1B08068DFF8D0740568FFF7D9FEA8B2E9
S315000029E006F02CFE0446A8B206F0A4FC8046A8B267
S315000029F006F0EBFE8346002C38781ABF4FF6FF71BF
S31500002A0088450FF2A8412CD02346AAB20FF2E41152
S31500002A10FEF776FB00250FF280290FF2802A0AE0E6
S31500002A201DF8062038784946FEF76AFB761CF6B292
S31500002A30A642F5DB6D1CEDB25D4510DABBF1010F68
S31500002A40234603D17F2200F00DF806E02A4600F067
S31500002A5009F838785146FEF753FB0026E7E7387841
S31500002A6051465EE04146684606F02DBC2DE9F04F22
S31500002A700446C1B0A068DFF830740668B0B206F04C
S31500002A80DDFD8046B0B206F055FC8346B0B206F0D6
S31500002A909CFE0646B8F1000F81A006D104F1110193
S31500002AA0FEF7F9FF0FF2A8213AE04FF6FF718B45CA
S31500002AB004F1110104D1FEF7EEFF0FF2B8212FE069
S31500002AC0FEF7E9FF38780FF264014246FEF718FB7D
S31500002AD000240FF2C4190FF2C41A0AE01DF80520EB
S31500002AE038784946FEF70CFB6D1CEDB24545F5DB23
S31500002AF0641CE4B2B44211DA012E434604D17F22AB
S31500002B005946FFF7B0FF07E022465946FFF7ABFFED
S31500002B1038785146FEF7F4FA0025E6E70FF2200171
S31500002B203878FEF7EDFA41B0BDE8F08F7B73697A2D
S31500002B30653A25647D7B76616C75653A0000000018
S31500002B407D7D0D0A000000002DE9F047C0B08068C9
S31500002B5004684768D44EFFF71BFEA0B206F06EFD70
S31500002B608146A0B206F0E6FB8046A0B206F02DFE36
S31500002B700546B9F1000F30781ABF4FF6FF71884548
S31500002B800FF2283131D0A5F1010A15B1FFB2BA45CD
S31500002B900BDA0FF22431FEF7B3FA30780FF2503128
S31500002BA053460022FEF7ACFA21E04B46A2B20FF2E2
S31500002BB04401FEF7A5FA012D08BF7F274B463A468A
S31500002BC0FFF750FF35A430782146FEF799FA002723
S31500002BD00FF2C40804E01DF8072000F027FF7F1C51
S31500002BE0FFB230784F45F6DB2146FEF789FA40B052
S31500002BF0BDE8F0875B2532785D28256429203D00F5
S31500002C002DE9F047C2B08068A74F0668FFF7C0FD00
S31500002C10B0B206F013FD8146B0B206F08BFB8246D9
S31500002C20B0B206F0D2FD0646B9F1000F1CBF4FF652
S31500002C30FF70824505D138780FF27021FEF760FAF1
S31500002C4028E000240FF2CC2803E0504606F04CFBA7
S31500002C50641CB4421EDA002513E016FB09F0431E7D
S31500002C60387809FB04524146FEF74AFA38780322BF
S31500002C706946FFF75DF96846FFF7B6FD01A94855B5
S31500002C806D1C4D45E9DB012E4B4601AA0CBF7F2189
S31500002C90E1B2DAE758E00000202558000D0A0000EE
S31500002CA07B264E002DE9F0470446C2B0A0680568B1
S31500002CB047687D4EA8B206F0C1FC8046A8B206F071
S31500002CC039FB8146A8B206F080FD05465FEA08009A
S31500002CD00FF2D01A04D100F089F80FF2740130E037
S31500002CE04FF6FF70814504D100F080F80FF28401A1
S31500002CF027E0DFF8E80C0068FFB2C05D404504D06D
S31500002D0000F074F80FF294011BE000200090434697
S31500002D100022394601A8FEF7DAFA002703E0484602
S31500002D2006F0E2FA7F1CFFB2AF4206DA012D4346F7
S31500002D3001AA0CBF7F213946F1E700F057F80FF2E0
S31500002D409C013078FEF7DCF942B0BDE8F087000060
S31500002D507B72657475726E3A317D7B746F6B656ECE
S31500002D602073697A65206973207A65726F7D7D0D9F
S31500002D700A0000007B72657475726E3A317D7B695C
S31500002D806E76616C696420746F6B656E2061646435
S31500002D90726573737D7D0D0A000000007B72657499
S31500002DA075726E3A317D7B54686520656E74657206
S31500002DB0656420627566666572206973206E6F743D
S31500002DC0206F662074686520657870656374656435
S31500002DD02073697A657D7D0D0A0000007B7265743B
S31500002DE075726E3A307D7D0D0A00000004F1110106
S31500002DF05046FEF750BE2DE9F047C2B0806807681E
S31500002E004468DFF8445CFFF7C3FCB8B206F016FC72
S31500002E108046B8B206F08EFA8146B8B206F0D5FC06
S31500002E200746B8F1000F28781CBF4FF6FF71894599
S31500002E3004D10FF27801FEF763F931E07E1E17B177
S31500002E40E4B2A6420BDA0FF27001FEF759F92878C0
S31500002E500FF29C0133460022FEF752F920E00026CD
S31500002E600FF2B00A11E02878A8F101033246514664
S31500002E70FEF746F9287803226946FFF759F86846AF
S31500002E80FFF7B2FC01A98855761C4645EBDB012FFE
S31500002E9008BF7F24434601AA2146484606F024FA85
S31500002EA052E700007B264E00DCE703206E6F74209D
S31500002EB0666F756E640D0A004552524F523A2044B1
S31500002EC065736972656420696E646578206973202C
S31500002ED06F7574206F662072616E676520666F720B
S31500002EE0207468697320746F6B656E0D0A000000AC
S31500002EF02020202020202056616C69642072616E9B
S31500002F0067652069732025582074687275202558D6
S31500002F100D0A00006461746120627974655B256442
S31500002F20206F662025645D3A000000002DE9F0431D
S31500002F30ADF5017DDFF8104B0FF68C38FFF728FC56
S31500002F4020784EF2455200F071FD20780FF6803160
S31500002F50FFF702F8DFF8F40A00F054FD00270FF23D
S31500002F60883902A84946C25D00F0ABFD7F1C082FD8
S31500002F70F7D3DEA700F063FD20784CF2563200F05E
S31500002F8055FD20780FF65C31FEF7E6FF0125DFF8E8
S31500002F90C00A00F043FD00F04CFD9DF8012000F052
S31500002FA04AFD6D1EF3D100F04AFD20784EF24532FF
S31500002FB000F03CFD20780FF64031FEF7CDFFDFF83C
S31500002FC0940A00F01FFD02A800F079FD6D1C082D83
S31500002FD0F9D300F034FD20784EF6735200F026FD4A
S31500002FE020780FF62831FEF7B7FFDFF86C0A00F0FD
S31500002FF00FFD002504A800F062FD6D1C102DF9D30D
S3150000300000F01DFD20784CF24E2200F00FFD2078D6
S315000030100FF60431FEF7A0FFDFF8400A00F0F8FCD7
S31500003020002504A800F04BFD6D1C102DF9D300F00F
S3150000303006FD20784CF6441200F0F8FC20780FF6D6
S31500003040E821FEF789FF0125DFF8140A00F0E6FC07
S3150000305000F0EFFC9DF8012000F0EDFC6D1EF3D1B1
S3150000306000F0EDFC20784DF2430200F0DFFC207802
S315000030700FF6C421FEF770FF0125DFF8E80900F01E
S31500003080CDFC00F0D6FC9DF8012000F0D4FC6D1EAE
S31500003090F3D100F0D4FC20784CF2431200F0C6FCC9
S315000030A020780FF6A421FEF757FFDFF8BC09018848
S315000030B00223EAB2FFF7D7FC00F0BBFC9DF8012023
S315000030C000F0B9FC6D1C142DEFDB00F0B8FC207885
S315000030D04DF2463200F0AAFC20780FF67C21FEF76E
S315000030E03BFF0125DFF8840900F098FC00F0A1FC05
S315000030F09DF8012000F09FFC6D1EF3D100F09FFCAF
S3150000310020784CF2433200F091FC20780FF66021D3
S31500003110FEF722FF0125DFF8580900F07FFC00F0DA
S3150000312088FC9DF8012000F086FC6D1EF3D100F0AE
S3150000313086FC20784CF6535200F078FC20780FF687
S315000031404421FEF709FFDFF82C0900F05BFC02A81A
S3150000315000F0B5FC6D1C082DF9D300F070FC20784A
S315000031604CF2543200F062FC20780FF62C21FEF768
S31500003170F3FE0125DFF8000900F050FC00F059FCD1
S315000031809DF8012000F057FC6D1EF3D100F057FCAE
S3150000319020784DF6540200F049FC20780FF6042101
S315000031A0FEF7DAFE0125DFF8D40800F037FC00F060
S315000031B040FC9DF8012000F03EFC6D1EF3D100F0AE
S315000031C03EFC20784DF2570200F030FC20780FF6D6
S315000031D0E011FEF7C1FEDFF8A80800F019FC04A80C
S315000031E000F06DFC6D1C102DF9D300F028FC207842
S315000031F04CF2573200F01AFC20780FF6C811FEF791
S31500003200ABFEDFF8800800F0F7FB002500F056FC67
S315000032106D1C042DFAD300F012FC20784CF65752A0
S3150000322000F004FC20780FF6B011FEF795FEDFF8EB
S31500003230580800F0E1FB002500F040FC6D1C042D51
S31500003240FAD300F0FCFB20784DF2575200F0EEFB6B
S3150000325020780FF69811FEF77FFEDFF8300800F0B1
S31500003260CBFB002500F02AFC6D1C042DFAD300F0E0
S31500003270E6FB20784CF2574200F0D8FB20780FF698
S315000032808011FEF769FEDFF8080800F0B5FB00259F
S3150000329000F014FC6D1C042DFAD300F0D0FB20784E
S315000032A04CF24B2200F0C2FB20780FF66811FEF7B5
S315000032B053FEDFF8E00700F0ABFB002504A800F0A2
S315000032C0FEFB6D1C102DF9D300F0B9FB20784CF2F3
S315000032D0423200F0ABFB20780FF65011FEF73CFEB1
S315000032E0DFF8B40704E000BF202558000D0A0000EF
S315000032F001885C237F226AA805F0E5FF00256AA8FD
S3150000330000F0DDFB6D1C5C2DF9D300F098FB2078F6
S315000033104CF6431200F08AFB20780FF62011FEF7D8
S315000033201BFEDFF87807018814237F2200F05BFB81
S31500003330002508A800F0C3FB6D1C142DF9D300F07E
S315000033407EFB20784DF2433200F070FB20780FF6BA
S315000033500411FEF701FE0125DFF8440700F05EFBCD
S3150000336000F067FB9DF8012000F065FB6D1EF3D1B0
S3150000337000F065FB20784DF2423200F057FB2078D2
S315000033800FF6E401FEF7E8FDDFF8180700F040FB52
S3150000339004A800F094FB6D1C102DF9D300F04FFB30
S315000033A020784CF2453200F041FB20780FF6D4012C
S315000033B0FEF7D2FDDFF8F006018894237F2245A8A8
S315000033C005F081FF002545A800F079FB6D1C942DC2
S315000033D0F9D300F034FB20784DF2583200F026FB8A
S315000033E020780FF6B401FEF7B7FDDFF8C00600F04F
S315000033F0FDFA002516A800F062FB6D1C202DF9D3FE
S3150000340000F01DFB20784DF2593200F00FFB2078BA
S315000034100FF6A001FEF7A0FDDFF8940600F0E6FA2D
S31500003420002516A800F04BFB6D1C202DF9D300F0EB
S3150000343006FB20784CF64B2200F0F8FA20780FF6BF
S315000034409001FEF789FDDFF86C06018822237F22B2
S315000034503CA805F038FF00253CA800F030FB6D1CA9
S31500003460222DF9D300F0EBFA20784BF2346200F00B
S31500003470DDFA20780FF66C01FEF76EFDDFF83806F0
S3150000348000F0C0FA002502A800F019FB6D1C082DFB
S31500003490F9D300F0D4FA20784FF6017200F0C6FA9C
S315000034A020780FF64C01FEF757FD012502237F22F7
S315000034B00021FFF7D8FA00F0BCFA9DF8012000F0D1
S315000034C0BAFA6D1EF2D100F0BAFA20784EF2231243
S315000034D000F0ACFA20780FF63001FEF73DFD04232C
S315000034E07F22012100F07CFA00F0E8FA6D1C042D21
S315000034F0FAD300F0A4FA20784EF2754200F096FA5C
S3150000350020780FF61C01FEF727FD11237F220221EA
S3150000351000F069FA002508A800F0D1FA6D1C112DFB
S31500003520F9D300F08CFA20784EF2632200F07EFA8E
S3150000353020780FF60001FEF70FFD04237F220321FA
S3150000354000F04EFA002500F0B9FA6D1C042DFAD3EE
S3150000355000F075FA20784EF2635200F067FA207890
S315000035600FF2E471FEF7F8FC04237F22042100F039
S3150000357037FA002500F0A2FA6D1C042DFAD300F0EC
S315000035805EFA20784EF2621200F050FA20780FF2BE
S31500003590CC71FEF7E1FC012502237F220521FFF70E
S315000035A062FA00F046FA9DF8012000F044FA6D1E1A
S315000035B0F2D100F044FA20784EF6793200F036FA6D
S315000035C020780FF2B071FEF7C7FC11237F22062187
S315000035D000F009FA08A800F072FA6D1C112DF9D353
S315000035E000F02DFA20784EF6646200F01FFA20787B
S315000035F00FF28C71FEF7B0FC10237F22072104A87E
S3150000360005F061FE002504A800F059FA6D1C102D86
S31500003610F9D300F014FA20784EF2241200F006FADC
S3150000362020780FF26C71FEF797FC1A237F2208218F
S3150000363035A805F048FE002535A800F040FA6D1CB7
S315000036401A2DF9D300F0FBF920784EF2251200F07E
S31500003650EDF920780FF24C71FEF77EFC08237F22ED
S31500003660092102A805F02FFE002502A800F027FA7E
S315000036706D1C082DF9D300F0E2F920784EF22612DF
S3150000368000F0D4F920780FF23871FEF765FC0A23B2
S315000036907F220A210DA805F016FE00250DA800F0D0
S315000036A00EFA6D1C0A2DF9D300F0C9F920784EF2F6
S315000036B0271200F0BBF920780FF21871FEF74CFCC8
S315000036C0012502237F220B21FFF7CDF900F0B1F986
S315000036D09DF8012000F0AFF96D1EF2D100F0AFF9B0
S315000036E020784EF2281200F0A1F920780FF204712A
S315000036F0FEF732FC18237F220C2110A805F0E3FD0B
S3150000370010A800F0DCF96D1C182DF9D300F097F91C
S3150000371020784EF2291200F089F920780FF2F06134
S31500003720FEF71AFC01237F220D210DF1020005F0A0
S31500003730CAFD9DF8022000F07EF900F080F920789D
S315000037404EF2102200F072F920780FF2DC61FEF7DB
S3150000375003FC00F074F920784EF2112200F066F9AD
S3150000376020780FF2E061FEF7F7FB00F068F92078A9
S315000037704EF2122200F05AF920780FF2E861FEF7B5
S31500003780EBFB00F05CF920784EF2132200F04EF9C4
S3150000379020780FF2F461FEF7DFFB00F050F9207895
S315000037A04EF2142200F042F920780FF20071FEF773
S315000037B0D3FB00F044F920784EF2152200F036F9DA
S315000037C020780FF21071FEF7C7FB00F038F9207869
S315000037D04EF2202200F02AF920780FF21871FEF737
S315000037E0BBFB04237F22142100F0FAF8002500F029
S315000037F065F96D1C042DFAD300F021F920784EF2FC
S31500003800212200F013F920780FF20C71FEF7A4FBC9
S3150000381000F015F920784EF2742200F007F92078AE
S315000038200FF22071FEF798FB00F009F920784FF6A9
S315000038300D7200F0FBF820780FF21C71FEF78CFB7E
S3150000384000250B23EAB217210DA805F03CFD002642
S315000038500DA84946825D00F034F9761C0B2EF7D38D
S315000038606D1C062DEDDB00F0EAF820784EF256428C
S3150000387000F0DCF820780FF2F461FEF76DFB00F043
S31500003880DEF820784FF4654200F0D0F820780FF289
S31500003890EC61FEF761FB00F0D2F820784EF203529D
S315000038A000F0C4F820780FF2EC61FEF755FB002516
S315000038B00123EAB21A210DF1020005F004FD9DF87C
S315000038C0022000F0B8F86D1C062DF1DB00F0B7F809
S315000038D020784EF2015200F0A9F820780FF2D0615C
S315000038E0FEF73AFB10237F221B2104A805F0EBFC10
S315000038F0002504A800F0E3F86D1C102DF9D300F0A4
S315000039009EF820784EF2025200F090F820780FF2DE
S31500003910B061FEF721FB28237F221C212BA805F08E
S31500003920D2FC00252BA800F0CAF86D1C282DF9D36F
S3150000393000F085F820784EF2582200F077F82078CB
S315000039400FF29061FEF708FB12237F221D2100F083
S315000039504AF8002508A800F0B2F86D1C122DF9D31C
S3150000396000F06DF820784EF2592200F05FF82078CA
S315000039700FF27061FEF7F0FA00253423EAB21E2139
S315000039801EA805F0A0FC00261EA84946825D00F090
S3150000399098F8761C342EF7D36D1C052DEDDB00F060
S315000039A04EF820784EF25A2200F040F820780FF2B6
S315000039B04C61FEF7D1FA00F042F820784EF25B2215
S315000039C000F034F820780FF24861FEF7C5FA00F0EF
S315000039D036F80DF5017DBDE8F0830000DCE8032034
S315000039E001A805F070BC08A805F06DBC018820236D
S315000039F07F2216A805F067BC018804237F2201A850
S31500003A0005F061BC018808237F2202A805F05BBC93
S31500003A10018810237F2204A805F055BC01880223E3
S31500003A207F22684605F04FBCC25D20784146FDF70F
S31500003A3067BB9DF8002020784946FDF761BB2078DA
S31500003A403946FDF75DBB0000DCE7032098A90100BD
S31500003A509AA901009CA901009EA90100A0A9010044
S31500003A60A2A90100A4A90100A6A90100A8A9010014
S31500003A70AAA90100ACA90100AEA90100B0A90100E4
S31500003A80B2A90100B4A90100B6A90100B8A90100B4
S31500003A90BAA90100BCA90100BEA90100C0A9010084
S31500003AA0C2A90100C4A90100C6A90100C8A9010054
S31500003AB0CAA90100CCA90100CEA9010001A8494666
S31500003AC0425D2078FDF71CBB5B2532585D20000067
S31500003AD04D46475F454D4245525F4555495F363431
S31500003AE0000000004D46475F435553544F4D5F5607
S31500003AF0455253494F4E00004D46475F4355535478
S31500003B004F4D5F4555495F36340000004D46475FCF
S31500003B10535452494E4700004D46475F424F41526B
S31500003B20445F4E414D4500004D46475F4D414E5561
S31500003B30465F4944000000004D46475F5048595FC4
S31500003B40434F4E46494700004D46475F4153485F45
S31500003B50434F4E46494700004D46475F53594E5422
S31500003B60485F465245515F4F464653455400000054
S31500003B704D46475F4343415F5448524553484F4C77
S31500003B80440000004D46475F455A53505F53544F1B
S31500003B9052414745000000004D46475F4354554E8D
S31500003BA0450000004D46475F584F5F54554E45004F
S31500003BB04D46475F4C4F434B424954535F504C5719
S31500003BC0000000004D46475F4C4F434B424954535B
S31500003BD05F434C57300000004D46475F4C4F434B08
S31500003BE0424954535F4D4C57000000004D46475F15
S31500003BF04C4F434B424954535F554C57000000000D
S31500003C004D46475F4C4F434B424954535F444C57D4
S31500003C10000000004D46475F424F4F544C4F414411
S31500003C205F4145535F4B4559000000004D46475FD5
S31500003C3043424B455F444154410000004D46475FB7
S31500003C40494E5354414C4C4154494F4E5F434F44A7
S31500003C50450000004D46475F534543555249545968
S31500003C605F434F4E464947004D46475F53454355D0
S31500003C7052455F424F4F544C4F414445525F4B456E
S31500003C80590000004D46475F43424B455F3238338B
S31500003C904B315F44415441004D46475F5349474EBF
S31500003CA045445F424F4F544C4F414445525F4B454C
S31500003CB0595F58004D46475F5349474E45445F425A
S31500003CC04F4F544C4F414445525F4B45595F590045
S31500003CD04D46475F5448524541445F4A4F494E5FFF
S31500003CE04B4559004D46475F4555495F3634000000
S31500003CF0535441434B5F4E56444154415F564552DF
S31500003D0053494F4E00000000535441434B5F41500E
S31500003D10535F4652414D455F434F554E5445520001
S31500003D20535441434B5F414C5445524E4154455FB9
S31500003D304B455900535441434B5F424F4F545F43E9
S31500003D404F554E5445520000535441434B5F4E4F1E
S31500003D504E43455F434F554E5445520053544143DD
S31500003D604B5F414E414C595349535F5245424F4F69
S31500003D7054000000535441434B5F4B4559530000D8
S31500003D80535441434B5F4E4F44455F4441544100B9
S31500003D90535441434B5F54525553545F43454E541D
S31500003DA045520000535441434B5F4E4554574F52C2
S31500003DB04B5F4D414E4147454D454E540000000076
S31500003DC0535441434B5F504152454E545F494E4612
S31500003DD04F000000535441434B5F504152454E54EF
S31500003DE05F4144444954494F4E414C5F494E464F0A
S31500003DF000000000535441434B5F4D554C54495FFE
S31500003E005048595F4E574B5F494E464F00000000E1
S31500003E10535441434B5F4D494E5F524543454956C6
S31500003E2045445F52535349004D554C54495F4E45E6
S31500003E3054574F524B5F535441434B5F4B45595375
S31500003E40000000004D554C54495F4E4554574F52A3
S31500003E504B5F535441434B5F4E4F44455F4441547F
S31500003E60410000004D554C54495F4E4554574F5242
S31500003E704B5F535441434B5F414C5445524E415462
S31500003E80455F4B45590000004D554C54495F4E4522
S31500003E9054574F524B5F535441434B5F5452555303
S31500003EA0545F43454E544552000000004D554C5456
S31500003EB0495F4E4554574F524B5F535441434B5FF6
S31500003EC04E4554574F524B5F4D414E4147454D4528
S31500003ED04E5400004D554C54495F4E4554574F5271
S31500003EE04B5F535441434B5F504152454E545F49DB
S31500003EF04E464F004D554C54495F4E4554574F5210
S31500003F004B5F535441434B5F4E4F4E43455F434FC8
S31500003F10554E5445520000004D554C54495F4E4590
S31500003F2054574F524B5F535441434B5F5041524598
S31500003F304E545F4144444954494F4E414C5F494EAB
S31500003F40464F0000535441434B5F42494E44494E4D
S31500003F50475F5441424C4500535441434B5F4348ED
S31500003F60494C445F5441424C450000005354414380
S31500003F704B5F4B45595F5441424C450053544143B6
S31500003F804B5F43455254494649434154455F54416A
S31500003F90424C4500535441434B5F414444495449C4
S31500003FA04F4E414C5F4348494C445F4441544100A5
S31500003FB0535441434B5F5A4C4C5F444154410000BB
S31500003FC0535441434B5F5A4C4C5F534543555249FA
S31500003FD054590000535441434B5F47505F4441548A
S31500003FE041000000535441434B5F47505F50524FCE
S31500003FF058595F5441424C45000000005354414318
S315000040004B5F47505F53494E4B5F5441424C45000E
S31500004010535441434B5F47505F494E434F4D494EC2
S31500004020475F46430000000010B50446002003F039
S31500004030D2FF002003F0E8FF02F052F9012003F05E
S315000040403BFF204605F071FE2046BDE8104000F01B
S315000040502BBF80B5022100F02CF9009805F0B6FFC1
S3150000406001BD8068DFF8D41300680870087802285C
S31500004070A8BF0FF20C4305DA002814BF0FF20C4359
S315000040800FF21043DFF8B8030FF2E432D0F8101342
S31500004090FFE70FF2D030FDF7FEBC0000F8B503F0E5
S315000040A06DFEDFF8A0430FF2804204EB8000C36888
S315000040B0DFF88C03D0F850130FF25040FDF7EBFCFD
S315000040C0DFF88403006805F0B9FF0528054614D813
S315000040D0DFE800F003100E090C060FF204420EE0B2
S315000040E00FF2F0320BE00FF2E03208E078A206E0C1
S315000040F078A204E00FF2C83201E00FF2F0320FF2BC
S3150000410004410FF2F8300FF2EC37FDF7C4FC00263D
S31500004110F6B254F8261005F001023846FDF7BBFC4E
S31500004120761C6D08F0B20328F2D3BDE8F24090E0A9
S3150000413038B50446A0680568DFF80403D0F86013B4
S315000041400FF2F030FDF7A7FCEDB215B1012D07D047
S315000041500CE00FF2E830FDF79EFC03F03BFD05E0B6
S315000041600FF2EC30FDF797FC03F006FE0FF2F0308D
S31500004170FDF791FC2046BDE832408FE7F0B50646D4
S315000041800C4685B0204603F0E6F90746204603F0C4
S3150000419085FB05460FF244423FB9234606F111015D
S315000041A00FF22040FDF777FC10E0039723460FF24D
S315000041B06040029006F1110104F01F0001900FF219
S315000041C0484000900FF21C40FDF765FCA5420FF237
S315000041D0C43605D02A460FF240413046FDF75BFC57
S315000041E0204603F043FB024612F1010F0FF278302E
S315000041F00FF27C3108BF0FF2803210D012B90FF2E5
S3150000420080320CE0DFF84402DFF84012B2FBF0F037
S3150000421001FB102131B902460FF280313046FDF71D
S315000042203AFC13E04FF47A71DFF82402B2FBF1F1A5
S315000042304FF47A7303FB11230078002B06BF0A465E
S315000042400FF260310FF26C31FCF75AFF05B0BDE892
S31500004250F04066A0FDF71FBC10B5044603F0C8FA8F
S3150000426001462046BDE8104088E738B5044603F00D
S3150000427085FD05007248D0F830130FF2A43018BF40
S315000042800125FDF708FC03F077FDA0680068C0B2C1
S3150000429003F0CDF902460FF220210FF2B830FDF7F8
S315000042A0FAFB0DB103F096FC2046BDE83240D3E799
S315000042B00121684603F0B5B810B5044603F04BFF7C
S315000042C004F11101BDE8104003465AA2C2E0000005
S315000042D054780000527800002DE9F84F06468946CA
S315000042E0154603F04BFD040018BF012403F06DFDD5
S315000042F0002E4FF07F0A6FF07F0B4FF000088DF80D
S31500004300000008D10126022003F063FD642002F0BC
S31500004310C4FE374612E0F6D576420020F4E7802048
S3150000432002F0BBFE03F048FE83455246B8BF834603
S3150000433082469245C8BF924680447F1E012FEEDA20
S315000043409DF8000003F045FD0CB103F043FCB9F104
S31500004350000F18BF89F800A015B198FBF6F0287079
S315000043605846BDE8F28F10B500F01AF804F11101B5
S31500004370BDE8104003460FF204320FF2EC20FDF7C1
S315000043808ABB10B500F00CF803F0A5FA04F1110190
S31500004390BDE81040034628A20FF2E820FDF77BBBDC
S315000043A0044600220021012096E710B5044686B097
S315000043B0A068006804AA0DF11101FFF78DFF0390B4
S315000043C004F111010FF204309DF911300FF2EC22C5
S315000043D002909DF9100001900FF2E82000900FF274
S315000043E0C020FDF758FB06B010BD00007D0D0A0089
S315000043F080B503F027FF034611480FF2E822D0F8F4
S31500004400B0130FF2D020BDE80050FDF744BB10B545
S3150000441004460B48D0F8C0130FF2D820FDF73BFB3B
S31500004420A068006840B203F0D8FE2046BDE8104000
S31500004430DEE700004343410045440000F2EB032061
S315000044406893010014E8032070ED032040420F003A
S31500004450DCE703200FF20420FDF71DBB8168096825
S31500004460C9B28BE67B264E202674737D0D0A0000AA
S315000044705045522054657374204D6F6465000000EA
S31500004480656E61626C65642D6E657700656E61624E
S315000044906C65640064697361626C656400000000A9
S315000044A061736C65657000006177616B6500000083
S315000044B0656E6572677900007374617475730000C8
S315000044C049646C6500000000527841637469766542
S315000044D000000000547841637469766500000000AE
S315000044E0496E61637469766500000000556E6B6EF7
S315000044F06F776E0020267468000000002026747313
S315000045000000000052665374617465007B264E20DD
S31500004510526164696F20706F77657220737461747D
S315000045206520267473000000706F776572207374BF
S31500004530617465007B264E2000000000536C6565A3
S3150000454070696E6720726164696F2E2E2E000000FE
S3150000455057616B696E6720726164696F2E2E2E003B
S31500004560646F6E657D0D0A002026747000000000E1
S315000045706672657100000000696C6C6567616C00AD
S3150000458050657252616D526164696F436F6E666900
S3150000459067000000202674750000000066726571D1
S315000045A04D487A00207B667265714B487A3A256CD5
S315000045B07D000000207B66726571487A3A256C7D25
S315000045C0000000007B264E20526164696F206368FC
S315000045D0616E6E656C202674680000006368616E0B
S315000045E06E656C007B264E20526164696F2063689D
S315000045F0616E6E656C2026746820282674642069B6
S315000046006E202674642900006368616E0000000055
S3150000461070616765000000005074694368616E0050
S315000046207B264E2053657474696E67206368616EDD
S315000046306E656C20616E642063616C696272617480
S31500004640696E6720286173206E6565646564292E2E
S315000046502E2E00002674687D0D0A00007B264E2053
S315000046602674647D0D0A00007B264E202674642085
S315000046705B64426D5D7D0D0A000000005253534994
S31500004680000000007B264E20267464205B38303202
S315000046902E31352E3420756E6974735D7D0D0A00DA
S315000046A07B264E202674642026746420267464209B
S315000046B05B64426D5D7D0D0A000000006D696E52FF
S315000046C05353490061766752535349006D617852DE
S315000046D0535349007B264E202674642064426D7D28
S315000046E00D0A0000434341205468726573686F6C7D
S315000046F0640000007B264E7D0D0A000080B5002078
S3150000470003F044FFBDE8014005F084BB10B5DFF8B7
S315000047101441DFF81411607D08710122E0694FF43D
S315000047207A7105F0E8FC01001CBF0121217510BD5E
S31500004730DFF8F010C861887DDFF8EC104871E5E716
S3150000474070B58EB00C460CA805F0CCFC054605F0FD
S3150000475001FD064605F0C2FCBDF83610DFF8CC2098
S315000047600B9103460FF244010FF248000A9103959C
S315000047700196BDF8341009910FF280010891BDF839
S31500004780321007910FF27C010691BDF830100591A9
S315000047900FF2780104910FF27C0102910FF27C0175
S315000047A000912146FDF777F90EB070BD73757370F1
S315000047B0000000007B264E20267475202674326881
S315000047C0202674642F31303025250D0A20202674CA
S315000047D0642F3130302525202674642F3130302562
S315000047E025202674642F3130302525202674642F29
S315000047F031303025257D0D0A000000006372697492
S31500004800000000006C696D690000000074616C6B4B
S315000048100000000075736564000000006163636555
S315000048206C00000030E803208CF0032030480000C4
S315000048306D6F6465000000002DE9F04B0446884664
S31500004840914605F078FCDFF80875F87005093878A8
S3150000485018BF6D1E28B1386B07EB8000416A491CF2
S315000048604162BC708C2C18BF03F097FA20000FF23F
S315000048703C1BDFF81C660CD0402C21D0882C18BFBE
S31500004880892C4CD08C2C37D08D2C33D08F2C0CD03F
S315000048903AE03869401C3861386A28183862307D39
S315000048A000283CD040F2275136E0B869401CB86178
S315000048B0386A28183862307D88B340F22C512BE0D4
S315000048C0F869401CF861386A28183862387860B18F
S315000048D005F042FC022806D1786B401C7863386BE1
S315000048E080F00100386305F039FC307DB8B14FF433
S315000048F0A76111E005F01CFC7869401C7861307DE9
S3150000490068B140F23F5107E022460FF2B80101209C
S31500004910FDF72CFB4FF4AA615846FDF751FB402CDE
S3150000492087F80190C7F83C8018D13879022811DB46
S31500004930411E38893971401C3881C9B22A2005F0D8
S3150000494015FCF06900224FF47A7105F0D4FB0400DF
S3150000495004D128E000212A2005F008FC200018BF19
S315000049608F2C1ED0787902281BDB401E787178893F
S31500004970401C7881DFF87405007802280ADBF169AB
S31500004980DFF86C05814205D10178092902DBC1787F
S31500004990491CC170708B02F080FBBDE8F04BFFF73D
S315000049A0B5BE01203075BDE8F08B00007068792D2A
S315000049B0636F6D6D6F6E2D74782D746573742E63D1
S315000049C000000000656D626572526164696F547221
S315000049D0616E736D6974436F6D706C657465497350
S315000049E07243616C6C6261636B207374617475737E
S315000049F03A2030782578000080B502F0FDFE00F000
S31500004A0017F8D0F8A01406E080B502F008FF00F011
S31500004A100FF8D0F8C0140FF20C00BDE80050FDF7F7
S31500004A203AB800007B264E2026746464426D7D00F1
S31500004A300346DFF8C4040FF204027047616374751D
S31500004A40616C506F7765720030B5044683B0A0681C
S31500004A50056868B202F0DFFE01906BB200F02EF836
S31500004A60D0F8B0140FF24400FDF715F822A0FDF7B8
S31500004A7012F82046BDE83E40BEE730B5044683B096
S31500004A80A068056828B202F0CFFE01902BB200F0B4
S31500004A9015F8D0F8D0140FF21400FCF7FCFF16A09E
S31500004AA0FCF7F9FF2046BDE83E40ADE77B264E20E9
S31500004AB026746464426D202674647D000FF268409B
S31500004AC00FF26C420090DFF83004704700B5DFF853
S31500004AD018140FF280420B8B0FF2904183B00091B5
S31500004AE0019300F111010FF2584033E18168DFF8BC
S31500004AF0F82309681183E9E70D0A00002DE9F14F53
S31500004B0084B08068008801900124401E8041C00F57
S31500004B10029003F033F900B101208DF801004FF047
S31500004B20000BDFF82C52DFF868836869DFF8CC7376
S31500004B30ADF80200D9460198012813D000F002F919
S31500004B403878029921B10FF24441FCF7D9FA03E013
S31500004B50019A76A1FCF7D4FAB8F8182000F0EDF81F
S31500004B6000F0E6F8DFF88863DFF894A38022514668
S31500004B703046FCF7B1FFDFF8740300780228A4BFC3
S31500004B803078092819DB9AF8011001F0200141F06C
S31500004B90C1017170A1461821B1703018029919B17E
S31500004BA000F805BC002004E0019900F8051C0198F6
S31500004BB000123178711801F8040CDA4611E002F09F
S31500004BC0B1FA834698F8140048B9FFF797FD02F04A
S31500004BD0A9FAA0EB0B0080B2B0F5FA6FF2D995F8FE
S31500004BE002B0029810B9019882454FDA00208DF87C
S31500004BF0000069463878FDF791F99DF8001065299F
S31500004C0044D03878642906D100F08AF8049800F177
S31500004C101101002007E0442907D100F081F804982B
S31500004C2000F111010120FFF78BFD0AF101001FFAC7
S31500004C3080FADFF8D002007820B102F000FC08B15B
S31500004C4005F09EFAB8F8180002F027FADFF89C0281
S31500004C50007880B1B9F1000F18BFF47030780428DD
S31500004C6009DB301800F8034C201231787118641CE7
S31500004C7001F8020CA4B2002088F814000120A870E4
S31500004C803046FFF755FD0028834698D038780FF256
S31500004C9020315246FCF734FA98F80D0040B1A88A44
S31500004CA0BDF80210421A38780FF22031FCF728FAC4
S31500004CB038780FF23C315A46FCF722FADFF8480200
S31500004CC00FF2483102883878FCF71AFA38780FF272
S31500004CD05C31FCF715FA69783878002914BF0FF2B1
S31500004CE068310FF26C31FCF70BFA03F067FA28B162
S31500004CF0AA6B38780FF26031FCF702FAEA6B387863
S31500004D000FF28031FCF7FCF9642002F0C6F99DF839
S31500004D10010008B102F05EFF05B0BDE8F08F0000AB
S31500004D2052460FF28C21FCF7EBB900002575000006
S31500004D3038780FF2E811FCF7E3B938780FF258210A
S31500004D40FCF7DEB938780FF23C21FCF7D9B9000040
S31500004D508CF00320FCF79FFE07BD38B500F03DF848
S31500004D6000F034F818BF0124FCF7CAF903F004F880
S31500004D7003F0B6F902E0287800F00BF800F004F82A
S31500004D80F9D103F0C1F91DE09DF8000065287047D0
S31500004D9020786946FDF7C2B838B500F01EF800F075
S31500004DA015F818BF0124FCF7ABF902F0E5FF03F094
S31500004DB0B9F902E02878FFF7ECFFFFF7E5FFF9D134
S31500004DC003F0C8F90CB102F005FF31BDDFF82C5134
S31500004DD00FF2481104002878704700208DF8000073
S31500004DE002F0CCBF2DE9F041DFF810410FF2C421EB
S31500004DF020780FF2D0260FF2C428DFF80471FCF7F2
S31500004E007FF9002515E07A5D20784146FCF778F9B0
S31500004E10681005EB90708010B5EB800007D13878EC
S31500004E20854204DA20782A463146FCF769F96D1C7A
S31500004E30EDB23878401C8542E5DBBDE8F08180683C
S31500004E40DFF8BC100068087070472DE9F843044687
S31500004E500025A068DFF8A46007680FF27429DFF860
S31500004E60A0807F1CFFB2802F06DAA06800EB8500C9
S31500004E70406808F8070005E030786B1C7A1E494642
S31500004E80FCF73EF96D1C042DEBDBBDE8F183000059
S31500004E9030E803201A481421017001214A1E4254A9
S31500004EA0491C8029FAD370471248184A002101612B
S31500004EB041618161C16101621160154A1160018120
S31500004EC0418100201349086070478068064A0078CF
S31500004ED0010018BF0121517302280F490CBF0120A0
S31500004EE0002008707047000030E80320F2EB032032
S31500004EF07CFC03208CF0032068930100DCE7032090
S31500004F00FCFB0320F3EB032002FD03208CF80320B7
S31500004F1088F8032028F903205DED03202765276E16
S31500004F20642E2E2E000000007374617475730000E9
S31500004F30726571756573746564506F77657200008C
S31500004F407B264E202674647573202674327875731A
S31500004F507D0000007472616E736D69742064656C07
S31500004F606179202864656329000000007472616E0F
S31500004F70736D69742064656C617920286865782989
S31500004F80000000005478696E67200000696E66694B
S31500004F906E69746500000000207061636B65747350
S31500004FA02025752075732061706172742E200000B3
S31500004FB00D0A2575207061636B65747320747261C8
S31500004FC06E736D69747465642E0D0A00257520660E
S31500004FD061696C65642064756520746F206368611F
S31500004FE06E6E656C20627573792E0D0A00000000E6
S31500004FF04C617374207061636B65742073746174A3
S3150000500075733A2030782532780D0A004C61737436
S31500005010207061636B6574206261636B6F66663ACC
S315000050202030782532780D0A000000004672616D46
S31500005030652070656E64696E6720696E206C6173A9
S31500005040742041434B3A20005965732E0D0A000027
S315000050504E6F2E0D0A0000005346442074696D659C
S315000050602028766961205346442073656E74206358
S31500005070616C6C6261636B293A2030782532780D59
S315000050800A0000005346442074696D65202876693D
S315000050906120545820636F6D706C65746520636180
S315000050A06C6C6261636B293A2030782532780D0A80
S315000050B000000000206C656E3A20000030782578EC
S315000050C0200000000D0A307825783A200000000004
S315000050D07061796C6F6164206279746520696E64B1
S315000050E065783A202564206973206F7574206F6691
S315000050F02072616E67652E20617267756D656E74CC
S315000051002025642069676E6F7265642E0D0A0000A3
S31500005110130018BF01231A46FFF78EBB490100286A
S3150000512007D5DFF8E42400F00F00104400F8041C53
S315000051307047DFF8D8241154704700F0070010B507
S31500005140C0F10703042B28BF0323C41C072C34BF5C
S315000051500020001F012404FA03F35B1E194081405E
S3150000516004FA00F0401E1040084310BD00207047AE
S31500005170704710B586B072B603F071FBDFF8900485
S31500005180DFF890444069206000F014FA01466FF0A1
S315000051900E00FFF7C3FF00F00DFA01466FF00D0099
S315000051A0FFF7BCFF00F006FA01466FF00C00FFF7B0
S315000051B0B5FF00F0FFF901466FF00B00FFF7AEFFF9
S315000051C000F0F8F901466FF00A00FFF7A7FF00F0BC
S315000051D0F1F901466FF00900FFF7A0FF00F0E2F9D0
S315000051E001466FF00800FFF799FF00F0DBF9014672
S315000051F06FF00700FFF792FF00F0D4F901466FF059
S315000052000600FFF78BFF00F0CDF901466FF00500B1
S31500005210FFF784FF0022022100F0C6F901466FF075
S315000052200400FFF77BFF00F0C9F901466FF00300A9
S31500005230FFF774FF00F0B6F901466FF00200FFF7C2
S315000052406DFF0022072100F0AFF901466FF0010063
S31500005250FFF764FF00F0B2F901464FF0FF30FFF7A9
S315000052605DFF00F0ABF901460020FFF757FF002273
S31500005270032100F099F901460120FFF74FFF00F0E6
S3150000528095F901460220FFF749FF00F08FF9014624
S315000052900320FFF743FF00F091F901460420FFF7D2
S315000052A03DFF00F08BF901460520FFF737FF00F0C0
S315000052B085F901460620FFF731FF00F07FF9014628
S315000052C00720FFF72BFF00F079F901460820FFF7CA
S315000052D025FF00F073F901460920FFF71FFF00F0D4
S315000052E06DF901460A20FFF719FF00F067F901463C
S315000052F00B20FFF713FF00F061F901460C20FFF7C2
S315000053000DFF00F05BF901460D20FFF707FF00F0E7
S3150000531055F901460E20FFF701FF00F04FF901464F
S315000053200F20FFF7FBFE00F049F901461020FFF7BA
S31500005330F5FE00F043F901461120FFF7EFFE00F0FD
S315000053403DF901461220FFF7E9FE00F037F9014664
S315000053501320FFF7E3FE00F031F901461420FFF7B2
S31500005360DDFE00F02BF901461520FFF7D7FE00F011
S3150000537025F901461620FFF7D1FE00F01FF9014678
S315000053801720FFF7CBFE00F019F901461820FFF7AA
S31500005390C5FE00F013F901461920FFF7BFFE00F025
S315000053A00DF901461A20FFF7B9FE00F007F901468C
S315000053B01B20FFF7B3FE00F001F901461C20FFF7A2
S315000053C0ADFE00F0FBF801461D20FFF7A7FE00F03A
S315000053D0F5F801461E20FFF7A1FE00F0EFF80146A2
S315000053E01F20FFF79BFE00F0E9F801462020FFF79B
S315000053F095FE00F0E3F801462120FFF78FFE00F04E
S31500005400D5F801462220FFF789FE00F0D7F80146BD
S315000054102320FFF783FE00F0D1F801462420FFF792
S315000054207DFE00F0CBF801462520FFF777FE00F061
S31500005430C5F801462620FFF771FE00F0BFF80146C9
S315000054402720FFF76BFE00F0B9F801462820FFF78A
S3150000545065FE00F0B3F801462920FFF75FFE00F075
S31500005460ADF801462A20FFF759FE00F0A7F80146DD
S315000054702B20FFF753FE00F0A1F801462C20FFF782
S315000054804DFE00F09BF801462D20FFF747FE00F089
S3150000549095F801462E20FFF741FE00F08FF80146F1
S315000054A02F20FFF73BFE00F089F801463020FFF77A
S315000054B035FE00F083F801463120FFF72FFE00F09D
S315000054C071F801463220FFF729FE60684FF6FF01AA
S315000054D0084040F0BF6040F401306060E06840F48E
S315000054E00070E060E06840F01000E0604FF4E020FB
S315000054F0E06104F0A3FE03F0DFF9474A474892B2A1
S315000055000021FCF786F8464A464892B20021FCF78D
S3150000551080F862B6444845490068000E09D14AF64B
S31500005520E850C862486B40F0040048630020C86237
S3150000553001E0022803D2086840F40050086002AC7B
S315000055403B48016821F4401141F488110160394853
S31500005550016841F48071016001203749086004F058
S3150000556095FE04F03EFF05F014F90FF2D000D0E9E5
S315000055700023CDE9002301208DF80300684605F0DD
S31500005580A9FA05F03DFD01F0DBFD0FF2B8000FC8EA
S3150000559084E80F0008208DF8140002A805F0D0FD5D
S315000055A006B010BDFF22FF210420C6E5002201211E
S315000055B00420C2E5002200210420BEE500220421C9
S315000055C00420BAE505F0CABD05F0C9BD04F0D6BD94
S315000055D004F0D5BD80B503F0B0F901460FF27400B2
S315000055E00C2938BF00EB810002BD80B503F0A9F994
S315000055F00FF290010204120E51F8221000F0FF0083
S3150000560001EB800002BD000018ED00E000E400E0C0
S315000056100000000008ED00E02C110000A0000020B2
S315000056200000000000000000FC81E00F64310E4025
S3150000563020400E4000000E4010300E4000000000DA
S3150000564000000000B4A40100ACA40100BCA4010049
S3150000565000000000554E4B004649420042544C00A3
