S00E00006E63702D7370692E7333372C
S3150000400038650020FDE2020039850000E5E0020087
S31500004010A70A0A010042000004180FAC1063F5005D
S31500004020000000000000000000000000000000008A
S3150000403000000000A4F302000000000000000000E1
S315000040400000000000000000FFFFFFFFFFFFFFFF72
S31500004050FFFFFFFF007003000000000000000000EB
S31500004060FFFFFFFFFFFFFFFF100000000000000042
S31500004070000000000000000000000000000000003A
S315000040800000000000000000E47F0020E47F002024
S315000040903865002071010300CEE30200D85B0020E2
S311000040A00000000000000400000000000A
S3150000420038650020FDE2020039850000E5E0020085
S31500004210EDE00200E9E00200F1E00200000000002B
S31500004220000000000000000000000000CF60000059
S31500004230F5E00200000000008364000093690000BE
S31500004240EDDC00003D7B01009D5C000079770100FC
S31500004250897B0100437B0100457B01003F7B010018
S31500004260514B02009B4D0200BDBA0000939B00001B
S31500004270FDE00200FDE00200DB440000FDE002007C
S31500004280FDE00200B94D0200FDE00200FDE0020083
S31500004290FDE00200FDE00200FDE00200FDE002009C
S315000042A0FDE00200FDE00200FDE002008B7B010064
S315000042B0417B0100F1BF0000BB7B0100FDE0020075
S315000042C065E20200FDE0020030277149724A01E012
S315000042D021B1491E1369DB07FAD401B9BAE050606F
S315000042E001201060106910F0060F05D0410700D5B7
S315000042F0B3E08006102D00207047F0B5134600226B
S31500004300002936D0624C634D8BB98B4231D250F8BE
S31500004310046BEE605B1C08262E60264601E036B371
S31500004320761E2F69FF501020002EEED11FE0EFF30E
S31500004330108672B600230EE02F6907F01907102FBA
S3150000434008BF2F602F693F07F6D53C137BEF3C2053
S315000043500A10272F608B42F4D306B962B6441005C3
S3150000436026B1761E2869C04410590EB96FF00202B4
S315000043701046F0BD2DE9F84F474F0D463968044603
S31500004380002041F001019B4639604FEA92088146C0
S31500004390AA4602E0B1440AEB860AC14517D204EBED
S315000043A089063046FFF78FFF010022D1C6F30A00C7
S315000043B0C0F500608608A8EB0900B04238BF064683
S315000043C05A46314650221297221009E2D021682A15
S315000043D068914209D02012127512100504D15A466E
S315000043E00121280E141987FF3968490849003960E8
S315000043F0BDE8F28F2749254A0B6843F001030B609D
S315000044008828901348604869400704D50868400822
S31500004410400008601EE048698010100119E002247F
S31500004420300501E022B1521E48CE6322B91C630555
S31500004430E00A255811E420050070474FF0FF300CC4
S3150000444012010C2006002386E70B480168E82016B7
S31500004450016046F21A31C1644FF4807141604169CE
S31500004460C907FCD40021C1643A12000110078096E6
S3150000447098000C000E400804072802D23549085C53
S315000044807047FF207047072802D23349085C7047FF
S31500004490FF20704738B50446304800EB8105A87800
S315000044A00009FFF7E9FF2071A87800F00F00FFF779
S315000044B0EAFF6071FF2814BF01200020E870214642
S315000044C0E878A071287860706878254DA070284635
S315000044D000F0A3F80120A86031BD10B5214984B0D1
S315000044E01CC968461CC02048204A0178D368146855
S315000044F02340DB072DD503292BD2184C12691C4B00
S3150000450004EB8104E4781CB114B2002C48BF0022ED
S3150000451023F811200123174A147803FA01F12143E5
S315000045201170154A117891B100211478CC40E40736
S3150000453008D501708B401078584010706846FFF718
S31500004540A9FF1FBD491CC9B20329EED31FBD032114
S3150000455001701FBD80F3020088F302009C6D0020ED
S315000045600020004074F30200997F002038200040AC
S31500004570CC6D00209A7F0020987F0020890001EBF7
S31500004580401000F184400260704730B5002A446B49
S31500004590DFF834511ABF1022DFF83031DFF830313E
S315000045A023400024A84237D1DFF8280151B1012960
S315000045B00CD002291ED003290CD0062915D081293A
S315000045C018D023E001680468006816E001680468F2
S315000045D0006802E0416844684068090C01F4FE4145
S315000045E0C4F303442143000C0CE08168806801F0A9
S315000045F00F0107E041684468406801F4FE4104F099
S315000046000F04214300F0F00040EA010404FA02F02E
S31500004610DFF8C4101843086030BD38B504460D46AF
S315000046200220A0600022A9782046FFF7AEFF287975
S3150000463069786B79020242EA016242EA0342EB7848
S3150000464042EAC302EB790BB142F000522B7A0BB16E
S3150000465042F00402AB790BB142F002026B7A0BB165
S3150000466042F00102AB78F32806D1180004D10429E0
S31500004670BCBF042060F31B6218064CBF42F0E0008A
S3150000468042EA43102061154960690840A9780A0684
S3150000469044BF21F080010843297840EA4140E97A85
S315000046A009B140F4804060610221AA7A2046FFF7F2
S315000046B065FF2879F32804F13000BDE838400CBFC7
S315000046C001220022102159E700200040FFFF008050
S315000046D00080FFFF1082E00F34200040F8BFE1FFAA
S315000046E042DE704738B504460D4600F0D7FC01F0AF
S315000046F0F0FA01F00FFB2946204601F034FB2B4669
S3150000470022466949012001F0D0FC29462046BDE831
S315000047103440E5E765482DE9F047654D01682E1DF3
S315000047204FF420687165016AB16562490A68F265ED
S3150000473049683166416A7166816AB166C16AF16625
S31500004740016B3167806B706796F8340040074CBF89
S31500004750F46BB46B01F0FEFC0022F2648442564A0C
S31500004760014624BFA2F1200AA2452746316505F17C
S315000047709003DFF848C1DFF848E118D3A069306438
S31500004780E4697464746DC4F30804062C13D170458F
S3150000479011D360450FD200884DF64264A0420AD17B
S315000047A03068586040F201787068986003E000272E
S315000047B03764776407464348814202D2014600E0E7
S315000047C0091D0846904203D20C68B4F1CD3FF7D0DC
S315000047D03D49081AB0640021002005EB8004401C06
S315000047E00628E167F9D3002003E0C0B205EB800498
S315000047F0E167974223D252F8041D7145F9D361450A
S31500004800F7D2CC07F5D5002405EB8409D9F87C90BE
S31500004810894502D0641C062CF6D3062CE9D1002863
S3150000482014BF401E0520E0E7B16F002405EB8402AB
S31500004830641CD2F88070D767052CF7D3196001463F
S31500004840481EC9B20029EFD1706DC0F308000328D5
S3150000485010D0042811D0052812D0062813D00C2811
S3150000486017D0122818D119480068800719D540F2C8
S31500004870025816E040F6012813E040F6022810E040
S3150000488040F603280DE0B8F5206F0AD140F604285B
S3150000489007E040F6052804E018B1322838BF40F694
S315000048A007284046BDE8F08790F3020004ED00E0DB
S315000048B00000002000E300E038650020CEE302009F
S315000048C0784400009C000020386500201C2005402C
S315000048D038B5054601F05EFC0446DFF8A00A837889
S315000048E00178994211D000F04EF86D1E07D06D1E6A
S315000048F008D0AD1E06D0AD1E032D03D905E000225B
S31500004900194600E0002201F063FC204632BD10B5D6
S315000049104C00014600F037F8224601F062FCA04246
S3150000492001D0002010BD012010BD80B500F02BF88D
S3150000493001F0E9FC00B10120C0B202BDDFF8400A77
S31500004940C07D00B101207047DFF8342A117B01B920
S31500004950704780B50146906A01F001FD28B1BDE8B7
S3150000496004404FF4B87100F091BB01BD80B500F072
S315000049700AF801F02FFC00F00300032801D1012002
S3150000498002BD002002BDDFF8F809806A704780B5D5
S31500004990B0F5004F07D100F095FEDFF8E40A00F00D
S315000049A067FDBDF80000DFF8D4194883002002BD7A
S315000049B02DE9F04F440900F01F050027DFF85C8B56
S315000049C000E07F1C98F80660F8B2B04236D2D8F8FC
S315000049D00800FFB250F827004FF0000C01E00CF180
S315000049E0010CC67E5FFA8CFEB645EAD2D0F81CE012
S315000049F05FFA8CFC142616FB0CF6B6449EF808608B
S31500004A0006F00706A642EAD19EF80960B542E6DB43
S31500004A109EF801B09EF8009006EB0B0AAAEB090A75
S31500004A20AA45DCDB11B1AC1B4C440C7012B19EF8EC
S31500004A30081011701BB1C3F800E000E00020BDE8CB
S31500004A40F08F400918BF40F01800704738B5DFF8FE
S31500004A503049A06A01F057FC0546E80744BFA06A42
S31500004A6001F053FCE8031ED5E06ADFF83C5B006A00
S31500004A7018B940F23B2100F000FDE06A006A406888
S31500004A8018B940F23D2100F0F8FCE26A126AA06A09
S31500004A9052680021904730B12846BDE8344040F2C4
S31500004AA03E21FFF71FBE31BD0B38102834BFDFF89B
S31500004AB0BC0ADFF8280B006870473EB5684600213F
S31500004AC0002200230EC0DFF8B44820788DF80000DD
S31500004AD0A07A010018BF022810D1DFF8A45800F010
S31500004AE00EF858B1A86A0122002101F075FB00F00A
S31500004AF006F818B140F2732100F008FC37BD2179A1
S31500004B00A86A6A4601F0B4BB2DE9F0430446FF2CBF
S31500004B108DB00AD1DFF8040A80680068C069017A9E
S31500004B20407A00F01F0040EA4114E4B204F01F008E
S31500004B301B283ED2002000906B4601AA0021204689
S31500004B40FFF736FF07001CBF0098002831D0DFF8BA
S31500004B502C68DFF82C5831792046884228D0FFF798
S31500004B60A3FF5FEA000924D0686C814515D002A82E
S31500004B704946062201F04AFCA86AC5F8449002A9F3
S31500004B8001F030FCA8B9A86A0BA901F039FCB6F906
S31500004B901810A86A01F001FC58B9EF62286B009959
S31500004BA0884208D19DF8040068733471FFF785FFC9
S31500004BB071E08A2077E096F80A90DFF8EC8900F039
S31500004BC06DFA286B38B1A86A01F095FC18B14FF45C
S31500004BD02A7101F053F8009828630098C06868634A
S31500004BE018B940F2AD2101F049F8386AA96C814242
S31500004BF016D018B94FF42D7101F040F8386A0068E4
S31500004C0018B940F2B62101F039F8396AA86A09687C
S31500004C10884718B140F2B72101F030F8386AA86425
S31500004C2004A80FF288011C2201F000FC686B418A7F
S31500004C300901ADF81610417C09011439ADF81E10B2
S31500004C4004A9407C0001ADF82200F07980F0010053
S31500004C508DF82900687C8DF82A00A86A01F014FCFA
S31500004C6018B14FF4367101F009F800F059FCB08B19
S31500004C7000F07EFCF08B00F09BFC307A00F02DFCFF
S31500004C809DF804006873347100F022FD00F0EBFC1F
S31500004C90484600F069FA95F90E00C101A86A09B202
S31500004CA001F074FE00200DB0BDE8F08300000000A6
S31500004CB00100000001010101640000006400000021
S31500004CC0000000000B000000DFF8E00800797047E4
S31500004CD0DFF8D808B0F91800002854BF05216FF096
S31500004CE0040108180A2190FBF1F040B270470A212E
S31500004CF010FB01F0FFE7F8B500F5D77240F2772315
S31500004D009A4201D38B20F2BDDFF87446DFF89C5837
S31500004D10226B0A23002A1EBFAE7E06F0C006802E36
S31500004D2012D0E67B86B992F9026016FB03F7B84209
S31500004D30B8BF16FB03F007DB92F9032012FB03F65C
S31500004D408642B8BF12FB03F0217B61B10146A06A1F
S31500004D5001F023FB18B140F22D3100F0D7FAA06A1A
S31500004D6001F02EFB01E010FB03F028830020F2BDCA
S31500004D7038B50446FFF798FE90B1002300220021C3
S31500004D802046FFF715FE58B104F01F051B2D07D26C
S31500004D902046FFF756FE18B90B2D01DB284632BD1B
S31500004DA0FF2032BD0FF208014008085C7047000082
S31500004DB0504030007047C0B2704710F1630F01DAFF
S31500004DC00020704710F1240F01DBFF20704764308C
S31500004DD00002411100EB91608004000E704770B52F
S31500004DE0DFF89C45DFF8F8590020E064687828B1C0
S31500004DF001F0D0FD012818BF032801D1002070BDA5
S31500004E00616BDFF8E039DFF8A42700291FBF266BA6
S31500004E103669002E022817D1E364506900F5FA704E
S31500004E205061607D18B100200021642203E0E8781B
S31500004E3029794FF4A0722070A2806170A878A070C2
S31500004E408020E080002030E0DFF89C595069AE42B7
S31500004E5013D1DFF89839E36400F57A705061607D0C
S31500004E6088B90879207001228B7808799A40101841
S31500004E7091F903201018401E0CE0E36400F5FA7067
S31500004E805061607D18B100202080642005E04878DC
S31500004E9020708878607008780001A0804879A0703A
S31500004EA008890001E080C8880001A06000F010FCBD
S31500004EB0E07094F90200010048BF4042C0B270BDE4
S31500004EC070B50446DFF8B864257896F9160008B17F
S31500004ED08C2070BDFFF783FF3076DFF80429DFF8FA
S31500004EE0CC0641780173690101F5807141619379BE
S31500004EF0316D002BF37B1DBFAD1EEDB221F002011B
S31500004F0041F0020173B9127862B16278920609D54E
S31500004F106FF00102B27541F00101426902F50872B3
S31500004F20426104E049084FF0FF304900B075316531
S31500004F30032000F019F96A1CB06A4FF4807392B22C
S31500004F40214601F059FD691C884203DA40F29D4171
S31500004F5000F0DCF9002070BD00000000F8B5DFF8B5
S31500004F60204494F916100025091D04296FF0030743
S31500004F7019D8DFE801F00A0A1C1C0300FFF7A0FF9E
S31500004F80050014D000F076FE7EE094F91600B842D3
S31500004F900CBF0121002100F06EFEA575A06A01F08C
S31500004FA01FF98D20F2BD00F065FE8C20F2BD01F0E8
S31500004FB0F5F8F8B1E06CDFF82C1888421AD1207E9B
S31500004FC0C0B1DFF8180A0068002813D5DFF8100A08
S31500004FD0C168C1600122006800F00F0002FA00F00B
S31500004FE0401E014206D100212320FFF771FC6420F8
S31500004FF001F039FD01F07CFD064694F9160010F12A
S31500005000010F1CBF94F9160010F1020F2BD194F971
S315000050101600DFF898754042A07501F06FFD386202
S3150000502007F10C03D4F84CC0A06A3979226DBCF1A3
S31500005030000F06D101F00BF9010005D10021252052
S315000050400EE000932346E047D8B10020A0758C25DA
S315000050504FF0FF303862A06A01F0C2F80021262026
S31500005060FFF736FC0DE094F91600B8420CBF01219B
S31500005070002100F000FE0020A0758D25A06A01F039
S31500005080AFF8304601F0A8FD2846F2BDDFF88809E2
S31500005090FFF728BBDFF81405408B7047F8B501F021
S315000050A027FDB64D0446A87A012803D1204601F013
S315000050B093FDF1BDB24EDFF8F074B06A0122012112
S315000050C001F08AF8B06A00F0B8F80FF298000068AC
S315000050D000906946B06A01F04DFC20B140F27E5165
S315000050E03846FFF7FFFA02208DF800006946B06ADD
S315000050F001F01DFC20B14FF4B0613846FFF7F2FA1B
S31500005100B06A01F098F800212C20FFF7E1FB00219E
S315000051100A20FFF7DDFB0120A87296F91600001D94
S31500005120072813D8DFE800F01717070A040E0E0E3B
S3150000513001F0E7FE0FE06FF0030001E06FF0020000
S31500005140B07508E0892000F004FB04E040F2A751A6
S315000051503846FFF7C7FA204601F03EFD02F060F937
S31500005160F1BD000004010000F8B5844D0446A87A9C
S31500005170A0425ED00FF2BC01DFF82C640968804FB4
S315000051800091032851D8DFE800F049023D2D02F0D6
S3150000519049F9B86A694601F0EDFB18B140F2C4510D
S315000051A000F04FF802208DF800006946B86A01F059
S315000051B0BEFB18B140F2C65100F043F868790028EA
S315000051C014BF00220222B86A022102F075F918B152
S315000051D040F2CB5100F035F80320032CA87208BF2B
S315000051E0002216D000F028F80220A87200222979A1
S315000051F0B86A01F03DF818B140F2DB5100F021F831
S31500005200022C16D0002C18BF032C12D10020A87235
S315000052100022B86A802102F04FF9F1BD022C08D1B4
S3150000522000F00AF80220A872F1BD40F2F15100F038
S3150000523008F8F1BD04020000B86A8022802102F05D
S315000052403BB93046FFF74EBA00208DE7DFF8F40988
S31500005250807A7047032805D8DFE800F003020303CD
S315000052601CE781E740F20F6110E780B500F00FF808
S3150000527004D500218175806A00F0B2FFDFF8C40909
S31500005280407A012802D1BDE8014007E701BDDFF8F9
S31500005290B80990F9161000297047DFF8A809407A76
S315000052A0704780B5032801DB012002BDDFF89419A1
S315000052B04872897A884218BFFFF7CCFF002002BDEA
S315000052C02DE97C4FDFF8806903EA010BD6E90889EE
S315000052D029EA010528EA000402EA000A45EA0B0564
S315000052E044EA0A044D4508BF44450DD0CDE90023E4
S315000052F00246B06A0B4601F03FFB18B140F2376137
S3150000530000F004F8C6E90845BDE8738F0FF674107F
S31500005310FFF7E8B91A48017BA9B1017D00220023F5
S3150000532011B1DFF828290AE0C07C00B140221348F9
S315000053300178807881421CBF42F248700243DFF850
S315000053400C090021BCE7704738B5DFF8FC58044665
S31500005350287B2C7578B1FFF7DDFF002C14BF0022E7
S315000053600822A86A082102F0A7F820B1BDE8344057
S3150000537040F2BA618AE631BD000000000C690020E7
S31500005380486D0020F8B50446022C0FF6F80503DB3D
S3150000539040F2C66100F071F8DFF8AC68307B002897
S315000053A062D1824FB87A012803D040F2CC6100F076
S315000053B064F8002107F1240000F0FAFEB06218B983
S315000053C040F2CF6100F059F8B06A052101F06EF99C
S315000053D018B140F2D76100F050F84FF0FF30DFF817
S315000053E0702806230146FFF76BFFB06A4FF00111E4
S315000053F000F09DFF18B14FF4DE6100F03EF8B06A90
S3150000540009224FF0FF3102F057F818B140F2F66169
S3150000541000F033F8012030730223DFF8380800F07B
S3150000542027F8BDF80000C0054CBF0020BDF80000FD
S31500005430B07300F0B3FEFFF787FF788BFFF7A7FA8C
S3150000544002F04CF83879FFF75FFB18B14FF4E161D1
S3150000545000F013F8F07C00F0DBFAB7F91800FFF75C
S315000054604AFCB87900F0F4F82046FFF7F3FEF1BDE8
S3150000547001887F22684602F07FB82846FFF732B9D6
S3150000548066FF020080B5FFF77EFA012100F0F3FE09
S3150000549010F5007F02D16FF07F0002BD8005001677
S315000054A002BD10B50446DFF8A007017B51B1611EAD
S315000054B08941806AC90F01F080F818B140F23F7146
S315000054C0FFF724FF2000DFF87C1718BF0120C87102
S315000054D010BDDFF87007C0797047F8B5044601F0D3
S315000054E007FB05463148DFF860670472377BFFF734
S315000054F025FA00F0010080F00100074204D0B06AEE
S3150000550084F0010102F0FBF82846BDE8F24001F004
S3150000551063BBDFF83007007A7047000034FB0200F7
S31500005520DFF82407017B01B9704780B5806ADFF890
S315000055302817002201F02EF820B1BDE8044040F201
S315000055406B71A3E501BDDFF80027117B507401B92B
S31500005550704780B50146906A01F023F820B1BDE896
S31500005560044040F2767191E501BD00008868002094
S315000055700E49DFF8D4368883197B01B9704780B5A8
S315000055800146986A002200F0FEFF20B1BDE8044003
S3150000559040F287717AE501BDDFF8A806808B704777
S315000055A0DFF8A006C08B7047845C00000C69002001
S315000055B0DFF89016DFF89036C883197B01B970477B
S315000055C080B50146986A002200F0D6FF20B1BDE8FA
S315000055D0044040F29D7159E501BD00008C68002031
S315000055E010B500F02DF8DFF85C060179A06A0122FB
S315000055F000F036FE20B1BDE8104040F2BF7145E52F
S3150000560010BD80B5FFF7BFF900F02DFE18B140F2CE
S31500005610C471FFF77BFEBDE80140FFF74EBA10B537
S3150000562000F00EF8DFF81C060179A06A002200F0EF
S3150000563017FE20B1BDE8104040F2CF7126E510BD3F
S31500005640DFF80446A06A0122012100F0C5BDD8E7B3
S3150000565010B50446FFF797F9214602F059F8DFF82E
S31500005660E405847110BD70B504467F2C82B00CD160
S3150000567000F028F8DFF8E405FFF7FAFEBDF80000B1
S315000056807E24C00558BFBDF8004001F031FA05463A
S31500005690FFF754F9DFF8B06550B960B27E2803D140
S315000056A0316B09B191F904007E28B8BFFFF74CF9B8
S315000056B0707B00B10120DFF8A8150C54284601F0D4
S315000056C08BFA73BD4FF6FF70ADF8000002237047EA
S315000056D0DFF87405417B01B10121DFF884255356BB
S315000056E07E2B06D1006B08B97F20704790F9040025
S315000056F070471846704710B5DFF84C4594F9160008
S3150000570003280DD100F044F9DFF838154FF0FF30CB
S3150000571008620022A16BBDE81040402001F089BA62
S3150000572010BD38B50446DFF8205501F0F8F9E863F6
S31500005730FFF71CF901462046FFF7CAF8062C02D0EF
S3150000574001F048F901E00020A874BDE8314001F0FD
S31500005750D8BB70B50446DFF8EC14DFF8EC544FF014
S31500005760FF30086201F0DBF9E86395F916000128BD
S3150000577023DBDFF8F004407808B1E86B286495F97C
S31500005780160002280CBF012600260020A875A86A6C
S3150000579000F026FD8D2C0CBF262027203146FFF772
S315000057A097F8E87B10B10120287470BD2046BDE84B
S315000057B070400022002101F03CBA70BD80B5FFF7B1
S315000057C0D5F801460120FFF783F8DFF87C04C07C9A
S315000057D018B1BDE8014000F060BA01BD000000004C
S315000057E0BC6A002055620000985C00005B62000005
S315000057F02DE9F043DFF850440FF28845A06A89B0DE
S3150000580005AA022101F0FEF85FEA000903D140F67D
S31500005810B811FFF732FE9DF81400DFF82874BDF8C2
S31500005820168007281CBF7879002819D1B8F1060F11
S3150000583016DB08F108008B2812D2002000904346A0
S31500005840DFF82464A06A3246494601F0E2F8404592
S3150000585003D040F6D211FFF710FE3078000606D5C9
S31500005860FFF784F801460420FFF732F88DE0A06ABE
S315000058706A46494601F0CAF818B140F6E811FFF742
S31500005880FCFD707800F00700022826D1FFF76EF8BD
S3150000589001460920FFF71CF894F91600032808BFF3
S315000058A0B8F1060F15D19DF80D0090B1707800097A
S315000058B000F0010500F06CF84FF0FF303862294621
S315000058C02920FFF705F82A4600218F2001F0B1F9BB
S315000058D05BE0F879002858D105E09DF80D0010B17D
S315000058E00020FFF708FFF8799DF80D10084203D055
S315000058F040F61321FFF7C1FDF879A0B17078800654
S3150000590011D5387A78B1A06A01F0FCFE20B1FFF714
S315000059102DF80146062003E0FFF728F8014605208A
S31500005920FEF7D6FF07E0FFF721F801460920FEF74C
S31500005930CFFF0020A0743078401C404503D040F6CD
S315000059403721FFF79AFD06EB08053879287001F034
S31500005950EAFF68709DF80E00A87095F90200FFF73F
S315000059602CFAE87008F10801FF202871C9B20098E6
S31500005970000C68710098000AA8710098E87130461A
S31500005980A27C01F082FA0020A07409B0BDE8F08381
S315000059900020A075A06A00F023BC0FF2F020FEF7ED
S315000059A0A1BE10B5A748046A002C14D401F0A6F8CD
S315000059B0001B40F2E93180B288420CD3A24890F92C
S315000059C01600032803D1BDE81040002093E6BDE889
S315000059D010408920BDE610BD0000000004400840CC
S315000059E04C50084010B558B900F0F5FF01F080F8AA
S315000059F0044600210020FEF76BFFFFF7D2FF02E00E
S31500005A00BDE81040CDE72046BDE8104001F0E4B8FF
S31500005A108D49C874FFF77EBC845C00002DE9FE4FFB
S31500005A20824614466006994648BF002002D42006E6
S31500005A3002D50120FFF7C2FEA003834F25D5002023
S31500005A40B8746946504600F0CDFDF0B99DF80800DF
S31500005A5002280ED1BDF8000002F006FAFF280ED08B
S31500005A608249096831F810004FF4E661084206D110
S31500005A700BE0032809D1684602F069FA28B1B86A32
S31500005A8000F0ADFD08B90120B874600405D5FEF735
S31500005A906DFF01460320FEF71BFF200744BF50465B
S31500005AA0FFF7A6FEE00505D5FEF760FF01460420D8
S31500005AB0FEF70EFF4FF41850044205D0FEF756FFCE
S31500005AC001460220FEF704FFE00244BF0820FFF76C
S31500005AD028FE600244BF0720FFF723FEE00144BF13
S31500005AE00620FFF71EFE97F916000FF298180128F8
S31500005AF07ADBB86A534D21034FF0FF3633D597F959
S31500005B001610012970DB97F9161003296CDA07F1D4
S31500005B103802002100F077FC01F001F8F8635148E3
S31500005B20407808B1F86B386497F91600012806D05A
S31500005B30022813D10320B8750021282052E0002046
S31500005B40B875B86A00F04CFB2E6200212B20FEF7D8
S31500005B50BFFEF87BF8B9B96B002222E040F6E101FE
S31500005B6000F08CF840E014F0845F1DD097F9161011
S31500005B7002290CBF4FF0010B4FF0000B0021B97545
S31500005B8000F02EFB042000F027FF2E62594600F09D
S31500005B9072F8F87B10B10120387425E0002200214C
S31500005BA08D2001F046F81FE0A00248BF892002D4EC
S31500005BB0A00103D58820FFF7CCFD15E0600003D5D2
S31500005BC000212320FEF784FEA00007D528480068A0
S31500005BD0800B00F001012420FEF77AFE200103D598
S31500005BE000212520FEF774FEA00744BF5046FFF7AC
S31500005BF082FD002C06D500210A20FEF769FE5046DC
S31500005C00FFF779FD09F002010023994211D05046B1
S31500005C1000F0DCFA022802D0032802D005E0892031
S31500005C2000E08D20FFF795FD03E040F6511100F0EE
S31500005C3025F809F004010023994218BF02F07AFC06
S31500005C40BDE8F78F0C690020486D002040670068AA
S31500005C500A00FA936AFF0200EC7A00206CFF020049
S31500005C60906B0020BC6A0020FC7500202C68002088
S31500005C700440084000212620FEF72ABE4046FEF7D3
S31500005C8031BD00007068792E630000006C69627295
S31500005C9061696C2E610000000000704702F04CBC88
S31500005CA080B50121154802F0F5FC0421072003F018
S31500005CB027F813481349144A016004211160022190
S31500005CC041620421114A1160816A41F00201816238
S31500005CD001BD0B4803F064B8A52800D0704780B515
S31500005CE000F005F810B10A490020086001BD04481B
S31500005CF0006810F0010018BF0120704700050A0077
S31500005D00002005400108030080E200E000E100E019
S31500005D100000A442602080F31188704770B503F03C
S31500005D2034F9AE4C204603F00DFDD8B9204603F0F9
S31500005D30BFFCFF28044615D0A9490968085C851EE2
S31500005D40E9B2204603F036FC0646E9B2204603F0E7
S31500005D502FFB2146304600F0EDF82046BDE87040A6
S31500005D6003F0C6B970BD03460A469AA10420FFE7B0
S31500005D700CB480B502AA00F032F801BC5DF80CFB49
S31500005D800A0003D0034694A11120F1E7704700B53D
S31500005D9087B001F04DFB00210591024610210491C8
S31500005DA000236321039101200021029101918D4975
S31500005DB000910FF24021FFF7DBFF8B488179C37812
S31500005DC082780391018802914179019101790091CC
S31500005DD042200FF22C21FFF7CBFF07B000BD2DE9C3
S31500005DE0F04F85B005460C46904603F00AFD0026A6
S31500005DF0F8B903F053F8E0B1012003F00EF982463A
S31500005E00BAF1FF0F15D0002103F002F9294601A8C7
S31500005E1003F04AF805469CB900F087F830B95046B9
S31500005E2003F0AAF810B1042003F0DCFC504603F09E
S31500005E305FF905B0BDE8F08F8DF804200125641CDC
S31500005E4020780100E8D0A0F130010A2905D20A2104
S31500005E5001FB0600A0F13006F1E700F066F8002825
S31500005E60E4D122780025422A01A80ED0442A1AD06D
S31500005E70462A25D0572A0DD0622A3AD0662A2AD039
S31500005E806C2A25D0702A26D0D6E758F8040B8DF850
S31500005E900400D3E758F8041B8DF804100225090402
S31500005EA0090E4170CBE758F8041B8DF804100A0A56
S31500005EB0427004250A0C8270080E8DF80700BEE7B2
S31500005EC058F8041B504603F025FA0028B7D0ADE772
S31500005ED058F8046BB3E7012358F8041B662A08BF79
S31500005EE00223F2B2504603F0F4F9002808BF002658
S31500005EF0ECE73B4858F8047B006810F80A90FFB2BC
S31500005F00FF2F9CD010F807B00BEB0901C9B2504621
S31500005F1003F04EFA002889D1CDF800B000233A46A6
S31500005F204946504603F07BFB89E72A4601A95046BD
S31500005F3003F0EEB92DE9F043122885B080460D46F0
S31500005F4009D03A281FD04FF6FE71884204BF284672
S31500005F5002F099FA36E02248244F0068465D0BE0CD
S31500005F60284603F04FF801462246002003F039FE8A
S31500005F703868455D203EF6B2FF2D23D0212EACBFFA
S31500005F8020243446ECE703F0F9FF8146FFF708FBCF
S31500005F900646FEF79DFE0746FEF796FE0446FFF709
S31500005FA0FBFA02460F480FF260010390CDF81090FD
S31500005FB023460F48006840880290019600973B20D0
S31500005FC0FFF7D6FE2946404605B0BDE8F04303F08C
S31500005FD039BC0000574600006C7000005C6A002067
S31500005FE018680020EC7A002044FB0200206800209C
S31500005FF0D87A00204242387042424242574242001A
S315000060004242424257420000574242575738704276
S31500006010000000002DE9F04104460125200094B05F
S315000060200F4690461E4606D001281DD0102802D0E5
S31500006030202819D028E0002103F001FE0546012C96
S3150000604018BF202C08D0022C18BF212C04D0032CFA
S315000060501CBF222C232C24D1012E0197ADF80C80D5
S3150000606014D14FF4805015E00AA81649242200F0F6
S31500006070DDF968460AA9242200F0D8F91020ADF807
S315000060802400ADF82600DAE701200BE0022E03D14A
S315000060904FF44050ADF80A006946204603F0CFFDA4
S315000060A00546E8B214B0BDE8F0810CB480B50A46E6
S315000060B0014602AB044804F062F802BC00205DF819
S315000060C00CFB000080F60200C79D00007047FEE74B
S315000060D0890001EB401000F1844002607047000027
S315000060E010B50446FFF716FE1F484AF6E851016050
S315000060F0C162016B01F00F01022913D11B4A012174
S315000061001160806B00F00300012818BF022809D136
S3150000611000221C211648FFF7DBFF0022002115484C
S31500006120FFF7D6FF200A0028134808BF24024FF2C3
S315000061300F0104804180BFF35F8FBFF34F8F0F487D
S315000061400F4A016801F4E06111430160BFF34F8F0C
S3150000615000BFFDE70B48006870470A480068203812
S31500006160704709487047000008300E40404008401C
S3150000617060300E4074300E40000000200CED00E050
S315000061800400FA05606A0020A00000200020704785
S31500006190012070470020704701207047002070479B
S315000061A001207047002070470120704770477047F4
S315000061B038B50446154804600D46204600F069FAD5
S315000061C029462046BDE8344000F028BA0120704731
S315000061D00020704704F0F8BA0846114600F07ABA73
S315000061E070470846114605F0AEB9022070470020F8
S315000061F07047002070470120704700207047034811
S31500006200406808B90FF2740070470000B4780020A7
S31500006210F8B500F017F8234684463A46DCF8004005
S3150000622031462846A047F2BD80B5FFF7E8FF406833
S31500006230BDE80240004780B5FFF7E1FF8068BDE892
S315000062400240004704460D4616461F46D7E70C3067
S3150000625004F015BB0C3004F05DBB0C3004F01BBB26
S315000062600C3000F07FB880B504F0F2FD002002BDCE
S315000062700C3001F024B90C3005F0C3B933AC000082
S31500006280A1AC0000A7AC0000D1AC0000E9AC000056
S31500006290EB610000EF610000F3610000F7610000B0
S315000062A0FB6100000120704738B500F01BF80021A3
S315000062B02561E160BDE8324005F0A6B938B500F0C9
S315000062C011F82169E26829400D0018BF0125114324
S315000062D0E16005F099F915B10020042134BD0020D4
S315000062E0002134BD04460D4605F091B938B5FFF7D7
S315000062F0F9FF2269E1682A4021EA0205E56005F016
S3150000630083F9284632BD8069704738B500F10C051F
S315000063102846FFF7C7FF022438B101212846FFF7B8
S31500006320E5FF284604F028FD0446204632BD80B528
S315000063300C3001F00111FFF7B7FF002002BD38B5A0
S3150000634000F006F82146284604F00CFDC0B232BD26
S315000063500C4600F10C054FF480312846C6E70C3098
S3150000636004F099BB70B5D4B2250018BF012C01D03A
S31500006370012070BD89B200F0D3F906000BD10121CE
S31500006380012000F0A7F914B904F069FD03E0012C1F
S3150000639008BF04F06BFD304670BD7CB50D466946FE
S315000063A0044600F02DF89DF800102A46204605F018
S315000063B033F904F10C060146304604F011FD76BDB2
S315000063C030B583B06946044600F01AF804F10C05AE
S315000063D0284604F03BFD02469DF80010204605F0D5
S315000063E083F93EBD38B50C4600F10C050021284660
S315000063F004F0F6FC21462846BDE8344004F0DFBC34
S315000064000C3004F01DBD0C3004F06CB862B38B0781
S3150000641008D0521E11F8013B00F8013B00F0248021
S315000064208B07F6D1830740F0208000BF103A07D3D0
S3150000643030B4B1E83810103AA0E83810F9D230BCC0
S31500006440530724BFB1E80810A0E8081044BF51F86C
S31500006450043B40F8043BD20724BF31F8022B20F856
S31500006460022B44BF0B7803707047083A07D3B1E894
S315000064700810083A40F8043B40F804CBF7D253071B
S31500006480E4E7FEE70120704770B50C4684B000F1E2
S315000064900C05237E627EA17E284605F0F2F9684649
S315000064A004F10C010C22FFF7B1FF6946284605F0FE
S315000064B050F8211D284601F0DCF8060003D12846D5
S315000064C005F00AFA0646300005D10FF244112846B7
S315000064D004F0E0FF0646300003D1284605F079F9BE
S315000064E006462168284600F019F8304604B070BD0B
S315000064F00C3005F05BB938B500F10C052846FFF7FE
S31500006500C1FF002428B104F05FF9012818BF022456
S3150000651002D1284605F03EF9204632BD70B58AB054
S3150000652004460D4668460FF2C4012422FFF77EFF9B
S3150000653005B96D46002601E0010005D135F81610B3
S31500006540F2B2204605F060F9010006D105EB4600DF
S31500006550F2B2C188204605F060F9010007D105EBCB
S31500006560C60000F10C01F2B2204605F06FF9761C68
S31500006570032EE1DB0AB070BD032ABCBF0C3005F068
S3150000658043B901207047032ABCBF0C3005F045B95A
S3150000659001207047032ABCBF0C3005F057B9012013
S315000065A0704738B500F015F828B121462846BDE8F1
S315000065B0344005F05EB9022032BD38B500F009F866
S315000065C028B121462846BDE8344005F04CB90220E2
S315000065D032BD00F10C050C46284605F0E4B80C3037
S315000065E005F05DB9084605F093B90000FFFFFFFF0F
S315000065F0FFFFFFFFFFFFFFFF00000000000000009D
S315000066000000000000000000000000000000000084
S3150000661000000208000000000120704710B5044683
S3150000662003F08BFF08B1002010BD204610BD70B5E9
S315000066300D00044614BF012600261F21304605F032
S31500006640A5F90020E062A5621F21304605F09EF9FB
S315000066504FF6FF76002001E0401CC0B2E968884290
S3150000666009D2A968182212FB00F21144C989B14265
S31500006670F2DA0E00F0D100F058F918B1DFF8501236
S31500006680002008603146204600F04AF8304670BDCA
S31500006690704710B5044604F00AF8206B0100DFF8D5
S315000066A0301208BFDFF82C02886010BD38B500F143
S315000066B00C050C462846FFF7AFFF28B104F084F816
S315000066C0012801D0022032BD21462846BDE83440CB
S315000066D004F03FB810B50C4604F058F81CB104F0AD
S315000066E073F80128FBD110BDF0B504467A48066858
S315000066F083B00D466946204604F0A2FBB5F9122088
S31500006700012747F6FF702479824207D09DF80010D2
S31500006710304604F081FFA04238BF00273846FEBD50
S315000067202DE9F04F85B04FF000098DF80190044631
S31500006730674F8DF800900D463868D7F804A0029090
S31500006740CDF804A0204600F0C1F88046A66AD4F829
S315000067502CB000F0EAF8002818BFD34505D1BBF1EC
S31500006760000F02D0A8B240454BD0002E1CBFB06827
S31500006770002801D0F06808B903209CE0CA4601E071
S315000067800AF1010AF068824518D2B068182101FBA7
S315000067900AF10144A8B2CA89904222BF088AAAB265
S315000067A09042EDD301208DF800008B462046FFF77E
S315000067B09BFF0028E4D001208DF8010003A92046A4
S315000067C004F03EFB204604F041FB82469DF80100A2
S315000067D0C0B1217900F073F8386860B3B04223D1B4
S315000067E07A680AB35A451FD1A9B2884506D0002354
S315000067F0204604F042FB5FEA000912D1C4F82CB02F
S31500006800658057E09DF8000048B1BBF912209DF85D
S315000068100C10A4F10C0004F0FFFE0146DAE701209B
S3150000682049E000F04BF83FE0016821B1326891423F
S3150000683008BF416800D0316800F045F881465FEA3C
S31500006840090004D1DBF8001000F03DF881465FEA4C
S3150000685009000FD100F069F810B13E60C7F804B026
S31500006860C4F82CB0658001235A46A9B2204604F02C
S3150000687004FB81465FEA090005D1BA685946A4F1CE
S315000068800C00904716E000F050F898B10298386076
S3150000689001987860386808B100F014F800F00EF836
S315000068A0786838B100F00EF87A6800234146204631
S315000068B004F0E3FA484605B0BDE8F08F514620469D
S315000068C004F0AEBA0168204604F070BD40887047F7
S315000068D0FC6A002091660000B478002001281CBFE5
S315000068E00428022801D1012070470020704738B5DE
S315000068F000F03CF840B16878FFF7F0FF20B1287847
S3150000690069780843400701D5012032BD00F00DF833
S3150000691028B103F059FF400701D5022032BD2946B0
S315000069202046BDE8344004F02CBA204674E60C300C
S31500006930DDE738B500F01AF838B16878FFF7CEFF12
S3150000694000281CBF6878042801D1012032BDFFF75A
S31500006950ECFF28B103F038FF800701D5022032BDD5
S3150000696029462046BDE8344004F018BA0D460446D0
S315000069702878B3E70C30DCE730B583B00C30DDE9BE
S315000069800645CDE9004503F060FE3EBD0C3004F03F
S31500006990EFBCFEE70020704738B504461048417842
S315000069A015462220FFF7F6FB2046FEF7D7FA0446E7
S315000069B06DB120000BD00B48007818B10A490120B0
S315000069C0087004E000220021204600F032F920463B
S315000069D032BD704770477047044908707047000021
S315000069E0BC6A0020576D0020586D0020CB7F002028
S315000069F070470000012070470C3004F018BC0C30C2
S31500006A0004F043BC0846114604F088BB0C3004F081
S31500006A10A7BB70B50C4615461E460C30FFF7EAFFBD
S31500006A2038B1049B324629462046BDE8704003F043
S31500006A3047BE70BD0000000080B54FF40071ADF890
S31500006A4000106A460649FFF7DAFFBDF80010B1F5F7
S31500006A50007F01D0012002BD022808BF002002BD30
S31500006A60BC780020704704F0FFBF10B5044605212E
S31500006A70112001F01FFF00220021022001F0F6FF85
S31500006A801848194A01686FF3D321016002EAC4224B
S31500006A9001681143016001220121022001F0E6FF95
S31500006AA0BDE810400421112001F004BF0D48006824
S31500006AB00003C00D704738B50C480C4601884FF6E8
S31500006AC0FF75ADF8005002237F22684605F057F89F
S31500006AD0BDF80000A84202D02080012032BD00206F
S31500006AE032BD000030400E4000F80F0070FF02007B
S31500006AF0EFF31180602181F31188704780B505F0AE
S31500006B0058FA05F063FA80B202BD80B505F051FA75
S31500006B1005F05CFAFA21B0FBF1F080B202BD80B557
S31500006B2005F047FABDE8044005F050BA80B504F018
S31500006B3042FF184800214160001D05F09FF820B172
S31500006B4041210FF28400FDF7CDFD002002BD114961
S31500006B5001200870704770B5044682B0226800258F
S31500006B6002B91BE000F00DF801201BE070B50C46E1
S31500006B7082B02268002502B910E000F002F8022077
S31500006B8010E0044E044B357000950021706805F046
S31500006B90F8B80000887600204F6B000005F02EFB49
S31500006BA0002076BD05F0C4FB307828B97068214610
S31500006BB005F0B8F9852501E025603570284676BDD3
S31500006BC0014600220020D1E773797374656D2D7438
S31500006BD0696D65722E63000080F3118870470000AE
S31500006BE0DFF8A803002120F8801B0022FF21017096
S31500006BF04170C270027141718271704770B504466E
S31500006C00402C1546DFF8846303D171782A20FFF7FC
S31500006C10C1FA06F18500290018BF012104704170F0
S31500006C20DFF86C03007805F08FFCBDE8704001F0DA
S31500006C3080BC70B504460D4616468D2C08BFFFF77E
S31500006C40C8FE324629462046BDE87040D6E7F8B56C
S31500006C50CE4CFFF74DFF04F180056E79FF2E68D00C
S31500006C60FF216971FFF7B8FF30001CBF402E8F2E41
S31500006C701BD103F022FA400917D0E01C05F07AFC7C
S31500006C8000F44060B0F5406F05D104F10801002022
S31500006C9005F098FD05E004F1080005F06BFC01F035
S31500006CA0E3F8A1780D3105F0F6FF002E207816BF27
S31500006CB08F2E01270027022802D0EC2100F06BF866
S31500006CC0380011D0A01C00F0BAF868B1A87938B124
S31500006CD0012020702921BDE8F440AE4805F044BBF0
S31500006CE0FEF7C3FA312021E0FEF7BFFA402E10D19D
S31500006CF005F0D7FF6078411E6170A0B1287806F0D4
S31500006D0089F801460022042000F053FFBDE8F14057
S31500006D1045E08D2E07D1287806F07CF80146002242
S31500006D20202000F046FF07B100263046BDE8F240BD
S31500006D3098E0FFF751FF2078032804BF002000F0F9
S31500006D4091F804F1810002F0B3FCFF280AD0E9783B
S31500006D50491EE97006F060FB207818B9BDE8F140DD
S31500006D6006F011BAF1BD72E780B58B490A788AB987
S31500006D70012210280A7003D040F2571100F00BF8D8
S31500006D808649002048700122BDE808404FF47A7118
S31500006D908348F2E001BD0FF22020FDF7A3BC80B5C9
S31500006DA0012006F0B1FD7C490020087021207D49B4
S31500006DB0FFF7F0F948B101280DD002280BD10022C7
S31500006DC000218D20FFF71AFF05E001224FF47A71AA
S31500006DD0734800F0D2F8BDE80240002006F094BDEA
S31500006DE038B5044600208DF80000684D287818B1A3
S31500006DF04FF4D571FFF7CFFF0220287085F8804049
S31500006E006A46A91C204606F095F86449487066480B
S31500006E1000786870FFF7C3FF31BD06F0EDBC0100D6
S31500006E2080B508BF012002016049002006F07EFD02
S31500006E30002002BD5D49002006F0B6BD704710B5C2
S31500006E40441C204605F096FB00F00700032807D1F6
S31500006E50204605F09FFF205C042801D1012010BDCB
S31500006E60002010BD38B50446484D7E220021A81CDE
S31500006E7006F013FE0020287006F085F995F88010BC
S31500006E802046BDE8344006F07FB970B504460D468D
S31500006E901646FEF73EFB60B13EB12046FFF7CFFF38
S31500006EA018B1607840F0200002E0607800F0DF0062
S31500006EB060702946204602F09EF90146FF291FD040
S31500006EC0324D3B4E05F18104204602F0DCFB15F8FD
S31500006ED0830F401C2870C0B2318881420BD268787B
S31500006EE0401C687007E0204602F0E2FB02F000F961
S31500006EF02878401E2870308829788842F3D38FE698
S31500006F0070BD10B5214C2078012806D121490020FA
S31500006F100870FEF7AAF90320207010BD10B51D49B0
S31500006F20002008700024FFF7E3FD18490A78012ABB
S31500006F3002D1032201240A70FFF74EFE2CB1FEF7A0
S31500006F4094F9BDE8104031208CE710BD0F48017858
S31500006F50481E8041C00F7047FEF7A3B9FEF79DB9E2
S31500006F600A4890F88310002904BF813002F0EABB7A
S31500006F70002070470F4802F0ECBBFFF70DBD034839
S31500006F800078012818BF002070470000007B002011
S31500006F90BF7F0020887B0020CA7F0020BC6A0020BB
S31500006FA0027B0020696D0000E86B00201B6E00006C
S31500006FB0A66B0020817B00206C6F7765722D6D615A
S31500006FC0632D65667233322E630000004901002886
S31500006FD007D5DFF8A02400F00F00104400F8041CC9
S31500006FE07047DFF894241154704700F0070010B57D
S31500006FF0C0F10703042B28BF0323C41C072C34BF8E
S315000070000020001F012404FA03F35B1E194081408F
S3150000701004FA00F0401E1040084310BD890001EB41
S31500007020401000F1844002607047002070477047AE
S3150000703030B587B072B6FEF76DFEDFF84004DFF8B4
S3150000704040444069206000F0DFF901466FF00E0011
S31500007050FFF7BCFF00F0D8F901466FF00D00FFF70F
S31500007060B5FF00F0D1F901466FF00C00FFF7AEFF57
S3150000707000F0CAF901466FF00B00FFF7A7FF00F01A
S31500007080C3F901466FF00A00FFF7A0FF00F0BCF954
S3150000709001466FF00900FFF799FF00F0ADF90146D0
S315000070A06FF00800FFF792FF00F0A6F901466FF0B7
S315000070B00700FFF78BFF00F09FF901466FF006000F
S315000070C0FFF784FF00F098F901466FF00500FFF71F
S315000070D07DFF0022022100F091F901466FF00400C5
S315000070E0FFF774FF00F094F901466FF00300FFF715
S315000070F06DFF00F081F901466FF00200FFF766FFB1
S315000071000022072100F07AF901466FF00100FFF72F
S315000071105DFF00F07DF901464FF0FF30FFF756FFA7
S3150000712000F076F901460020FFF750FF0022032108
S3150000713000F064F901460120FFF748FF00F060F90E
S3150000714001460220FFF742FF00F062F901460320E4
S31500007150FFF73CFF00F05CF901460420FFF736FF1D
S3150000716000F056F901460520FFF730FF00F050F910
S3150000717001460620FFF72AFF00F04AF901460720DC
S31500007180FFF724FF00F044F901460820FFF71EFF31
S3150000719000F03EF901460920FFF718FF00F038F924
S315000071A001460A20FFF712FF00F032F901460B20D4
S315000071B0FFF70CFF00F02CF901460C20FFF706FF45
S315000071C000F026F901460D20FFF700FF00F020F938
S315000071D001460E20FFF7FAFE00F01AF901460F20CD
S315000071E0FFF7F4FE00F014F901461020FFF7EEFE5B
S315000071F000F00EF901461120FFF7E8FE00F008F94D
S3150000720001461220FFF7E2FE00F002F901461320C4
S31500007210FFF7DCFE00F0FCF801461420FFF7D6FE6F
S3150000722000F0F6F801461520FFF7D0FE00F0F0F862
S3150000723001461620FFF7CAFE00F0EAF801461720BD
S31500007240FFF7C4FE00F0E4F801461820FFF7BEFE83
S3150000725000F0DEF801461920FFF7B8FE00F0D8F876
S3150000726001461A20FFF7B2FE00F0D2F801461B20B5
S31500007270FFF7ACFE00F0CCF801461C20FFF7A6FE97
S3150000728000F0C6F801461D20FFF7A0FE00F0C0F88A
S3150000729001461E20FFF79AFE00F0BAF801461F20AD
S315000072A0FFF794FE00F0B4F801462020FFF78EFEAB
S315000072B000F0A6F801462120FFF788FE00F09CF8B2
S315000072C001462220FFF782FE00F096F801462320B1
S315000072D0FFF77CFE00F090F801462420FFF776FECB
S315000072E000F08AF801462520FFF770FE00F084F8CA
S315000072F001462620FFF76AFE00F07EF801462720A9
S31500007300FFF764FE60684FF6FF01084040F0BF607B
S3150000731040F401306060E06840F40070E060E068CE
S3150000732040F01000E0604FF4E020E06106F0E6FB7C
S3150000733006F00CFC534A544892B2002106F0ADFB0D
S31500007340524A534892B2002106F0A7FB62B6514852
S315000073500068040E684606F04BFC8F2C10DA4E4887
S315000073604E4C016841F0040202604FF050130022B7
S3150000737030255543521C6351062AF9D3016001E0BA
S31500007380902C06DA46480168C909C90141F0200176
S3150000739001609DF80100012804D14248016841F0CE
S315000073A00401016000220D213F48FFF737FE3F49E7
S315000073B00120086003AC06F035FC04F092FC06F0F0
S315000073C05AFD3B48D0E90023CDE9012301208DF881
S315000073D0070001A806F0C8FE04F014FFFFF7A6FB9D
S315000073E034480FC884E80F0008208DF8180003A859
S315000073F007F042F907B030BDFF22FF210420F4E573
S31500007400002201210420F0E5002200210420ECE501
S31500007410002204210420E8E507F03CB907F03BB957
S31500007420FEF7C4BEFEF7C3BE032004F010BC000086
S3150000743010B506F0CCFB044606F0CDFBC0B208B989
S31500007440012C07D1072C11D8DFE804F00410060838
S31500007450080A0C0E002010BD092010BD022010BD28
S31500007460032010BD0B2010BD062010BD44F0800087
S3150000747010BD000018ED00E000E400E00040000050
S3150000748008ED00E090120000A000002000000000BF
S3150000749000000000FC81E00FB0400E4000A000405C
S315000074A02C400E4064310E4054300E4010300E40D9
S315000074B04CF5020004F602000C3003F054BB38B55C
S315000074C00D46044689B2FFF72BF9010005D1A9B292
S315000074D02046BDE8344003F0F1BA32BD03480188C6
S315000074E0034808237F2200F047B800BF7AFF020056
S315000074F0EC7A002038B50C4611461A467F2908BF9B
S31500007500002141F2F0139C4218D154490B68496896
S315000075100024D5B27DB30355641C1B0A521EE4B287
S31500007520042CF6D3E4B2082C25D2D3B2002B1FBF0D
S315000075300155090A521E641CF4D131BD04F470458C
S31500007540C4F30B03B5F5805F11FB02F108BF43F0EE
S315000075507E630BD0B5F5005F1CBF04F47044B4F530
S31500007560405F08D143F07C6343F40113C918BDE8BA
S31500007570384006F04FBA31BD70B51E0004461546B8
S315000075801BD04BF23460814211D1092E28BF082648
S3150000759033467F2241F202012046FFF7ABFF324617
S315000075A02F49204606F080FA38B941F2F0113346E9
S315000075B02A462046BDE870409CE770BD2DE9F84399
S315000075C007460024F807884615466FF00F06DFF8D1
S315000075D0949002D5652100F049F8E80702D56621A6
S315000075E000F044F807F47041B1F5805FC7F30B0073
S315000075F00CD140F07E64B4F17E6F264604D3281980
S31500007600401E1949884210D36B210CE0B1F5005F8A
S3150000761018BFB1F5405F05D140F07C6444F4011415
S31500007620264602E0722100F021F8002706E0F05D10
S31500007630FF2802D07C2100F019F87F1CAF42F6D358
S315000076406A084146204607F05FF828B14846BDE87B
S31500007650F4438521FDF746B8BDE8F183F081E00FDC
S3150000766044F5020038F502000008E00F4846FDF731
S3150000767039B870B50D4682B00446287858B900214D
S31500007680204603F05CFC0021204603F0A6FC002106
S31500007690204603F0A7FC2878002814BF0420287988
S315000076A000F027F814BF287968798DF80100204684
S315000076B0FFF73FF906001AD12878002814BF0220E8
S315000076C0A87900F016F814BFA879E8798DF80100BA
S315000076D02046FFF70CF9060009D1287838B16988E9
S315000076E0204603F035FC0121204603F028FC3046F5
S315000076F076BD8DF8000069462878002870470C3062
S3150000770003F06BBC0C3003F073BC084603F04FBFAC
S31500007710084603F04EBF00002DE9F84FDFF8FC469F
S31500007720DFF8FC562068DFF8FCB6DFF8FC96DFF8D9
S31500007730FCA6E861286200264FF6FF7828E020685C
S31500007740F6B2482111FB06F14718482200213846B7
S3150000775006F0A3F999F800003870A7F80280002017
S3150000776038737873761C0B20B8731420F8734FF6B1
S31500007770FE703882A7F8128007F024F8387607F0F2
S3150000778021F8787607F01EF8B8769BF80000F876B0
S31500007790F0B29AF800108842D1D3281DBDE8F84F00
S315000077A00222FF2106F079B92DE9F041DFF8805673
S315000077B00FF29C68044695F9000010F1010F03DAF8
S315000077C05D214046FCF78EFFDFF8607639788C4203
S315000077D0264605D3FE2E03D05F214046FCF782FFE6
S315000077E02878DFF83C16401C287040B20844047420
S315000077F038788442DFF82406006828BF0E784822CD
S3150000780012FB06F21044C861BDE8F08110B5DFF83E
S31500007810204694F90000002802D5702100F0A6F851
S315000078202078DFF8FC15401E207040B2DFF8FC45DA
S315000078300A78247800284EBF10460818007CA0421B
S3150000784038BF0246DFF8D405006848235A4310447F
S31500007850C86110BD10B50020DFF8C41500E0401C5B
S3150000786000F07EF808D2DFF8B435C0B21B68CA69EA
S3150000787000F070F8F3D110BD8B2167E0DFF8B0059A
S3150000788090F9000010F1010F01D10120704700208E
S315000078907047FE2088E7DFF888050078704738B51E
S315000078A00446FFF7EBFFDFF8785550B9DFF880059F
S315000078B090F900002844007CFE2802D0A72100F0A1
S315000078C055F8DFF8681509788C4201D3B12032BD2E
S315000078D0DFF848052C704821006811FB04F10844C4
S315000078E0E861002032BD38B5DFF84405DFF83055D1
S315000078F090F900402819007CFE2807D0FFF7BEFF4C
S3150000790020B9C42100F032F8FF2032BD611E00E02C
S31500007910491E49B2080004D46818007CFE28F7D036
S3150000792032BD287832BD10B50020DFF8F41400E02F
S31500007930401C00F015F808D2DFF8E034C0B21B682E
S315000079400A6A00F007F8F3D110BDE32100F00EF843
S31500007950FF2010BD482414FB00F423449A427047CC
S31500007960DFF8C8341B78C2B29A4270470FF2E04083
S31500007970FCF7B8BE10B5FDF7A7F9DFF8A444216AF5
S31500007980897B884203D00846FDF7BEF850B9FDF75B
S315000079909FF90146206A90F90F00814204D0FDF755
S315000079A0A6F908B1012010BD206A008AFDF7E0FDA6
S315000079B0206A408AFDF7FCFD206A007B012818BF7B
S315000079C00020FDF7C0FD002010BDDFF8601410B5E3
S315000079D009788842044603D340F20711FFF7C6FF31
S315000079E0DFF85004007808B9702010BDDFF82C04C9
S315000079F000F06CF8DFF828140862BDE81040B9E71B
S31500007A00DFF830140870704710B5DFF82C440020FA
S31500007A10207005F033FF20B92046BDE8104004F081
S31500007A2099BC00F059F8DFF804140978884206D3A7
S31500007A30FFF710FF044600F010F818B12046BDE825
S31500007A401040C2E710BDDFF8D803006A008A70470D
S31500007A50DFF8CC03006A408A7047DFF8C013096874
S31500007A60482250430844407B02281CBF1128432863
S31500007A7001D10120704700207047DFF8A013096884
S31500007A80482250430844007B01281CBF02280328D3
S31500007A9001D1012070470020704710B5002400E096
S31500007AA0641C00F02DF80FD2FFF7D7FF0028F7D09F
S31500007AB0DFF86803E4B200F009F8007B012818BF7C
S31500007AC00228EDD1204610BDFF2010BD00684821D8
S31500007AD011FB04F10844704710B5002400E0641C53
S31500007AE000F00EF80AD2FFF7C8FF0028F7D0E0B280
S31500007AF0FFF7B3FF0028F2D0E0B210BDFF2010BDA3
S31500007B00CA490978E0B28842704770B5002400255A
S31500007B10C64E08E0FFF748FE02F0B4FA00B10124B1
S31500007B20FFF774FE6D1C3178E8B28842F2D3204626
S31500007B3070BD80B5FFF7D0FFFF2801D0012002BD40
S31500007B40002002BD38B5BD4C054620680321A9407A
S31500007B5088432060FFF77EFE2168A8400843206026
S31500007B6031BDB6490968C14001F00300704738B518
S31500007B7004460D46FE20FFF717FE2946204606F06E
S31500007B80B4FFBDE8314041E610B50446FE20FFF7DC
S31500007B900BFE204607F0CEF8BDE8104036E682B070
S31500007BA08DF80010DDE9002311461A4602B007F0F1
S31500007BB023B932B586B004468DF8042002F07EF96A
S31500007BC00546204602F088F980F001010D420DD0ED
S31500007BD0BDF8180002F077FA8DF80000FF2804BF00
S31500007BE000208DF80000CDF808D01AE0294308BF20
S31500007BF006A815D0054214D0BDF8180002F063FAA5
S31500007C008DF80000FF2804BF00208DF800009DF8C5
S31500007C1000008DF80C00BDF81800ADF80E0003A8A2
S31500007C200290FE20FFF7C0FDDDE901010A4601468C
S31500007C30204607F0E1F8FFF7E9FD07B030BDF8B5DB
S31500007C407A4E774D04463078687000270DE0FFF7CE
S31500007C50ABFDE8694169FFB244F8371004EBC70190
S31500007C60C07E08717F1CFFF7D1FD3178F8B28842DB
S31500007C70EDD3F1BDF8B504460025694E0DE0284662
S31500007C80FFF792FDF06954F8371041616D1C04EB63
S31500007C90C7010979C176FFF7B9FD6449707809789B
S31500007CA08142EDB238BF08462F468742E7DBF1BD79
S31500007CB038B5FFF7CFFD5D4A594B1278002100E039
S31500007CC0491CCCB294420ED29C78C9B20C1994FBD2
S31500007CD0F2F502FB1544E4B21C442579854202D034
S31500007CE0FF2DEDD1207131BD70B54D4C4F4EA078B2
S31500007CF03178204405798D4203D340F22A21FFF7DB
S31500007D0035FEA0782218FF211171401C317890FBB6
S31500007D10F1F201FB1200A070284670BD4048817840
S31500007D2008440079FF2801D00120704700207047E1
S31500007D3010B5FFF7FEFE70B1394CE069007B0428F0
S31500007D4009D11420FFF7FEFE04F10800BDE810403B
S31500007D50642104F009BBBDE8104005F047BB80B5BF
S31500007D602F49002008721420FFF7FBFEFFF71CFDC9
S31500007D7005F03CFBBDE8014048E500002DE9F8436D
S31500007D808146FFF767FDB9F1040F0FF2C4082C4CCA
S31500007D90234F2C4D2C4E38D8DFE809F0030A0A1B76
S31500007DA01B00F86900F1280100200860886033E0B4
S31500007DB0FFF7BFFE20B140F261214046FCF792FC7E
S31500007DC0F869316840F8281F2168816029780171B7
S31500007DD017E02A783568F9690E2313FB02F6354455
S31500007DE013FB00F32B4441F8283F236803EB820280
S31500007DF0164B1B7802EB830202EB800088600120A1
S31500007E000871BDE8F14307F0DDB84046BDE8F4432C
S31500007E1040F27521FCF766BCBDE8F183506800208E
S31500007E20BC7A0020C46B0020A67F0020B86B00201F
S31500007E30E76B0020E66B0020E07A0020E87A00205D
S31500007E4058680020B96B002054680020B36B0020EE
S31500007E50656D6265722D6D756C74692D6E657477CE
S31500007E606F726B2E63000000F8B50F4D2E6804008C
S31500007E7001D1FF20F2BDFEF73BFE0C4F29683A7890
S31500007E8021F8124036F8021BA142FBD1FEF7A4FEF0
S31500007E9029683A78B01E401A4010C1B2914208BF14
S31500007EA0FF20C0B2F2BD00BF28680020B36B0020DF
S31500007EB0DFF8A01500200870FF21DFF89C0501708F
S31500007EC001717047F8B50446FEF718FE0546DFF85F
S31500007ED08C05DFF884750688204604F077FFB0F538
S31500007EE0006F16D1204604F095FFFFF7BDFFFF286F
S31500007EF00DD000F038FA2146381D01F0C4FBDFF83A
S31500007F005405017881B10089A9190E1A10E0932051
S31500007F10F2BDFF21384601F0E1FB052802DA2146D1
S31500007F203846EAE73920F2BD0581314604F01CFAED
S31500007F30B2B20321204604F0C0FE032205212046EA
S31500007F4004F0C6FE204601F0C5F80020F2BDF8B5E3
S31500007F500446DFF804050078FF2813D0DFF8005543
S31500007F6029680E5C3746384604F045FF014608226C
S31500007F70204605F099FD08B90120F2BD2868C75DC5
S31500007F80B742F0D10020F2BD2DE9F843044604F0D3
S31500007F90C6FE000B00F00106204604F050FF054621
S31500007FA0204604F03BFFB0F5404F14D1002E62D0BE
S31500007FB02946002000F092F90446FF2C5BD00021F0
S31500007FC005F020F9002856D000F0AEF940F0800206
S31500007FD00521204646E0284604F0CCFA0546FFF780
S31500007FE043FF0446FF2C08BF002045D00120002196
S31500007FF0224607F0CBF8DFF86C24D2E9008948EA7C
S31500008000000349EA0107C2E90037A6B3DFF858645E
S31500008010336833F814704FF4E6631F422BD0BB0667
S3150000802023D5280A8DF801008DF8005069460120F5
S3150000803000F054F90546FF2D08D1306830F81410C9
S315000080404FF6DF72114020F8141014E0002105F0FD
S31500008050D9F880B10521284604F041FE40F080029F
S315000080600521284604F034FE05E0D2E90245204306
S315000080702943C2E902010120BDE8F28338B504466E
S3150000808004F0A4FEB0F5006F0CBF012500252046C4
S3150000809004F0B1FE04462146284600F01FF9FF28E9
S315000080A010D18DB1204604F065FAFFF7DDFEFF28FA
S315000080B00AD0DFF8B413096831F810004FF4E26112
S315000080C0084201D0012032BD002032BD2DE9F04129
S315000080D007460C4604F07AFEDFF87C53B0F5006FD5
S315000080E00CBF281D28460078FF2846D0DFF87013FD
S315000080F00968085C0646B7423CD1FEF7F9FC8046A3
S315000081000521304604F0EBFD00F07F00471EFAB271
S315000081100521304604F0DCFD200018BF312C01D0CB
S31500008120FFB207BBFEF7E4FC0746304604F04EFEFE
S31500008130B0F5006F314605D1281D01F0CFFA00F0E9
S31500008140F7F802E0284601F0C9FA3846FEF744FD82
S315000081504046FEF741FD2146304607F0D8FF30463F
S3150000816000F0C6FF04E000F0E3F84046FEF734FDF9
S31500008170012003E08E5D8642BDD10020BDE8F0817E
S3150000818010B5FEF7BBFCB34C21892081411A88B299
S3150000819000F0F2F84FF6FF71884202D100202070FD
S315000081A010BD01462046BDE8104004F0DDB84FF68C
S315000081B0FF70E1E02DE9F84F00F08AF808BF904221
S315000081C000F084800127934600249046FEF790FC39
S315000081D08246A4480025D0E900010BEA010207EA1D
S315000081E00006AA4208BFAE421DD0FE436FEA0B0945
S315000081F09C4A304001EA0901C2E900010125D2E9A1
S3150000820002010BEA010307EA0002434508BF4245A3
S3150000821009D09448934AD0E90201304001EA0901A5
S31500008220C2E90201A8465046FEF7D6FC002D3FD013
S315000082308D48006830F81400810739D58B490968E4
S3150000824031F81450B8F1000F06D000F498701028D9
S3150000825008BF4FF0010A01D04FF0000A84480078A9
S31500008260C0070AD583490968002041F824008248DE
S315000082700068015D41F0F00101558AF0010018EA3D
S31500008280000F09D07848006830F8141041F40061F6
S3150000829020F8141005F008F8002000902B461A224A
S315000082A06BA1032001F0A5FA5146284608F0EEFB23
S315000082B04FEA4B0040EAD77B7F00641C402C05DA6E
S315000082C000F006F808BF90427FF47FAFBDE8F18F5B
S315000082D064480022D0E90001914270472DE9F0413F
S315000082E088465D4900281ABF091D02250825087819
S315000082F0FF2816D05A4E31680F5C3C4600F014F841
S3150000830000060AD4204604F076FD01462A46404679
S3150000831005F0CAFB08B9204604E03068045DBC429B
S31500008320ECD1FF20BDE8F0810521204604F0D7BC42
S3150000833070B50021202004F0E1F947480079FF28B4
S3150000834010D0474C21680D5C2E46304604F062FD85
S31500008350FFF78AFDFF2801D000F005F82068865D4A
S31500008360AE42F2D170BD4049096831F8102042F0A2
S31500008370200221F8102070472DE9F84F80460FF2B1
S31500008380FC00354E0068364F00904FF6FF7A3446B3
S3150000839000E0341DFEF7ACFB814606E0204601F006
S315000083A087F92946684601F06EF9204601F0CAF9B8
S315000083B040B938682178455C0321284604F074FCEE
S315000083C08045EBD2301D844208BFFFF7B1FF484617
S315000083D0FEF702FC2078FF2819D0396811F80090C2
S315000083E04D460321284604F05FFCA0EB080B1FFA5C
S315000083F08BF20321284604F060FC3868455D51463F
S315000084001FFA8BFA8A4588BF8A464D45E9D1301D49
S315000084108442BED1684601F095F9A8B9684601F0D4
S3150000842047F9044604F085FCFFF7BEF9FFF77CFF29
S31500008430000603D44221204607F069FE204600F0DC
S3150000844057FEFFF7E3F9E5E71FFA8AF0BDE8F28F7A
S3150000845042574200F47A0020086B0020886B002007
S3150000846024680020A86D00202C68002028680020C1
S31500008470987C00203068002078680020FF0000000B
S3150000848070470020704770470198704770477047E3
S31500008490702008F048BB70B5044643381F4D08D01D
S315000084A0401E012809D9801E01280ED9C01F33D0CD
S315000084B02BE0BDE8704009F0EBBE09F01AFF20B1D1
S315000084C009F0E6FE0028FBD170BD154E307818BBCA
S315000084D001203070002009F045FF442C12D00CD347
S315000084E0462C05D00ED3472C07D140F6010001E0FB
S315000084F040F60200FDF7F4FD04E040F20B112846B9
S31500008500FCF7F0F80020307070BD2846BDE87040DA
S3150000851040F21D11FCF7E6B870BD000014F602002B
S31500008520AA7F0020704700207047704770470020E0
S3150000853070477047FCF78ABA09F066BF890001EBFD
S31500008540401000F1844002607047890001EB401042
S3150000855000F18440006870470122DFF8401610B52C
S31500008560884232BF0022DFF83816884201D214460C
S3150000857000E002241021DFF82C06FFF7DFFFDFF80A
S315000085803407016821F0807141EA0461016010BD81
S31500008590DFF81416DFF814360A6802F040729842C3
S315000085A038BF002204D3DFF81037984238BF0122C3
S315000085B0086820F0407040EA02600860704738B5ED
S315000085C000F013F841F67130206009F062FF0021D7
S315000085D005E038B500F009F841F671322260FFF780
S315000085E0D7FF0DB10020206031BDDFF8D0462568E9
S315000085F005B101257047C01C0F2801D2000770473E
S315000086004FF070407047000038B50446002500F072
S31500008610FBF8DFF89426DFF82816944208D0DFF836
S315000086208C26944206D0DFF88826944204D006E0D1
S31500008630086802E0486800E0886800F00700401E0D
S3150000864003281BD8DFE800F002050C0809F063FFD9
S3150000865004E009F066FF01E009F060FF05460DE061
S3150000866009F00AFFDFF84C160968090E01F001014E
S315000086700122491C02FA01F1B0FBF1F5284632BD90
S31500008680DFF83C164A68D20702D40A680242FCD1D7
S315000086907047000070B5020A0C4602F00F02002176
S315000086A0521E092ADFF8245614D8DFE802F0051412
S315000086B01313071619131C20DFF8E854C0F3043609
S315000086C011B10846FFF7DCFF224631462846BDE8D1
S315000086D0704033E770BD1035F0E730350121EDE726
S315000086E038351021EAE740354FF48031E6E7DFF808
S315000086F0E055E3E770B5DFF8CC15DFF8AC250E687A
S31500008700DFF8A815DFF8AC45012510F478105DD028
S31500008710B0F5003F2AD0B0F5802F21D0B0F5202F3C
S3150000872054D0B0F5402F27D0B0F5602F46D0B0F525
S31500008730801F66D0B0F5A01F3BD0B0F5B01F24D087
S31500008740B0F5C01F2AD0B0F5E01F1CD0B0F5F01F61
S3150000875022D0B0F5081F2CD0B0F5401F39D04FE01D
S3150000876009F099FEE168C1F308210AE009F093FED9
S31500008770A168C1F3082104E009F08DFE6169C1F327
S315000087800421491C12E0104615E01046FFF73CFF95
S31500008790216A01F00F0107E008460CE00846FFF7E2
S315000087A033FFA16A01F0030105FA01F1B0FBF1F60E
S315000087B027E0DFF8FC04FFF727FF1FE0DFF81405CA
S315000087C000F022F807281CD0092819D109F063FE09
S315000087D014E0DFF8040500F017F804280CD0072889
S315000087E00FD008280CD109F056FE2168C1F30421E8
S315000087F0491C01FB00F604E009F068FE064600E0AD
S315000088000026304670BD0000014601F00F01012030
S31500008810491E0729DFF8C82449D8DFE801F0040F0C
S315000088201348202E4836506A00F0070002283AD036
S3150000883002D3042804D01CD30520704711690FE029
S3150000884002207047516901F00701491E03292FD8FC
S31500008850DFE801F00F020311F2E706207047916985
S3150000886001F00701012904D00229E9D0042902D028
S315000088707047032070470A207047116811F0010104
S315000088800FD0012914D109207047DFF85814096860
S3150000889001F03001102904D0202904D0302904D059
S315000088A07047072070470420704708207047002053
S315000088B07047000070B500F00F0003240325401E2A
S315000088C00728DFF81C640FD8DFE800F0042E347C9C
S315000088D031607C6A0229DFF8C40206D003291AD067
S315000088E004291AD005291DD070BD042400250122B3
S315000088F00121284600F0BAF8FFF761FE7460DFF840
S31500008900DC03FFF7F7FEFFF727FE09F0B5FDBDE82C
S31500008910704000215DE60125E9E702240225FFF704
S315000089201BFEE4E70124FAE706F1100404E006F171
S31500008930180401E006F11404012908D0022909D01F
S3150000894003290ED0062913D00A291DD070BD002098
S31500008950206070BD01220121002000F087F802206E
S31500008960F6E701220121012000F080F80120EFE75F
S3150000897009F082FDFFF7F0FD01220021DFF84C032C
S31500008980FFF7DCFD0320E3E70420E1E7072902D037
S31500008990092902D070BD002000E00120306070BDC2
S315000089A0012906D0042915D007290CD0082918D08A
S315000089B070BD0020DFF82C130A6822F0300242EA6C
S315000089C00010086070BD01220121042000F04EF85D
S315000089D00120EFE701220121022000F047F80220E2
S315000089E0E8E70320E6E770B500F03DF80122002134
S315000089F0022000F03BF8217CDFF8F052002002292B
S31500008A00296808BF0120490840EA4100286008217A
S31500008A1022782846FFF792FD6868E17AC00841EAA5
S31500008A20C0006860617AA08841EAC020A860EE684C
S31500008A30207AFFF7E0FDE28806F07F6141EAC22175
S31500008A40A27A1143227A41EAC2110843E860A17B67
S31500008A50607B090141EA0030E17B0843217B40EA63
S31500008A600140286170BD04461120CDE62DE9F84F7E
S31500008A7004288246904671D8DFE800F04C473D0353
S31500008A80420001260220012700240029DFF838923F
S31500008A90964D5ED0BAF1020F02BF2868C0F30110EE
S31500008AA000284FF0000B0AD12868C0074FF0010BD1
S31500008AB005D5286820F0300040F010002860EE63ED
S31500008AC000F04EF80028FBD0B8F1000F46D039462A
S31500008AD000F047F80028FAD0BAF1020F3ED1BBF1F8
S31500008AE0000F3BD02868C0071BD501222021022099
S31500008AF000F0C9F819E00426082003270224C4E779
S31500008B001026202005270424BFE7402680200727BB
S31500008B100624BAE74FF480764FF40070092708243C
S31500008B20B3E70021022000F08DF8022000F01CF8C7
S31500008B300446012200210220FFF798FF2146022069
S31500008B4000F036F8EE63394600F00BF80028FAD04C
S31500008B5004E0E86300F004F80028FBD1BDE8F18FDB
S31500008B6021464846FFF7F1BC401E03285E4912D84D
S31500008B70DFE800F0020C06080869C0F30800704739
S31500008B80086800E0886800F07F0070475848006871
S31500008B90C0F30A0070470020704700000148E80152
S31500008BA00190D00300400E4004000E4041787D0144
S31500008BB070B5401E0D46032805F07F014A4C404E15
S31500008BC03DD8DFE800F0022A101DC5F308051A217A
S31500008BD03046FFF7BAFC0028F9D12069400A45EA79
S31500008BE04020206170BD0D4618213046FFF7ADFCD0
S31500008BF00028F9D12068C00945EAC010206070BD80
S31500008C000D4619213046FFF7A0FC0028F9D1A068CF
S31500008C10C00945EAC010A06070BD2B4800686069B5
S31500008C2020F0300040F010006061C5F3C310FFF77C
S31500008C30E2FC216A2F4A114029430843206270BD95
S31500008C4080400E4029480268C2F30112002A18BF6C
S31500008C50002907D0202902D0302903D005E04FF49F
S31500008C60000103E04FF4400100E02349C26E0A40D0
S31500008C708A42FBD1490204D5C06F800A00F0010088
S31500008C8070470120704710B502280AD10B0004D0A6
S31500008C901A4B4FF480645C64196012B1BDE8104051
S31500008CA0D0E7012010BD000002001C0003001E00DA
S31500008CB00500220000410E40015A620240000E40AB
S31500008CC040410E401068002090400E40B0400E40DB
S31500008CD050410E4006000E00B800300000050A00A4
S31500008CE070400E405C410E4010400E4024400E4045
S31500008CF09C400E4000F8FF0FFF03E10764400E4062
S31500008D0010B5214B1C6890FAA0F2B2FA82F224EA5E
S31500008D10000091400843186010BD1C4901200860FE
S31500008D20704730B51A481B4B01680020002203EB40
S31500008D30C204194D64682D686D070FD453F832507C
S31500008D40B5F5007F18BFB5F5806F05D0B5F5006F96
S31500008D5018BFB5F5803F01D144F480740F4D2D68DE
S31500008D60ED0553F8325048BF24F01C04294202D0C6
S31500008D70214208BF2843521C092AD8D3C10348BF41
S31500008D8020F01C0030BD000000500E4008500E4080
S31500008D9004500E404CF40200E841E00F88300E40CB
S31500008DA00168C90707D58168890704D48168C9079E
S31500008DB0FCD401214160704780B501217E48FFF750
S31500008DC069FC7E4901200860002009F0E1FB0123CF
S31500008DD004220221052009F028FC012000F0CCFC29
S31500008DE000F00EF800F0F9FC09F012FD0123402214
S31500008DF07349744809F0DAFC73490860C00F02BD74
S31500008E0010B5012201210420FFF730FE6F48704C97
S31500008E10016841F0010101600022C16841F08071E2
S31500008E20C16000236B496C4808606C4802606C4A5C
S31500008E3013600223236015236A4C23600023036416
S31500008E40694B0B65694911604FF48071684A11607E
S31500008E50016841F48071016010BD80B56048016809
S31500008E60C9070ED563490A6822F440620A600168A0
S31500008E7049084900016001680902FCD46420FDF735
S31500008E80F2FD002200210420FFF7F0FD50490020EA
S31500008E900860574908604D49086001BD4B480068A5
S31500008EA000B10120C0B27047D12202704170090A98
S31500008EB0817051490A78C270501C087004207047AE
S31500008EC02DE9F84FDFF834A1DFF834810446DAF8EB
S31500008ED00000005D461DFDF711FEF6B2002500906C
S31500008EE04FF6FF7B18E0A91EC9B2204600F0A7FA8C
S31500008EF00746594609F098FC83464D4638480068AF
S31500008F00C00709D535480068C00505D5D8F8000062
S31500008F100028FBD088F80070FFF7C0FFEDB228B339
S31500008F20B54223DAFDF7EAFD0099401A80B2B0F5A2
S31500008F30FA7F1BDC15B95B270125DFE7012D05F15B
S31500008F40010903D1DAF80000075DD6E7F01E854275
S31500008F5008BF5F46D1D0B01E854208BF4FEA1B2727
S31500008F60CBD0701E8542BED15D27C6E7B5420CBF89
S31500008F7000200120BDE8F28F20490968095C042918
S31500008F80A8BFFFF79DBF0120704710B50E480068C7
S31500008F9090B04022694609F0F4FB58B1C1B2684668
S31500008FA000F029F9044621461220FCF7C3FF2046AB
S31500008FB000F09EF810B010BD00250A00108814427B
S31500008FC02870002008F402000C680020F0ED00E094
S31500008FD0F00004E0B00F00E055CEACC5000E00E096
S31500008FE0800E00E0100004E0FF0300400D000100C9
S31500008FF0040304E0001000E09B7F002018680020B6
S31500009000200000E0DFF81C17096801EB40107047EC
S31500009010DFF814271268115470472DE9F041040057
S3150000902035D0FDF765FDDFF80417DFF804370E7855
S31500009030FF228046FE2EDFF8FC061BD100260E70AE
S31500009040DFF8F4C6DFF8F46637781F70002708E00B
S3150000905007F1010E05F807E0DCF80050EA555FFA63
S315000090608EF796F800E005687745F1DB05EB0E060E
S3150000907006F8012C1E78A6420BD24046FDF7ACFD41
S31500009080052000F0AFFB00211B20FEF788FDFF2026
S315000090901EE0361B1E70DFF8A8360E780F78D3F860
S315000090A000E001250EF80750641E056815F807E074
S315000090B081F800E05FFA84FEBEF1000FEED1EA55BA
S315000090C000213046FFF7A4FF4046FDF785FD3046F8
S315000090D0BDE8F08110B50446FDF70AFDDFF860161D
S315000090E009680A5D521C0A55BDE81040FDF774BDBB
S315000090F02DE9F041054600F031F80446FDF7F8FC8D
S31500009100DFF82826DFF82836DFF82866DFF830860D
S31500009110FF2D1FD0D8F800104F5D7F1E4F557F27BB
S31500009120D8F800E01EF80510394213D13168495DC0
S3150000913000270EF805701F787F1C1F70FF293768FF
S3150000914092F800E007F805E0157006BF2546FF24F3
S315000091500D46DDE7BDE8F041FDF73EBD80B5DFF821
S31500009160E0150968095C090603D5FFF74BFF00788F
S3150000917002BDFF2002BDB0B504460D46FFF7EEFF67
S31500009180FF2818BFFFF7B4FFFF2DDFF8B47504D131
S315000091903868015D01F07F0106E02846FFF79AFF77
S315000091A03868015D41F0800101552046FFF72AFF2E
S315000091B00570B0BD0EB478B504460120FFF72DFF4B
S315000091C00546FFF71FFF0646FF2D08BFFF200FD0FD
S315000091D0E1B22846FFF71CFF05A8002104E050F87D
S315000091E0042B06F8012B491CC9B2A142F7D3284625
S315000091F072BC5DF810FB70B504460D4605F11F0004
S315000092000004400D82B0C0B2FFF707FF0646FF2EEE
S315000092100CD02946FFF7FCFE3CB1012000902B46FE
S3150000922000223146204600F002F8304676BD73B57E
S3150000923000F0D0F8405C15461E467119884203DAE4
S3150000924040F2651100F0EBF830000CD0294601A879
S3150000925000F0E9F8024606989DF80410009033469F
S31500009260204600F001F873BD2DE9F843089CDFF8AD
S31500009270C4840546894616461F460BE06A5C42547E
S31500009280491CB142FADBD8F80000BF1BAD1910F833
S3150000929009900026F8B2D0B14846FFF7B3FE801910
S315000092A056FA87F12029B9BFFFB23E46C6F120061D
S315000092B0F6B22100324604D10146284604F0AAFB44
S315000092C0E1E7012C08BF2946F8D00021D9E7BDE81F
S315000092D0F1832DE9F04100F07DF882B0055D884606
S315000092E016467119C9B2A9421F4605DB30000CD0DB
S315000092F0204600F05DF808B1182007E000973346D5
S315000093002A4621464046FFF792FF0020BDE8F68137
S315000093100123DEE70A4600E0521C1378002BFBD13E
S31500009320521A0223D2B2D4E72DE9F041054601F1E3
S315000093301F00C70402F11F00C0043F0E000E07B94C
S31500009340012700B9012087422CD0DFF8E8431BDA59
S31500009350C01BC0B2FFF761FE8046B8F1FF0F08BF21
S31500009360002020D07F1E00F020F82668305CFF2801
S3150000937004D000F01AF8305CFFF7BAFE00F015F8DA
S31500009380216801F800800DE08A420BD2411EC9B265
S3150000939000F00CF805462068405DFFF7A9FE21683D
S315000093A0FF2048550120BDE8F081F9B2284616E0B5
S315000093B038B500F00FF80D46015D2A462046FFF746
S315000093C0B3FF28B129462046FFF722FE002032BD12
S315000093D0182032BD0446DFF850030068704704E0E9
S315000093E0DFF850231268105C491ECAB2002AF7D172
S315000093F0704711B50C46DFF83013096881B0095C77
S315000094008C4203D340F2012100F009F8214601A85D
S3150000941000F009F8044600F033F9204416BD0FF2B7
S315000094204830FBF75FB938B504460D46E9042078A5
S31500009430090EFFF7D4FF207005F01F0032BD80B57E
S31500009440FFF7D7FF007802BD10B51446FFF7D1FF2E
S31500009450047010BDB0B5FFF7BDFF82B0055DFF2CEF
S3150000946003D140F22121FFF7DAFF05F11F000004C6
S31500009470400DC0B2FFF7D1FD0746FF2F0AD029469F
S31500009480FFF7C6FD0095002322460021384600F06E
S31500009490C6F83846B6BDF8B504460D461646012050
S315000094A0FFF7BBFD0746FFF7ADFDFF2F01D1FF20FC
S315000094B0F2BD33462A462021204400F020F8211828
S315000094C0C9B23846FFF7A4FD3846F2BD10B582B0E2
S315000094D004AC009400F001F816BD10B514461A4607
S315000094E0029B2044091BBDE81040C9B207E00CB43A
S315000094F080B502AAFFF7CFFF02BC5DF80CFB2DE991
S31500009500F047814614469A464F46002588460AE0AB
S315000095103246384604F07EFA7019BF19451EEDB280
S315000095206D1C641CEDB245453BDA2078010038D04D
S31500009530312818BF32280ED15AF8041B07F8011B30
S315000095403228EDD16D1CEDB2A845A4BF081207F86C
S31500009550010BE5DA25E034280ED1291D5AF8040B53
S3150000956088451EDB3870010A7970ED1C010C000E6F
S31500009570B970F8703F1DD2E7A0F133025AF8041B08
S31500009580072A38BFA0F1300607D3A0F14102072A07
S3150000959034BFA0F137065AF8046BF6B2701940458D
S315000095A0B6DBA7EB0900C0B2BDE8F0875F49FE2035
S315000095B00870704770B500F027F800F003F830180F
S315000095C080B270BD06022946204638E700B583B052
S315000095D002238DF80420120A8DF80520012200923C
S315000095E017E0F8B500F010F8FFF7ECFF8619E91C54
S315000095F0C9B2FFF7E9FF0702A91CC9B2FFF7E4FFEA
S31500009600C01906EB0040F2BD0D46691C0446C9B2FE
S3150000961015E70A46014601A8FFF709FE07BD2DE931
S31500009620FC4405B40A9C20001F4627D089B2684630
S31500009630FFF7F9FE0646B9B201A8FFF7F4FE0746A2
S31500009640BE42A8BF3046A4B2C0F120002546C0B233
S31500009650A842B8BF054600F013F882469DF8000000
