S01A0000657A73702D7370692D626F6F746C6F616465722E73333747
S31508000000000400207500000881000008810000082F
S31508000010A70B0A0100000000040130660040000832
S31508000020040C0000F70A0008BD0D00085C0600086D
S3150800003000000000000000000000000000000000B2
S3150800004000000000000000000000000000000000A2
S31508000050FFFFFFFF05480068202100EA010020B1E4
S315080000600348016842688D46104770472C000040D7
S3150800007000400008FFF7EEFF00F00DF800F040F82A
S3150800008005E00000854670474248008870474FF4EF
S31508000090017000F099B838B500F0C4F84FF20F04B3
S315080000A03D4D28B140F2052028806C80012032BDE4
S315080000B03A480068C00615D56888A0421ED1288827
S315080000C040F2022188421CBF40F20621884215D020
S315080000D040F2011188421EBFB0F58A7F40F2111125
S315080000E088420BD02E4C208A40F6A721884205D19B
S315080000F02068FFF7C7FF6068804700BF002032BD51
S3150800010038B50400274872B60168490849000160F5
S3150800011000F0E8F821480068000910F001000CBF5B
S315080001202149224902E0CD2201F8012B204A9142B9
S31508000130F9D32049204A214B03E011F8015B02F864
S31508000140015B9A42F9D31E491E4A002301E001F8D1
S31508000150013B9142FBD3104A53884FF20F05AB423D
S3150800016040F205210AD113888B4205D030B1180A0E
S31508000170012818BF022801D1194601E004B9002157
S31508000180044801804CF23C30508000F0A3F9BDE8E9
S3150800019032407CE7840D0020000000202C0000403F
S315080001A000400008FCED00E0000000209800002058
S315080001B00004002054140008000400200404002051
S315080001C004040020970D00200E4A302111600E4AC3
S315080001D011600E4A116010210D4A1160010A0029AA
S315080001E00C4908BF000208804FF20F004880BFF391
S315080001F05F8F094800210160416008480849086086
S31508000200704700003020004030C8004030C0004031
S3150800021010E00040000000201C4000400400FA05E1
S315080002200CED00E008210E2010B500F028FA2A4847
S315080002304021816000240A2100BF491EFCD1C82143
S315080002400268520601D4012401E0491EF8D10421AE
S315080002500E2000F014FA204610BD80B500F002FA10
S315080002600121062000F00BFA062000F030FA0121E1
S31508000270072000F004FA072000F01EFA1748016864
S3150800028021F01001016001BD052800D9704710B59D
S31508000290DFE800F01721030F1C17114C2088411EB8
S315080002A02180C0B9072000F01DFA42F210702080A4
S315080002B010BD072000F00BFABDE81040062000F03C
S315080002C011BABDE81040062000F0F6B9BDE81040A6
S315080002D0062000F0FCB910BD08B2004000BC004082
S315080002E0900D0020604951200860704738B55F4975
S315080002F0C9780429B4BF302460244FF4F071B1FBE7
S31508000300F4F1451A1E2DBCBF4FF40170FFF75CFFD0
S315080003105748584A072101600021416081604FF023
S315080003200071116005FB04F1C91C8908491E41606A
S3150800033031BD4E4A01215170D8E72DE9F0414F4FA2
S315080003404D4D7888494E4FF6FF78404540F2DC54CB
S315080003501CD14B48018802237F22B81C00F0E0F923
S315080003607888404504BF02207880A869800703D4AE
S31508000370A86940F00200A8610120B070788828605A
S315080003802046FFF7D6FF2046BDE8F081A86980071A
S31508000390EED537480068C00348BF00F051F8B0787A
S315080003A00028F0D1A868A9687A8810F0010003D15E
S315080003B00F2A08D2521C06E0890704D5397811B1EC
S315080003C0032AA8BF424492B2022A3870B8BF022252
S315080003D07A80286879888842CED1A86900F0030017
S315080003E0032808D0A869204940F00100A861012027
S315080003F0E861512008600020C6E710B50446214888
S31508000400017869B9C078072818BF092810D00328C9
S3150800041018BF11280CD013281CBF15280B2807D085
S315080004201948016841F48071016001E000F0A2F901
S315080004302046FFF782FF0100F8D110BD0220DCE755
S315080004400B480C4A002141608160016821F00201D5
S3150800045001600021054841704FF0007111608178F4
S3150800046009B100218170704700800040920D00207C
S3150800047010E000E004ED00E0044000400004002025
S31508000480501400089607080838400040007870475E
S3150800049030B5DBB00446214636A800F07DF90020C9
S315080004A000904FF40263584A36A901A800F023FBCE
S315080004B00FF29C120FF2A41001A900F07FFC05466A
S315080004C000F0D9F828001CBF214600F0B8F92846E4
S315080004D05BB030BD80B5FFF7B1FFFFF7D5FDB0F5CE
S315080004E08A7F09D100F088FC00F09AFC0028FBD02E
S315080004F040F21110FFF768FEFFF7AFFE00F07CFC34
S3150800050000F0B9F800F0A8FC0020FFF7BDFE07E0F0
S315080005101A2000F094FA01220021522000F023F854
S3150800052000F0A9F80220FFF7AFFE684600F066FC67
S315080005300028F5D19DF800005128E9D0334900205C
S3150800054008700120FFF7A4FF20B90520FFF79CFEDD
S31508000550012000E00420FFF797FE40F20120FFF794
S3150800056033FE002002BDF8B506460F461546284C50
S315080005700FF2B4011D22204600F06FFC0A2204F196
S315080005803401201D00F069FC2248018808237F22D7
S3150800059004F10E0000F0C4F8522EA6761BD13520C1
S315080005A0207006220FF2A00104F12E0000F055FC7F
S315080005B00120E0760223184801887F2204F11C00F6
S315080005C000F0AEF81548018810237F2204F11E00BA
S315080005D000F0A6F802E01D202070E776012D12D162
S315080005E02078A0F11B05012000F07DFC0C48FD21B8
S315080005F001704570EAB204F11A01801C00F02DFC66
S31508000600084901200870F1BD640500208F0D0020FF
S3150800061024050020521400084E1400084C14000843
S31508000620940400208E0D00200063CC00FFFF00001C
S31508000630000000000000FFFFFFFFFFFFFFFF7C65D3
S315080006406D0100000000000000040C006630000088
S31508000650C3130008FF1300088D040008C109000829
S31508000660FB0900081148012181604EF6BE21416050
S315080006700121016070470E49012008607047F0B5F6
S31508000680C20852020B4CA518830010F0040014BFD0
S315080006906E68A65803F00C030F279F40BE43994087
S315080006A0314308B16960F0BDA150F0BD006000405B
S315080006B00860004000B000401149C20801EB422121
S315080006C0012200F0070002FA00F0486170470C4961
S315080006D0C20801EB4221012200F0070002FA00F0ED
S315080006E008617047C108064A02EB41210123CA681E
S315080006F000F0070003FA00F05040C8607047000099
S3150800070000B0004038B514467F2C08BF0024164DAB
S3150800071029431A4604FB0311BDE8384000F09DBB87
S3150800072070B51E00044615461CD04BF23460814253
S3150800073012D1092E28BF082633467F2240F6120119
S315080007402046FFF7DFFF32460FF22001204600F071
S315080007509DFB38B940F2A27133462A462046BDE8C9
S315080007607040CFE770BD000000000808FFFFFFFFDC
S31508000770FFFFFFFF07490A68032809D34B6D43F0BB
S3150800078001034B650B689B1AC3F313038342F9D322
S3150800079070470000382000400170012201290CBF73
S315080007A0802140218180427000218270C1800181B0
S315080007B0B14801600E218162016821F010010160D3
S315080007C0002141634162426170472DE9F041AA4F19
S315080007D0AA4E044600F02EF890464FF0FF303060DF
S315080007E0C7F82C80002078620D46386840F0010072
S315080007F03860FFF740FF012C0FD135B900F010FB28
S3150800080000F0010080F0010002E0284600F0F6FA48
S3150800081028B900F00FF800200AE0012008E0306847
S31508000820C007E6D55FEA0800E3D000F003F8162013
S31508000830BDE8F0813868400840003860704780B5E8
S315080008400A4601461820FFF78EFE012000F04BFBF2
S31508000850BDE80140F7E070B5044682B0002020816B
S315080008604AF6B43220786946FFF7AFFF08B11C2074
S3150800087076BD9DF80000032818BF182801D1182056
S3150800088076BD042801D1172076BD012801D0212084
S3150800089076BD002500E06D1CA188EDB2091D8D42CC
S315080008A00BDA601900F10A01207840F2DD22FFF721
S315080008B08CFF0028EFD0262076BD0025002006E014
S315080008C00146EDB260196D1C007B00F015FCA2888C
S315080008D0E9B29142F4D3A37AE17AC918FF2901D083
S315080008E0222076BDA5182E7BB6EB102F01D023202B
S315080008F076BD697BC0B2814201D0242076BDA0783E
S31508000900834207D0401EC0B2834201D1272076BD5C
S31508000910252076BD901C20810220E080002076BD2F
S3150800092038B504466078012804D02CD3032828D08B
S315080009301FD328E0022060702046FFF78CFF05468B
S315080009402078012804BF284600F079F80DB100F098
S3150800095083FA272D19D1A0782278411EC9B206201C
S31508000960FFF701FE002DE7D10320FFF78DFC0020DD
S3150800097032BD00F071FA00F04AF8A078401CA07069
S31508000980DAE7172032BD182032BDA80603D522782B
S31508000990A1781520E4E7680603D4182D18BF1C2D86
S315080009A007D121782846FFF74AFF042060702846B9
S315080009B032BD172DD6D100F02AF803206070E0E783
S315080009C0F8B504460D461646002707E0E088411CA0
S315080009D02044E180BFB2807AE8557F1CB8B2B042A5
S315080009E009D2E08821898842F0D32046FFF798FF8C
S315080009F00100EBD0F2BD0020F2BD10B50446FFF7AA
S31508000A008FFF00F004F800F01EF8172010BD2278BA
S31508000A10A1780620FFF7A7BD80B51949FD220A70FF
S31508000A20887001224A70012000E0002000F030FBA7
S31508000A3000F084FA0028F8D11249087001BD0100B7
S31508000A4008BF1920E8E710B582B00F4C207860B1CE
S31508000A50002000F01DFB0028F8D0002000F043FA23
S31508000A60012000F015FB0020207040F2DD226946C7
S31508000A700120FFF7AAFE13BD00F0004000A80040C1
S31508000A80940400208D0D00208E0D0020F8B5044634
S31508000A900D4616461F4607E03046A047294600F091
S31508000AA03EFB05467F1E761CB8B20028F4D12846C0
S31508000AB0F2BD38B50C46154605E0014614F8010B9B
S31508000AC000F02DFB6D1EA9B20029F6D132BDF8B58E
S31508000AD004460D4616461F46286823683A46314698
S31508000AE09847040005D1E8683A463146FFF7E1FF22
S31508000AF0E8602046F2BD10B5029C8472038142600C
S31508000B0001604FF0FF31C1600021017410BD2DE96D
S31508000B10F84F8B4604469BF81B70D068A349802F74
S31508000B20A8BF802788421E4653D1002E4FD0B068F2
S31508000B3000904FF0FF384FF000090BEB490000F129
S31508000B40480A9AF800500DE0FFF795FDE80240F0D4
S31508000B50006200984FF400634146FFF797FF6D1C4B
S31508000B608046ADB29AF80100A84205DA09F10109F2
S31508000B70B9F1060F02DAE0E7FF2DE5D1DBF844000C
S31508000B806FEA0801884224D1A068736800BA7A0817
S31508000B9059469847C8B9E06805BAA06802BAB06865
S31508000BA03B464FF0FF31FFF771FFC04385420CD13A
S31508000BB040F6A720ABF810000122A068736800BAB7
S31508000BC00BF110011030984708B1422002E01720B7
S31508000BD000E04320BDE8F28F2DE9F04F894609F180
S31508000BE0040583B08046D5F800A0A888ADF80400AF
S31508000BF01646042352464046FFF769FF010076D1A0
S31508000C00BAF8000040BA80B20090BAF8020044BAB6
S31508000C10A4B2E00706D500984FF20861884218BFCB
S31508000C20462064D1B4F5026FC8BF4E205FDC002CA5
S31508000C305CD00098DFF878B109F13C0748B14FF667
S31508000C400441401A00F09880FF3854D0FE3852D03C
S31508000C50AAE0287B08B1512049E08D2C28BF4F20F7
S31508000C6045D2234609F1180200F0A5F801003ED145
S31508000C70FA78802AA8BF802202F10C00844201BFBC
S31508000C80A88A40BA00F47F40B0F5007F31D1E88ADF
S31508000C9040BA4EF25031884202BF288E40F6A7214C
S31508000CA0884226D1688E00F47F40B0F5807F01BF68
S31508000CB0A86900BADBF81C1088421AD14FF6FF70F3
S31508000CC0288609F124014FF0FF30FFF7F2FEE969A3
S31508000CD009BAC943884204BF3878042809D1787804
S31508000CE00C2818BF062804D1012028730020BDE867
S31508000CF0FE8F4520FBE7287B00283FD0042300F021
S31508000D0059F80100F3D1DAF8000005BADBF81C003F
S31508000D10241F8542A4B238BF4820E8D3F96B60196E
S31508000D20884228BF4920E2D200984FF603518842EC
S31508000D300AD14EB1326829460220904720B14A208E
S31508000D40D5E7E41BA4B27D19002CCFD0BDF804006A
S31508000D508442B4BF274607463B4600F02BF80100FD
S31508000D60C5D1002EEDD073687A08514628469847B3
S31508000D700028E6D04B20BAE7287B08B94120B6E719
S31508000D80042C18BF4C20B2D12A68042300F013F8AB
S31508000D900100ACD133464A4609F1240109F1140091
S31508000DA003B0BDE8F04FB2E64420A0E7E320BBDE7F
S31508000DB00000000852464946404688E670B50D468A
S31508000DC0044628898028164603DA4F2070BDA87A7B
S31508000DD078B9324629462046FFF7FEFE0028F6D0A7
S31508000DE0172807D1286861688847172802D1002084
S31508000DF070BD502070BD000000F060B810B5044604
S31508000E0000F00EF850B112481249827811448978D8
S31508000E1021708178491C8170002010BD012010BD09
S31508000E2010B50B4C207888B900F032F978B16078A3
S31508000E3040B1002000F057F8012000F029F9002001
S31508000E40607010BD012020700020A070012010BD28
S31508000E508D0D0020040400207047814212D21044F0
S31508000E601144401E491E93B2002B1EBF11F80139CA
S31508000E7000F80139521EF6D1704711F8013B00F807
S31508000E80013B521E93B2002BF7D1704710B500E014
S31508000E90521E93B223B100F005F8F9D0181B10BD05
S31508000EA0002010BD10F8013B11F8014BA342704712
S31508000EB08B4800214171817100F051B980B588488D
S31508000EC0002181700121C170017100210170092181
S31508000ED0417000F073F9FFF7EBFF00F070F9BDE819
S31508000EE0014000F073B958B17E480168490605D536
S31508000EF07D490968090744BF0421C160002000E054
S31508000F0001207749C870704775490A7922B908706F
S31508000F10012200200A714870704710B5044600F097
S31508000F2094F972484078A72807BF714804700320CF
S31508000F30FFF7EAFFBDE810400120A9E0684880797C
S31508000F407047F8B5664C674D2179674E0A0004D09C
S31508000F503268120744BF0422EA60A278A2B10420CC
S31508000F60E86001E0FFF787FB28684006FAD5042009
S31508000F70A8600020A070E07820B93220FFF7FAFBBD
S31508000F800420E8600020F2BD6279594F104225D04E
S31508000F9031B100202071022221463846FFF75DFF55
S31508000FA0E07808B10420A8603878052803DAA72075
S31508000FB0B87003200DE0FE2818BFFD2806D1797801
S31508000FC03944A72088707878C01C02E0A72078707A
S31508000FD00220A071A07900F053F9D1E7A079002882
S31508000FE0D0D100F05EF930B93068000703D500F0BB
S31508000FF05FF900F033F900F06BF90028C2D0012040
S3150800100060710420A86000F06EF9384D00BB00F04E
S3150800101072F90028B6D028780A2806D00B2808D0F6
S31508001020FD2818BFFE2806D0ACE78220FFF775FF1B
S31508001030A8E7C120FAE76878862805DBFFF738FFB6
S315080010400120FFF761FF9DE700F059F9002899D0C4
S3150800105000F0F1F800F0F9F800F0FBF8207918B183
S31508001060012000F015F88DE7687828448078A728CD
S3150800107003D00320FFF748FFF2E72878FE2803D1BC
S315080010800420FFF741FFEBE7FD2038700120F2BD91
S3150800109070B5134E174D0446B07900F03AF918B1F9
S315080010A0042028600120707100F03AF908B1012087
S315080010B0B07000F03DF970B104202860B07900F0F6
S315080010C042F910B90220FFF71FFFFFF7F1FEF0788B
S315080010D008B9042068602046BDE8704031E7000082
S315080010E0860D002008B2004008B000400404002025
S315080010F09404002010B200400A46090241EA12216F
S315080011004840C0F30311484080EA00304101020616
S31508001110C9B2D20E41EA0221484080B270470A0A93
S31508001120484000F0FF0008214308C00746BF0348AF
S3150800113058401846491EF7D1504070472083B8EDED
S31508001140012100F01F029140834A04E0012100F0CA
S315080011501F029140814A400942F820107047804892
S31508001160016C4908490001641022016C21F40071E0
S3150800117001647C490A6320220A6300224A650A66DA
S315080011804A668A6502224A65774A0A608D324A604B
S31508001190764A0A618D324A61754A1268120709D57C
S315080011A0026C42F001020264026C42F400720264AC
S315080011B001220A634FF6FF710160704770476D4858
S315080011C048F29441016008210161704738B50D2045
S315080011D0FFF7B6FF684C694D00202065686820F463
S315080011E0706040F40060686040202861022020603A
S315080011F00D20FFF7ABFF40202065286820F47040DB
S3150800120040F4804028600E20FFF79AFF00206065B2
S3150800121003205B490860042020600E20FFF796FF34
S315080012202020606504202861286820F4706040F456
S315080012308070286031BD534801684908490001603B
S31508001240016821F40071016070474F491020086059
S31508001250704743494FF400700860704740480121C1
S3150800126001604FF400710160016C41F001010164F5
S31508001270016C41F40071016401204349086070471C
S315080012803A4A42498018401E08600122FF208862B7
S31508001290334802600422CA61016C41F0010101640D
S315080012A070473B48006810F0010018BF01207047DE
S315080012B0384881B001688DF8001001688DF8001073
S315080012C001688DF8001000688DF8000001B07047BD
S315080012D03148006818B922480068800501D5012000
S315080012E07047002070471E48006810F4007018BF49
S315080012F00120C0B2704728480068022805E0264841
S31508001300194900684978C91C88428041C043C00F02
S3150800131070471348006810F0010018BF0120704795
S3150800132015480168890701D5022109E000207047A0
S3150800133011480168490701D5042101E000207047DA
S3150800134001600120704715490968814201D00020D3
S31508001350704701207047000080E100E080E200E06D
S315080013600CA8004000C0004004040020940400209B
S3150800137008B0004000B0004014A8004000B2004089
S3150800138020BC00404CA8004030C0004014C00040BB
S315080013902CC000403CC0004020C0004028C000408F
S315080013A02748018A40F6A772914202BF408A4FF445
S315080013B07F41084203D1022801DB01207047002043
S315080013C07047F8B504461D4E012030700D46FFF7EC
S315080013D0E7FF18B94FF40170FEF7F6FE1848876A5A
S315080013E0294644F48070B847002131700FF254063C
S315080013F018B9294644F40070B847305CF2BD2DE9A7
S31508001400F041044688465600FFF7CAFF18B94FF45C
S315080014100170FEF7D9FE0A480FF22805476A00232D
S31508001420324641462046B84720B93346002241464F
S315080014302046B847285CBDE8F0810000960D0020DC
S3150800144000000808000202024B4B46472A083A08E1
S30D08001450EE0834B60100FFFFA7
S705080000757D
