S00E00006E63702D7370692E7333372C
S3150000000050650020ADA402009144000081A20200C8
S31500000010A70A0A010002000004180FAC1063F500DD
S3150000002000000000000000000000000000000000CA
S3150000003000000000E4B7020000000000000000001D
S315000000400000000000000000FFFFFFFFFFFFFFFFB2
S31500000050FFFFFFFF0070030000000000000000002B
S31500000060FFFFFFFFFFFFFFFF34000000000000005E
S31500000070000000000000000000000000000000007A
S315000000800000000000000000507F0020507F00208C
S3150000009050650020B3C402007EA50200F05B00207C
S311000000A00000000000000400000000004A
S3150000020050650020ADA402009144000081A20200C6
S3150000021089A2020085A202008DA202000000000051
S31500000220000000000000000000000000E3200000C5
S3150000023091A20200000000003B2400004B290000B0
S315000002404F9D0000C53C0100B11C000099A20200B0
S31500000250D1380100053D0100CB3C0100CD3C010039
S31500000260C73C0100310D02007B0F0200C17A00007D
S31500000270835B000099A2020099A20200EF0400002D
S3150000028099A2020099A20200990F020099A2020007
S3150000029099A2020099A2020099A2020099A2020064
S315000002A099A2020099A2020099A2020099A2020054
S315000002B0073D0100C93C010011A40200F57F0000C2
S315000002C03B3D010099A2020001A4020099A202008E
S315000002D099A2020099A2020099A2020099A2020024
S315000002E099A202000000000030276C496D4A01E027
S315000002F021B1491E1369DB07FAD401B9B0E0506099
S3150000030001201060106910F0060F05D0410700D5D6
S31500000310A9E08006102D00207047F0B51346002294
S31500000320002936D05D4C5E4D8BB98B4231D250F8E8
S31500000330046BEE605B1C08262E60264601E036B391
S31500000340761E2F69FF501020002EEED11FE0EFF32E
S31500000350108672B600230EE02F6907F01907102FDA
S3150000036008BF2F602F693F07F6D53C137BEF3C2073
S315000003700A10272F608B42F4D306B962B6441005E3
S3150000038026B1761E2869C044105B0EB96FF00202D2
S315000003901046F0BD2DE9F0479A46414B424F1C6886
S315000003A01B683B688046002043F001033B609508CC
S315000003B081460C4602E0B14404EB8604A94517D2F7
S315000003C008EB89063046FFF78EFF010014D1C6F30D
S315000003D00A00C0F500608608A5EB0900B04238BFE8
S315000003E006465246314620221296222018E2D0397D
S315000003F068490849003960BDE8F0872949264A0B53
S3150000040068096828490B686014010B60881490130A
S3150000041048604869400704D50868400840000860FD
S315000004201EE048698010100119E00224300501E041
S3150000043022B1521E48BA6322B91C6305E00A25445C
S3150000044011D020050070474FF0FF300C12010C2030
S3150000045022002390E70C48016841F0010101604643
S31500000460F21A31C1644FF4807141604169C907FCD9
S31500000470D40021C1643A120001100B809698000C3A
S31500000480000E4004300E400808000000072802D283
S315000004903549085C7047FF207047072802D2334968
S315000004A0085C7047FF20704738B50446304800EBBB
S315000004B08105A8780009FFF7E9FF2071A87800F008
S315000004C00F00FFF7EAFF6071FF2814BF012000202C
S315000004D0E8702146E878A071287860706878254D24
S315000004E0A070284600F0A3F80120A86031BD10B521
S315000004F0214984B01CC968461CC02048204A01789E
S31500000500D36814682340DB072DD503292BD2184C5A
S3150000051012691C4B04EB8104E4781CB114B2002C64
S3150000052048BF002223F811200123174A147803FA42
S3150000053001F121431170154A117891B10021147807
S31500000540CC40E40708D501708B40107858401070F5
S315000005506846FFF7A9FF1FBD491CC9B20329EED3A0
S315000005601FBD032101701FBDC0B70200C8B702003E
S315000005709C6D002000200040B4B70200057F0020DB
S3150000058038200040CC6D0020067F0020047F00202C
S31500000590890001EB401000F184400260704730B5DD
S315000005A0002A446BDFF834511ABF1022DFF83031CD
S315000005B0DFF8303123400024A84237D1DFF8280184
S315000005C051B101290CD002291ED003290CD00629CD
S315000005D015D0812918D023E001680468006816E068
S315000005E001680468006802E0416844684068090CD4
S315000005F001F4FE41C4F303442143000C0CE081687E
S31500000600806801F00F0107E041684468406801F422
S31500000610FE4104F00F04214300F0F00040EA01041B
S3150000062004FA02F0DFF8C4101843086030BD38B58C
S3150000063004460D460220A0600022A9782046FFF756
S31500000640AEFF287969786B79020242EA016242EAD2
S315000006500342EB7842EAC302EB790BB142F0005257
S315000006602B7A0BB142F00402AB790BB142F00202D5
S315000006706B7A0BB142F00102AB78F32806D1180071
S3150000068004D10429BCBF042060F31B6218064CBFCA
S3150000069042F0E00042EA43102061154960690840D3
S315000006A0A9780A0644BF21F080010843297840EA68
S315000006B04140E97A09B140F4804060610221AA7A9A
S315000006C02046FFF765FF2879F32804F13000BDE8DE
S315000006D038400CBF01220022102159E700200040BB
S315000006E0FFFF00800080FFFF1082E00F34200040F3
S315000006F0F8BFE1FF42DE704738B504460D4600F00C
S31500000700D7FC01F0F0FA01F00FFB2946204601F074
S3150000071034FB2B4622466949012001F0D0FC2946CC
S315000007202046BDE83440E5E765482DE9F047654DCC
S3150000073001682E1D4FF420687165016AB165624932
S315000007400A68F26549683166416A7166816AB1660E
S31500000750C16AF166016B3167806B706796F8340089
S3150000076040074CBFF46BB46B01F0D8FC0022F26476
S315000007708442564A014624BFA2F1200AA2452746D2
S31500000780316505F19003DFF848C1DFF848E118D379
S31500000790A0693064E4697464746DC4F30804062CBB
S315000007A013D1704511D360450FD200884DF64264CF
S315000007B0A0420AD13068586040F2017870689860AB
S315000007C003E000273764776407464348814202D234
S315000007D0014600E0091D0846904203D20C68B4F1B8
S315000007E0CD3FF7D03D49081AB0640021002005EB43
S315000007F08004401C0628E167F9D3002003E0C0B25C
S3150000080005EB8004E167974223D252F8041D714537
S31500000810F9D36145F7D2CC07F5D5002405EB840959
S31500000820D9F87C90894502D0641C062CF6D3062C98
S31500000830E9D1002814BF401E0520E0E7B16F00246F
S3150000084005EB8402641CD2F88070D767052CF7D3B9
S3150000085019600146481EC9B20029EFD1706DC0F378
S315000008600800032810D0042811D0052812D0062825
S3150000087013D00C2817D0122818D119480068800701
S3150000088019D540F2025816E040F6012813E040F66A
S31500000890022810E040F603280DE0B8F5206F0AD1D3
S315000008A040F6042807E040F6052804E018B13A2887
S315000008B038BF40F607284046BDE8F087D0B70200AB
S315000008C004ED00E00000002000E300E05065002099
S315000008D07EA502008C0400009C00002050650020CC
S315000008E01C20054038B5054601F030FC0446DFF80B
S315000008F0A00A83780178994211D000F04EF86D1E57
S3150000090007D06D1E08D0AD1E06D0AD1E032D03D92F
S3150000091005E00022194600E0002201F035FC2046E1
S3150000092032BD10B54C00014600F037F8224601F002
S3150000093034FCA04201D0002010BD012010BD80B5BE
S3150000094000F02BF801F0BBFC00B10120C0B202BDE3
S31500000950DFF8400AC07D00B101207047DFF8342A75
S31500000960117B01B9704780B50146906A01F0D3FC4E
S3150000097028B1BDE804404FF4B87100F091BB01BD49
S3150000098080B500F00AF801F001FC00F0030003282E
S3150000099001D1012002BD002002BDDFF8F809806AFE
S315000009A0704780B5B0F5004F07D100F095FEDFF82F
S315000009B0E40A00F067FDBDF80000DFF8D4194883AB
S315000009C0002002BD2DE9F04F440900F01F05002765
S315000009D0DFF85C8B00E07F1C98F80660F8B2B04246
S315000009E036D2D8F80800FFB250F827004FF0000CB6
S315000009F001E00CF1010CC67E5FFA8CFEB645EAD228
S31500000A00D0F81CE05FFA8CFC142616FB0CF6B644F4
S31500000A109EF8086006F00706A642EAD19EF809602D
S31500000A20B542E6DB9EF801B09EF8009006EB0B0A95
S31500000A30AAEB090AAA45DCDB11B1AC1B4C440C70CD
S31500000A4012B19EF8081011701BB1C3F800E000E067
S31500000A500020BDE8F08F400918BF40F0180070472D
S31500000A6038B5DFF83049A06A01F029FC0546E807E9
S31500000A7044BFA06A01F025FCE8031ED5E06ADFF852
S31500000A803C5B006A18B940F23B2100F000FDE06AC9
S31500000A90006A406818B940F23D2100F0F8FCE26AAD
S31500000AA0126AA06A52680021904730B12846BDE814
S31500000AB0344040F23E21FFF71FBE31BD0B381028EF
S31500000AC034BFDFF8BC0ADFF8280B006870473EB574
S31500000AD068460021002200230EC0DFF8B4482078C3
S31500000AE08DF80000A07A010018BF022810D1DFF8A7
S31500000AF0A45800F00EF858B1A86A0122002101F0AE
S31500000B0047FB00F006F818B140F2732100F008FC2C
S31500000B1037BD2179A86A6A4601F086BB2DE9F04304
S31500000B200446FF2C8DB00AD1DFF8040A80680068FD
S31500000B30C069017A407A00F01F0040EA4114E4B22D
S31500000B4004F01F001B283ED2002000906B4601AA2D
S31500000B5000212046FFF736FF07001CBF009800283B
S31500000B6031D0DFF82C68DFF82C58317920468842DE
S31500000B7028D0FFF7A3FF5FEA000924D0686C8145FF
S31500000B8015D002A84946062201F01CFCA86AC5F841
S31500000B90449002A901F002FCA8B9A86A0BA901F0C9
S31500000BA00BFCB6F91810A86A01F0D3FB58B9EF622E
S31500000BB0286B0099884208D19DF804006873347147
S31500000BC0FFF785FF71E08A2077E096F80A90DFF854
S31500000BD0EC8900F06DFA286B38B1A86A01F067FC61
S31500000BE018B14FF42A7101F053F800982863009861
S31500000BF0C068686318B940F2AD2101F049F8386A57
S31500000C00A96C814216D018B94FF42D7101F040F845
S31500000C10386A006818B940F2B62101F039F8396A25
S31500000C20A86A0968884718B140F2B72101F030F880
S31500000C30386AA86404A80FF288011C2201F0D2FBCE
S31500000C40686B418A0901ADF81610417C0901143917
S31500000C50ADF81E1004A9407C0001ADF82200F07921
S31500000C6080F001008DF82900687C8DF82A00A86ABA
S31500000C7001F0E6FB18B14FF4367101F009F800F007
S31500000C8059FCB08B00F07EFCF08B00F09BFC307AB8
S31500000C9000F02DFC9DF804006873347100F022FD0D
S31500000CA000F0EBFC484600F069FA95F90E00C10128
S31500000CB0A86A09B201F046FE00200DB0BDE8F08337
S31500000CC000000000010000000101010164000000B5
S31500000CD064000000000000000B000000DFF8E008E0
S31500000CE000797047DFF8D808B0F91800002854BF1B
S31500000CF005216FF0040108180A2190FBF1F040B2BB
S31500000D0070470A2110FB01F0FFE7F8B500F5D7722E
S31500000D1040F277239A4201D38B20F2BDDFF8744666
S31500000D20DFF89C58226B0A23002A1EBFAE7E06F00F
S31500000D30C006802E12D0E67B86B992F9026016FBB9
S31500000D4003F7B842B8BF16FB03F007DB92F903209E
S31500000D5012FB03F68642B8BF12FB03F0217B61B19A
S31500000D600146A06A01F0F5FA18B140F22D3100F003
S31500000D70D7FAA06A01F000FB01E010FB03F028831C
S31500000D800020F2BD38B50446FFF798FE90B1002367
S31500000D90002200212046FFF715FE58B104F01F057A
S31500000DA01B2D07D22046FFF756FE18B90B2D01DB87
S31500000DB0284632BDFF2032BD0FF208014008085C0C
S31500000DC070470000504030007047C0B2704710F1C5
S31500000DD0630F01DA0020704710F1240F01DBFF20BA
S31500000DE0704764300002411100EB91608004000EF0
S31500000DF0704770B5DFF89C45DFF8F8590020E064CD
S31500000E00687828B101F0A2FD012818BF032801D196
S31500000E10002070BD616BDFF8E039DFF8A4270029F8
S31500000E201FBF266B3669002E022817D1E36450696E
S31500000E3000F5FA705061607D18B10020002164222F
S31500000E4003E0E87829794FF4A0722070A2806170DF
S31500000E50A878A0708020E080002030E0DFF89C5960
S31500000E605069AE4213D1DFF89839E36400F57A7021
S31500000E705061607D88B90879207001228B780879E5
S31500000E809A40101891F903201018401E0CE0E364F4
S31500000E9000F5FA705061607D18B100202080642052
S31500000EA005E0487820708878607008780001A08096
S31500000EB04879A07008890001E080C8880001A06018
S31500000EC000F010FCE07094F90200010048BF4042B7
S31500000ED0C0B270BD70B50446DFF8B864257896F9DF
S31500000EE0160008B18C2070BDFFF783FF3076DFF85F
S31500000EF00429DFF8CC0641780173690101F5807198
S31500000F0041619379316D002BF37B1DBFAD1EEDB2B0
S31500000F1021F0020141F0020173B9127862B16278E0
S31500000F20920609D56FF00102B27541F001014269DE
S31500000F3002F50872426104E049084FF0FF304900AB
S31500000F40B0753165032000F019F96A1CB06A4FF4D8
S31500000F50807392B2214601F02BFD691C884203DAA8
S31500000F6040F29D4100F0DCF9002070BD0000000059
S31500000F70F8B5DFF8204494F916100025091D042958
S31500000F806FF0030719D8DFE801F00A0A1C1C0300FA
S31500000F90FFF7A0FF050014D000F076FE7EE094F97E
S31500000FA01600B8420CBF0121002100F06EFEA575A7
S31500000FB0A06A01F0F1F88D20F2BD00F065FE8C20EC
S31500000FC0F2BD01F0C7F8F8B1E06CDFF82C188842E2
S31500000FD01AD1207EC0B1DFF8180A0068002813D5A0
S31500000FE0DFF8100AC168C1600122006800F00F0036
S31500000FF002FA00F0401E014206D100212320FFF72D
S3150000100071FC642001F00BFD01F04EFD064694F9DB
S31500001010160010F1010F1CBF94F9160010F1020F13
S315000010202BD194F91600DFF898754042A07501F0AF
S3150000103041FD386207F10C03D4F84CC0A06A397937
S31500001040226DBCF1000F06D101F0DDF8010005D1DB
S31500001050002125200EE000932346E047D8B100206A
S31500001060A0758C254FF0FF303862A06A01F094F825
S3150000107000212620FFF736FC0DE094F91600B84251
S315000010800CBF0121002100F000FE0020A0758D2577
S31500001090A06A01F081F8304601F07AFD2846F2BDDB
S315000010A0DFF88809FFF728BBDFF81405408B704787
S315000010B0F8B501F0F9FCB64D0446A87A012803D12B
S315000010C0204601F065FDF1BDB24EDFF8F074B06A5E
S315000010D00122012101F05CF8B06A00F0B8F80FF2C5
S315000010E09800006800906946B06A01F01FFC20B1C4
S315000010F040F27E513846FFF7FFFA02208DF80000D5
S315000011006946B06A01F0EFFB20B14FF4B061384692
S31500001110FFF7F2FAB06A01F06AF800212C20FFF717
S31500001120E1FB00210A20FFF7DDFB0120A87296F9FA
S315000011301600001D072813D8DFE800F01717070A66
S31500001140040E0E0E01F0B9FE0FE06FF0030001E091
S315000011506FF00200B07508E0892000F004FB04E09F
S3150000116040F2A7513846FFF7C7FA204601F010FDB6
S3150000117002F00CF9F1BD000004010000F8B5844D41
S315000011800446A87AA0425ED00FF2BC01DFF82C64B8
S315000011900968804F0091032851D8DFE800F0490222
S315000011A03D2D02F0F5F8B86A694601F0BFFB18B1AB
S315000011B040F2C45100F04FF802208DF80000694655
S315000011C0B86A01F090FB18B140F2C65100F043F83E
S315000011D06879002814BF00220222B86A022102F0B0
S315000011E017F918B140F2CB5100F035F80320032C63
S315000011F0A87208BF002216D000F028F80220A872B4
S3150000120000222979B86A01F00FF818B140F2DB51D3
S3150000121000F021F8022C16D0002C18BF032C12D196
S315000012200020A8720022B86A802102F0F1F8F1BD10
S31500001230022C08D100F00AF80220A872F1BD40F293
S31500001240F15100F008F8F1BD04020000B86A8022EE
S31500001250802102F0DDB83046FFF74EBA00208DE758
S31500001260DFF8F409807A7047032805D8DFE800F034
S31500001270030203031CE781E740F20F6110E780B524
S3150000128000F00FF804D500218175806A00F084FF14
S31500001290DFF8C409407A012802D1BDE8014007E71A
S315000012A001BDDFF8B80990F9161000297047DFF87C
S315000012B0A809407A704780B5032801DB012002BDEA
S315000012C0DFF894194872897A884218BFFFF7CCFF75
S315000012D0002002BD2DE97C4FDFF8806903EA010B8F
S315000012E0D6E9088929EA010528EA000402EA000A83
S315000012F045EA0B0544EA0A044D4508BF44450DD0AE
S31500001300CDE900230246B06A0B4601F011FB18B185
S3150000131040F2376100F004F8C6E90845BDE8738F6E
S315000013200FF67410FFF7E8B91A48017BA9B1017DE1
S315000013300022002311B1DFF828290AE0C07C00B1A1
S31500001340402213480178807881421CBF42F24870DF
S315000013500243DFF80C090021BCE7704738B5DFF817
S31500001360FC580446287B2C7578B1FFF7DDFF002C6E
S3150000137014BF00220822A86A082102F049F820B109
S31500001380BDE8344040F2BA618AE631BD0000000093
S3150000139014690020486D0020F8B50446022C0FF6AB
S315000013A0F80503DB40F2C66100F071F8DFF8AC68BF
S315000013B0307B002862D1824FB87A012803D040F2F0
S315000013C0CC6100F064F8002107F1240000F0CCFEA7
S315000013D0B06218B940F2CF6100F059F8B06A052141
S315000013E001F040F918B140F2D76100F050F84FF023
S315000013F0FF30DFF8702806230146FFF76BFFB06A5F
S315000014004FF0011100F06FFF18B14FF4DE6100F0EC
S315000014103EF8B06A09224FF0FF3101F0F9FF18B12A
S3150000142040F2F66100F033F8012030730223DFF852
S31500001430380800F027F8BDF80000C0054CBF0020B2
S31500001440BDF80000B07300F085FEFFF787FF788BCC
S31500001450FFF7A7FA01F0EEFF3879FFF75FFB18B147
S315000014604FF4E16100F013F8F07C00F0DBFAB7F915
S315000014701800FFF74AFCB87900F0F4F82046FFF7A9
S31500001480F3FEF1BD01887F22684602F021B82846A6
S31500001490FFF732B9ACC2020080B5FFF77EFA012130
S315000014A000F0C5FE10F5007F02D16FF07F0002BD8F
S315000014B08005001602BD10B50446DFF8A007017BC3
S315000014C051B1611E8941806AC90F01F052F818B105
S315000014D040F23F71FFF724FF2000DFF87C1718BFAA
S315000014E00120C87110BDDFF87007C0797047F8B5E4
S315000014F0044601F0D9FA05463148DFF86067047200
S31500001500377BFFF725FA00F0010080F00100074263
S3150000151004D0B06A84F0010102F09DF82846BDE8C7
S31500001520F24001F035BBDFF83007007A7047000063
S31500001530ACBF0200DFF82407017B01B9704780B514
S31500001540806ADFF82817002201F000F820B1BDE814
S31500001550044040F26B71A3E501BDDFF80027117B63
S31500001560507401B9704780B50146906A00F0F5FFE6
S3150000157020B1BDE8044040F2767191E501BD00005E
S31500001580906800200E49DFF8D4368883197B01B9AC
S31500001590704780B50146986A002200F0D0FF20B15E
S315000015A0BDE8044040F287717AE501BDDFF8A80680
S315000015B0808B7047DFF8A006C08B7047981C000030
S315000015C014690020DFF89016DFF89036C883197B7F
S315000015D001B9704780B50146986A002200F0A8FF5D
S315000015E020B1BDE8044040F29D7159E501BD0000FF
S315000015F09468002010B500F02DF8DFF85C0601793C
S31500001600A06A012200F008FE20B1BDE8104040F2B9
S31500001610BF7145E510BD80B5FFF7BFF900F0FFFDCE
S3150000162018B140F2C471FFF77BFEBDE80140FFF739
S315000016304EBA10B500F00EF8DFF81C060179A06A64
S31500001640002200F0E9FD20B1BDE8104040F2CF7164
S3150000165026E510BDDFF80446A06A0122012100F04C
S3150000166097BDD8E710B50446FFF797F9214601F074
S31500001670FBFFDFF8E405847110BD70B504467F2CCE
S3150000168082B00CD100F028F8DFF8E405FFF7FAFE87
S31500001690BDF800007E24C00558BFBDF8004001F02B
S315000016A003FA0546FFF754F9DFF8B06550B960B2A2
S315000016B07E2803D1316B09B191F904007E28B8BFA9
S315000016C0FFF74CF9707B00B10120DFF8A8150C5428
S315000016D0284601F05DFA73BD4FF6FF70ADF80000C5
S315000016E002237047DFF87405417B01B10121DFF861
S315000016F0842553567E2B06D1006B08B97F20704790
S3150000170090F9040070471846704710B5DFF84C454D
S3150000171094F9160003280DD100F044F9DFF83815C6
S315000017204FF0FF3008620022A16BBDE81040402058
S3150000173001F05BBA10BD38B50446DFF8205501F05C
S31500001740CAF9E863FFF71CF901462046FFF7CAF815
S31500001750062C02D001F01AF901E00020A874BDE8B9
S31500001760314001F0AABB70B50446DFF8EC14DFF88F
S31500001770EC544FF0FF30086201F0ADF9E86395F9DB
S315000017801600012823DBDFF8F004407808B1E86B87
S31500001790286495F9160002280CBF012600260020B1
S315000017A0A875A86A00F0F8FC8D2C0CBF262027200F
S315000017B03146FFF797F8E87B10B10120287470BD19
S315000017C02046BDE870400022002101F00EBA70BD2F
S315000017D080B5FFF7D5F801460120FFF783F8DFF85B
S315000017E07C04C07C18B1BDE8014000F060BA01BDC0
S315000017F000000000CC6A00200D220000AC1C000096
S31500001800132200002DE9F043DFF850440FF288451B
S31500001810A06A89B005AA022101F0D0F85FEA0009A2
S3150000182003D140F6B811FFF732FE9DF81400DFF839
S315000018302874BDF8168007281CBF7879002819D1AE
S31500001840B8F1060F16DB08F108008B2812D200202B
S3150000185000904346DFF82464A06A3246494601F008
S31500001860B4F8404503D040F6D211FFF710FE3078A9
S31500001870000606D5FFF784F801460420FFF732F884
S315000018808DE0A06A6A46494601F09CF818B140F618
S31500001890E811FFF7FCFD707800F00700022826D15A
S315000018A0FFF76EF801460920FFF71CF894F91600B9
S315000018B0032808BFB8F1060F15D19DF80D0090B1A9
S315000018C07078000900F0010500F06CF84FF0FF3069
S315000018D0386229462920FFF705F82A4600218F207D
S315000018E001F083F95BE0F879002858D105E09DF80E
S315000018F00D0010B10020FFF708FFF8799DF80D10D4
S31500001900084203D040F61321FFF7C1FDF879A0B1D4
S315000019107078800611D5387A78B1A06A01F09EFEFB
S3150000192020B1FFF72DF80146062003E0FFF728F85F
S3150000193001460520FEF7D6FF07E0FFF721F801462E
S315000019400920FEF7CFFF0020A0743078401C4045E8
S3150000195003D040F63721FFF79AFD06EB08053879E4
S31500001960287001F08CFF68709DF80E00A87095F93C
S315000019700200FFF72CFAE87008F10801FF20287131
S31500001980C9B20098000C68710098000AA871009806
S31500001990E8713046A27C01F054FA0020A07409B028
S315000019A0BDE8F0830020A075A06A00F0F5BB0FF239
S315000019B0F020FEF7A1BE10B5A748046A002C14D487
S315000019C001F078F8001B40F2E93180B288420CD36E
S315000019D0A24890F91600032803D1BDE81040002064
S315000019E093E6BDE810408920BDE610BD000000006A
S315000019F0044008404C50084010B558B900F0C7FFE5
S31500001A0001F052F8044600210020FEF76BFFFFF7B5
S31500001A10D2FF02E0BDE81040CDE72046BDE8104009
S31500001A2001F0B6B88D49C874FFF77EBC981C00005B
S31500001A302DE9FE4F824614466006994648BF0020AF
S31500001A4002D4200602D50120FFF7C2FEA003834F71
S31500001A5025D50020B8746946504600F09FFDF0B9C0
S31500001A609DF8080002280ED1BDF8000002F0A8F982
S31500001A70FF280ED08249096831F810004FF4E6615C
S31500001A80084206D10BE0032809D1684602F00BFA9A
S31500001A9028B1B86A00F07FFD08B90120B874600467
S31500001AA005D5FEF76DFF01460320FEF71BFF200755
S31500001AB044BF5046FFF7A6FEE00505D5FEF760FFDA
S31500001AC001460420FEF70EFF4FF41850044205D0DD
S31500001AD0FEF756FF01460220FEF704FFE00244BF70
S31500001AE00820FFF728FE600244BF0720FFF723FE09
S31500001AF0E00144BF0620FFF71EFE97F916000FF21D
S31500001B00981801287ADBB86A534D21034FF0FF3647
S31500001B1033D597F91610012970DB97F916100329AA
S31500001B206CDA07F13802002100F049FC00F0D3FF1F
S31500001B30F8635148407808B1F86B386497F9160095
S31500001B40012806D0022813D10320B87500212820C9
S31500001B5052E00020B875B86A00F01EFB2E62002124
S31500001B602B20FEF7BFFEF87BF8B9B96B002222E006
S31500001B7040F6E10100F08CF840E014F0845F1DD0DF
S31500001B8097F9161002290CBF4FF0010B4FF0000B0E
S31500001B900021B97500F000FB042000F0F9FE2E626A
S31500001BA0594600F072F8F87B10B10120387425E030
S31500001BB0002200218D2001F018F81FE0A00248BF86
S31500001BC0892002D4A00103D58820FFF7CCFD15E0BB
S31500001BD0600003D500212320FEF784FEA00007D570
S31500001BE028480068800B00F001012420FEF77AFEE9
S31500001BF0200103D500212520FEF774FEA00744BF6F
S31500001C005046FFF782FD002C06D500210A20FEF77C
S31500001C1069FE5046FFF779FD09F00201002399425B
S31500001C2011D0504600F0AEFA022802D0032802D0A6
S31500001C3005E0892000E08D20FFF795FD03E040F6E2
S31500001C40511100F025F809F004010023994218BF4C
S31500001C5002F01CFCBDE8F78F14690020486D0020D7
S31500001C60406700680A00FA93B0C20200B07A00200A
S31500001C70B2C20200946B0020CC6A0020C07500201E
S31500001C80346800200440084000212620FEF72ABEC2
S31500001C904046FEF731BD00007068792E63000000F3
S31500001CA06C69627261696C2E610000000000704709
S31500001CB002F0EEBB80B50121154802F0AFFC04210D
S31500001CC0072003F023F813481349144A016004213E
S31500001CD01160022141620421114A1160816A41F0BA
S31500001CE00201816201BD0B4803F052B8A52800D05D
S31500001CF0704780B500F005F810B10A490020086069
S31500001D0001BD0448006810F0010018BF01207047AB
S31500001D1000050A00002005400108030080E200E0FB
S31500001D2000E100E00000A442602080F311887047C3
S31500001D3070B503F022F9AE4C204603F0FBFCD8B98F
S31500001D40204603F0ADFCFF28044615D0A9490968D2
S31500001D50085C851EE9B2204603F024FC0646E9B27B
S31500001D60204603F01DFB2146304600F0EDF82046E4
S31500001D70BDE8704003F0B4B970BD03460A469AA1A7
S31500001D800420FFE70CB480B502AA00F032F801BCCB
S31500001D905DF80CFB0A0003D0034694A11120F1E77D
S31500001DA0704700B587B001F0F9FA002105910246A7
S31500001DB01021049100236321039101200021029147
S31500001DC001918D4900910FF24021FFF7DBFF8B480F
S31500001DD08179C378827803910188029141790191D2
S31500001DE00179009142200FF22C21FFF7CBFF07B0BB
S31500001DF000BD2DE9F04F85B005460C46904603F030
S31500001E00F8FC0026F8B903F041F8E0B1012003F030
S31500001E10FCF88246BAF1FF0F15D0002103F0F0F866
S31500001E20294601A803F038F805469CB900F087F862
S31500001E3030B9504603F098F810B1042003F0CAFCFC
S31500001E40504603F04DF905B0BDE8F08F8DF804203B
S31500001E500125641C20780100E8D0A0F130010A2990
S31500001E6005D20A2101FB0600A0F13006F1E700F0D9
S31500001E7066F80028E4D122780025422A01A80ED06F
S31500001E80442A1AD0462A25D0572A0DD0622A3AD09B
S31500001E90662A2AD06C2A25D0702A26D0D6E758F88A
S31500001EA0040B8DF80400D3E758F8041B8DF80410D2
S31500001EB002250904090E4170CBE758F8041B8DF87A
S31500001EC004100A0A427004250A0C8270080E8DF866
S31500001ED00700BEE758F8041B504603F013FA002823
S31500001EE0B7D0ADE758F8046BB3E7012358F8041BE5
S31500001EF0662A08BF0223F2B2504603F0E2F9002830
S31500001F0008BF0026ECE73B4858F8047B006810F849
S31500001F100A90FFB2FF2F9CD010F807B00BEB090117
S31500001F20C9B2504603F03CFA002889D1CDF800B07A
S31500001F3000233A464946504603F069FB89E72A469C
S31500001F4001A9504603F0DCB92DE9F043122885B00B
S31500001F5080460D4609D03A281FD04FF6FE718842BA
S31500001F6004BF284602F03BFA36E02248244F0068B8
S31500001F70465D0BE0284603F03DF801462246002068
S31500001F8003F027FE3868455D203EF6B2FF2D23D0CC
S31500001F90212EACBF20243446ECE703F0E7FF814650
S31500001FA0FFF708FB0646FEF79DFE0746FEF796FE80
S31500001FB00446FFF7FBFA02460F480FF26001039052
S31500001FC0CDF8109023460F4800684088029001968D
S31500001FD000973B20FFF7D6FE2946404605B0BDE8F0
S31500001FE0F04303F027BC0000574600006C70000069
S31500001FF06C6A002020680020B07A0020BCBF020076
S31500002000286800209C7A00204242387042424242B0
S31500002010574242004242424257420000574242570C
S3150000202057387042000000002DE9F04104460125B2
S31500002030200094B00F4690461E4606D001281DD0BB
S31500002040102802D0202819D028E0002103F0EFFD47
S315000020500546012C18BF202C08D0022C18BF212CB5
S3150000206004D0032C1CBF222C232C24D1012E019733
S31500002070ADF80C8014D14FF4805015E00AA816492B
S31500002080242200F0AFF968460AA9242200F0AAF932
S315000020901020ADF82400ADF82600DAE701200BE0A9
S315000020A0022E03D14FF44050ADF80A00694620468F
S315000020B003F0BDFD0546E8B214B0BDE8F0810CB4EE
S315000020C080B50A46014602AB044804F050F802BC4B
S315000020D000205DF80CFB0000F8BA0200B75D0000B6
S315000020E07047FEE710B50446FFF71EFE200A0028DB
S315000020F00F4808BF24024FF20F0104804180BFF34E
S315000021005F8FBFF34F8F0B480B4A016801F4E06104
S3150000211011430160BFF34F8F00BFFDE7074800681A
S315000021207047064800682038704705487047000029
S31500002130000000200CED00E00400FA05706A0020A3
S31500002140A000002000207047012070470020704743
S31500002150012070470020704701207047002070471B
S31500002160012070477047704738B50446154804602B
S315000021700D46204600F069FA29462046BDE834405F
S3150000218000F028BA012070470020704704F00ABB0F
S315000021900846114600F07ABA70470846114605F01F
S315000021A0D1B90220704700207047002070470120F7
S315000021B07047002070470348406808B90FF2740062
S315000021C07047000078780020F8B500F017F823462D
S315000021D084463A46DCF8004031462846A047F2BD20
S315000021E080B5FFF7E8FF4068BDE80240004780B5CC
S315000021F0FFF7E1FF8068BDE80240004704460D4650
S3150000220016461F46D7E70C3004F027BB0C3004F007
S315000022106FBB0C3004F02DBB0C3000F07FB880B5DE
S3150000222004F0FAFD002002BD0C3001F0F4B80C30C9
S3150000223005F0E9B9FB6B0000616C0000696C0000F9
S31500002240976C0000AB6C0000A3210000A7210000E2
S31500002250AB210000AF210000B32100000120704730
S3150000226038B500F01BF800212561E160BDE8324079
S3150000227005F0CCB938B500F011F82169E2682940BB
S315000022800D0018BF01251143E16005F0BFF915B136
S315000022900020042134BD0020002134BD04460D4633
S315000022A005F0B7B938B5FFF7F9FF2269E1682A40AA
S315000022B021EA0205E56005F0A9F9284632BD8069E4
S315000022C0704738B500F10C052846FFF7C7FF022412
S315000022D038B101212846FFF7E5FF284604F02BFD1B
S315000022E00446204632BD80B50C3001F00111FFF7DF
S315000022F0B7FF002002BD38B500F006F82146284693
S3150000230004F012FDC0B232BD0C4600F10C054FF4CC
S3150000231080312846C6E70C3004F07ABB70B5D4B2DB
S31500002320250018BF012C01D0012070BD89B200F034
S31500002330D3F906000BD10121012000F0A7F914B949
S3150000234004F071FD03E0012C08BF04F073FD304674
S3150000235070BD7CB50D466946044600F02DF89DF823
S3150000236000102A46204605F059F904F10C060146EC
S31500002370304604F019FD76BD30B583B06946044693
S3150000238000F01AF804F10C05284604F043FD024655
S315000023909DF80010204605F0A9F93EBD38B50C465B
S315000023A000F10C050021284604F0FEFC21462846D3
S315000023B0BDE8344004F0E7BC0C3004F025BD0C3019
S315000023C004F080B862B38B0708D0521E11F8013BA7
S315000023D000F8013B00F024808B07F6D1830740F01C
S315000023E0208000BF103A07D330B4B1E83810103A55
S315000023F0A0E83810F9D230BC530724BFB1E8081062
S31500002400A0E8081044BF51F8043B40F8043BD2074B
S3150000241024BF31F8022B20F8022B44BF0B7803703F
S315000024207047083A07D3B1E80810083A40F8043B69
S3150000243040F804CBF7D25307E4E7FEE701207047E4
S3150000244070B50C4684B000F10C05237E627EA17E39
S31500002450284605F018FA684604F10C010C22FFF72D
S31500002460B1FF6946284605F073F8211D284601F09C
S31500002470ACF8060003D1284605F030FA06463000CF
S3150000248005D10FF24411284605F008F8064630003B
S3150000249003D1284605F09FF906462168284600F034
S315000024A019F8304604B070BD0C3005F081B938B566
S315000024B000F10C052846FFF7C1FF002428B104F0FF
S315000024C071F9012818BF022402D1284605F064F9E3
S315000024D0204632BD70B58AB004460D4668460FF2F6
S315000024E0C4012422FFF77EFF05B96D46002601E0F0
S315000024F0010005D135F81610F2B2204605F086F92E
S31500002500010006D105EB4600F2B2C188204605F06F
S3150000251086F9010007D105EBC60000F10C01F2B205
S31500002520204605F095F9761C032EE1DB0AB070BD56
S31500002530032ABCBF0C3005F069B901207047032A95
S31500002540BCBF0C3005F06BB901207047032ABCBF35
S315000025500C3005F07DB90120704738B500F015F84C
S3150000256028B121462846BDE8344005F084B902204A
S3150000257032BD38B500F009F828B121462846BDE835
S31500002580344005F072B9022032BD00F10C050C464C
S31500002590284605F00AB90C3005F083B9084605F05F
S315000025A0B9B90000FFFFFFFFFFFFFFFFFFFFFFFFBF
S315000025B00000000000000000000000000000000015
S315000025C000000000000000000000020800000000FB
S315000025D00120704710B5044603F0A5FF08B100209E
S315000025E010BD204610BD70B50D00044614BF01266F
S315000025F000261F21304605F0CBF90020E062A562D7
S315000026001F21304605F0C4F94FF6FF76002001E0A1
S31500002610401CC0B2E968884209D2A968182212FB98
S3150000262000F21144C989B142F2DA0E00F0D100F08D
S3150000263058F918B1DFF850120020086031462046DC
S3150000264000F04AF8304670BD704710B5044604F0F5
S3150000265024F8206B0100DFF8301208BFDFF82C02E7
S31500002660886010BD38B500F10C050C462846FFF70A
S31500002670AFFF28B104F096F8012801D0022032BD40
S3150000268021462846BDE8344004F059B810B50C463A
S3150000269004F072F81CB104F085F80128FBD110BDD6
S315000026A0F0B504467A48066883B00D46694620466A
S315000026B004F0AAFBB5F91220012747F6FF7024792A
S315000026C0824207D09DF80010304604F0A7FFA042D2
S315000026D038BF00273846FEBD2DE9F04F85B04FF0D4
S315000026E000098DF801900446674F8DF800900D465D
S315000026F03868D7F804A00290CDF804A0204600F070
S31500002700C1F88046A66AD4F82CB000F0EAF8002892
S3150000271018BFD34505D1BBF1000F02D0A8B2404582
S315000027204BD0002E1CBFB068002801D0F06808B955
S3150000273003209CE0CA4601E00AF1010AF0688245DE
S3150000274018D2B068182101FB0AF10144A8B2CA895F
S31500002750904222BF088AAAB29042EDD301208DF89A
S3150000276000008B462046FFF79BFF0028E4D001209F
S315000027708DF8010003A9204604F046FB204604F02C
S3150000278049FB82469DF80100C0B1217900F073F83B
S31500002790386860B3B04223D17A680AB35A451FD16C
S315000027A0A9B2884506D00023204604F04AFB5FEA1A
S315000027B0000912D1C4F82CB0658057E09DF80000DE
S315000027C048B1BBF912209DF80C10A4F10C0004F0DE
S315000027D025FF0146DAE7012049E000F04BF83FE02B
S315000027E0016821B13268914208BF416800D0316862
S315000027F000F045F881465FEA090004D1DBF80010D5
S3150000280000F03DF881465FEA09000FD100F069F853
S3150000281010B13E60C7F804B0C4F82CB0658001233F
S315000028205A46A9B2204604F00CFB81465FEA09002D
S3150000283005D1BA685946A4F10C00904716E000F09D
S3150000284050F898B10298386001987860386808B1F5
S3150000285000F014F800F00EF8786838B100F00EF8C1
S315000028607A6800234146204604F0EBFA484605B054
S31500002870BDE8F08F5146204604F0B6BA01682046FE
S3150000288004F092BD408870470C6B0020492600007A
S315000028907878002001281CBF0428022801D10120D5
S315000028A070470020704738B500F03CF840B16878B2
S315000028B0FFF7F0FF20B1287869780843400701D573
S315000028C0012032BD00F00DF828B103F06BFF400780
S315000028D001D5022032BD29462046BDE8344004F029
S315000028E02FBA204674E60C30DDE738B500F01AF84A
S315000028F038B16878FFF7CEFF00281CBF6878042837
S3150000290001D1012032BDFFF7ECFF28B103F04AFFE9
S31500002910800701D5022032BD29462046BDE8344055
S3150000292004F020BA0D4604462878B3E70C30DCE7FD
S3150000293030B583B00C30DDE90645CDE9004503F03E
S315000029407AFE3EBD0C3004F00DBDFEE70020704758
S3150000295038B504461048417815462220FFF7F6FBA5
S315000029602046FEF705FB04466DB120000BD00B4850
S31500002970007818B10A490120087004E000220021FD
S31500002980204600F032F9204632BD70477047704746
S315000029900449087070470000CC6A0020576D00207B
S315000029A0586D0020377F00207047000001207047D7
S315000029B00C3004F033BC0C3004F05EBC0846114603
S315000029C004F0A4BB0C3004F0C5BB70B50C4615462C
S315000029D01E460C30FFF7EAFF38B1049B3246294603
S315000029E02046BDE8704003F061BE70BD00000000E7
S315000029F080B54FF40071ADF800106A460649FFF73E
S31500002A00DAFFBDF80010B1F5007F01D0012002BD4C
S31500002A10022808BF002002BD80780020704705F01C
S31500002A2025B810B504460521112001F013FF002238
S31500002A300021022002F02CF81848194A01686FF3A9
S31500002A40D321016002EAC422016811430160012218
S31500002A500121022002F01CF8BDE8104004211120DB
S31500002A6001F0F8BE0D4800680003C00D704738B588
S31500002A700C480C4601884FF6FF75ADF8005002234E
S31500002A807F22684605F07DF8BDF80000A84202D016
S31500002A902080012032BD002032BD000030400E40B3
S31500002AA000F80F00B6C20200EFF31180602181F337
S31500002AB01188704780B505F07EFA05F089FA80B274
S31500002AC002BD80B505F077FA05F082FAFA21B0FB6F
S31500002AD0F1F080B202BD80B505F06DFABDE80440A4
S31500002AE005F076BA80B504F068FF18480021416009
S31500002AF0001D05F0C5F820B141210FF28400FDF755
S31500002B00FBFD002002BD114901200870704770B519
S31500002B10044682B02268002502B91BE000F00DF8D9
S31500002B2001201BE070B50C4682B02268002502B970
S31500002B3010E000F002F8022010E0044E044B35705D
S31500002B4000950021706805F01EB900004C76002043
S31500002B50072B000005F054FB002076BD05F0EAFBCC
S31500002B60307828B97068214605F0DEF9852501E040
S31500002B7025603570284676BD014600220020D1E743
S31500002B8073797374656D2D74696D65722E630000BB
S31500002B9080F3118870470000DFF8A803002120F8B1
S31500002BA0801B0022FF2101704170C27002714171C9
S31500002BB08271704770B50446402C1546DFF8846371
S31500002BC003D171782A20FFF7C1FA06F185002900A2
S31500002BD018BF012104704170DFF86C03007805F01E
S31500002BE0B5FCBDE8704001F050BC70B504460D461A
S31500002BF016468D2C08BFFFF7C8FE324629462046EA
S31500002C00BDE87040D6E7F8B5CE4CFFF74DFF04F1AE
S31500002C1080056E79FF2E68D0FF216971FFF7B8FF36
S31500002C2030001CBF402E8F2E1BD103F03EFA400908
S31500002C3017D0E01C05F0A0FC00F44060B0F5406F32
S31500002C4005D104F10801002005F0BEFD05E004F100
S31500002C50080005F091FC01F0B3F8A1780D3106F0FB
S31500002C601CF8002E207816BF8F2E01270027022879
S31500002C7002D0EC2100F06BF8380011D0A01C00F057
S31500002C80BAF868B1A87938B1012020702921BDE8C9
S31500002C90F440AE4805F06ABBFEF7F1FA312021E0B8
S31500002CA0FEF7EDFA402E10D105F0FDFF6078411ECB
S31500002CB06170A0B1287806F0AFF801460022042022
S31500002CC000F023FFBDE8F14045E08D2E07D12878BE
S31500002CD006F0A2F801460022202000F016FF07B1F8
S31500002CE000263046BDE8F24098E0FFF751FF207815
S31500002CF0032804BF002000F091F804F1810002F0DF
S31500002D00CFFCFF280AD0E978491EE97006F086FB59
S31500002D10207818B9BDE8F14006F037BAF1BD72E780
S31500002D2080B58B490A788AB9012210280A7003D027
S31500002D3040F2571100F00BF8864900204870012236
S31500002D40BDE808404FF47A718348F2E001BD0FF206
S31500002D502020FDF7D1BC80B5012006F01BFE7C4982
S31500002D600020087021207D49FFF7F0F948B10128BD
S31500002D700DD002280BD1002200218D20FFF71AFF6B
S31500002D8005E001224FF47A71734800F0D2F8BDE8ED
S31500002D900240002006F0FEBD38B5044600208DF83E
S31500002DA00000684D287818B14FF4D571FFF7CFFFB2
S31500002DB00220287085F880406A46A91C204606F045
S31500002DC0BBF864494870664800786870FFF7C3FF2F
S31500002DD031BD06F013BD010080B508BF0120020118
S31500002DE06049002006F0ECFD002002BD5D49002090
S31500002DF006F024BE704710B5441C204605F0BCFB07
S31500002E0000F00700032807D1204605F0C5FF205C27
S31500002E10042801D1012010BD002010BD38B504469C
S31500002E20484D7E220021A81C06F081FE0020287055
S31500002E3006F0ABF995F880102046BDE8344006F060
S31500002E40A5B970B504460D461646FEF76CFB60B193
S31500002E503EB12046FFF7CFFF18B1607840F0200062
S31500002E6002E0607800F0DF0060702946204602F03C
S31500002E70BAF90146FF291FD0324D3B4E05F18104B8
S31500002E80204602F0F8FB15F8830F401C2870C0B2EC
S31500002E90318881420BD26878401C687007E0204672
S31500002EA002F0FEFB02F01CF92878401E28703088DC
S31500002EB029788842F3D38FE670BD10B5214C20786F
S31500002EC0012806D1214900200870FEF7D8F9032011
S31500002ED0207010BD10B51D49002008700024FFF7B2
S31500002EE0E3FD18490A78012A02D1032201240A7057
S31500002EF0FFF74EFE2CB1FEF7C2F9BDE810403120B7
S31500002F008CE710BD0F480178481E8041C00F7047FE
S31500002F10FEF7D1B9FEF7CBB90A4890F8831000291D
S31500002F2004BF813002F006BC002070470F4802F053
S31500002F3008BCFFF70DBD03480078012818BF002024
S31500002F4070470000C47A00202B7F00204C7B0020B5
S31500002F50367F0020CC6A0020C67A0020212D000092
S31500002F60EC6B0020D32D0000AA6B0020457B0020CF
S31500002F706C6F7765722D6D61632D65667233322EC7
S31500002F80630000004901002807D5DFF8542400F04B
S31500002F900F00104400F8041C7047DFF84824115451
S31500002FA0704700F0070010B5C0F10703042B28BFD7
S31500002FB00323C41C072C34BF0020001F012404FA7D
S31500002FC003F35B1E1940814004FA00F0401E1040D6
S31500002FD0084310BD00207047704710B586B072B622
S31500002FE0FEF7A2FEDFF80004DFF800444069206027
S31500002FF000F0C0F901466FF00E00FFF7C3FF00F0C6
S31500003000B9F901466FF00D00FFF7BCFF00F0B2F909
S3150000301001466FF00C00FFF7B5FF00F0ABF9014673
S315000030206FF00B00FFF7AEFF00F0A4F901466FF05A
S315000030300A00FFF7A7FF00F09DF901466FF00900AF
S31500003040FFF7A0FF00F08EF901466FF00800FFF7CA
S3150000305099FF00F087F901466FF00700FFF792FF2E
S3150000306000F080F901466FF00600FFF78BFF00F0D5
S3150000307079F901466FF00500FFF784FF002202216F
S3150000308000F072F901466FF00400FFF77BFF00F0D5
S3150000309075F901466FF00300FFF774FF00F062F95F
S315000030A001466FF00200FFF76DFF0022072100F0D6
S315000030B05BF901466FF00100FFF764FF00F05EF96F
S315000030C001464FF0FF30FFF75DFF00F057F901466C
S315000030D00020FFF757FF0022032100F045F90146C3
S315000030E00120FFF74FFF00F041F901460220FFF7EC
S315000030F049FF00F03BF901460320FFF743FF00F0CC
S315000031003DF901460420FFF73DFF00F037F901467F
S315000031100520FFF737FF00F031F901460620FFF7DB
S3150000312031FF00F02BF901460720FFF72BFF00F0D7
S3150000313025F901460820FFF725FF00F01FF9014693
S315000031400920FFF71FFF00F019F901460A20FFF7D3
S3150000315019FF00F013F901460B20FFF713FF00F0EB
S315000031600DF901460C20FFF70DFF00F007F90146A7
S315000031700D20FFF707FF00F001F901460E20FFF7CB
S3150000318001FF00F0FBF801460F20FFF7FBFE00F001
S31500003190F5F801461020FFF7F5FE00F0EFF80146BE
S315000031A01120FFF7EFFE00F0E9F801461220FFF7C5
S315000031B0E9FE00F0E3F801461320FFF7E3FE00F016
S315000031C0DDF801461420FFF7DDFE00F0D7F80146D2
S315000031D01520FFF7D7FE00F0D1F801461620FFF7BD
S315000031E0D1FE00F0CBF801461720FFF7CBFE00F02A
S315000031F0C5F801461820FFF7C5FE00F0BFF80146E6
S315000032001920FFF7BFFE00F0B9F801461A20FFF7B4
S31500003210B9FE00F0B3F801461B20FFF7B3FE00F03D
S31500003220ADF801461C20FFF7ADFE00F0A7F80146F9
S315000032301D20FFF7A7FE00F0A1F801461E20FFF7AC
S31500003240A1FE00F09BF801461F20FFF79BFE00F051
S3150000325095F801462020FFF795FE00F08FF801460D
S315000032602120FFF78FFE00F089F801462220FFF7A4
S3150000327089FE00F07BF801462320FFF783FE00F06D
S315000032807DF801462420FFF77DFE00F077F8014621
S315000032902520FFF777FE00F071F801462620FFF79C
S315000032A071FE00F06BF801462720FFF76BFE00F079
S315000032B065F801462820FFF765FE00F053F8014641
S315000032C02920FFF75FFE60684FF6FF01084040F0D7
S315000032D0BF6040F401306060E06840F40070E06078
S315000032E0E06840F01000E0604FF4E020E06106F096
S315000032F04FFC06F075FC3E4A3E4892B2002106F0AD
S3150000330016FC3D4A3D4892B2002106F010FC62B61A
S315000033103B48016841F48071016001203949086029
S3150000332006F0B0FC04F0DFFC06F093FD364802AC74
S31500003330D0E90023CDE9002301208DF8030068467B
S3150000334006F040FF04F060FFFFF7CCFB2F480FC8E4
S3150000335084E80F0008208DF8140002A807F0CAF9C7
S3150000336006B010BDFF22FF2104201AE6002201212B
S31500003370042016E600220021042012E60022042181
S3150000338004200EE607F0C4B907F0C3B9FEF7EABE9B
S31500003390FEF7E9BE032004F05CBC000010B506F0A1
S315000033A060FC044606F061FCC0B208B9012C07D1E6
S315000033B0072C11D8DFE804F004100608080A0C0EE2
S315000033C0002010BD092010BD022010BD032010BD35
S315000033D00B2010BD062010BD44F0800010BD00007B
S315000033E018ED00E000E400E00000000008ED00E059
S315000033F090120000A0000020000000000000000065
S3150000340000000E4010300E40C4B902007CBA020023
S315000034100C3003F066BB38B50D46044689B2FFF79B
S315000034205BF9010005D1A9B22046BDE8344003F09E
S3150000343002BB32BD03480188034808237F2200F0FF
S3150000344047B800BFC0C20200B07A002038B50C46AB
S3150000345011461A467F2908BF002141F2F0139C420B
S3150000346018D154490B6849680024D5B27DB3035579
S31500003470641C1B0A521EE4B2042CF6D3E4B2082CD8
S3150000348025D2D3B2002B1FBF0155090A521E641C58
S31500003490F4D131BD04F47045C4F30B03B5F5805F78
S315000034A011FB02F108BF43F07E630BD0B5F5005F58
S315000034B01CBF04F47044B4F5405F08D143F07C634C
S315000034C043F40113C918BDE8384006F0EDBA31BD22
S315000034D070B51E00044615461BD04BF2346081427F
S315000034E011D1092E28BF082633467F2241F2020158
S315000034F02046FFF7ABFF32462F49204606F01EFB5B
S3150000350038B941F2F01133462A462046BDE87040EC
S315000035109CE770BD2DE9F84307460024F807884666
S3150000352015466FF00F06DFF8949002D5652100F07E
S3150000353049F8E80702D5662100F044F807F470411F
S31500003540B1F5805FC7F30B000CD140F07E64B4F197
S315000035507E6F264604D32819401E1949884210D387
S315000035606B210CE0B1F5005F18BFB1F5405F05D1E6
S3150000357040F07C6444F40114264602E0722100F017
S3150000358021F8002706E0F05DFF2802D07C2100F03C
S3150000359019F87F1CAF42F6D36A084146204607F069
S315000035A0F1F828B14846BDE8F4438521FDF7A4B8F3
S315000035B0BDE8F183F081E00FBCB90200B0B90200AA
S315000035C00008E00F4846FDF797B870B50D4682B083
S315000035D00446287858B90021204603F094FC0021BF
S315000035E0204603F0E2FC0021204603F0E3FC2878A5
S315000035F0002814BF0420287900F027F814BF287982
S3150000360068798DF801002046FFF76FF906001AD198
S315000036102878002814BF0220A87900F016F814BFF5
S31500003620A879E8798DF801002046FFF73CF90600F5
S3150000363009D1287838B16988204603F06DFC01214C
S31500003640204603F060FC304676BD8DF800006946E2
S315000036502878002870470C3003F0A7BC0C3003F024
S31500003660AFBC084603F0A2BF084603F0A1BF0000A6
S315000036702DE9F84FDFF8FC46DFF8FC562068DFF846
S31500003680FCB6DFF8FC96DFF8FCA6E86128620026A7
S315000036904FF6FF7828E02068F6B2482111FB06F1C4
S315000036A0471848220021384606F041FA99F80000EA
S315000036B03870A7F80280002038737873761C0B20C8
S315000036C0B8731420F8734FF6FE703882A7F812808C
S315000036D007F0B6F8387607F0B3F8787607F0B0F862
S315000036E0B8769BF80000F876F0B29AF80010884297
S315000036F0D1D3281DBDE8F84F0222FF2106F017BAE4
S315000037002DE9F041DFF880560FF29C68044695F9E2
S31500003710000010F1010F03DA5D214046FCF7ECFFD3
S31500003720DFF8607639788C42264605D3FE2E03D024
S315000037305F214046FCF7E0FF2878DFF83C16401C86
S31500003740287040B20844047438788442DFF82406AE
S31500003750006828BF0E78482212FB06F21044C861A2
S31500003760BDE8F08110B5DFF8204694F90000002886
S3150000377002D5702100F0A6F82078DFF8FC15401E6F
S31500003780207040B2DFF8FC450A78247800284EBF46
S3150000379010460818007CA04238BF0246DFF8D40560
S315000037A0006848235A431044C86110BD10B5002074
S315000037B0DFF8C41500E0401C00F07EF808D2DFF800
S315000037C0B435C0B21B68CA6900F070F8F3D110BDF9
S315000037D08B2167E0DFF8B00590F9000010F1010FCA
S315000037E001D10120704700207047FE2088E7DFF8EE
S315000037F088050078704738B50446FFF7EBFFDFF819
S31500003800785550B9DFF8800590F900002844007C0F
S31500003810FE2802D0A72100F055F8DFF868150978D0
S315000038208C4201D3B12032BDDFF848052C70482107
S31500003830006811FB04F10844E861002032BD38B588
S31500003840DFF84405DFF8305590F900402819007C70
S31500003850FE2807D0FFF7BEFF20B9C42100F032F8DA
S31500003860FF2032BD611E00E0491E49B2080004D4A3
S315000038706818007CFE28F7D032BD287832BD10B516
S315000038800020DFF8F41400E0401C00F015F808D220
S31500003890DFF8E034C0B21B680A6A00F007F8F3D11B
S315000038A010BDE32100F00EF8FF2010BD482414FBE4
S315000038B000F423449A427047DFF8C8341B78C2B23A
S315000038C09A4270470FF2E040FCF716BF10B5FDF7BD
S315000038D005FADFF8A444216A897B884203D00846AA
S315000038E0FDF71CF950B9FDF7FDF90146206A90F97C
S315000038F00F00814204D0FDF704FA08B1012010BD83
S31500003900206A008AFDF73EFE206A408AFDF75AFECD
S31500003910206A007B012818BF0020FDF71EFE00204C
S3150000392010BDDFF8601410B509788842044603D349
S3150000393040F20711FFF7C6FFDFF85004007808B918
S31500003940702010BDDFF82C0400F06CF8DFF82814A6
S315000039500862BDE81040B9E7DFF830140870704718
S3150000396010B5DFF82C440020207005F089FF20B93F
S315000039702046BDE8104004F0EFBC00F059F8DFF82F
S3150000398004140978884206D3FFF710FF044600F0B6
S3150000399010F818B12046BDE81040C2E710BDDFF8A8
S315000039A0D803006A008A7047DFF8CC03006A408AB1
S315000039B07047DFF8C0130968482250430844407B2B
S315000039C002281CBF1128432801D10120704700207E
S315000039D07047DFF8A0130968482250430844007B6B
S315000039E001281CBF0228032801D1012070470020AE
S315000039F0704710B5002400E0641C00F02DF80FD2CB
S31500003A00FFF7D7FF0028F7D0DFF86803E4B200F02D
S31500003A1009F8007B012818BF0228EDD1204610BD09
S31500003A20FF2010BD0068482111FB04F108447047CF
S31500003A3010B5002400E0641C00F00EF80AD2FFF76F
S31500003A40C8FF0028F7D0E0B2FFF7B3FF0028F2D096
S31500003A50E0B210BDFF2010BDCA490978E0B2884225
S31500003A60704770B500240025C64E08E0FFF748FEF3
S31500003A7002F000FB00B10124FFF774FE6D1C3178E3
S31500003A80E8B28842F2D3204670BD80B5FFF7D0FF7A
S31500003A90FF2801D0012002BD002002BD38B5BD4C73
S31500003AA0054620680321A94088432060FFF77EFE73
S31500003AB02168A8400843206031BDB6490968C14065
S31500003AC001F00300704738B504460D46FE20FFF7A7
S31500003AD017FE2946204607F046F8BDE8314041E684
S31500003AE010B50446FE20FFF70BFE204607F060F9EE
S31500003AF0BDE8104036E682B08DF80010DDE90023FF
S31500003B0011461A4602B007F0B5B932B586B004467A
S31500003B108DF8042002F0CAF90546204602F0D4F9D1
S31500003B2080F001010D420DD0BDF8180002F0C3FA75
S31500003B308DF80000FF2804BF00208DF80000CDF8A6
S31500003B4008D01AE0294308BF06A815D0054214D0AC
S31500003B50BDF8180002F0AFFA8DF80000FF2804BF88
S31500003B6000208DF800009DF800008DF80C00BDF8CF
S31500003B701800ADF80E0003A80290FE20FFF7C0FD66
S31500003B80DDE901010A460146204607F073F9FFF711
S31500003B90E9FD07B030BDF8B57A4E774D044630786A
S31500003BA0687000270DE0FFF7ABFDE8694169FFB2D9
S31500003BB044F8371004EBC701C07E08717F1CFFF77D
S31500003BC0D1FD3178F8B28842EDD3F1BDF8B504469F
S31500003BD00025694E0DE02846FFF792FDF06954F87E
S31500003BE0371041616D1C04EBC7010979C176FFF7F7
S31500003BF0B9FD6449707809788142EDB238BF08464C
S31500003C002F468742E7DBF1BD38B5FFF7CFFD5D4AAA
S31500003C10594B1278002100E0491CCCB294420ED2D6
S31500003C209C78C9B20C1994FBF2F502FB1544E4B278
S31500003C301C442579854202D0FF2DEDD1207131BD7E
S31500003C4070B54D4C4F4EA0783178204405798D42A1
S31500003C5003D340F22A21FFF735FEA0782218FF2170
S31500003C601171401C317890FBF1F201FB1200A0703B
S31500003C70284670BD4048817808440079FF2801D065
S31500003C80012070470020704710B5FFF7FEFE70B1A7
S31500003C90394CE069007B042809D11420FFF7FEFEA9
S31500003CA004F10800BDE81040642104F05FBBBDE8E4
S31500003CB0104005F09DBB80B52F49002008721420E6
S31500003CC0FFF7FBFEFFF71CFD05F092FBBDE8014088
S31500003CD048E500002DE9F8438146FFF767FDB9F195
S31500003CE0040F0FF2C4082C4C234F2C4D2C4E38D801
S31500003CF0DFE809F0030A0A1B1B00F86900F1280136
S31500003D0000200860886033E0FFF7BFFE20B140F274
S31500003D1061214046FCF7F0FCF869316840F8281F3D
S31500003D20216881602978017117E02A783568F96978
S31500003D300E2313FB02F6354413FB00F32B4441F824
S31500003D40283F236803EB8202164B1B7802EB8302A3
S31500003D5002EB8000886001200871BDE8F14307F09E
S31500003D606FB94046BDE8F44340F27521FCF7C4BC88
S31500003D70BDE8F18358680020807A0020C86B0020D7
S31500003D80127F0020BC6B0020EB6B0020EA6B00204A
S31500003D90A47A0020AC7A002060680020BD6B002069
S31500003DA05C680020B76B0020656D6265722D6D75CD
S31500003DB06C74692D6E6574776F726B2E63000000EC
S31500003DC0F8B50F4D2E68040001D1FF20F2BDFEF7B5
S31500003DD06BFE0C4F29683A7821F8124036F8021B20
S31500003DE0A142FBD1FEF7D4FE29683A78B01E401AEC
S31500003DF04010C1B2914208BFFF20C0B2F2BD00BF61
S31500003E0030680020B76B0020DFF8A015002008708E
S31500003E10FF21DFF89C05017001717047F8B5044673
S31500003E20FEF748FE0546DFF88C05DFF88475068840
S31500003E30204604F0CDFFB0F5006F16D1204604F001
S31500003E40EBFFFFF7BDFFFF280DD000F038FA214643
S31500003E50381D01F010FCDFF85405017881B10089A6
S31500003E60A9190E1A10E09320F2BDFF21384601F081
S31500003E702DFC052802DA21463846EAE73920F2BD4C
S31500003E800581314604F072FAB2B20321204604F0ED
S31500003E9016FF03220521204604F01CFF204601F0F0
S31500003EA011F90020F2BDF8B50446DFF804050078E4
S31500003EB0FF2813D0DFF8005529680E5C37463846D0
S31500003EC004F09BFF01460822204605F037FE08B99C
S31500003ED00120F2BD2868C75DB742F0D10020F2BDCF
S31500003EE02DE9F843044604F01CFF000B00F0010620
S31500003EF0204604F0A6FF0546204604F091FFB0F5E3
S31500003F00404F14D1002E62D02946002000F092F9CD
S31500003F100446FF2C5BD0002105F076F9002856D028
S31500003F2000F0AEF940F080020521204646E0284622
S31500003F3004F022FB0546FFF743FF0446FF2C08BFAB
S31500003F40002045D001200021224607F05DF9DFF868
S31500003F506C24D2E9008948EA000349EA0107C2E96C
S31500003F600037A6B3DFF85864336833F814704FF49B
S31500003F70E6631F422BD0BB0623D5280A8DF8010025
S31500003F808DF800506946012000F054F90546FF2DD2
S31500003F9008D1306830F814104FF6DF72114020F85F
S31500003FA0141014E0002105F02FF980B105212846F0
S31500003FB004F097FE40F080020521284604F08AFEB0
S31500003FC005E0D2E9024520432943C2E90201012066
S31500003FD0BDE8F28338B5044604F0FAFEB0F5006F8A
S31500003FE00CBF01250025204604F007FF04462146A4
S31500003FF0284600F01FF9FF2810D18DB1204604F0A5
S31500004000BBFAFFF7DDFEFF280AD0DFF8B413096814
S3150000401031F810004FF4E261084201D0012032BDB0
S31500004020002032BD2DE9F04107460C4604F0D0FED3
S31500004030DFF87C53B0F5006F0CBF281D28460078CA
S31500004040FF2846D0DFF870130968085C0646B742B9
S315000040503CD1FEF729FD80460521304604F041FE9D
S3150000406000F07F00471EFAB20521304604F032FE0A
S31500004070200018BF312C01D0FFB207BBFEF714FD9C
S315000040800746304604F0A4FEB0F5006F314605D170
S31500004090281D01F01BFB00F0F7F802E0284601F0AE
S315000040A015FB3846FEF774FD4046FEF771FD2146C6
S315000040B0304608F06AF8304601F012F804E000F0E5
S315000040C0E3F84046FEF764FD012003E08E5D86427C
S315000040D0BDD10020BDE8F08110B5FEF7EBFCB34C76
S315000040E021892081411A88B200F0F2F84FF6FF715B
S315000040F0884202D10020207010BD01462046BDE84E
S31500004100104004F033B94FF6FF70E1E02DE9F84FA7
S3150000411000F08AF808BF904200F084800127934699
S3150000412000249046FEF7C0FC8246A4480025D0E94C
S3150000413000010BEA010207EA0006AA4208BFAE42E6
S315000041401DD0FE436FEA0B099C4A304001EA090183
S31500004150C2E900010125D2E902010BEA010307EADF
S315000041600002434508BF424509D09448934AD0E926
S315000041700201304001EA0901C2E90201A84650469F
S31500004180FEF706FD002D3FD08D48006830F814007C
S31500004190810739D58B49096831F81450B8F1000FF9
S315000041A006D000F49870102808BF4FF0010A01D01D
S315000041B04FF0000A84480078C0070AD58349096889
S315000041C0002041F8240082480068015D41F0F001BA
S315000041D001558AF0010018EA000F09D078480068F6
S315000041E030F8141041F4006120F8141005F05EF860
S315000041F0002000902B461A226BA1032001F0F1FA51
S315000042005146284608F080FC4FEA4B0040EAD77B2F
S315000042107F00641C402C05DA00F006F808BF9042C7
S315000042207FF47FAFBDE8F18F64480022D0E900013A
S31500004230914270472DE9F04188465D4900281ABF32
S31500004240091D022508250878FF2816D05A4E316820
S315000042500F5C3C4600F014F800060AD4204604F031
S31500004260CCFD01462A46404605F068FC08B92046C2
S3150000427004E03068045DBC42ECD1FF20BDE8F0816B
S315000042800521204604F02DBD70B50021202004F044
S3150000429037FA47480079FF2810D0474C21680D5C53
S315000042A02E46304604F0B8FDFFF78AFDFF2801D000
S315000042B000F005F82068865DAE42F2D170BD404937
S315000042C0096831F8102042F0200221F810207047CA
S315000042D02DE9F84F80460FF2FC00354E0068364F48
S315000042E000904FF6FF7A344600E0341DFEF7DCFB03
S315000042F0814606E0204601F0D3F92946684601F0DA
S31500004300BAF9204601F016FA40B938682178455CBA
S315000043100321284604F0CAFC8045EBD2301D8442B6
S3150000432008BFFFF7B1FF4846FEF732FC2078FF28AA
S3150000433019D0396811F800904D460321284604F03B
S31500004340B5FCA0EB080B1FFA8BF20321284604F0FC
S31500004350B6FC3868455D51461FFA8BFA8A4588BF18
S315000043608A464D45E9D1301D8442BED1684601F0EA
S31500004370E1F9A8B9684601F093F9044604F0DBFCBC
S31500004380FFF7BEF9FFF77CFF000603D44221204663
S3150000439007F0FBFE204600F0A3FEFFF7E3F9E5E792
S315000043A01FFA8AF0BDE8F28F42574200B87A002021
S315000043B0186B00208C6B00202C680020A86D002054
S315000043C034680020306800205C7C002038680020BB
S315000043D080680020FF00000070470020704770478B
S315000043E00198704770477047702008F0DABB70B5C7
S315000043F0044643381F4D08D0401E012809D9801EA7
S3150000440001280ED9C01F33D02BE0BDE8704009F05B
S315000044107DBF09F0ACFF20B109F078FF0028FBD181
S3150000442070BD154E307818BB01203070002009F0A1
S31500004430D7FF442C12D00CD3462C05D00ED3472CD4
S3150000444007D140F6010001E040F60200FDF74AFE02
S3150000445004E040F20B112846FCF74EF900203070BC
S3150000446070BD2846BDE8704040F21D11FCF744B906
S3150000447070BD00008CBA0200167F00207047002035
S31500004480704770477047002070477047FCF7E8BADE
S3150000449009F0F8BF890001EB401000F1844002608A
S315000044A07047890001EB401000F1844000687047B6
S315000044B010B5DFF8C44512212046FFF7F2FF0028A9
S315000044C0F9D12068000C00F0030010BD0122DFF8CE
S315000044D0181510B5884232BF0022DFF81015884241
S315000044E001D2144600E002241021DFF80405FFF78C
S315000044F0D1FFDFF88805016821F0807141EA046187
S31500004500016010BD70B5DFF8EC24DFF87445136860
S31500004510002304EBC305CEB22D79B54203D154F87E
S315000045203350854202D25B1C052BF2D3052B0EBFFE
S31500004530032004EBC3004079116821F0407141EA81
S315000045400060106070BD38B500F013F841F67130A8
S31500004550206009F0DCFF002105E038B500F009F81D
S3150000456041F671322260FFF7CDFF0DB100202060C9
S3150000457031BDDFF81446256805B101257047C01C1A
S315000045800F2801D2000770474FF0704070470000B7
S3150000459038B50446002500F007F9DFF8E824DFF80F
S315000045A0CC14944208D0DFF8E024944206D0DFF819
S315000045B0DC24944204D006E0086802E0486800E083
S315000045C0886800F00700401E03281BD8DFE800F0CB
S315000045D002050C0809F0CCFF04E009F0CFFF01E06A
S315000045E009F0C9FF05460DE009F084FFDFF88C14D9
S315000045F00968090E01F001010122491C02FA01F1C4
S31500004600B0FBF1F5284632BDDFF880154A68D207BF
S3150000461002D40A680242FCD17047000070B5020A53
S315000046200C4602F00F020021521E092ADFF89456AA
S3150000463014D8DFE802F005141313071619131C200B
S31500004640DFF8AC53C0F3043611B10846FFF7DCFFC0
S31500004650224631462846BDE870401BE770BD10353E
S31500004660F0E730350121EDE738351021EAE740352E
S315000046704FF48031E6E7DFF85456E3E770B5DFF82C
S315000046801015DFF804240E68DFF8F813DFF8EC43A2
S31500004690012510F4781069D0B0F5003F2DD0B0F5A3
S315000046A0802F24D0B0F5202F60D0B0F5402F2AD02F
S315000046B0B0F5602F52D0B0F5801F72D0B0F5A01FB4
S315000046C047D0B0F5B01F27D0B0F5C01F36D0B0F533
S315000046D0E01F1FD0B0F5F01F2ED0B0F5081F38D060
S315000046E0B0F5301F1FD0B0F5401F42D058E009F09A
S315000046F010FFE168C1F308210AE009F00AFFA1688A
S31500004700C1F3082104E009F004FF6169C1F3042143
S31500004710491C1BE008461EE00846FFF739FF216AE0
S3150000472001F00F0110E00846FFF732FF0646206A47
S31500004730C0F30110C64034E010460CE01046FFF707
S3150000474027FFA16AC1F3011105FA01F1B0FBF1F6E9
S3150000475027E0DFF83803FFF71BFF1FE0DFF87005DF
S3150000476000F022F807281CD0092819D109F0D1FE3B
S3150000477014E0DFF8600500F017F804280CD00728CD
S315000047800FD008280CD109F0C4FE2168C1F304211A
S31500004790491C01FB00F604E009F0D6FE064600E0DF
S315000047A00026304670BD0000014601F00F010120D1
S315000047B0491E0729DFF8242549D8DFE801F0040F50
S315000047C01348202E4836506A00F0070002283AD0D7
S315000047D002D3042804D01CD30520704711690FE0CA
S315000047E002207047516901F00701491E03292FD89D
S315000047F0DFE801F00F020311F2E706207047916926
S3150000480001F00701012904D00229E9D0042902D0C8
S315000048107047032070470A207047116811F00101A4
S315000048200FD0012914D109207047DFF8B4140968A4
S3150000483001F03001102904D0202904D0302904D0F9
S3150000484070470720704704207047082070470020F3
S31500004850704700002DE9F843804600260324B8F18E
S31500004860110F0F46A14612D1042F02D109F06CFE9A
S3150000487008E0052F0BD1DFF86C04DFF86C14006834
S31500004880884204D306001CBF002105F057FC08F03F
S315000048900F00401E0728DFF844540ED8DFE800F06A
S315000048A00440468E43728E7C022F4F4806D0032F5B
S315000048B02CD0042F2DD0052F30D07FE004244FF0CC
S315000048C0000901220121484600F0E2F8FFF73BFE0D
S315000048D036B11221DFF8A001FFF7E3FD0028F8D179
S315000048E06C6000F07DF8FFF7F1FD09F003FE044669
S315000048F0FFF7DEFD01462046FFF72FFE002E5DD1B5
S31500004900BDE8F4430121002005F018BC4FF0010971
S31500004910D7E70224A146FFF7D9FDD2E70124FAE73B
S3150000492005F1100404E005F1180401E005F1140492
S31500004930012F08D0022F09D0032F0ED0062F13D037
S315000049400A2F1DD03AE00020206037E00122012125
S31500004950002000F09DF80220F6E701220121012047
S3150000496000F096F80120EFE709F0C4FDFFF7AEFD71
S3150000497001220021DFF84C03FFF78CFD0320E3E75B
S315000049800420E1E7072F02D0092F02D016E000200D
S3150000499000E00120286011E0012F06D0042F16D078
S315000049A0072F0DD0082F19D008E00020DFF83013AC
S315000049B00A6822F0300242EA00100860BDE8F1837E
S315000049C001220121042000F063F80120EEE7012214
S315000049D00121022000F05CF80220E7E70320E5E76A
S315000049E0DFF8F4024AE600000148E8010190D0032E
S315000049F000400E4004000E4070B500F039F8012268
S31500004A000021022000F044F8217CDFF8E852002063
S31500004A100229296808BF0120490840EA41002860A8
S31500004A20082122782846FFF735FDA088617A41EAF9
S31500004A30C020A860EE68207AFFF7A1FDE28806F0A4
S31500004A407F6141EAC221A27A1143227A41EAC21168
S31500004A500843E860A17B607B090141EA0030E17B05
S31500004A600843217B40EA0140286170BD80400E402A
S31500004A700446112098E6000004300E4000410E4026
S31500004A808CB8020002001C0003001E000500220074
S31500004A902DE9F84F04288246904673D8DFE800F0E7
S31500004AA04E493F0344000126022001270024002925
S31500004AB0DFF814928F4D60D0BAF1020F02BF28685A
S31500004AC0C0F3011000284FF0000B0CD18A48006893
S31500004AD02868C0074FF0010B05D5286820F0300084
S31500004AE040F010002860EE6300F054F80028FBD078
S31500004AF0B8F1000F46D0394600F04DF80028FAD03C
S31500004B00BAF1020F3ED1BBF1000F3BD02868C007B7
S31500004B101BD501222021022000F0C3F819E004264B
S31500004B20082003270224C2E7102620200527042494
S31500004B30BDE74026802007270624B8E74FF4807695
S31500004B404FF4007009270824B1E70021022000F085
S31500004B5087F8022000F022F80446012200210220F4
S31500004B60FFF796FF2146022000F032F8EE63394641
S31500004B7000F011F80028FAD004E0E86300F00AF823
S31500004B800028FBD1BDE8F18F40000E4040410E40A9
S31500004B901868002021464846FFF783BC401E0328BC
S31500004BA0524912D8DFE800F0020C06080869C0F383
S31500004BB008007047086800E0886800F07F007047CA
S31500004BC04E480068C0F30A00704700207047000096
S31500004BD070B5401E0D46032805F07F01434C444E38
S31500004BE03DD8DFE800F0022A101DC5F308051A219A
S31500004BF03046FFF756FC0028F9D12069400A45EAFD
S31500004C004020206170BD0D4618213046FFF749FC53
S31500004C100028F9D12068C00945EAC010206070BD9F
S31500004C200D4619213046FFF73CFC0028F9D1A06853
S31500004C30C00945EAC010A06070BD234800686069DD
S31500004C4020F0300040F010006061C5F3C310FFF79C
S31500004C5096FC216A2A4A114029430843206270BD06
S31500004C6024480268C2F30112002A18BF002907D09F
S31500004C70202902D0302903D005E04FF4000103E0DB
S31500004C804FF4400100E01F49C26E0A408A42FBD140
S31500004C90490204D5C06F800A00F001007047012068
S31500004CA0704710B502280AD10B0004D0164B4FF4FA
S31500004CB080645C64196012B1BDE81040D0E7012041
S31500004CC010BD0000B0400E4090400E4050410E40D6
S31500004CD006000E00B800300000050A0070400E40C5
S31500004CE05C410E4010690020012D310110400E403C
S31500004CF040410E4024400E403C300E409C400E4049
S31500004D0000F8FF0FFF33E13F64400E4010B51B4B28
S31500004D101C6890FAA0F2B2FA82F224EA00009140EE
S31500004D200843186010BD164901200860704770B529
S31500004D301448154B01680020002203EBC20453F807
S31500004D4032506468114E366876070DD4B5F5007F8B
S31500004D5018BFB5F5806F05D0B5F5006F18BFB5F56E
S31500004D60803F01D144F48074294202D0214208BF19
S31500004D702843521C092AE0D370BD000000500E40A3
S31500004D8008500E4004500E40B4B80200E841E00F4F
S31500004D900168C90707D58168890704D48168C907EE
S31500004DA0FCD401214160704780B501217E48FFF7A0
S31500004DB035FC7E4901200860002009F015FC01231E
S31500004DC004220221052009F05CFC012000F0CCFC45
S31500004DD000F00EF800F0F9FC09F046FD0123402230
S31500004DE07349744809F00EFD73490860C00F02BD8F
S31500004DF010B5012201210420FFF74AFE6F48704CCE
S31500004E00016841F0010101600022C16841F0807132
S31500004E10C16000236B496C4808606C4802606C4AAC
S31500004E2013600223236015236A4C23600023036466
S31500004E30694B0B65694911604FF48071684A1160CE
S31500004E40016841F48071016010BD80B56048016859
S31500004E50C9070ED563490A6822F440620A600168F0
S31500004E6049084900016001680902FCD46420FDF785
S31500004E70D6FD002200210420FFF70AFE504900203B
S31500004E800860574908604D49086001BD4B480068F5
S31500004E9000B10120C0B27047D12202704170090AE8
S31500004EA0817051490A78C270501C087004207047FE
S31500004EB02DE9F84FDFF834A1DFF834810446DAF83B
S31500004EC00000005D461DFDF7F5FDF6B200250090D9
S31500004ED04FF6FF7B18E0A91EC9B2204600F0A7FADC
S31500004EE00746594609F0CCFC83464D4638480068CB
S31500004EF0C00709D535480068C00505D5D8F80000B3
S31500004F000028FBD088F80070FFF7C0FFEDB228B389
S31500004F10B54223DAFDF7CEFD0099401A80B2B0F50E
S31500004F20FA7F1BDC15B95B270125DFE7012D05F1AB
S31500004F30010903D1DAF80000075DD6E7F01E8542C5
S31500004F4008BF5F46D1D0B01E854208BF4FEA1B2777
S31500004F50CBD0701E8542BED15D27C6E7B5420CBFD9
S31500004F6000200120BDE8F28F20490968095C042968
S31500004F70A8BFFFF79DBF0120704710B50E48006817
S31500004F8090B04022694609F028FC58B1C1B2684683
S31500004F9000F029F9044621461220FCF7D5FF2046E9
S31500004FA000F09EF810B010BD00250A0010881442CB
S31500004FB02870002048B8020014680020F0ED00E0D8
S31500004FC0F00004E0B00F00E055CEACC5000E00E0E6
S31500004FD0800E00E0100004E0FF0300400D00010019
S31500004FE0040304E0001000E0077F00202068002092
S31500004FF0200000E0DFF81C17096801EB401070473D
S31500005000DFF814271268115470472DE9F0410400A7
S3150000501035D0FDF749FDDFF80417DFF804370E78C1
S31500005020FF228046FE2EDFF8FC061BD100260E70FE
S31500005030DFF8F4C6DFF8F46637781F70002708E05B
S3150000504007F1010E05F807E0DCF80050EA555FFAB3
S315000050508EF796F800E005687745F1DB05EB0E065E
S3150000506006F8012C1E78A6420BD24046FDF790FDAD
S31500005070052000F0AFFB00211B20FEF73CFDFF20C2
S315000050801EE0361B1E70DFF8A8360E780F78D3F8B0
S3150000509000E001250EF80750641E056815F807E0C4
S315000050A081F800E05FFA84FEBEF1000FEED1EA550A
S315000050B000213046FFF7A4FF4046FDF769FD304664
S315000050C0BDE8F08110B50446FDF7EEFCDFF860168A
S315000050D009680A5D521C0A55BDE81040FDF758BD27
S315000050E02DE9F041054600F031F80446FDF7DCFCF9
S315000050F0DFF82826DFF82836DFF82866DFF830865E
S31500005100FF2D1FD0D8F800104F5D7F1E4F557F270B
S31500005110D8F800E01EF80510394213D13168495D10
S3150000512000270EF805701F787F1C1F70FF2937684F
S3150000513092F800E007F805E0157006BF2546FF2443
S315000051400D46DDE7BDE8F041FDF722BD80B5DFF88D
S31500005150E0150968095C090603D5FFF74BFF0078DF
S3150000516002BDFF2002BDB0B504460D46FFF7EEFFB7
S31500005170FF2818BFFFF7B4FFFF2DDFF8B47504D181
S315000051803868015D01F07F0106E02846FFF79AFFC7
S315000051903868015D41F0800101552046FFF72AFF7E
S315000051A00570B0BD0EB478B504460120FFF72DFF9B
S315000051B00546FFF71FFF0646FF2D08BFFF200FD04D
S315000051C0E1B22846FFF71CFF05A8002104E050F8CD
S315000051D0042B06F8012B491CC9B2A142F7D3284675
S315000051E072BC5DF810FB70B504460D4605F11F0054
S315000051F00004400D82B0C0B2FFF707FF0646FF2E3F
S315000052000CD02946FFF7FCFE3CB1012000902B464E
S3150000521000223146204600F002F8304676BD73B5CE
S3150000522000F0D0F8405C15461E467119884203DA34
S3150000523040F2651100F0EBF830000CD0294601A8C9
S3150000524000F0E9F8024606989DF8041000903346EF
S31500005250204600F001F873BD2DE9F843089CDFF8FD
S31500005260C4840546894616461F460BE06A5C4254CE
S31500005270491CB142FADBD8F80000BF1BAD1910F883
S3150000528009900026F8B2D0B14846FFF7B3FE801960
S3150000529056FA87F12029B9BFFFB23E46C6F120066D
S315000052A0F6B22100324604D10146284604F0FCFB42
S315000052B0E1E7012C08BF2946F8D00021D9E7BDE86F
S315000052C0F1832DE9F04100F07DF882B0055D884656
S315000052D016467119C9B2A9421F4605DB30000CD02B
S315000052E0204600F05DF808B1182007E00097334625
S315000052F02A4621464046FFF792FF0020BDE8F68188
S315000053000123DEE70A4600E0521C1378002BFBD18E
S31500005310521A0223D2B2D4E72DE9F041054601F133
S315000053201F00C70402F11F00C0043F0E000E07B99C
S31500005330012700B9012087422CD0DFF8E8431BDAA9
S31500005340C01BC0B2FFF761FE8046B8F1FF0F08BF71
S31500005350002020D07F1E00F020F82668305CFF2851
S3150000536004D000F01AF8305CFFF7BAFE00F015F82A
S31500005370216801F800800DE08A420BD2411EC9B2B5
S3150000538000F00CF805462068405DFFF7A9FE21688D
S31500005390FF2048550120BDE8F081F9B2284616E005
S315000053A038B500F00FF80D46015D2A462046FFF796
S315000053B0B3FF28B129462046FFF722FE002032BD62
S315000053C0182032BD0446DFF850030068704704E039
S315000053D0DFF850231268105C491ECAB2002AF7D1C2
S315000053E0704711B50C46DFF83013096881B0095CC7
S315000053F08C4203D340F2012100F009F8214601A8AE
S3150000540000F009F8044600F033F9204416BD0FF207
S315000054104830FBF771B938B504460D46E9042078E3
S31500005420090EFFF7D4FF207005F01F0032BD80B5CE
S31500005430FFF7D7FF007802BD10B51446FFF7D1FF7E
S31500005440047010BDB0B5FFF7BDFF82B0055DFF2C3F
S3150000545003D140F22121FFF7DAFF05F11F00000416
S31500005460400DC0B2FFF7D1FD0746FF2F0AD02946EF
S31500005470FFF7C6FD0095002322460021384600F0BE
S31500005480C6F83846B6BDF8B504460D4616460120A0
S31500005490FFF7BBFD0746FFF7ADFDFF2F01D1FF204C
S315000054A0F2BD33462A462021204400F020F8211878
S315000054B0C9B23846FFF7A4FD3846F2BD10B582B032
S315000054C004AC009400F001F816BD10B514461A4657
S315000054D0029B2044091BBDE81040C9B207E00CB48A
S315000054E080B502AAFFF7CFFF02BC5DF80CFB2DE9E1
S315000054F0F047814614469A464F46002588460AE0FC
S315000055003246384604F0D0FA7019BF19451EEDB27E
S315000055106D1C641CEDB245453BDA2078010038D09D
S31500005520312818BF32280ED15AF8041B07F8011B80
S315000055303228EDD16D1CEDB2A845A4BF081207F8BC
S31500005540010BE5DA25E034280ED1291D5AF8040BA3
S3150000555088451EDB3870010A7970ED1C010C000EBF
S31500005560B970F8703F1DD2E7A0F133025AF8041B58
S31500005570072A38BFA0F1300607D3A0F14102072A57
S3150000558034BFA0F137065AF8046BF6B270194045DD
S31500005590B6DBA7EB0900C0B2BDE8F0875F49FE2085
S315000055A00870704770B500F027F800F003F830185F
S315000055B080B270BD06022946204638E700B583B0A2
S315000055C002238DF80420120A8DF80520012200928C
S315000055D017E0F8B500F010F8FFF7ECFF8619E91CA4
S315000055E0C9B2FFF7E9FF0702A91CC9B2FFF7E4FF3A
S315000055F0C01906EB0040F2BD0D46691C0446C9B24F
S3150000560015E70A46014601A8FFF709FE07BD2DE981
S31500005610FC4405B40A9C20001F4627D089B2684680
S31500005620FFF7F9FE0646B9B201A8FFF7F4FE0746F2
S31500005630BE42A8BF3046A4B2C0F120002546C0B283
S31500005640A842B8BF054600F013F882469DF8000050
S31500005650FFF7D0FC2A460AEB0701304404F024FA8F
