S0110000656D3236302D756172742E73333790
S3150000000048650020BD9802004D5D02003197020050
S31500000010A70A0A010002000004180FAC1063F500DD
S3150000002000000000000000000000000000000000CA
S3150000003000000000F8AB0200000000000000000015
S315000000400000000000000000FFFFFFFFFFFFFFFFB2
S31500000050FFFFFFFF0070030000000000000000002B
S31500000060FFFFFFFFFFFFFFFF34000000000000005E
S31500000070000000000000000000000000000000007A
S315000000800000000000000000CC7F0020CC7F002094
S3150000009048650020B5B502008E990200E85B002095
S311000000A00000000000000400000000004A
S3150000020048650020BD9802004D5D0200319702004E
S3150000021039970200359702003D9702000000000062
S31500000220000000000000000000000000738E0000C7
S31500000230419702000000000003B600008BCC0000CE
S315000002402F36020095720200E5DE01004997020092
S31500000250A16E0200D57202009B7202009D7202001E
S3150000026097720200958F02000B92020033D10100B3
S315000002707BC0010049970200499702002F950200B2
S315000002804997020049970200299202004997020005
S3150000029049970200499702004997020049970200D0
S315000002A049970200499702004997020049970200C0
S315000002B0D77202009972020021980200A32F020051
S315000002C00B73020049970200119802004997020039
S315000002D04997020049970200499702004997020090
S315000002E0499702000000000030276C496D4A01E082
S315000002F021B1491E1369DB07FAD401B9B0E0506099
S3150000030001201060106910F0060F05D0410700D5D6
S31500000310A9E08006102D00207047F0B51346002294
S31500000320002936D05D4C5E4D8BB98B4231D250F8E8
S31500000330046BEE605B1C08262E60264601E036B391
S31500000340761E2F69FF501020002EEED11FE0EFF32E
S31500000350108672B600230EE02F6907F01907102FDA
S3150000036008BF2F602F693F07F6D53C137BEF3C2073
S315000003700A10272F608B42F4D306B962B6441005E3
S3150000038026B1761E2869C044105B0EB96FF00202D2
S315000003901046F0BD2DE9F0479A46414B424F1C6886
S315000003A01B683B688046002043F001033B609508CC
S315000003B081460C4602E0B14404EB8604A94517D2F7
S315000003C008EB89063046FFF78EFF010014D1C6F30D
S315000003D00A00C0F500608608A5EB0900B04238BFE8
S315000003E006465246314620221296222018E2D0397D
S315000003F068490849003960BDE8F0872949264A0B53
S3150000040068096828490B686014010B60881490130A
S3150000041048604869400704D50868400840000860FD
S315000004201EE048698010100119E00224300501E041
S3150000043022B1521E48BA6322B91C6305E00A25445C
S3150000044011D020050070474FF0FF300C12010C2030
S3150000045022002390E70C48016841F0010101604643
S31500000460F21A31C1644FF4807141604169C907FCD9
S31500000470D40021C1643A120001100B809698000C3A
S31500000480000E4004300E40080800000010B5044677
S3150000049000F0E6FD204601F0E0FD204602F0F4FA09
S315000004A02046BDE8104002F0B3BC01F01EBE10B5F8
S315000004B0044600F032FE204601F049FE204602F0D6
S315000004C00BFB204602F009FD2046BDE8104002F075
S315000004D0A1BC10B500E010B5044600F09DFE204614
S315000004E001F05CFF204602F013FB204602F05FFDA0
S315000004F02046BDE8104002F0A2BF10B5044600F049
S31500000500B8FE204601F078FF204602F030FB09E0F5
S3150000051010B5044600F0D2FE204601F0AFFF20469B
S3150000052002F042FB204602F05AFD204602F09FFFF1
S315000005302046BDE8104002F004BD80B503F0FDF989
S31500000540BDE8014002F028BA10B5044602F030FEBC
S315000005502046BDE8104002F008BD0198704703F040
S315000005605CBA7047002070472DE9F0470124102837
S31500000570A4B00FF65825DFF8CC79A8A3A8A60FF2E9
S31500000580A429A9A10FF2A4280FF2A42A00F05881E9
S3150000059018281CBF1D2820286FD0212800F01F8195
S315000005A022286AD0282800F0C280292800F0E58099
S315000005B02A2862D02B2800F070812D2800F08E8129
S315000005C02E285AD0302826D0332800F08C813428A3
S315000005D000F08C81352800F00883362800F0AB81C6
S315000005E0372800F03682382800F0D081392800F00C
S315000005F064823A2800F0F681422800F072824A2886
S3150000060000F0CF804C2800F0FA825A2800F07B8256
S315000006105B2832D05D2800F0EB83632800F0BE82B1
S31500000620642800F0C8826A2803D06F2800F02F8360
S31500000630712800F0FC82732818BF772800F0E68343
S315000006407A281AD0822800F07782832800F0AB83BC
S31500000650842818BF852810D086281CBF872888289C
S315000006600BD0892800F0A6838A281CBF8B288D28EA
S3150000067003D0902800F03584952800F0A7839628AB
S3150000068000F0AB829A281CBFA128A428F5D0A62882
S3150000069000F07883A82800F01683A92800F02F839D
S315000006A0AF2800F04983B128E7D0B22800F0BC8318
S315000006B0B92800F0D583BA2800F0D783BC2800F00B
S315000006C0D783BD2800F0DF83C12800F09480C228BC
S315000006D000F0B380C32800F0AD80CE2800F0398347
S315000006E0D42800F0D783D52800F0D983D62800F087
S315000006F0DB83D72800F0DD83D82800F0DD83D928F6
S3150000070000F0DD83DA2800F0DD83DB2800F0DF83EC
S31500000710DC2800F0E183E828AFD0ED2800F03F8325
S31500000720EE28AAD0FE2800F0518200F0F9BB01A9FC
S31500000730684601F045FC00F032FC3146002003F02B
S31500000740BEFB00F020FCBDF80C0003F08CF99DF810
S315000007500E0003F07CF99DF80F0003F078F99DF880
S31500000760100003F074F9BDF8120003F07CF99DF84F
S31500000770140003F06CF90698A6E308208DF809002A
S315000007800DF10A0103A801F041FC8DF8080003AB46
S315000007900DF10A00019002AA0DF109000090E2A1F4
S315000007A041E200F009FC9DF8010001A901F03FFCBF
S315000007B000F0FBFB00F0E7FB9DF80C0003F047F9A7
S315000007C0BDF80E0003F04FF99DF8100003F03FF955
S315000007D09DF8110003F03BF99DF812009DE301AB73
S315000007E00DF10102D1A100F0C5FB01999DF80100B0
S315000007F001F01FFC29E30DF1060200F0A9FB9DF8AC
S31500000800060001AA02A901F08AFB8DF8050002ABD9
S3150000081001A800900DF10502C5A104E276000000D2
S315000008207575000075757000620000007570000037
S315000008307500000001F075FB6FE301F074FB6CE3DB
S315000008400DF1150004900DF11E030DF11600039035
S3150000085006AA0DF1170002900DF11A00019007A8E3
S31500000860009001200FF25C7103F029FB9DF8150042
S31500000870BDF81A30BDF81C20BDF81E1002909DF878
S31500000880160001909DF8170000909DF8180003F0DF
S31500000890F3FB8DF8140005AADAE203F0BFF805466B
S315000008A003F0BCF88DF8000003F0B8F88DF80100ED
S315000008B003F0E0F8ADF8020003F0B0F88DF804009C
S315000008C00DF10501082003F0B0F803F0A7F88DF844
S315000008D00D006946284602F0AFFD1EE303F09EF8C0
S315000008E002F0ABFD19E304F001F8AEE20DF11203DC
S315000008F004AA90A100F03EFB06A803F007F903A89E
S31500000900019003AB05A800900DF10F02494600F0D7
S3150000091025FB0DF10D00029006AA05989DF80F30F3
S31500000920BDF8121001909DF80C0000909DF8100083
S3150000093001F03DFA23E00DF112021946012003F001
S31500000940BEFA06A803F0E2F803A802900DF10F0321
S3150000095005A8019004AA03A800F0FEFA0DF10D0007
S31500000960029006A905989DF80F309DF81020019079
S315000009709DF80C000090BDF8120001F021FA8DF8E8
S315000009800E000DF10D030DF10E0233E107A803F081
S31500000990BDF804A8039005AB06A802900DF1150258
S315000009A004A801900DF11300009001200FF22461BC
S315000009B003F085FA0DF11100029006989DF81330A8
S315000009C09DF814209DF8151001909DF810000090D8
S315000009D007A801F001FA8DF812000DF111030DF1CF
S315000009E0120207E10AA803F091F806A805900DF196
S315000009F01D0309A804900DF11E0206A803900DF12F
S31500000A001B00029007A8019008A8009001200FF291
S31500000A10CC5103F054FA0DF1190004900998BDF871
S31500000A2020309DF81D209DF81E1003909DF818009B
S31500000A3002909DF81B0001909DF81C0000900AA8EA
S31500000A4001F0E5F98DF81A000DF119030DF11A02FE
S31500000A50D0E00DF1190000900DF11A0307AAB5A117
S31500000A6000F07CFA09A803F051F805A802900DF1F0
S31500000A70170308A8019006AA05A800F06DFA0DF163
S31500000A801500049009AB08989DF81920BDF81A10B6
S31500000A9003909DF8140002909DF8170001909DF8B0
S31500000AA018000090BDF81C0001F0D6F98DF816006C
S31500000AB00DF115030DF116029CE00DF10602194623
S31500000AC0012003F0FCF903A803F020F800F049FA2E
S31500000AD0029B9DF80420BDF8060003A901F0F1F978
S31500000AE06FE10DF1050000900DF1060302AADAA1EF
S31500000AF000F034FA9DF805209DF80610BDF80800B0
S31500000B0004F02BF811E100F042FAD4A100F026FA25
S31500000B10039A9DF80810BDF80A0004F099F98DF8BB
S31500000B2009000DF1090293E1756276007577000000
S31500000B30757675007576000008208DF811008DF821
S31500000B4010000DF10E00029005A801900DF11100A4
S31500000B50009008AB0FF28C450DF10F0200F0FDF985
S31500000B6003A802900DF11200019006A800909DF8CE
S31500000B700E30BDF814209DF80F0008A901F0D5F934
S31500000B808DF80D0006AB03A802900DF10D020DF1D4
S31500000B9012000190294604A8009044E000F00CFAE7
S31500000BA09DF8010001A901F0E5F900F0FEF901A8A0
S31500000BB002F0C3FFB7E100F0FFF901A802F0C2FF9F
S31500000BC09DF8010001A901F0E8F93EE100F0F4F911
S31500000BD09DF8010005F0EAF837E100F0C2F9029944
S31500000BE09DF8040001F008F9EBE0684605F094FE74
S31500000BF000F0D5F93146002003F061F993E1862033
S31500000C008DF806000DF1050200F0A2F99DF8050029
S31500000C1002A901F011FA8DF8040002AB0DF10600ED
S31500000C20009001AAC2A1002003F049F97BE16A46BF
S31500000C3000F08EF938786A289DF8000001A902D1E3
S31500000C4005F074FE01E006F0D8F98DF801000DF10B
S31500000C50010200F0ADF9BDF8040002F004FF9DF8B2
S31500000C60060002F0F4FE0DF10701102002F01AFF53
S31500000C70069802F008FF079802F005FF9DF820008D
S31500000C8002F0E5FE0DF1210100F07EF94BE109A825
S31500000C9002F088FF00F07BF9494600F05FF904A8EE
S31500000CA00090039B9DF808209DF80A1009A801F002
S31500000CB0C1FE8DF809000DF1090200F079F904A8CA
S31500000CC002F067FF2FE108208DF80E008DF80D0069
S31500000CD007AB0DF10D00029004AA05A8019095A19D
S31500000CE00DF10E00009000F039F9BDF8100005AACC
S31500000CF007A906F06AFB8DF80C0003AAA8E00820F5
S31500000D008DF8050002AB0DF1050000900DF106020D
S31500000D1089A100F023F904A9102002F086FEBDF88F
S31500000D20060004AA02A906F090FB8DF8040001AAA9
S31500000D308EE000BF7676750000F01FF900F019F915
S31500000D4003A9102002F071FE03A901A801F08CFE90
S31500000D507BE000F012F902208DF8000000F009F99E
S31500000D6003A901A801F088FE00F01FF903A900F00D
S31500000D700BF905A9102002F095FE099802F083FEF2
S31500000D800A98A1E000F0EDF802999DF8040002F03F
S31500000D9043F88DF805000DF1050200F009F902F09F
S31500000DA056F802F054FE02F039FE00B1012001F0BF
S31500000DB0FAFFB2E000F0D5F802999DF8040001F0C0
S31500000DC0FBFF8DF805000DF1050241E03A780FF2C0
S31500000DD01C20002500E06D1CEDB2415D9142FAD168
S31500000DE002F01CFE0FF21C2151F82510884794E0F2
S31500000DF002F014FE054602F03DFE01463878302822
S31500000E000CBF514A514A284690478CE0694610204B
S31500000E1002F00BFE38787728684602D106F02EFEDF
S31500000E207BE006F009FB78E001A802F0CBFE0DF1AD
S31500000E3001030DF1020241A100F09CF89DF9012089
S31500000E409DF8021001A802F0A7F88DF800006A4686
S31500000E5000F0AEF867E000BF767575007675700035
S31500000E6002F0DCFD07F02AFB57E007F032FB54E006
S31500000E7004A9684607F002FB684602F0D2FE04A801
S31500000E8002F0FDFE4FE0684602F0E1FE684607F01C
S31500000E90FDFA48E002F0C2FD07F02BF843E002F04D
S31500000EA0BDFD06F0A1FF3EE002F0E4FD07F028FBE1
S31500000EB039E006F001FE30E007F013F82DE007F008
S31500000EC02BFB01E007F02BFB02F0DDFD2BE002F02F
S31500000ED0E1FD07F027FB26E002F0DCFD07F025FB2D
S31500000EE021E008208DF8120006AB04A803900DF14E
S31500000EF0110205A8029012A104A801900DF112009A
S31500000F00009000F02BF89DF8110000B10120059B20
S31500000F109DF8102006A901F037FB02F098FD02E0CB
S31500000F2007F032FB0446204624B0BDE8F0870000F7
S31500000F3075620000766262007662000075730000DA
S31500000F40756270009F7F0020573600000FDD00009D
S31500000F505146012002F0B3BF00902946012002F05D
S31500000F60AEBF01A8009002AB01AA4146012002F0E3
S31500000F70A6BF01AA012002F0A2BF08208DF8010039
S31500000F800DF10103704701A9082002F08BBD02A8EC
S31500000F90019002AB03A800900DF10A0270478DF88C
S31500000FA001006B460DF1010270478DF800006A469C
S31500000FB05146002002F083BF0DF101025146012087
S31500000FC002F07DBF757676767575750075757570E8
S31500000FD000000000757575757000000075757675F2
S31500000FE0757570007562767500000000181D207A10
S31500000FF02A84858687888B8A8D959A2E5BB1A4A1D3
S3150000100022E8EE0035C900008774010081FA00006D
S315000010108316010085390000C15F010041600100AF
S31500001020576001006B600100876001000F610100DD
S31500001030F96001003D61010075920000DF66000065
S31500001040576A01005B6A010043720000E5A60100D1
S31500001050F3A60100755200009D610100AB6101001D
S31500001060F8B504462078002856D160700025012086
S31500001070207220700026A0780027032840D0072879
S3150000108042D011280AD0152841D030281AD031284C
S315000010901BD032281CD0352826D03CE00720DFF8AC
S315000010A09C5B207204F10900298807F0A3FEA8784A
S315000010B0E072E8782073287960736879A073A8795C
S315000010C0E073F1BD07F0BCFE23E007F0C8FE20E0A8
S315000010D00420207207F0BBFE04F10901BDE8F840C8
S315000010E00246012007F08ABE0320207207F0BBFEED
S315000010F010B10578467887786572A672E772F1BDF9
S31500001100DFF83C0B007804E007F070FF01E008F020
S3150000111095FE6072F1BD2570F1BD38B504462078A4
S31500001120002878D101202070A078042816D007283E
S3150000113021D00E2827D0112868D0152850D017287E
S3150000114053D018285BD019285CD0302842D03128DB
S3150000115021D0322827D0352831D05AE0207A0128EC
S315000011603CD1607A00B10120DFF8D81A087000205F
S3150000117009F060FA48E0607A10B107F005FF46E032
S3150000118007F014FF43E0607A00B1012007F06DFE1E
S3150000119000283CD022E0607A00B1012007F05DFE15
S315000011A0002834D01AE0207A042817D104F1090166
S315000011B0012007F031FE07F04CFE40B30EE0207A26
S315000011C003280BD1E37AA27A607A002107F049FE60
S315000011D0E8B103E0607A07F035FEC0B1362016E0CC
S315000011E094F9090008F0F5FD0EE0657A04F10A00AD
S315000011F007F0F9FD0146284609F0F1FA04E009F086
S31500001200E9FA01E009F0D9FA002000E03720607021
S3150000121031BD0020207031BD10B50446DFF8280A24
S315000012200079217856280CBF0120002001BBA1704F
S315000012306178072910D130B109F0F0FA012814BFFE
S31500001240632062200EE0E07862280CBF01200020B7
S3150000125009F0E7FAA07009E0042909D1DFF8EC19D2
S3150000126010B10878E07001E0E07808700120207085
S3150000127010BD017809BB81700121017041780129F7
S315000012800ED00C2909D017290DD02D2902D03429CA
S315000012900CD010E0DFF8B8190AE0DFF8B81907E05B
S315000012A0DFF8B41904E0DFF8B41901E0DFF8B0198B
S315000012B009788180704700210170704738B504466F
S315000012C0207800285AD1012020700020A070607874
S315000012D0012815D00C280FD017283DD02D2802D074
S315000012E0342844D048E0A18803293DDAC9B2DFF8A2
S315000012F0600909F005FC38E0A088DFF8581939E0E4
S31500001300DFF86009008828BBA08818B3DFF85859B1
S31500001310287809F031FE09F0A1F880B1A188DFF83C
S315000013203809C9B209F0ECFBA07009F0A1F8DFF8A2
S315000013303C09DFF83C190068401D086001E03820D0
S31500001340A070012009F0ADFD28700020DFF82419F7
S31500001350088031BD382008E0A08807F0CEFE18B915
S31500001360A088DFF8F81805E03620A07031BDA08807
S31500001370DFF8EC18087031BD0020207031BD80B553
S3150000138001208DF800006846FFF7DEF89DF80000A2
S3150000139002BD00002DE9F04FA7B009F0A6F809F04C
S315000013A0C1F8DFF8C8880446D8F80000817800271D
S315000013B00225FF294FF003092DD1C17806790425AE
S315000013C011F03F004FF0050918BF492723D1080641
S315000013D00AD50AF00DF928B10AF00EF9123C0746B3
S315000013E0E4B218E0482716E00AF009F9002818BF09
S315000013F0CB2E0AD0CA2E18BFCC2E06D0CD2E18BFA3
S31500001400002E02D0AA2E18BF48270AF0F1F80028AD
S315000014101CBFCC2E4A27D8F80000465D90F801A0E4
S31500001420DFF824580AF003018DF808102E710178B0
S3150000143069704844DFF840180860DFF8341808601F
S315000014404FEA5A1000F0030068710AF09EF938005E
S3150000145018BF582604D15FEA0A6002D55826322002
S315000014608AE2A87820B9287910B15826302083E27C
S315000014700AF070FC10B9582642207DE2FFF77FFF84
S31500001480002800F07B822879A978DFF8F0B70200FF
S3150000149095A70FF2582A4FF6FF7975D0012800F06C
S315000014A0F981022800F0AD80032800F0FF800528AE
S315000014B034D0062800F04D81092818BF0A2800F00C
S315000014C050810B2818BF0C2800F052810E2800F01E
S315000014D06681122800F0AB81132800F0E0811728FE
S315000014E000F0F181262800F0E081272800F0E6814F
S315000014F0472800F0D781492800F041814E2800F0A6
S315000015007581522855D053286AD0552800F091800D
S31500001510562800F0A58065282AD0812800F00E8183
S315000015208F2800F0FD81912800F01582942800F0A4
S3150000153004829D2800F0A981AA2800F0AD80AB287E
S3150000154000F0D680AC2800F0E880AD2800F0E880F6
S31500001550AE2800F0E880CA2800F0BF81CB2800F052
S31500001560C581CC2800F0D081CD2800F0D081F128AB
S3150000157000F07881F52800F0D980F62800F0DB80AD
S31500001580FC2800F0A781F2E102F048FA04460620A2
S3150000159002F05DFA022002F05AFA46F2103002F02A
S315000015A062FAA878002808BF062C01D10120A8708D
S315000015B0E4E100F013FA02F031FA8DF80100684612
S315000015C0FEF79BFF9DF8000028B937208DF8020032
S315000015D00020ADF8040001AB0DF10202B6A157E000
S315000015E0012918BF382023D100F0F8F901AB0DF11D
S315000015F00102B1A1012002F062FC6846FEF788FFF5
S3150000160025E03827012912D1611FC9B2052008F04B
S3150000161075FF0446FF2C08BF352708D00AF0ACFB3F
S31500001620002814BF00273627204609F0A5FC3846B7
S31500001630A2E1042200F0D3F90DF103030DF101023A
S315000016403946012002F03BFC6846FEF744FF9DF850
S31500001650000010B937208DF802009DF802008BE1DA
S31500001660042200F0BCF902F0D9F98DF801006846B1
S31500001670FEF72FFF9DF8000028B937208DF80200ED
S3150000168000208DF803000DF103030DF10202394627
S31500001690002002F014FC71E100F09BF902F0BEF9A3
S315000016A08DF80E0003A8FEF7F1FE0BE000F091F9AD
S315000016B004AB0DF10E02C0A1012002F000FC03A84C
S315000016C0FEF7F3FE9DF80C0028B937208DF80D00C3
S315000016D000208DF8140000F075F90DF10D02514649
S315000016E0002002F0ECFB49E175750000757562009B
S315000016F000F06FF900F066F90DF10E025146012077
S3150000170002F0DDFB03A8FEF7D2FE9DF80C000028D0
S315000017100CBF37209DF80D002EE10AF041FC2DE1AB
S315000017200AF03FFC2AE10AF040FC27E102F0A2F9A8
S315000017300AF03FFC22E10AF05DFCC1E0062CF9DB71
S31500001740DFF82C05DFF8281500680019401F08602F
S3150000175014E1012000F047F9002840F02A8107260D
S315000017600CE109280CBF0120002002F02FF905E149
S315000017700C280CBF0120002000F0E4F9FEE0012156
S31500001780684607F07AFC28B1002002F060F9BDF83F
S31500001790000095E0362002F05AF9002090E002F0B1
S315000017A03DF9824602F066F9814602F037F90746AE
S315000017B002F034F90446B9F5004FB4BF042F702087
S315000017C011DABAF1020F0FDA0BEBCA0A3A46DAF867
S315000017D0000049460AF030FCAAF8049004B9002734
S315000017E08AF806700020C7E07020C5E002F016F9FE
S315000017F0814600240020B9F1020FADF802008DF8F1
S3150000180000000BDA5BF839006A460DF102010AF0B6
S3150000181023FC0BEBC900807900B10124BDF802005E
S3150000182002F021F99DF8000002F011F983E002F0C0
S31500001830F5F8040018BF01240AF040FC07463A46B2
S31500001840FF2A08BF182029D0002C14BF48460220C2
S31500001850BBA10AF075FC002002F0F9F8384609F041
S315000018608BFB8BE04FF00009DFF8144434F81900C5
S3150000187002F0F9F809F10109B9F1280FF6DB287928
S3150000188065287BD108F099FF78E002F0F3F808F0BC
S31500001890B5FE73E002F0C2F80AF0A4FD6CE00AF0AF
S315000018A068FA6BE00AF05CFA68E0DFF8D813082003
S315000018B002F0F8F862E000BF757600000AF026FF35
S315000018C002F0D1F85AE0684602F075F9684603F06E
S315000018D0F3FD51E00BF0B3F84EE000F06FF802F0C4
S315000018E0D9F8014603A80BF0C3F845E002F096F8D4
S315000018F0044607A900F063F803AA07A920460BF0DF
S31500001900B9F802F0A4F821E00BF0B6F834E0684626
S315000019100BF0B4F802F09BF8009802F0B4F82DE052
S315000019200BF0BDF80124484505D002F077F8DFF842
S3150000193058130024087020461EE000F03FF807A95F
S3150000194000F03DF807A903A80BF005F903A910203C
S3150000195002F0A8F812E00BF0A2F802F084F80420D6
S3150000196002F075F8182002F072F80F2004E0FEF776
S31500001970FBFD18B95826312002F069F8D8F8001096
S3150000198068780870D8F800008178002902BF2978A5
S315000019900029867004D0FF218170D8F800000671F6
S315000019A0072E0CBF012200229DF80800012100F03D
S315000019B02AF827B0BDE8F08F7577000003A910203C
S315000019C002F033B805A8019005AB0DF115000090A3
S315000019D070478C22002103A80BF031B906220021A2
S315000019E068460BF02CB910B504469E48008848B1ED
S315000019F008F0A3FD30B1A54800780122214600F089
S31500001A0002F8012010BD2DE9F84F984F04463868BA
S31500001A1088468178934602254FF00309FF299449A9
S31500001A20096804BF04254FF005090E1A09F0E0FD08
S31500001A300028B6B21EBF3868405DCC281CBF1236DF
S31500001A40B6B25FEA0B0004D038684078C0F3411A9A
S31500001A5002E009F096FE82467D4909788A4505D35B
S31500001A6040F243410FF230200BF012F94FEA4A10D0
S31500001A7040F08000DD2E5FFA80FA05DBDC2008F0FE
S31500001A8057FD4AF0020A02E0F0B208F051FD6E4836
S31500001A90C17819B100214AF0020AC1707C490A785E
S31500001AA01AB100224AF0010A0A706E4E318809B155
S31500001AB04AF0040ABBF1000F06D05FEA080114BF22
S31500001AC04AF0080A4AF0100A396881F801A0396814
S31500001AD0897811B9012101700FE009F089FD00280C
S31500001AE01EBF3868415DCC2904D08021C17009F041
S31500001AF081FD02E039680020C87009F080FD48B118
S31500001B003868415DCB2901BF10F809000028022082
S31500001B1009F074FD012C30885C4A18BF022C05D1EF
S31500001B2008B9147004E00020107004E0147010B9B5
S31500001B30002008F07FFD4046BDE8F24F08F0C6BC25
S31500001B40620000002DE9F04198B0044601F066FFFE
S31500001B500546062D12D1DCB9282001F078FF4D4844
S31500001B6001880223224668460BF0A3F9BDF800005F
S31500001B7001F079FF641C142CF1DB5BE0082D01D029
S31500001B800B2D01D124B952E0200003D0092D01D13B
S31500001B9070204DE000260FF2141000EBC6073878CF
S31500001BA0854230D197F80180200004BF404601F0FD
S31500001BB04EFF786801884346002201A80BF079F9A8
S31500001BC0200027D001F02AFF97F80180404501D078
S31500001BD002202DE0002000E0401CC1B2414501A9D1
S31500001BE005D2C0B2095CFF29F6D0462020E0404667
S31500001BF001F01BFF78680088424601A90BF035FA10
S31500001C00002001F024FF761CF6B20B2EC3D374B16C
S31500001C10B1200DE0092D05D1152200210DF14A0054
S31500001C200BF00DF8787801A901F03CFF02E00020E6
S31500001C3001F00DFF18B0BDE8F0810000C4B002004D
S31500001C40B66B0020A27F00209B7F0020D16B002076
S31500001C50BD6B0020937F0020B56B0020A17F002084
S31500001C60BF6B0020CE7C0020E86B0020E06D0020DA
S31500001C70CC750020CC7C0020C8750020D06A0020DE
S31500001C800879002000790020EA6B0020B07F002050
S31500001C90CA7C0020E0B30200636F6D6D616E642D37
S31500001CA068616E646C6572732E630000011000003B
S31500001CB0D8B3020002100000DAB3020003020000EB
S31500001CC0DCB3020005100000EAB3020007080000BA
S31500001CD0E6B3020000020000D4B3020004020000D2
S31500001CE0DEB30200095C0000ECB302000A14000037
S31500001CF0EEB302000D020000E8B302000C0800007B
S31500001D00D6B302002DE9F84F80460D46DFF8140CD5
S31500001D100A99067801247E2991469A46A8BF74201E
S31500001D2043DA080003D00B9809F0A9F901E000F0A6
S31500001D30C5F883460C9FBBF1FF0F03D10020182482
S31500001D40387031E0342E06D0362E0ED0382E13D011
S31500001D50962E18D01AE05B464A462946404602F0BF
S31500001D60EFFA044603F029F810E05B46424649467E
S31500001D70284602F045FB08E05B46EAB24146484683
S31500001D8002F0B9FB01E00BF044FE0446962E1CBFA0
S31500001D9099F80A00387024B9DFF88C0B006800F84F
S31500001DA00BA0584609F0E8F82046BDE8F28F10B5BA
S31500001DB084B0089C0294079C0194069C009407E05A
S31500001DC010B584B00446104600F00FF80A462146C6
S31500001DD0FFF798FF04B010BD10B5044684B008465E
S31500001DE0114600F002F82246F2E7089A0292079A94
S31500001DF00192069A00927047E0B500220191009088
S31500001E000292002300210020FFF77CFF0EBD2DE982
S31500001E10F04683B00D460C990746080091469A464F
S31500001E2003D00D9809F02BF901E000F047F80446BD
S31500001E300E9EFF2C03D10020182530700BE00A9867
S31500001E400190CDF800A023464A462946384602F0BE
S31500001E5037FB00F027F822E02DE9F04683B08946EB
S31500001E600C990546080092461F4603D00D9809F0C6
S31500001E7006F901E000F022F804460E9EFF2C03D17D
S31500001E800020182530700AE00A98009001943B461D
S31500001E9052464946284602F0D5FA00F003F828468D
S31500001EA0BDE8FE860500B87A307004D1DFF8781AEE
S31500001EB009680B980855204609F05EB8002009F01D
S31500001EC0BDB838B5DFF8644A2080C888440606D510
S31500001ED0DFF85C4A2478202C03D1000401D470205A
S31500001EE032BDDFF8504A1000216004D01146184672
S31500001EF009F0C5F801E0FFF7E1FF0546FF2D08BF31
S31500001F0018240AD020684088294602F0F6FC0446C8
S31500001F1002F053FF284609F02FF8204632BD02F0A2
S31500001F20CCBE0BF09DBE0BF097BE2DE9F041069F8F
S31500001F300D4604461646984639460BF014FF2046D1
S31500001F400BF029FF0799088038460CF033F80899FA
S31500001F500870294620460BF09CFE074638B93146E4
S31500001F6020460BF0D4FE414628460CF041F8384690
S31500001F70BDE8F081DFF8C0391B78984201D37020A4
S31500001F807047DFF8B829126832F820300B8002EB70
S31500001F9080008078887000207047DFF89C391B78B5
S31500001FA0984201D370207047DFF8902912680B8899
S31500001FB022F8203002EB800089788170002070477B
S31500001FC030B585B00C4604F0B0FB05460020207302
S31500001FD0102307226946012006F05DFF082202A9A8
S31500001FE020460AF0E9FDBDF80000208104F1140145
S31500001FF09DF80200A0729DF80300E07204F1100043
S315000020000CF050F8E08105B0284630BD38B50446DE
S315000020100D460AF04FFC0146082220460AF0CCFD88
S315000020200AF044FC2880DFF81809007832BD0CF06D
S315000020300FBCFF2203F0C9BA70B5A2B00D46044624
S31500002040694604F06FFC060004D12A46694620461C
S3150000205001F01AFF304622B070BD10B50446207854
S31500002060002841D1012020722070A078401E0BD09C
S31500002070401E07D0801F07D0401F05D0401F0228F2
S3150000208002D903E00220207200206070A0780128A7
S315000020900CD0022814D008280CD00D280DD01228F8
S315000020A017D0132817D0142818D01BE0DFF894088F
S315000020B0007815E002F0CBFF12E00DF065F90FE0B5
S315000020C0DFF88408018804F10900BDE8104006F035
S315000020D091BEFF2004E003F072FA01E00DF0FCFA75
S315000020E0607210BD0020207010BD10B5044682B08D
S315000020F0207858BB0120207000206070A07818B1AD
S31500002100022819D00BD31FE061686A46C9B209F0EC
S3150000211099FE60700220207204F1090007E0032096
S31500002120207268460DF0A3FC607204F10A00BDF847
S31500002130001006F05FFE13BD01202072606880B2B9
S3150000214002F0CBFD607213BD0020207013BDF0B508
S31500002150044687B02078002840F01A8101202070BC
S31500002160A078010027D0012849D002284ED00528A2
S3150000217018BF062852D0082800F0FB8009285BD03B
S315000021800A2800F07E800B2800F080800C2800F0E2
S31500002190C4800F2800F0C580232818BF242800F02B
S315000021A0CD80252800F0DB80292800F0E480342843
S315000021B000F0E380EAE0207A102860D100F0EAF827
S315000021C0ADF80400082294F90B008DF8060004F11E
S315000021D01001207B8DF80700607B8DF80800A07B3E
S315000021E08DF80900E07BADF80A0003A80AF0E4FCCC
S315000021F01023072201A9002006F04DFEC3E0207A35
S3150000220001283CD1607ADFF83C17BBE0207A02282F
S3150000221035D100F0BFF8DFF830170BE0207A02283E
S315000022202DD100F0B7F8A17805290CBFDFF81C17EF
S31500002230DFF81C170880A6E0DFF818070568207A83
S3150000224046080DB9DEB99EE0DFF80C070078B0420B
S3150000225015DB002707E004EB4700093006F0C3FD55
S3150000226025F817007F1CB742F5DB4FF4004725F829
S31500002270167028460DF051FE002801D02F8036201A
S3150000228082E000F087F80EF02EF87CE000F082F88D
S31500002290DFF8C8261268527B05464FF6F87122B958
S315000022A0884202DA0AF036FA6DE02A002FD0884218
S315000022B02DDA0AF02BFA854229D028460EF0F7FED1
S315000022C028BB05A928460BF00FFE00BB28460FF0D9
S315000022D066FCE0B928460FF087FDC0B928460FF026
S315000022E096FFA0B928460CF0F6FA80B9284610F0F9
S315000022F071FD60B928460AF00DFA99231322A1A1AF
S31500002300032010F0D1FD992010F0E8FE3BE00AF022
S31500002310FDF9854237D0382036E0607ADFF840167E
S3150000232030E0657A04F10A0006F05DFDADF80000C4
S315000023306A462946012009F085FD25E0217A04290F
S3150000234012D123280CBF0325012504F10901012020
S3150000235006F062FD0146284610F04EFF14E0607A52
S31500002360032818BF042801D002200DE004F08EF8DF
S3150000237009E0372008E0702006E0607A00B101200D
S31500002380DFF8E01508700020607001E00020207082
S3150000239007B0F0BD04F1090006F025BD10B50446EE
S315000023A0DFF880050078217856280CBF0120002030
S315000023B009BBA170DFF878256178032905D108B13A
S315000023C050780FE0E078507013E0022905D108B18B
S315000023D0107807E0E07810700BE009290BD118B1EE
S315000023E004F05FFAE07004E0E07800B1012004F048
S315000023F04AFA0120207010BD017801B1704730B54E
S315000024008170012101704178052908D0122915D063
S3150000241018290CD01F2914D0382915D018E0DFF858
S315000024204815DFF8482509781278891A24E0DFF87C
S3150000243040150A78511E8941C90F1DE0DFF8341591
S3150000244004E0DFF8341501E0DFF83015098813E001
S3150000245000220FF2645300E0521CD2B214461D5DF6
S31500002460FF2D02D10021017030BD8D42F4D10FF253
S31500002470645151F824100978818030BD70B5044646
S31500002480207800287BD10120207000206278A0707F
S31500002490052A0AD0122A2CD0182A1FD0192A04D0AD
S315000024A01F2A22D0382A2FD033E0DFF8C00405785F
S315000024B0DFF8B40401784E1BA188052A0CBF0E462E
S315000024C00D46A919C9B208F01BFB0028A07056D109
S315000024D0E9B2F0B2BDE8704011F0F6B8A188481E26
S315000024E08041C00FDFF888143FE0A088DFF8881429
S315000024F00DE0A18847F231508142A8BF36203BDA71
S31500002500DFF87004018070BDA088DFF870140880C1
S3150000251070BD0FF2A44100E0401CC0B20346CD5C82
S31500002520FF2D02D10020207070BD9542F4D1A18804
S31500002530022B08DADFF8480450F8230000788842B6
S3150000254038BF362018D30FF28C4050F82300092BE1
S315000025500DDAC9B208F0D4FAA070002804BF60787A
S3150000256011280CD1A088DFF81C14087070BD342A1D
S3150000257004D1C9B208F0C4FAA07070BD017070BD74
S315000025800000000042420000F8B504460D46114620
S31500002590184608F074FD18260746FF2F08D03A465D
S315000025A02946204611F0E4FB0646384608F0E4FCCE
S315000025B03046F2BD38B504460D462188284606F059
S315000025C019FC6188A81C06F015FC20792871607931
S315000025D06871A81DE18806F00DFC218905F1080047
S315000025E006F008FCA07AA87231BD10B586B0044684
S315000025F01B208DF80000A0788DF801000DF1020077
S31500002600218806F0F7FB0822211D01A80AF0D4FA5A
S31500002610E1788DF80C10217B8DF80D10607B8DF81C
S315000026200E000DF10F0000F0BEF9112100F01FF9A8
S3150000263006B010BD80B51C228DF801008DF8021081
S315000026408DF80020D9E02DE9F04788B007460D4601
S31500002650144611F003FC824622462946384609F004
S315000026607DFB002863D10DF1090011F0FFFB30B9A5
S3150000267062208DF80800092102A810F04AFCFF2C00
S315000026800FBF0026C04909680E5D45208DF8080079
S315000026908DF809700DF10A012846FFF78BFF0DF141
S315000026A0150000F080F951460DF1170006F0A2FB67
S315000026B002F048F98DF819000027B448DFF8AC821B
S315000026C00568DFF8A49201E07F1C0C3599F800003C
S315000026D098F80010FFB2401A87420ADA2888504557
S315000026E0F2D109F076F8A97AC1F342018142EBD121
S315000026F000E0FF278DF81A708DF81B60504602F037
S31500002700ECFA8DF8040000B10120009001AB2246DE
S31500002710142102A810F005FC00281EBF844800788A
S31500002720212804D19A48017841F00401017008B0CB
S31500002730BDE8F0872DE9F0430746934800681D463B
S3150000274087B0465D0E9C884691462146384601F084
S3150000275072FC3F208DF804008DF8057041460DF19E
S31500002760060006F047FB02A94846FFF723FF6E481E
S315000027700068405D8DF813008DF814408548007898
S31500002780402804BF0026FF25002000908DF8156024
S3150000279000232A46122101A810F0C3FB07B0BDE8AA
S315000027A0F08330B589B00D46044604A90CF050F804
S315000027B023208DF800008DF801408DF802500DF1B0
S315000027C00300BDF81A1006F015FB082204A90DF146
S315000027D005000AF0F1F99DF818008DF80D000E219C
S315000027E000F045F809B030BD80B57C218DF80010A9
S315000027F001460DF1010006F0FDFA0321684610F0CE
S3150000280088FB01BD70B586B004467D208DF80000BA
S315000028100D46164621460DF1010006F0EBFA082298
S3150000282029460DF103000AF0C7F98DF80B600C215B
S3150000283000F01DF803A811F019FB18B903A92046EA
S3150000284010F048FF06B070BD38B504460D4601F0DD
S31500002850D1FB80208DF800008DF8014029460DF14E
S31500002860020006F0C7FA042100F001F831BD6846FF
S3150000287010F04FBB10B584B0044646208DF8040016
S3150000288001A821784170617881700DF1070000F090
S315000028908AF83D48A1780068405C8DF8090000235D
S315000028A0002000900621A27801A810F03AFB1FBD77
S315000028B080B598208DF800008DF801106846022139
S315000028C09DE71FB50C4692218DF80410082201469B
S315000028D00DF105000AF070F90DF10D0000F063F836
S315000028E029480068005D8DF80F0000230020009045
S315000028F022460C21D8E7244A00B5126883B0125C40
S315000029008DF8051093238DF8062000218DF80430EC
S31500002910009102460023032101A810F002FB07BD27
S31500002920000000009F7F0020A47A00206E7D00201A
S31500002930D76B0020707D0020BB6B00204468002010
S31500002940B27F0020BD7F0020AC6B0020A46B00206E
S31500002950A66B0020947D0020A07A00208C7A0020AF
S315000029606C7F0020F26B0020C36B0020B97F002033
S31500002970B76B0020906B00208C6B00209E6B0020B4
S31500002980606A0020C86B0020146800207868002068
S315000029906C7D0020D16B002080B50BF06DF9BDE891
S315000029A0014011F07DBA10B5044611F050FA601CD2
S315000029B0BDE8104011F04DBA1102030607081A2BA4
S315000029C02C1910131B1C1D2021222A2E33343537B7
S315000029D0FF000000B86B0020BE6B0020C46B002017
S315000029E0BB6B0020B96B0020BA6B00208C7F0020E7
S315000029F0BC6B0020A07A0020B97F0020C96B0020A4
S31500002A00CA6B0020CB6B0020C56B00208E7F002098
S31500002A10C16A0020CC6B0020CD6B0020927F002085
S31500002A20957F0020F36B0020BF6B0020AF7A00205B
S31500002A30F06B002038B504460029104601461A46B8
S31500002A40204602D012F0A5FE01E012F073FE054604
S31500002A50002C1EBF04980028A04203D02146142251
S31500002A6012F004FF284632BD0246022000291CBF90
S31500002A70104612F027BF70470246022000291CBFED
S31500002A80104612F0B8BF70471CB504460020ADF8DA
S31500002A9000002078F8B902202072A0780A280AD00F
S31500002AA0102810D101A813F016FA6070BDF80400C2
S31500002AB0ADF8000004E00020607068460DF02DFCC3
S31500002AC00120207001E0207828B1BDF8001004F143
S31500002AD0090006F08FF913BD38B5044620780028A2
S31500002AE004BFA078102812D104F10901012006F0D4
S31500002AF093F9054604F10D0006F075F9ADF80000EE
S31500002B006946284613F0BCF960700120207031BD7B
S31500002B107B490978027856290CBF012100212ABB7E
S31500002B208270012202704278130006D1754A09B1FB
S31500002B30117811E0C07810707047052A05D1724AE5
S31500002B4061B1117841F0500106E0062A0CD16F4AB6
S31500002B5021B1117841F06001C1707047C17801F070
S31500002B600F01C1701170704700210170704710B5D8
S31500002B7004462078B8B900F045F806D01E2807D0DC
S31500002B80242807D0362808D00BE009F097FE06E087
S31500002B905F4800E05F48007801E05F480088A08059
S31500002BA010BD0020207010BD10B50446207840BB33
S31500002BB000F028F806D01E280AD0242812D036287D
S31500002BC019D01CE0A088BDE81040C0B209F07ABE5A
S31500002BD05248A188007888420AD3C9B24C4807F007
S31500002BE08FFF06E0A1880B2902DA4A48017010BD62
S31500002BF03620A07010BDA0884749088010BD00206F
S31500002C00207010BD012020700020A07060780D2873
S31500002C10704700002DE9F04F1646012E93B080460E
S31500002C2089469A4612D10124002506A80DF080FB9C
S31500002C30022755EA0401DFF8CCB005D058B9BDF833
S31500002C401800800707D535B1032716E00024032EA8
S31500002C50EAD10125E9E79BF8000006280BD8DFE852
S31500002C6000F00407060A09424500012705E085B180
S31500002C70002702E02746022F0BD009F047FD8245C8
S31500002C8007D0514640460AF0BEFF4946404610F07E
S31500002C9021FD019753469BF80000009032464946B5
S31500002CA04046FDF75AFC044624208DF808004146AC
S31500002CB00DF1090006F09EF8082249460DF10B00B9
S31500002CC009F07AFF8DF813608DF8144051460DF126
S31500002CD0150006F08FF80F2102A810F01AF9204609
S31500002CE013B0BDE8F08F002DC2D0ADE7002CD0D0D8
S31500002CF009A9484612F07FFE0028CAD1B8E70000AD
S31500002D009F7F0020D46B0020907F0020C66B0020A0
S31500002D108F7F0020947F00208E6B0020F6B3020088
S31500002D2080B56E218DF800108DF8010002216846ED
S31500002D3010F0EFF801BD10B584B00C469B218DF85C
S31500002D400010082201460DF1010009F035FF8DF84B
S31500002D5009400A21684610F0DCF81FBDF0B583B0C3
S31500002D6010F8014B0E461746214608F088F905462D
S31500002D70FF2D03D10E4901200870F7BD8E208DF876
S31500002D8004008DF80560002000908DF806708DF81F
S31500002D90074000232A46042101A810F0C2F828465D
S31500002DA008F0EAF8F7BD00B1024813F0D5B8000004
S31500002DB0CA7C00205D2D000000B58028A1B0A8BF08
S31500002DC002200ADA8DF8000002460DF1010009F032
S31500002DD0F3FE0021684613F063F921B000BD10B57B
S31500002DE004462078002804BFA07833280FD101209C
S31500002DF0207009B1002004E0607A13F0A1F900B157
S31500002E00362060700120207213F0AAF9607210BD9E
S31500002E100121E4E70021E2E730B58BB004460D4618
S31500002E202A22FF21684609F00AFF2146284608F0B3
S31500002E3026F90446FF2C08BF182505D013F0A6F97D
S31500002E400546204608F098F828460BB030BD10B568
S31500002E504E4C2178FF29A8B008BF702020D0002052
S31500002E6000904A2300220AA808F025F900200090C5
S31500002E70252321784A221DA808F01DF9002000907C
S31500002E80242321786F2201A808F015F9207808F08C
S31500002E9073F8FF20207001AA0AA91DA813F083F970
S31500002EA028B010BDF8B5394F04463878FF280D46CE
S31500002EB0164608D19321002008F0E1F8FF28387063
S31500002EC001D13520F2BD01200090334639782A46DB
S31500002ED0204608F0F0F80020F2BD10B50446A6B072
S31500002EE0207860BB01202070A0781A2804D024D353
S31500002EF01C2815D00AD320E04A2204F1090113A8A0
S31500002F0009F05AFE4A22002113A812E0252204F1F4
S31500002F10090109A809F050FE25224A2109A808E05E
S31500002F20242204F10901684609F046FE24226F2195
S31500002F306846FFF7B7FF607001E00020207026B0FA
S31500002F4010BD0178002904BF417829290CD1104908
S31500002F500978522904D10F4909788180002100E0BF
S31500002F603821817001210170704710B5074C207817
S31500002F70FF281FBF06490978AB29ED2903D007F0C2
S31500002F80FBFFFF20207010BD00000000D66B002064
S31500002F909F7F0020917F002011B1012903D004E01A
S31500002FA0114604F0EFBD04F03EBE0220704710B596
S31500002FB004462078002804BF607808280ED11448FB
S31500002FC00078562803D105F094FAE07002E0E07824
S31500002FD005F092FA0020A0700120207010BD017843
S31500002FE0A1B941782F2908BF0A4902D030290DD14D
S31500002FF0094959B1064A1278522A07BF09788180D1
S3150000300082880A70002181700121017070470000DA
S315000030109F7F0020CF6B0020D06B002030B58FB093
S3150000302005460C463B220021684609F008FEB620FC
S315000030308DF800000DF10101284600F076F8DCB1AC
S3150000304000218DF82910082221460DF12A0009F0E9
S31500003050B3FD0DF12905207A68720DF133006189FF
S3150000306005F0C8FEA1890DF1350005F0C3FEA07B71
S31500003070A873E07BE87302E001218DF829100DF1B9
S315000030803900FFF790FC3B2100F00CF80FB030BD83
S3150000309080B5B7218DF800108DF80100022100F0EF
S315000030A001F801BD68460FF034BF10B586B004467E
S315000030B0B8208DF800000DF10100218805F09AFE78
S315000030C061880DF1030005F095FEA1880DF105005C
S315000030D005F090FEE1880DF1070005F08BFE2189D1
S315000030E00DF1090005F086FE61890DF10B0005F072
S315000030F081FEA1890DF10D0005F07CFE0DF10F009A
S31500003100FFF751FC1121FFF7CDFF06B010BD00B54A
S315000031108BB0BB218DF800100DF1010100F005F810
S315000031202921FFF7BFFF0BB000BD38B504460D4699
S31500003130A0782870681C218805F05CFE0822211DF5
S31500003140E81C09F039FDE078E87205F10E01207BF4
S315000031502873607B68730120226905F04FFE62695F
S3150000316005F11201012005F049FE218B05F116003B
S3150000317005F040FE082204F11C0105F1180009F0D3
S315000031801BFDA18C05F1200005F034FEE18C05F154
S31500003190220005F02FFE04F1280105F124000A782B
S315000031A002704A7842708A788270C978C17031BDDF
S315000031B0F8B5BE4D0446286800792B38022801D997
S315000031C00D382ED100F02AFC06462868B849401D65
S315000031D00860002131200FF064FF05464FF6FF77A7
S315000031E00BE005F10D0080B20FF088FEB04213D05F
S315000031F0294631200FF055FF0546BD42F1D1002189
S3150000320000E0294632200FF04CFF0546BD4208D0AB
S315000032100FF074FEB042F4D1A42000F018FC002098
S315000032202070F1BD38B50446002100E029463F2054
S315000032300FF037FF05464FF6FF7085420CD0284643
S315000032400FF05CFE0228F1D1681C80B20FF056FE2A
S31500003250A042EBD1012032BD002032BD2DE9F8435A
S315000032608046002145200FF01CFF4FF00009044660
S31500003270904D4FF6FF7609E0FF21B8B20FF043FEFE
S31500003280A1B245200FF00DFFA1460446B44224D05A
S3150000329004F11007B8B20FF031FE4045F0D12046D8
S315000032A00FF02CFE022818BF0328E5D1A41FA0B2F8
S315000032B00FF024FE01462888401A32187E482A80DC
S315000032C00919121B92B2007800924B1C9BB202465F
S315000032D0A1B208F0E8F84C46D2E7BDE8F183F0B5B4
S315000032E0764F3D788BB0064608F073FA08F04DFA33
S315000032F0734800788C24112806D0122832D17188A0
S31500003300707808F0E2FD68B3707804A908F07CFDD7
S3150000331080B1BDF8100040F20911884204BF7088E0
S31500003320B0F5006F06D1701D12F048FFB52801D028
S31500003330C0B912E0002500E06D1C3978E8B2884279
S3150000334010D206A900F09FF99DF818000028F3D1C5
S315000033503146E8B200F0A2F908B9002402E0752867
S3150000336008BF8B2431208DF8000030788DF80100DD
S3150000337070788DF802000DF10300718805F03AFDB2
S3150000338030798DF805000822711D0DF1060009F04F
S3150000339013FC8DF80E508DF80F40102168460FF083
S315000033A0B8FD20460BB0F0BD38B5054608F011FA59
S315000033B008F0EBF9424800788824112818BF122833
S315000033C010D12846FFF72EFF50B9284600F0B1F974
S315000033D020B92846FFF742FF002404E0752802D1F1
S315000033E08B2400E08D2432208DF800008DF80150EA
S315000033F08DF80240032168460FF08BFD204632BD52
S3150000340038B504460D46FFF70DFF08B1752511E0E6
S315000034103DB108F0B6F968732946204600F03EF93A
S3150000342002E0204600F085F90546280004BF204644
S31500003430FFF714FF284632BDE2E70021E0E7214905
S315000034400978027856290CBF01210021002A04BF01
S315000034504278012A0AD11A4A002919BF1178C17087
S31500003460C17811700021817001210170704710B57B
S3150000347004462078002804BF6078042814D1114936
S315000034800E480978522903D10078A080002008E070
S315000034900D4AA18812788A4232BF3620C9B207F097
S315000034A02FFBA0700120207010BD0000E06D0020F1
S315000034B0C8750020CE7C0020E86B00208D7F0020A0
S315000034C0D56B00209F7F0020F4B302001FB50C4689
S315000034D002460D231621684609F0EBFC0D226946CB
S315000034E0204609F069FB207840096073207800F0D7
S315000034F01F0020701FBD30B585B004460D460D2255
S31500003500684609F059FB9DF80000697B40EA4110C6
S315000035108DF800000D236A462146162009F00CFDA1
S3150000352005B030BD2DE9FF41044600F05FF814E018
S315000035303068EDB2A84630F81800A0420CD16946B2
S31500003540284600F0A0F89DF80000022804D0316853
S315000035504FF6FD7021F818006D1CE8B239788842E4
S31500003560E6D3BDE8FF812DE9F04588464FF6FF7AA0
S31500003570D04585B0044605D100F0DBF910B909F055
S31500003580C5F830E000F032F80CE0D04508D03068DD
S3150000359030F81510414504BF4FF6FD7120F815109F
S315000035A06D1CEDB2387885421CDA306830F81500AB
S315000035B000F018F9F4DA69462846FFF787FF082273
S315000035C021460DF1050009F041FB0028DDD13068E8
S315000035D0D04502D130F8150005E020F8158012F02C
S315000035E01EFEDDE7504605B0BDE8F0850025DFF894
S315000035F0CC63DFF8CC7370472DE9FF4780468946D8
S315000036000026DFF8C073DFF8B443DFF8B45316E0E2
S315000036102068F6B2B24630F81A0000F0E3F80DDA88
S3150000362069463046FFF752FF082241460DF1050074
S3150000363009F00CFB10B9386800F80A90761CF0B255
S3150000364029788842E4D3BDE8FF87DFF8701309685C
S3150000365031F8100070471FB5DFF8642312789042E6
S315000036600C460FD2D549096831F810104FF6FE7294
S31500003670914207DA694600F006F821460DF1050089
S31500003680FFF771FF1FBD80B5CD4B1B78984201D364
S31500003690692002BDFFF71AFF002002BD70B504467F
S315000036A00D4623460022B6A103200FF0FDFB287825
S315000036B00028204602D1BDE870403AE0C0490978AA
S315000036C0884201D3692070BD13F0C5F908B1752091
S315000036D070BD08F035F86873681D0AF06BFC064685
S315000036E04FF6FF71681DFFF73EFF02462978334605
S315000036F0204600F006F829462046FFF7FCFE00208B
S3150000370070BD30B54FF6FF740D0008BF224608D0D5
S31500003710032908BF4FF6FE7203D0A24208BF4FF638
S31500003720FD72A649096821F81020A64909680B54BC
S3150000373030BD30B505462C4685B02346012290A102
S3150000374003200FF0B1FB9E4909782846884228BF1E
S31500003750692019D213F07FF908B1752014E0694683
S315000037602846FFF7B3FE9DF8000030B100208DF823
S31500003770000069462846FFF7BEFE904909684FF6E5
S31500003780FF7021F81400002005B030BDF0B585B0FB
S3150000379007460C46894D8A4E00E07F1C3178F8B208
S315000037A088421CD22868FFB230F8170000F01AF8D9
S315000037B0F3D169463846FFF789FE9DF80500E1B268
S315000037C0884204BF9DF80610B1EB142FE5D107F02F
S315000037D0B7FF9DF80D108142DFD1384600E0FF208B
S315000037E005B0F0BD4FF6FE71884270472DE9F14FE6
S315000037F084B00D460E9C714FDFF8C4A190469946E1
S31500003800002607E03868BDF8101030F81B00884223
S315000038102CD0761C9AF80010F0B2884228D238686C
S31500003820F6B2B34630F81B00FFF7DCFFF1DA694663
S315000038303046FFF74BFE5FEA080007D19DF801000E
S31500003840484504BF9DF80400A042E2D107F078FF86
S315000038509DF80D108142DCD1002DD3D008220DF148
S315000038600501284609F0F2F90028D2D1304600E0D9
S31500003870FF2005B0BDE8F08F10B51446FFF726FE11
S315000038802046BDE8104008224F4909F095B92DE9B8
S31500003890FF478046084691461E4600F04AF808B1A2
S315000038A0002043E00027454C454D00E07F1C297869
S315000038B0F8B2884226D22068FFB2BA4630F81A001B
S315000038C04FF6FF718842F1D069463846FFF7FEFD94
S315000038D00C220DF1010108F1010009F0B7F90028E9
S315000038E0E4D1BAF1FF0F0FD1002507F048FF0C9C79
S315000038F0B9F1000F0AD0002D12BF00204046FFF795
S31500003900EEFC08E0FF27EFE70125EEE7002D38463D
S3150000391004D0FFF749FD2070012003E0FFF744FDC6
S3150000392020700020307007F0E7FE012004B0BDE8EB
S31500003930F0870822244909F089B930B585B00024FA
S315000039401F4D16E06946FFF7C1FD9DF800000428EB
S3150000395006DB00208DF800006946E0B2FFF7CBFDDC
S315000039609DF8001000234FF6FF72E0B2FFF7C9FE84
S31500003970641C2978E0B28842E4D305B030BD00006B
S315000039804242000030B585B002220BA103200FF0A1
S315000039908BFA00208DF800000024094D03E06946EB
S315000039A0FFF7A9FD641C2978E0B28842F7D3FFF738
S315000039B0C4FF002005B030BD420000006C68002046
S315000039C08D7F0020706800200079002030B583B01C
S315000039D0044600F023F80546202D1ADA5CB1694644
S315000039E0082000F022F808236A462946212009F01B
S315000039F0A3FA00200EE008232A462121684609F092
S31500003A0058FA002000F023F86946082000F04AF82A
S31500003A1037BD702000F01BF837BD70472A48016893
S31500003A20491C016011F8010D704738B50446264D52
S31500003A3008462968224609F0BFF82868204428600D
S31500003A4031BD214A116808441060084670471F4975
S31500003A501F4B0A681B68D31ADC2BB8BF10700868A6
S31500003A60401C0860704710B50446C0B2FFF7EFFF70
S31500003A70200A48E010B5FFF7D1FF00F042F904EB49
S31500003A80002080B210BD10B5044680B2FFF7EBFFF0
S31500003A90200CB7E010B5FFF7EDFF00F05EF804EB81
S31500003AA0004010BD38B5094C094A2368126805461E
S31500003AB09A1AAA18DD2A03DA0246184609F07CF893
S31500003AC020682844206031BDC8750020CC750020D0
S31500003AD0E06D002010B500F042F8FFF7CBFF208123
S31500003AE0FFF79CFFA072FFF799FFE072FFF796FFC2
S31500003AF02073FFF7BFFFE081FFF790FF2074FFF709
S31500003B00C9FF606110BDBDE81040A0E710B500F028
S31500003B1024F82080FFF7AEFF6080FFF77FFF20715B
S31500003B20FFF77CFF6071FFF7A5FFE080FFF7A2FFBC
S31500003B302081FFF773FFA07210BD10B500F00AF8E0
S31500003B40A078E0E710B500F008F82080FFF766FFE0
S31500003B50A07010BD0446208885E704468AE704461F
S31500003B602146082061E710B500F0CBF8A070FFF7FA
S31500003B7081FF2080211D00F0C2F8FFF74FFF00B142
S31500003B800120E070FFF74AFF2073FFF747FF6073DD
S31500003B9010BD10B50446214600F07FF82069BDE847
S31500003BA0104070E710B50446214600F078F8FFF79C
S31500003BB071FF206110BD10B5FFF7CFFF208010BD4B
S31500003BC0207944E710B50446FFF7CDFF04F1100055
S31500003BD000F01BF804F11C0100F091F8FFF74AFF12
S31500003BE024F8240FFFF746FF6080FFF717FF2071C8
S31500003BF0FFF714FF6071FFF711FFA071FFF70EFFCB
S31500003C00E07110BDBDE810402DE710B50446FFF782
S31500003C1041FF2060FFF73EFF6060FFF72BFF20812A
S31500003C2010BD10B500F010F800F0ACF8E088FFF712
S31500003C301AFF2089FFF717FF6089FFF714FFA08995
S31500003C40FFF711FFA07B5EE7044620681BE710B56F
S31500003C500446FFF71FFF2060FFF70CFFA080FFF769
S31500003C6009FFE080FFF706FF2081FFF703FF608171
S31500003C70FFF700FFA081FFF7D1FEA07310BD10B5BE
S31500003C80FFF7E2FFFFF79CFF611D00F006F804F165
S31500003C901501BDE81040102004E7102002E71020AF
S31500003CA0C3E610B50446207AFFF7D1FE207A01005C
S31500003CB006D12068FFF7E7FE2068FFF7E4FE04E080
S31500003CC0022802D1214600F002F8607A1BE708209C
S31500003CD0E8E610B500F015F80100207206D1FFF7EE
S31500003CE0D9FE2060FFF7D6FE206004E0022802D14C
S31500003CF0214600F004F8FFF791FE607210BD08201F
S31500003D0093E604468AE638B504460225FFF786FEA2
S31500003D102070401E012806D9FFF7ACFE6081A11C69
S31500003D20FFF7EDFF0BE0FFF7A5FEA080FFF7A2FE71
S31500003D306080FFF79FFEFFF79DFEFFF79BFE0C34AA
S31500003D406D1EE3D131BD38B5044602252078FFF754
S31500003D507EFE2078401E012806D96089FFF783FE83
S31500003D60A11CFFF7B4FF09E000F00CF800F00CF816
S31500003D7000F008F800F008F800F004F80C346D1EA6
S31500003D80E4D131BDA0886EE660886CE610B50446C5
S31500003D902078FFF75CFE6068FFF775FE04F1080007
S31500003DA0FFF77FFFA08AFFF75EFEA07DFFF74FFEBD
S31500003DB0A069FFF768FE04F11C01FFF76EFF04F12E
S31500003DC02C00FFF7C0FF14F8440FFFF740FE6078A1
S31500003DD099E638B5FFF795FF207004F12C05FFF73B
S31500003DE049FE6080201DFFF774FFFFF717FE207461
S31500003DF004F11200FFF787FFFFF73CFE6085FFF72F
S31500003E000DFE2870FFF70AFE6870FFF743FE04F107
S31500003E10340168601020BDE8344006E638B5044633
S31500003E2004F12C052078FFF712FEFFF7ADFF201DE9
S31500003E30FFF737FF207CFFF70AFE04F11200FFF7B9
S31500003E4082FF608DFFF70FFE2878FFF700FE687887
S31500003E50FFF7FDFD6868FFF716FE04F13401BDE8C3
S31500003E60344018E710B5FFF775FEFFF78DFFA08801
S31500003E70C8E610B5FFF771FE2080FFF7FBFD6080F6
S31500003E80FFF7F8FDA08010BD30B502F8010B002346
S31500003E9012E031F8234002F8014B31F82340240A9E
S31500003EA002F8014B01EB83045B1C658802F8015B99
S31500003EB06488240A02F8014B8342EADB30BD0CB465
S31500003EC0F8B505460C4606AE08E056F8040B290080
S31500003ED003D00078FFF7B5FD3860641C2078010038
S31500003EE037D056F8047B622827D07028EDD0732887
S31500003EF018BF752804D076280CD0772814D0ECE7A4
S31500003F00280003D0FFF78AFD3870E6E73878FFF718
S31500003F109EFDE2E7280003D0FFF7ACFD3880DCE722
S31500003F203888FFF7A0FDD8E7280002D0FFF7B2FDDA
S31500003F30D2E73868FFF7A7FDCFE756F8040B0078FD
S31500003F402900394602D0FFF770FDC6E7FFF7AAFD44
S31500003F50C3E7F1BC5DF80CFB70B55D4D6E8A044697
S31500003F6005F1080012F0E7FD012C08BFAE8A02D069
S31500003F70022C08BF022618B1FA217143884206D3E3
S31500003F80310205F10800BDE8704012F0C7BD70BDF2
S31500003F907CB54F4C0020E07020714FF6F972208AF4
S31500003FA090421CBF4FF6F872904202D00020207259
S31500003FB073BD6179474E4FF6FD7589B14FF6FC70BA
S31500003FC001900023002000900022308800210AF092
S31500003FD0BAFF0020607135800120BDE87640BBE75E
S31500003FE0A17810F055F93088A842F5D0012060710B
S31500003FF00220F2E710B500F039F81CBF4FF6F8744E
S31500004000A34217D1A92818BFAA2813D1D0781378AC
S31500004010401CD070C0B298420CD32E4803884FF68D
S31500004020FD74A34202D10180002050710020BDE83A
S31500004030104091E710BD10B500F018F81CBF4FF600
S31500004040F874A34211D103001CBF012802280CD129
S3150000405066290AD110795178401C1071C0B2884285
S3150000406003D3BDE81040002076E710BD184A138A36
S315000040704FF6F974A342704710B5154C2182920091
S31500004080029921709B0003996282A38261709BB2A0
S315000040900499A17092B293420AD301001EBF218AED
S315000040A04FF6F87291421CBF4FF6F972914201D059
S315000040B0702010BD002161714FF6FD71054A118017
S315000040C018B10120FFF748FF00E02072002010BD64
S315000040D0F8760020966B00202DE9F54F8BB08B46C5
S315000040E00C98169C1799ADF804B00026C0889A461D
S315000040F00746B046B14649B9F90607D50C9A9DF868
S315000041002C000094594612F043F816E1790548BF91
S315000041104FF48058390548BF48F40068B90548BFD0
S3150000412048F0800803D4F90548BF48F040089DF8D8
S315000041302C1002915D469DF82C1003910A2966D831
S31500004140DFE801F0082F1B3C65653C06083C1800BB
S315000041504FF00209BDF80420CDF800A0334648F41C
S31500004160027120460BF00EFA8246BAF1FF0F50D1CB
S315000041701820E2E04FF00309ECE706A95FFA8BF09E
S31500004180FFF781FA08220DF11D0104A808F014FDBD
S31500004190DFF8A808006830F8150004AEADF8040092
S315000041A0D8E704A95FFA8BF009F0DDFDDFF8900887
S315000041B000680C21694304AE405AEFE74FF6F871E8
S315000041C08D4224DB4FF40261084220D100F012F93F
S315000041D018BF91201CD1FF2C0FD000F087FB02994D
S315000041E003290CBF01210021401ADFF8581809687D
S315000041F0095D8842B8BF74200ADB029803280CBF09
S315000042004FF00C094FF0080928F4C078A2E7012006
S3150000421093E0DFF8345828884FF6FF71884218D0AB
S31500004220504612F0ACFD0090001D298804F0E2FD16
S31500004230DFF8180800990078C8714FF6FF702880DB
S315000042405FEAC84005D500980822291D083008F005
S31500004250B3FC0C9A494650460BF068FB08B9182681
S3150000426067E0DFF8EC070068C07E70B1B8060CD5D1
S31500004270F8074CBF2020002040F001033246002101
S3150000428050460FF053F9060053D1FF2C15D0504677
S3150000429012F06BFDDFF8B8170968C97E01B112216B
S315000042A0DFF8A0271268135D12F80A20D2187430BE
S315000042B089188842B8BF74263BDBB80407D5504638
S315000042C012F06DFD40F48061504612F06AFD0298CE
S315000042D0082812BF0928504612F070FD179848B1F9
S315000042E0BDF80410504612F082FD179880F800A021
S315000042F0002022E00398C01E05D0C01E012884BFFE
S31500004300C01E012807D850460FF019FE00280CBF22
S31500004310A12600260DE0B80444BF4FF6BF70074043
S315000043209DF82C103B465FFA8BF2504611F078FF51
S315000043300646504606F020FE30460DB0BDE8F08F2A
S315000043402DE9F043164685B00446F08804900D46E4
S3150000435070790FF2387103901F4630790290A846A3
S3150000436070880190434630880090082200F099F842
S3150000437000F040F818BF91201AD1FF2F09D000F0A5
S31500004380B5FADFF8C0160968C95D884238BF7420DF
S315000043900ED320000FD14FF6F870804528DA0020A2
S315000043A001900097FF23324629462046FFF794FEE8
S315000043B005B0BDE8F083022C4FF6FE790CD1DFF88C
S315000043C0941609788D4213D2DFF87006006830F82B
S315000043D018004845E3DB0BE0012C09D1DFF878161D
S315000043E009788D4204D2E8B209F0D5FC4845D6DBFF
S315000043F00120DDE7DFF858060068407B0228704799
S31500004400F0B587B00D461646044605961F46E88861
S315000044100FF2806104902346687903900922287977
S315000044200290688801902888009000F03AF80020F1
S315000044300190009733462A4621460620FFF74CFE98
S3150000444007B0F0BD2DE9F04188B01E460E9C0794DA
S315000044508046F08806901746707905900D463079AB
S315000044600FF23C6104904346708803900A2230881C
S3150000447002900197009500F014F8DFF8CC05A0F83B
S3150000448000802346DFF8C4050770002001903246FD
S315000044900F98009029460620FFF71EFE08B0BDE8DB
S315000044A0F08103200EF000BD80B538B10146082228
S315000044B0DFF8A80508F080FB002002BD022002BD3F
S315000044C070B588B000F02EF80C98DFF87C150096D1
S315000044D008802B460D98DFF8741508702246DFF821
S315000044E080050078002814BF4FF6FF714FF6FD7166
S315000044F00020019011E070B588B000F013F8DFF8E5
S31500004500600500780096002814BF4FF6FF714FF63D
S31500004510FD71002001902B4622460320FFF7DCFDAB
S3150000452008B070BD04460D46069205951E46E08805
S315000045300FF2785104900622607903902079029058
S315000045406088019020880090032023890EF0ACBC7F
S3150000455010B5DFF8100506F0EFFF0446FF2C0DD06E
S315000045602146042006F06FFA18B10121204600F01A
S3150000457006F82046BDE8104006F0FEBC10BD2DE949
S31500004580F04F89B082468B4612F0F9FB0646B01C06
S3150000459004F029FCDFF8D044DFF8D0540746504633
S315000045A00BF0A1F80146504606F08DFE80465046B7
S315000045B012F0FFFB07F06EF8301D04F014FC2080AB
S315000045C0009708F0A3F8009989B2814208F0030920
S315000045D012D04FF6F87087420EDA7078C0070BD407
S315000045E038460AF068F9002805D02088012352468B
S315000045F0394600F0AFF97FE002A950460BF002F908
S3150000460002A8286030460BF08BF8DFF864140860C7
S315000046100321504612F0A3FBDFF85814087004215A
S31500004620504612F09CFBDFF8501408705FEA0B004E
S315000046302BD09DF80E00800627D508F067F8DFF826
S31500004640106440B13068007D800704D4B9F1010FD1
S3150000465008BF182300D008230022002150460EF080
S3150000466065FF90B108F00300012802BF3068407B67
S31500004670112805D102F046FB10B9AF2000F062FC0C
S3150000468007F03AF8002028604DE018F0030003D048
S3150000469002280BD00FD32FE0BDF80E000006400F06
S315000046A000F00101504600F041F825E05146404631
S315000046B011F0E5FD20E008F029F8218881421BD0A1
S315000046C05146052006F0BFF9B0B129688879400641
S315000046D00DD50C2205A808F06FFA00200190FF23E3
S315000046E0FF20009005AA21880A20FFF7F5FC218803
S315000046F05A4650460BF05EFE08F008F821888142C3
S315000047000DD150460AF0EFFF0146504606F0DBFD9C
S315000047100C21084203D10021504611F0ECFF002085
S31500004720286006F0E9FF09B0BDE8F08F2DE9FE4FDD
S3150000473081468B4612F023FB064648460AF0D3FF15
S315000047400146484606F0BFFD05467078DFF81C4373
S31500004750DFF8147300F001000290B01C04F043FB74
S315000047604FF6F8718842ACBF4FF0010A4FF0000ACD
S3150000477007F0CCFF3988814220684088ADF80200F6
S315000047800CBF4FF001084FF00008B01C04F02BFBE3
S315000047900146029840EA0A008DF804009DF80400DC
S315000047A0002814BF06200820002207F078F92068A8
S315000047B00188BDF80260002904BF4079002829D18C
S315000047C00AF0EEFD5BEA000005D1BDF802000AF032
S315000047D007FE00287CD0694648460AF0F5FA2368A9
S315000047E09DF80010421ED2B2042012F0CCFB2068C5
S315000047F0408848F20201884203D13888494602F0CF
S3150000480051FB3888B6F5004F10DBBDF8022049464B
S315000048100AF0EEFA2068029919B905F00C010C2984
S3150000482035D1008909F0F5FB30BB51E0DFF84CB219
S3150000483002218BF800105346002249460AF03CF943
S3150000484020688079400604D5BDF80200FF2100F0FB
S3150000485054F8132EDED02068C0884004DAD4884984
S3150000486009789BF80000CA0701D50228D2D089072B
S315000048702ED50128CED02BE020680189B8F1000F93
S3150000488014BF032502250020FEF780FF12E0017900
S3150000489000910022437938880021FEF7A7FF05F032
S315000048A00C01082905D1B8F1000F0CBF0425052518
S315000048B000E00025734908709DF8040008B9382EF9
S315000048C001D1012200E00022294648460FF066FA8F
S315000048D0BDE8F78F10B5044600F008F8610548BF3B
S315000048E00838210548BF0838C0B210BD58490968C4
S315000048F0C97E642001B15220704770B55B4E0C46EC
S3150000490086B0054631680C2202A808F055F93068D1
S3150000491001798DF80D10FF2341798DF80C10ADF853
S315000049200A504FF6BF71C08800940840ADF80E00DB
S3150000493002AA002001904C4801880720FFF7CCFB13
S3150000494006B070BD5048007808B9FF2070474D4842
S31500004950007870472DE9FB47914685B01C464846CE
S315000049600AF0C1FE0146484606F0ADFC03210842A6
S315000049708DF800005ED13D4805683B48068801A9D0
S3150000498048460AF03FFF394901A808604FF0000A7F
S31500004990BDF81400344908809DF80900002804BFBA
S315000049A0BDF8040000283FD1484612F0E8F9801C03
S315000049B004F019FA4FF6F8718842ACBF4FF00108BF
S315000049C0D046002C14BF02240124012729E0BDF89B
S315000049D0140043463A4649460AF06EF85FEA000A72
S315000049E01ED0022C08BF012F1AD1BDF81800164997
S315000049F0088017480068417E491C4176A1F1800075
S31500004A00124908700C219DF80000084208D19DF853
S31500004A100A00400604D5BDF80600FF21FFF76DFF2A
S31500004A207F1CFFB2BC42D2DA104805600E480680F1
S31500004A30504600E0002008B0BDE8F0876C68002012
S31500004A407868002014680020986A0020A77F00205C
S31500004A508C7A00208D7F0020C36B00209C6A00208A
S31500004A60957F0020CC6A00206E7D0020707D00209E
S31500004A70747D0020457E0020467E0020A67F002013
S31500004A80927F0020B57F00206C7D0020425757574B
S31500004A9042425700425757574242574200000000D1
S31500004AA042575742575742425742000042575742D1
S31500004AB0424257424200000010B5044606F065FE29
S31500004AC010F073F9010018BF00F014F80C213048FB
S31500004AD011FB04F10844827981880068BDE8104022
S31500004AE007F0AABA0020E7E70120E5E70220E3E79E
S31500004AF00320E1E710B582B0044606F06AFE0C21F9
S31500004B00484323490844210017BF312C0021017A6C
S31500004B10491C0172C279017A91420AD300210172BD
S31500004B2043208DF800008DF80140022168460EF002
S31500004B30F0F913BD17490978312900D0704780B5BF
S31500004B4044218DF8001001460DF1010004F052F9E0
S31500004B50032168460EF0DDF901BD38B50E4C0C4B4D
S31500004B6024780C256C43B0F5004FB8BF04292344C4
S31500004B7001DB702032BDDA71988099719A79998833
S31500004B80186807F059FABDE8314010F00EB9000078
S31500004B90686A0020D86B0020A07F002070B5160040
S31500004BA004460D4602D109F02EF802E0FF2108F076
S31500004BB0D9FF324629462046BDE87040A0E02DE9DF
S31500004BC0F04782B005468A46174698460EF082FDA3
S31500004BD0C0480A9C0078B0B10C2F14DAFF21284691
S31500004BE008F0C0FF814600260AE004EB4601C9B280
S31500004BF0404606F023FC494608F0B4FF8146761C81
S31500004C00F0B2B842F1D3009443463A46514628469C
S31500004C1000F08EF8BDE8F3872DE9F04704468A4692
S31500004C2000F0D5F8012846D1204608F085FFAA4AAB
S31500004C30126812F80A700025FF281CD081464C46DF
S31500004C40DFF8988200E06D1CD8F8000000EB8400C5
S31500004C508478FF2CF7D1E8B268B1EDB20C2D0ADAF0
S31500004C606800861CBAF1FF0F24D0F119C9B250466C
S31500004C7006F0E2FA08B100201DE02A463946504601
S31500004C8006F026FB7C1C6A1ED2B2E1B2504606F044
S31500004C901FFB671C4C4606E030F82420F9B250464C
S31500004CA006F0D8FBBF1CD8F8000000EB84018C7816
S31500004CB0FF2CF1D1F0B2BDE8F08710B5FF280AD07D
S31500004CC0864B1B6833F820400C8003EB800080780D
S31500004CD01070002010BD032010BD10B508F02CFF89
S31500004CE00024FF280AD0022401E0A41CE4B27B4978
S31500004CF0096801EB80008078FF28F6D1204610BDB8
S31500004D0030B583B00C46C4218DF800101546014617
S31500004D100DF1010004F06EF821460DF1030004F0D8
S31500004D2069F88DF80550062168460EF0F2F837BD91
S31500004D302DE9F04186B0074688461D460DF105006F
S31500004D4014460FF084F801A80FF083F859208DF867
S31500004D50080039460DF1090004F04CF808224146D6
S31500004D600DF10B0007F028FF9DF805000C9B8DF850
S31500004D70130066009DF804008DF81400F6B28DF855
S31500004D80154000962A460021284606F08CFB31463F
S31500004D90284606F051FA0020009000232A460E21EC
S31500004DA002A80EF0BEF806B0BDE8F08110B50446C4
S31500004DB000F003F84A48047010BD10B5484C20783E
S31500004DC0FF2803D006F0D8F8FF20207010BD2DE98B
S31500004DD0F041DFF80C81074698F80000FF2882B002
S31500004DE00C4619D03C4D2A68115C8E1EF6B231462F
S31500004DF006F024FBB8420FD12868075DF5052D0E95
S31500004E00FF2C02D1A81CC0B220E0F019811CC9B247
S31500004E10204606F011FA08B1012017E02A46394665
S31500004E20204606F055FA6A1E791CD2B2C9B220464F
S31500004E3006F04EFA98F800200096B91C002389B2B5
S31500004E40204606F030FBFFF7B8FF0020BDE8F681EC
S31500004E502DE9F04180461F480078002688420F461B
S31500004E60154638BF742032D3012006F01AF80446DE
S31500004E70380010D07900C9B2204606F0DDF950B9E5
S31500004E8007E035F816207100C9B2204606F0E2FAAE
S31500004E90761CBE42F5DB2046FF2811D00E49096874
S31500004EA00D5CA91CC9B206F0C7F928B942462946C5
S31500004EB0204606F0CFFA03E0204606F05DF8FF2410
S31500004EC02046FFF773FFFF2C0CBF18200020BDE81B
S31500004ED0F08100008C7F00201468002068680020A4
S31500004EE0D96B0020DFF8F02A1268127882420AD0C5
S31500004EF019B1012A03D1022805D000207047022AE1
S31500004F0008BF0128F9D101207047DFF8D01A0A78C6
S31500004F10002814BF42F0010002F0FE00087070473E
S31500004F20DFF8B80A0078FFE700F001007047DFF805
S31500004F30B01A91F900101E31814201DA0120704742
S31500004F4000207047DFF89C1A0876704710B5DFF826
S31500004F50884A2068407B112805D04FF4AD710FF2C6
S31500004F60100007F095FE21684120487310BD00002F
S31500004F706173736F63696174696F6E2E63000000FD
S31500004F8080B5022006F063FD06F084FB00F070FC9D
S31500004F90042805D1DFF84C0AC17D491DC17505E01D
S31500004FA04FF47A71DFF8C40C11F0B8FDBDE801408A
S31500004FB006F0A2BB10B5DFF8B04C00206075207873
S31500004FC0FF2803D005F0D8FFFF20207010BD70B574
S31500004FD082B004460D4605F059FF0646B01D03F0A3
S31500004FE002FF00F44040B0F5404F0CBF0620002001
S31500004FF03118097C4A00490802F00E0201F0380116
S315000050008918401800F11106DFF81C0D0068005DD4
S31500005010F6B286420BDA831BDBB20F2BA8BF0F2337
S315000050200020009032462146284606F044F83046D5
S3150000503076BDDFF8A4190968097B807802290CBFC0
S3150000504000F0040000F0800000B101207047DFF896
S3150000505088090068407B33281CBF4328532801D1A8
S3150000506001207047002070471FB5012011F09AFFFC
S3150000507011F09CFF0EF056FFF0B1DFF86849A079F9
S3150000508010B104F10C0005E020786946FFF79FFF98
S315000050900DF10300DFF8482900211171617901F053
S315000050A061FAFFF787FF00F008F809F0D6FF11F064
S315000050B0CEFF012001F0B1FB1FBD10B500F05CFE74
S315000050C0017B032918BF042905D1408801F076FB2E
S315000050D008BF032008D007F0E9FB044607F0EAFB07
S315000050E02146FEF740FA022007F0F0FB08F0D0FF59
S315000050F000F045FEBDE8104009F0DBBF38B5DFF82B
S31500005100E448DFF8D4582076FFF754FF00214FF625
S31500005110FF7001F033FB2868417B032918BF002983
S315000051201ED0332918BF432914D101F0D2FA2868BA
S31500005130017B032918BF042906D103214173207E70
S31500005140BDE8324006F096BC207E06F093FCBDE832
S315000051503140B2E721214173BDE831400AF0FBBC82
S3150000516031BD10B5DFF87018DFF8FC4A0968002079
S3150000517048734FF6FE7007F0CDFA4FF6FF7007F052
S31500005180D1FA01F0A6FA207EBDE8104006F072BC06
S3150000519070B5044684B0E07A0FF2D001DFF83858D3
S315000051A00290234694F90A0001901522208901F005
S315000051B01FF92868407B60B9208901F0FFFA08D002
S315000051C000F050F905D106F016FC10B906F027FCE0
S315000051D010B1702004B070BD2868007D80070AD524
S315000051E007F094FA4FF6FE718842024604D10CF09D
S315000051F0D8FE024600E000222146104601F070F972
S3150000520006000DD12868007D80074CBF02200120D2
S3150000521001F03CF9002101200BF0ABF8060001D0AB
S315000052203046D7E7DFF8BC07007F08B109F008FC75
S3150000523000220821204607F0CBFB30B1042120468E
S3150000524003F01BFF08B9A520C4E7DFF84C0B007874
S315000052502074DFF8480B60610020E081204600F0F2
S3150000526006F9064606F046FBDAE7000042387057B4
S315000052704242000010B504462346182201F02BFADC
S31500005280DFF81C0B0021017114B1FF2C02D10121A2
S31500005290017007E0012100F8041BA100491C090266
S315000052A011F03CFC00F06BFD002010BDDFF8F01A99
S315000052B000200871DEE730B50D4689B004466869FE
S315000052C00FF2941107902346287C06901622E8894F
S315000052D00590287B0490E87A039095F90A000290DD
S315000052E028890190009501F084F8287B00280CBFDE
S315000052F04FF6FE7007F00AFA2B46224609B0BDE8C3
S315000053003040014601202DE9F041DFF8CC468046C9
S315000053102068407B00280F4616461D4649D13000BE
S3150000532047D0052E45DA00F09DF842D106F063FB22
S3150000533000283ED106F073FB08B1042E39DB287B2A
S31500005340032816D14FF6FE70874214D1012E08BFEE
S31500005350002710D0022E2CD107F0D8F94FF6FC7199
S31500005360884202DA07F0D2F901E00CF01AFE07468D
S3150000537001E0012E1DD0B8F1000F0CD0287B0328C8
S315000053800CBF01210021012E0CBF012000200AF0D4
S31500005390F0FF01005CD12946384601F0A1F8010072
S315000053A056D106F0CDF906F0DEFA20B106F037FB4D
S315000053B008B170204CE02068DFF8AC78407B3328D9
S315000053C01EBF532800207876304601F05FF8387FFC
S315000053D020B106F024FB08B909F032FB287B03282C
S315000053E003D12846BDE8F04141E00822294607F1ED
S315000053F00C0007F0E1FB287B0328A8BF00203875C6
S31500005400FFF7D8FD94203876387D216800280CBF38
S3150000541001203120487301230020B8752068817B64
S315000054204809020003D1BA7F03FA01F108E001F04E
S315000054301F0140F0180003FA01F1052241EAC0619C
S31500005440052011F078FF010002D022680021517377
S31500005450BDE8F081000000004242387057424242E7
S3150000546057424400DFF83C0900780B28704710B516
S3150000547004460022082107F0ABFA08B1012010BD4E
S3150000548007F044F900224FF6FF7101F04DF8217C38
S31500005490204601F067F86269E189207C08F02CFE5D
S315000054A0DFF834050068007B012808BF0BF0F8FC24
S315000054B0FFF703FE002010BD70B5DFF81C45064659
S315000054C0206882B0407B002802BFDFF8D808007849
S315000054D00B2801D0702076BD01230D220DF10101AC
S315000054E001F073F9DFF8F8549DF8010028702EB129
S315000054F00222314605F10C0007F05EFB684601F01A
S3150000550014F908B1932076BD9DF80030142201F0FD
S31500005510E2F801F071F8010050D19DF8000000F0AA
S31500005520B5FF2068007B012818BF022807D0032892
S3150000553018BF042825D1002001F04AF908B301F06C
S3150000554072F82068007B032814BF042812F0E4FADE
S31500005550FFF7B3FD012012F00BFB01002ED12068EE
S31500005560007B032818BF042827D1287B800724D571
S315000055700522DFF82818012000F027F801001CD0CA
S3150000558076BD2168132048730020DFF8DC16887585
S3150000559001222068817B4809030008BF02FA01F155
S315000055A007D001F01F0140F0180002FA01F141EAAC
S315000055B0C0610522072011F0BEFE002076BDDFF88F
S315000055C0A806407E7047FF22FFE72DE9FC41804692
S315000055D000F0D2FB0D46017B0129164631D0407BF7
S315000055E0022818BF03282CD1332007F06FF92806AC
S315000055F0DFF87476400F14BF0522BA7F29460520CE
S3150000560011F099FE044688B9FFF7D4FC07F086F836
S3150000561078815FEA080014BF02200120387507F17F
S315000056200C0001F09AF80020B8757E765FEA080053
S315000056303146284602D011F0AFFC03E011F0ABFC76
S3150000564000E070240194009543462C220FF20C01D1
S3150000565000F0CFFE2046BDE8F681000042424442FB
