S01200006E63702D756172742D68772E733337AC
S3150800400058720020517B0208AD770208B177020882
S31508004010A70A0A0100410008041F03AC1063F50053
S315080040200000000000000000000000000000000082
S315080040300000000000000000000000000000000072
S315080040400000000000000000FFFFFFFFFFFFFFFF6A
S31508004050FFFFFFFF007007080000000000000000D7
S31508004060FFFFFFFFFFFFFFFFFF000000000000004B
S315080040700000000000000000000000000000000032
S31508004080F07F002000000000EC7F0020EC7F00207D
S3150800409058720020D4830208227C0208F86800209F
S311080040A000000000000008080080002056
S3150800410058720020517B0208817A0208857A0208D3
S31508004110897A02088D7A0208917A0208000000005E
S315080041200000000000000000000000009D7A020860
S31508004130A17A020800000000A57A0208214D0008AD
S31508004140B17A0208BD7A0208C17A0208CD7A020855
S31508004150D17A0208D57A0208E17A0208ED7A0208CD
S31508004160F17A0208F57A0208F97A0208FD7A020855
S31508004170097B0208157B0208217B0208257B0208B9
S31508004180297B0208357B0208417B02084D7B020821
S31508004190012100F01F029140354A400942F82010DB
S315080041A070470000F8B5344C344D2178286840072C
S315080041B02BD5032929D23248324A008822F8110021
S315080041C00120314A137800FA01F1194311702F4A78
S315080041D02F491378002B12D0002623FA06F7FF077B
S315080041E008D5B0402670584010702A4830F8160096
S315080041F008600AE0761CF6B2032EEED305E000202E
S31508004200086000F0E5F8032020704FF6FF7028607C
S31508004210BFF35F8FF1BD80B51C49002008700320ED
S315080042201549087000201C490870052011490880A6
S3150800423000201549087000211548016041604FF4B7
S31508004240004181601021C1600D49416101218161F0
S315080042500321C1600421094801644FF6FF7101601A
S315080042600B20FFF795FFBDE8014000F0EFB800000E
S3150800427000E100E0E2780020937F002010A80040CB
S31508004280AA78002008750020947F0020927F0020DD
S3150800429004E0004010750020957F002000F042BC25
S315080042A04248012181604EF6BE214160012101602C
S315080042B070473F49012008607047A52805D13B484B
S315080042C04DF6AD61416002210160704737480068CC
S315080042D010F0010018BF01207047F0B5C20852025D
S315080042E0344CA518830010F0040014BF6E68A65855
S315080042F003F00C030F279F40BE439940314308B192
S315080043006960F0BDA150F0BD012100F0070291409F
S31508004310284AC00802EB402041617047012100F09D
S3150800432007029140234AC00802EB4020016170470A
S3150800433000F007011F4AC00802EB402001228068EE
S3150800434007E000F007011B4AC00802EB40200122E3
S31508004350C0688A401040C840704780B51649174A59
S315080043601020086016491748007803000BD0032868
S315080043700CBF00200120106040F6510008600020A4
S3150800438000F0CAFD06E0022010604FF400600860E5
S3150800439000F08CFB0C480721016001210164102004
S315080043A00A490860002002BD0000000000600040C5
S315080043B00860004000B0004080E100E008000040CE
S315080043C00C600040A37F002014A0004000E100E03C
S315080043D070477047DFF8FC3433F810001040C840C7
S315080043E0704730B50FF2AC54DFF8EC3434F81040AF
S315080043F09C601140DFF8DC4434F81050954329439B
S31508004400D96002221A6000221A6024F8101058682F
S315080044100028FCD130BDDFF8C424DFF8C4041278C4
S31508004420DFF8C0140AB149780EE0895611F1090F70
S31508004430B8BF302108DBC16D39B1C26D40F24A31CF
S31508004440B1FBF2F189B2C91E01607047E0B5DFF829
S31508004450980401880A2300F065F8BDF806104FF69F
S31508004460FF720D20FFF7BDFF07BDF8B50546B5F588
S31508004470004FDFF870441AD1DFF870040188022370
S3150800448000F050F8BDF80000000AFF2801D001002E
S3150800449000D118206070BDF800000006C00E102874
S315080044A01CBF001D00F0A3F9BDF80000C543DFF8E6
S315080044B02C64707808B1002005E0A089ADB2684088
S315080044C0C00701D501207070DFF82404A58105F026
S315080044D00104016841F4004101604FF440520FF2B3
S315080044E0D84000EB4400C5F340074078010389B281
S315080044F00220FFF776FF204600F076FD4022B9013C
S3150800450000F012FA2D06A80E00F0010038433070AC
S31508004510FFF781FF707818B1FFF798FF00207070D9
S315080045200020F2BD7F22684600F0E2BD2DE9F04F7B
S31508004530DFF8C443DFF8BC73207887B004230490FF
S315080045400E210B38C0B203906846039A00F07CFE31
S315080045509DF800008DF80A009DF801008DF8090005
S315080045609DF802008DF808009DF803008DF80500F7
S31508004570DFF888030078012806BF607880F0010517
S31508004580012501F05FFA82469DF9020003990AF1B6
S315080045900A06AAF10A09B042B6BF81454FF00108DA
S315080045A04FF0000801208840ADF806009DF801008C
S315080045B0000604D47888BDF80610084201D04FF0EA
S315080045C0010801F0DBFA9DF8030000060AD4B88852
S315080045D0BDF80610084205D19DF90000B042B8BFE3
S315080045E0814502DB4FF0010901E04FF0000948EA76
S315080045F0050059EA000000F0A480DFF804B3C149B9
S31508004600DBF80000C04E400800F001008DF80400F9
S31508004610BE48006800F4E06005904FF4E06008606A
S31508004620002001F00DFF00F087FBADB1607858B1AE
S31508004630DBF80000B14940084000CBF80000012033
S31508004640087000F05AFC07E0306840F4005030600B
S31508004650306820F480503060A8480078012810D1CE
S3150800466061780D4208BF02F025F8DBF80000A3497F
S3150800467040F00100CBF8000000200870642000F02C
S315080046803CFC607880F00100054203D00498C0B273
S3150800469002F093F8607838B1306820F480503060C2
S315080046A0306840F400503060BDF80600C543B8F1E4
S315080046B0000F08D002F06CF98DF801008DF802A001
S315080046C0788828407880B9F1000F08D002F00DFAF2
S315080046D08DF803008DF800A0B8882840B8809DF9A9
S315080046E000009DF90A10884202BF9DF801009DF856
S315080046F0091088420BD19DF902009DF908108842DD
S3150800470002BF9DF803009DF80510884206D003995C
S3150800471004236A46C9B20E2000F0BDFD05987B4900
S31508004720086000F0F3FD9DF8040001F089FE02F030
S31508004730FCFA607828B148F260703060642000F0B6
S31508004740DCFB9DF8010002F08FF89DF8030002F0EB
S31508004750C7F907B0BDE8F08F80B501F066F9BDE886
S315080047600140E3E601F061B9A0F10B01102928BF69
S31508004770FF20704770B5064601F073FD0546A6F1A1
S315080047800B001028A6F10B0401D38A2070BD6048DF
S315080047908168090702D40068C00701D58C2070BD5E
S315080047A0554806705B4801680C290FD00FF27C113A
S315080047B0594A92F90020A4B231F824105118C1615F
S315080047C0FFF7B4FE012D08BF01F0F1FC002070BD13
S315080047D010B5044601F029F92046BDE81040C9E79E
S315080047E04548007870473F4890F9000070472DE922
S315080047F0F0410446202514F12B0F86B049DB4748C3
S3150800480001881423FFF78EFEBDF810004FF6FF71DE
S31508004810884203D0400448BF012607D43F2200211E
S315080048201020FFF7D7FD002680F0200504F12B02A3
S315080048302F2A2C483A491AD213220FF2301300E0D5
S31508004840521ED2B213F91270BC42F9DB03EB4204D2
S31508004850032764780C60002413F8121001700021F5
S315080048608846C6B1BDF810104FF6BF7228E0092C6D
S315080048700FDA025D0A60047014232A480188FFF7DC
S3150800488051FE4FF4C0514FF480744FF0800828272A
S31508004890E7E78B2019E04FF4605200F045F84FF433
S315080048A0E062214600F040F88022414600F03CF8DC
S315080048B0781980B24028A8BF3F203F2280F0200107
S315080048C000F032F8FFF7A7FD002006B0BDE8F0813A
S315080048D00000000004780020E8100040A87F0020AF
S315080048E0641000409C7300209A810208C481020863
S315080048F01C100040407E0020C774002098740020D9
S315080049008020004080E100E0D010004000E100E097
S3150800491060200040AC100040A77F0020928102086A
S31508004920C0100040968102080B205AE5AA212900EA
S315080049305523290000252800AA26270055282700E0
S31508004940002A2600AA2B2600552D2500002F240014
S31508004950AA3024005532230000342200AA3522004A
S315080049605537210000392000AA3A2000D500E60173
S31508004970EC02EF03F204F405F506F707F808F9095F
S31508004980FA0AFB0BFC0DFD0FFE11FF1300160119A9
S31508004990021C031F100011002000300040004100D7
S315080049A050006000700080009000A000B000C000B9
S315080049B0D000E000F0000000000001032DE9F041FE
S315080049C0DFF8E0630546F0780428B4BF302760278F
S315080049D04FF4F070B0FBF7F41E2D24B201DB281B50
S315080049E004D5A8B2BDE8F04100F087BA02F0D8F9BC
S315080049F000F028F870700721DFF8AC03DFF8AC2365
S31508004A0000F047F8291B09B27943C91C8908491ED1
S31508004A10DFF89C53DFF8887341602E6800F0B0F821
S31508004A203C68386820F04000386002F0BFF93C6006
S31508004A302E6002F0BFF900F07BF94046BDE8F04170
S31508004A4002F0C0B98046012080F31088704738B557
S31508004A50DFF85013C9780429B4BF302460244FF412
S31508004A60F071B1FBF4F1451A1E2D04DAA2210FF2FA
S31508004A708C3002F0ADF9DFF83003DFF83023072178
S31508004A8000F007F805FB04F1C91C8908491E4160B6
S31508004A9031BD01600021416081604FF000711160F5
S31508004AA07047DFF8002301215170D0E72DE9F04166
S31508004AB0DFF80063DFF800430025356025604FF412
S31508004AC0A040606041F29A084046FFF777FF706899
S31508004AD044F69041081A00B24FF4487190FBF1F081
S31508004AE000B20828A8BF072004DA10F1080FB8BFDB
S31508004AF06FF00700206008274046FFF75FFF404633
S31508004B00FFF75CFF706845197F1EF8D1281DC0089D
S31508004B1008BF0120DFF8A412B1FBF0F080B2606094
S31508004B20BDE8F08138B5DFF8985201206FF00F0420
S31508004B30A8602C608020FFF741FFE868FF2802D8AC
S31508004B40641C102CF5DB31BD70B5DFF87802DFF890
S31508004B506052016841F0010101600121416002F0E3
S31508004B601FF92E68044600F00BF88D49512008609D
S31508004B702E6002F01FF92046BDE8704002F022B907
S31508004B80286840084000286002F014B92DE9F04171
S31508004B908E4C8D4EA088834F4FF6FF78404540F2E5
S31508004BA0DC551CD18A48018802237F22201D00F08B
S31508004BB09FFAA088404504BF0220A080B0698007FC
S31508004BC003D4B06940F00200B0610120B870A08833
S31508004BD030602846FFF765FF2846BDE8F081B269D0
S31508004BE09207EED5BA78002AF6D1B268B36812F001
S31508004BF0010203D10F2809D2401C06E09B0705D500
S31508004C0023781BB1032801DB4044A080A0882270CA
S31508004C100228BCBF0220A0803068A1888842D4D16F
S31508004C20B06900F00300032818BFFFF78DFF0020C6
S31508004C30D3E72DE9F047804666480178002569B92B
S31508004C40C078072818BF09280DD0032818BF1128CF
S31508004C5009D013281CBF15280B2804D05E48016804
S31508004C6041F48071016002F09BF88146FFF7EBFE84
S31508004C704046FFF78BFF08B9012515E04C4F484E13
S31508004C803C68386840084000386002F093F8D6F867
S31508004C9000A0306820F04000306002F087F8C6F8BF
S31508004CA000A03C6002F086F800F042F8484602F0A0
S31508004CB089F82800D7D0BDE8F0870220B9E73A4836
S31508004CC03A4A002141608160016821F002010160D1
S31508004CD00021344841704FF000711160817809B1A4
S31508004CE000218170C178012914D13C4901220A604A
S31508004CF03B4A1268D20748BF03210FD40222C2706A
S31508004D00086C40F0010008640420364908603649FA
S31508004D1008607047C178042901D10521C170704720
S31508004D2020484078002818BFFFF7C9BF01F032B8FD
S31508004D30002080F3108870472DE9F843194C217933
S31508004D40207881F0010108421DD124E002F028F8FC
S31508004D50FFF778FEE078052810D0154E104D00F0C4
S31508004D6045F8D5F80090286820F04000286002F041
S31508004D701DF8C5F80090376002F01CF8FFF7D8FF59
S31508004D80404602F01FF8E0780528DFD10020A07021
S31508004D900520FFF74EFF00202070BDE8F1830000D4
S31508004DA000800040C37F002010E000E004ED00E032
S31508004DB094ED00E0104000400C0000400060E3164F
S31508004DC0084000401C400040044000408874002011
S31508004DD0D0810208960708083840004018A000400D
S31508004DE00C40004080E200E000E100E037683068EF
S31508004DF040084000306001F0DDBF0000636C6F635F
S31508004E006B732E630000000010B5002001F093FFBD
S31508004E10684C40F68C2188422068B4BF40F00800F0
S31508004E2020F00800206010BD10B5044662480188CD
S31508004E3082B000F05DF89DF800109DF80100FF298A
S31508004E4002BFFF280420002122005C4A136818BF0D
S31508004E50801C23F46073C0B20828A8BF072043EA61
S31508004E60C010106008291068A8BF0721C00841EAC9
S31508004E70C00010605248047013BD524800B501883E
S31508004E8083B000F035F8BDF800004FF6FF71884290
S31508004E900EBF4FF4E1600A2190FBF1F0ADF8000077
S31508004EA04748007808B34448018802237F2201A8AE
S31508004EB000F01EF99DF80500BDF80030FF2808BF70
S31508004EC00420811CC9B20829A8BF0721C1F12F02F5
S31508004ED002EBD272C0F12F00521000FB0320C1F181
S31508004EE02F01B0FBF1F0ADF80000BDF800000EBDD3
S31508004EF002237F22684600F0FBB833490A68032874
S31508004F0009D34B6D43F001034B650B689B1AC3F33A
S31508004F1013038342F9D3704710B5040004D110BDBA
S31508004F204FF47A70FFF7E9FF2046441E80B2002846
S31508004F30F6D110BD2548017869B9C078072818BF89
S31508004F40092814D0032818BF112810D013281CBF0D
S31508004F5015280B280BD01E48016841F480720260A0
S31508004F60C80504D438210FF2740001F031BF704728
S31508004F7020B1012807D0032818D019E0154801B137
S31508004F801721016012E049B1480800F1B77000F531
S31508004F905850B0FBF1F0B0F1011F01D32020704743
S31508004FA00D4900F001024A60400808600020704779
S31508004FB02120704700BC00409E810208180000406E
S31508004FC0AA7F0020B4810208382000409607080806
S31508004FD038400040100004E068C800407573625FFE
S31508004FE06572726F722E6300F0B5044689B00020B0
S31508004FF0FFF71AFF294801880A237F22684600F02E
S3150800500077F8BDF802004FF6FF75A84205D14FF4B0
S3150800501081710FF2940001F0DBFE00260FF2A00763
S3150800502001E02A4616B94FF47C4203E0022E08BF77
S315080050304EF23F023DF81610B85DFFF7D2F9761C1E
S31508005040052EEED3012C03D114237F22144802E047
S3150800505014237F22134801880FF26C0703A800F077
S3150800506047F800262A4608E02A46012E08BF4FF6CA
S31508005070C07202D0082E08BF002203A830F8161006
S31508005080B85DFFF7AEF9761C0A2EEDD3012C04BFE6
S315080050900120FFF7C9FE09B0F0BD00009A81020899
S315080050A09681020892810208616E616C6F67756568
S315080050B02D63656C6C2D626961732E6300000000B8
S315080050C000100C0D0E000000010203040708090A6F
S315080050D00B0F000038B514467F2C08BF0024314D4D
S315080050E029431A4604FB0311BDE8384001F068BF9E
S315080050F070B51E00044615461BD04BF2346081423B
S3150800510011D1092E28BF082633467F2240F6120100
S315080051102046FFF7DFFF32462349204601F09AFF73
S3150800512038B940F2A27133462A462046BDE8704097
S31508005130D0E770BD2DE9F0410C461A49DFF86C80BE
S3150800514041EA0006C007154602D56C2100F034F87E
S31508005150E80702D56D2100F02FF81548864204D3DA
S31508005160A819401E1349884202D36E2100F024F87C
S31508005170002706E0F05DFF2802D0752100F01CF834
S315080051807F1CAF42F6D36A082146304601F0CDFFB0
S3150800519028B14046BDE8F0417B2101F019BEBDE8C3
S315080051A0F081000000000808D87C0208CC7C0208C0
S315080051B00008080800100808404601F009BE00006B
S315080051C030B5DFF83011DFF830510A6883B001A82E
S315080051D00024026001202870002001F0EBFF30B1A6
S315080051E0002001F0E7FF10B12C7049203EBDDFF822
S315080051F00C01018802237F220DF1020000F024F839
S3150800520002237F220021684600F01EF8002001A92B
S31508005210BDF8022031F81010914208BF0124401C45
S315080052200228F4D3BDF8000024B1B0F57F7F07D17A
S3150800523000203EBDB0F57F7F14BF0420062000E0A5
S315080052400720002129703EBD10B5FF2908DCDFF8CC
S31508005250A840247844B1BDE81040C9B202F0B6BBF4
S31508005260BDE81040FFF744BF10BD10B5FF2908DCA4
S31508005270DFF8844024786CB1BDE81040C9B202F06A
S31508005280D9BB7F2A08BF0022DFF87440214302FBFE
S315080052900311016010BD2DE9F0410446FF2C0D46AF
S315080052A016469846DFF85C0015DCDFF84C100978DE
S315080052B0B1B1DFF85470397811B1BF2101F088FD1A
S315080052C00120387043462A463146E0B202F000FF14
S315080052D00020387004E0BDE8F041CA2101F078BD2D
S315080052E0BDE8F08104490978002918BF03F01AB807
S315080052F07047000068810208A57F0020B88102086F
S31508005300000008086C810208A67F002010B5DFF8A7
S3150800531000481020206301F043FDDFF8F8170A68FB
S3150800532042F001020A6001F04DFDDFF8EC0760600B
S3150800533020608A3061688931616001212163E060FB
S31508005340A060DFF8D817E0688930E06002202063A3
S315080053504FF6FF70086010BDDFF8C40745F2640118
S31508005360C1601E21416250210162C821C161816567
S31508005370F021C16545F690014166882181660621BE
S31508005380C16644F2066101604FF6FF714160DFF8BD
S315080053909407007838B1DFF8900748F26071016029
S315080053A04FF4C1514160DFF88407016841F00401F8
S315080053B001600020DFF8781748707047DFF85C074F
S315080053C0006810F0190F03D10021022003F028B954
S315080053D070472DE9F84F8146DFF85817DFF8585718
S315080053E0012003F096F900F0B3F8032003F018F94A
S315080053F08A21DFF8240701FB09F14618701C417859
S31508005400007800EB0120DFF8341709781FFA80FAD4
S31508005410DFF82C07017000EB0908002088F8020065
S315080054205FEA8A6001D5686E000640F18F80002425
S315080054300AF00700032861D10AF440600AF44041E3
S31508005440B0F5806F1CBFB1F5804F002956D00422F5
S31508005450B0F5006F08BF082203D0B0F5406F08BF4B
S315080054600E225FEA4A605CBF921CD2B2B1F5004FC9
S315080054700CBF971C02F10807FFB2781C00EBD0702E
S31508005480C0054FEA106B5FEA090014BF6868286810
S31508005490584533D3B018B1F5404F03D103F0E1F9BD
S315080054A0044612E04078B15C01EB002080B203F0BC
S315080054B071FCFF2808D0DFF88C16096831F810004F
S315080054C04FF4E661084200D00124BCB15FEA0A70D5
S315080054D014D45FEA090014BF686828680BF1010153
S315080054E0884207D2E8685FEA090114BF0221012150
S315080054F00842EED1F05D042818BF0024E86D0009C3
S3150800550000F00100844288F802001FD0002CAA6C23
S315080055104FF400604FF480610BD0B9F1000F08BF5B
S315080055200846024212D0686C40F001006864012007
S315080055300AE0B9F1000F08BF0846024206D0686CB7
S31508005540400840006864002088F80200BDE8F18F32
S31508005550A86C400800F0010170472DE9F84F804615
S31508005560DFF8D455DFF8D8655FEA08000CBF28686D
S315080055706868C1B2052905DA00F0B6F87068401CFB
S315080055807060AFE040008DF800008A2000FB08F943
S31508005590DFF884A59DF800000AEB09073844A0F156
S315080055A008042078617801EB00201FFA80FBA078B8
S315080055B06630A070307818B9DFF88005007830704A
S315080055C0307820700020307003F00EFD6070DFF830
S315080055D04C45206C20F4805020645FEA0800686E11
S315080055E002D16068400505D4B8F1010F2DD1606875
S315080055F000052AD5DFF850050178C1B100211BF452
S31508005600E45F0170DFF8446503D03168002240206A
S315080056100AE07878070907F00101292003F000F865
S31508005620316807F001028F2003F09FFF04E0FFF7BF
S315080056308FFF092002F0F4FF5FEA08000CBF4FF461
S3150800564080604FF40060606046E01BF4E45F41D17F
S3150800565000F0AAFE10B15FEA4B403BD51AF80900E4
S31508005660802837DA206C79788906464415D5696E1C
S3150800567009060CD4A96CC90609D421685FEA080290
S315080056800CBF80224FF480720840104205D0FFF705
S315080056905FFF052002F0C4FF13E000F02DFE48B1BD
S315080056A07878800606D500F042FE18B1FFF750FF5D
S315080056B0062002E0FFF74CFF092002F0B1FF0020A8
S315080056C0B070B2789DF80010384604F059F80020FA
S315080056D0B07001E000F008F8B8F1000F0CBF012027
S315080056E002202861BDE8F18FA86C400800F001018E
S315080056F0042002F095BF2DE9F84FDFF82044DFF8C3
S3150800570038642068216CDFF848B4DFF83C84DFF899
S315080057104494DFF820A401EA00053AE071B18A2230
S31508005720DFF8F413504308444078C00606D4DFF87F
S315080057301C04016800228F2003F017FF280608D5ED
S315080057400FB900F0A4F804F057F8802025F080057A
S315080057502060E80509D50FB900F099F804F04CF86F
S315080057604FF4807025F480752060680407D50FB95A
S3150800577000F086F84FF4804025F480452060280420
S3150800578007D50FB900F07CF84FF4004025F4004522
S315080057902060002D70D00027280706D50020FFF7C7
S315080057A018FE082025F008052060E80606D5012021
S315080057B0FFF70FFE102025F01005206005F06000A9
S315080057C0602803D1B06CC0050AD401E0A80605D547
S315080057D02020206025F02005002006E0680606D572
S315080057E04020206025F040050120FFF7B6FEE804BA
S315080057F004D54FF4805025F480552060E8079DD5E0
S31508005800012020606D0802F00FFF6D0060B14FF4B3
S3150800581048725146012002F01FFFB06CFFF799FE4F
S31508005820012002F0FDFE012799F8010008B100F0F9
S31508005830A3F999F80000002806D000F023FD0128F6
S3150800584007D198F8000000283FF478AF9BF80000CD
S3150800585004287FF473AFF068400800F001000028C0
S3150800586014BF7168316811B92168C904F7D50028D1
S3150800587014BF7168316851E700202060BDE8F18FD8
S31508005880B06C400800F00101072002F0C9BEB06CF8
S31508005890400800F00101082002F0C2BEDFF8B80295
S315080058A0006870470020DFF8B41201EB4002401C84
S315080058B093885B1C01EB40019380498809B9082845
S315080058C0F1D3704738B50446FFF7ECFFA34D102215
S315080058D0291D204601F074FB05F11401204604F049
S315080058E021F8FFF7DFFF05F11401281D04F01AF867
S315080058F0214605F11400BDE83840102201F060BBCE
S31508005900F8B5974D2E78044601202870300008D146
S315080059100021032001F0B2F90F2701F0CAF97F1E12
S31508005920FBD104B126702878F2BD10B58C4C2178CD
S3150800593081F00101084303D101F0F7F90020207036
S3150800594010BDF8B5FFF7BEFF0024844E00250F27CB
S3150800595001F0AFF97F1EFBD1311DC0F3801031F87D
S315080059601410A8404840311D6D1C21F81400102D54
S31508005970EDD3641C102CE9D3F1BD38B50446FEF707
S31508005980A5FC08B1FEF795FC10252046FFF7D9FFC0
S315080059906D1EFAD1714901200870FEF797FC08B10F
S315080059A0FEF787FC012032BD2DE9F0436B4F044614
S315080059B0387885B088469146012530B9FFF7A0FFAB
S315080059C005466846FFF7D9FF054000261FE016F092
S315080059D0070015D15FEA090006D00020FFF790FFFF
S315080059E005406846FFF7ADFFFFF75CFF1022391D3B
S315080059F0684601F0E5FA07F11401684603F092FFDC
S31508005A0006F007013DF8110024F81600761C4645F5
S31508005A10DDDB6846FFF756FF0020FFF786FF2846BE
S31508005A2005B0BDE8F0830022BEE70321022001F09D
S31508005A3025B94FF6FF71081A292190FBF1F03A3083
S31508005A4040B2704738B501F034F9FFF7F2FF454D1B
S31508005A5004462878B0B90321032001F00FF942481B
S31508005A60018802237F226846FFF742FB01F021F9ED
S31508005A70BDF80010401880B2FFF7DBFF15386870D4
S31508005A800120287001F051F96878201A40B232BD19
S31508005A9080B50321022001F0F1F8BDE80140D1E705
S31508005AA070B532480078002490B9FFF7F1FF204E10
S31508005AB00546707848B13078401B40B203F03BFF8A
S31508005AC00B2805DB3570012402E001203570707063
S31508005AD0204670BD26480078704725490B789842BD
S31508005AE000D1704780B5087040B12249002008608F
S31508005AF00848016821F08001016001BD00F0D4FC6E
S31508005B0000F0AAFC00F013FCBDE8024000F0F7BB69
S31508005B100020004084200040467E002000A000406F
S31508005B204C100040C8740020D0100040802000406F
S31508005B30AF7F0020BD53000820200040C774002016
S31508005B4058780020AC720020C87A0020D07A00204D
S31508005B5097740020AB7F0020382000406078002032
S31508005B60B17F0020AD7F0020B6810208987400201E
S31508005B70B27F0020541000407047000010B50D4851
S31508005B80018884B00A237F226846FFF7B1FABDF878
S31508005B9000004FF6FF74A04204D14F210FF21800FF
S31508005BA001F016F9BDF8001022460020FEF719FC90
S31508005BB01FBD00009A810208616E616C6F6775658A
S31508005BC02D66696C7465722E63000000DFF8E408C0
S31508005BD0007848B1DFF8E0080179012904BF407967
S31508005BE0042801D101207047002070470FF6741170
S31508005BF04008085C7047010644BF4FF6F83101EAD1
S31508005C00C0007047491C800189B2B0FBF1F080B230
S31508005C10FF288CBF0020C0F1FF00C0B2704738B51E
S31508005C20DFF89C08C17809B1002032BDDFF89C482E
S31508005C30617871B1E178007945182079ADB285426D
S31508005C40A8BF054603F092FE0121A940491E084057
S31508005C5000E0002061790818C0B232BD2DE9F0478E
S31508005C608146C00705D540F2A3110FF6E80001F0FA
S31508005C70AFF8DFF85C58286DC00748BF8C2000F1E4
S31508005C808780DFF83C08DFF8447800210170417806
S31508005C9051B9397841B199F80110AA6F490901F04B
S31508005CA0010142F0010203E0AA6F520800215200E6
S31508005CB0AA674171DFF800487A78A179DFF814A855
S31508005CC0DFF814889AB1002202710129286D40F084
S31508005CD00400286507D14FF6FF70C8F800004FF496
S31508005CE00070CAF80000FFF79AFF06460BE0286D19
S31508005CF0002620F004000129286504D100F084FA62
S31508005D006420FFF7FAF8A86F20F00800A8671420A7
S31508005D10E864AE64A4797E782EB1002C01BFA86C25
S31508005D2000280120A864B8790028286D14BF40F01F
S31508005D30080020F008002865FFF748FF28B1D8F8C2
S31508005D40400040F00800C8F8400020202862C5F846
S31508005D500490C5F800906868DFF880177F3068609F
S31508005D60042028624FF4E0600860DFF874170968B9
S31508005D70CAF80000286D40F00100286516B9002110
S31508005D80252002E01CB90021232002F049FC00204E
S31508005D90BDE8F087DFF84C070021416081600168A3
S31508005DA021F0020101604FF00070DFF83C1708602F
S31508005DB00120DFF8381708707047332800D270477B
S31508005DC010B5B0F5002F0CD2DFF82047002121705E
S31508005DD0FEF73DFE02E0012003F0E4FD20780028EE
S31508005DE0F9D010BD2DE9F84FDFF8ECA6DFF8D0564C
S31508005DF0DAF80000DAF84010DFF8D47608401FFA1F
S31508005E0080F8CAF800806878002840F0FA805FEACF
S31508005E10C870DFF8DC46DFF8B49651D53E68386CB2
S31508005E20796C41EA0040A86099F8000000283ED045
S31508005E30707880063BD5012028700021282002F0C2
S31508005E40EFFBFFF7C3FE00283AD01920FFF755F8F5
S31508005E50DFF8A0B64FF44040CBF82800DBF8000086
S31508005E600090E06E40F40050E066E06E40F480502A
S31508005E70E0663178A8684901B8310E18FFF70EFDBB
S31508005E80301AC0F31300FFF798FFE06E4008400091
S31508005E90E066E06EBDF800100843E0660020CBF827
S31508005EA0280048F26070E066E888206008E0002173
S31508005EB02B2002F0B5FBA9680022002003F055FB51
S31508005EC05FEA08600ED5287830B1002028700022D5
S31508005ED0A968402003F049FBDAF83C0020F480501A
S31508005EE0CAF83C005FEA48600CD5687850B9697909
S31508005EF0272002F095FBFFF7D1FC014600228920F6
S31508005F0003F033FB5FEAC86064D5DFF8AC65307927
S31508005F10012804BFB079012821D10021232002F0ED
S31508005F207FFB00F0C7FB386F40F0010038674FF081
S31508005F3000080020B071FFF7E9F90A20FEF7DDFF37
S31508005F404FF6FF70CAF8000000F02BF90920B86672
S31508005F500120B864B86F40F00800B86728E02879CF
S31508005F60401C2871C0B299F80210884225D2FFF762
S31508005F7056FE8346BBF101018941C90F242002F070
S31508005F804FFB3079012802D100F011F903E0002116
S31508005F90232002F045FBB86FDFF8381520F008001B
S31508005FA0B8671420B866C7F848B04FF400700860A0
S31508005FB0386D40F0010038650CE0687850B96979A9
S31508005FC0262002F02DFBFFF769FC014600228D20F2
S31508005FD003F0CBFA5FEA087013D5FFF7F7FD48B16F
S31508005FE02068E88001202060DAF8400020F00800E8
S31508005FF0CAF8400099F8010018B10021252002F0DE
S315080060000FFB5FEA88600ED520203862687850B9A1
S315080060106979272002F004FBFFF740FC01460022BD
S31508006020882003F0A2FA687840B118F4407F05D1B9
S3150800603000212B2002F0F4FA0120A870BDE8F18FA8
S3150800604080B500F0B4F84FF4FA70FEF756FFDFF8A3
S3150800605068040079012802D0BDE80140D4E001BDFA
S31508006060DFF8980400887047DFF85014002808689D
S3150800607014BF40F4404020F440400860704770B5B3
S3150800608082B00546FEF76EFBDFF87404DFF8344489
S31508006090DFF82464002101601521E160092101650A
S315080060A01F21416001210166DFF850040088FEF7D0
S315080060B0DCF9FFF751F903F047FF00F03BF93089A7
S315080060C000F065F9708900F06AF900F069FE616808
S315080060D041F04001616000F075FE707800F0F8F854
S315080060E0B07800F00CF9DFF81C04007800F039F9F4
S315080060F0DFF8140490F90000FEF779FB307800F019
S315080061009FF996F9030000F0A7F9DFF8000400F0FC
S31508006110C5F9BDF80000DFF8F813C0054CBF00202C
S31508006120BDF800000870DFF8EC030078FEF722FBE4
S3150800613028B140F219410FF21C4000F049FE012D2A
S3150800614008D12068C00705D500F031F800212C20B9
S3150800615002F066FA6DB92068C0070AD400F0AAFAF8
S31508006160206840F001002060C820FEF7C6FE002027
S31508006170B071F120DFF86053286440F2F910E86343
S3150800618002F052FAFFF770FFFFF7C0F82068C00761
S3150800619004D54FF6FF70286000F003F8FEF7CCFD33
S315080061A073BD4FF4E060DFF82C130860704770B5D4
S315080061B0DFF86453DFF800432E68A079012822D05F
S315080061C000F0EEFDB6B2DFF814232E604FF4E0615E
S315080061D01160DFF824130A6A520852000A620A6834
S315080061E0520852000A600A6842F002020A604A6AC5
S315080061F042F001024A620121A17100F0E3FDBDE807
S31508006200704000F035BA70BD70B5AB4CA07938B3A4
S3150800621000F050FA00F0C4FD0546DFF80013AA4E58
S3150800622001200860306D40F0010030650020A07143
S31508006230FFF76CF820203060306B40F002003063C6
S31508006240F06D40F00800F065284600F0BBFD0A2016
S31508006250FEF753FEA0494FF6FF700860FFF7A1FF4F
S3150800626070BD95488079704780B5934800790128B4
S3150800627007D1FFF79CFFBDE8044000212C2002F05F
S31508006280CFB901BD8C480079704780B5022801DB7B
S31508006290012002BD884908718979884209D010B958
S315080062A0FFF7B2FF05E0FFF782FF00212C2002F07E
S315080062B0B7F9002002BD9A480068800200149A388F
S315080062C001B211F1800FB8BF6FF07F0040B270477E
S315080062D010B5044600F064FD92490A68002C04D003
S315080062E042F012020A60012103E022F012020A605B
S315080062F00021714A517043E06F484078704738B5BD
S31508006300054600F04DFD0446FFF7E4FB40B9854815
S315080063102900016814BF41F0800121F08001016065
S31508006320654885702046BDE8324000F04BBD62489E
S31508006330807870477C494A780B787C4803EB0222C0
S3150800634002608B78CA7803EB022242600B794A799D
S3150800635003EB02228260CA79897901EB0221C160C6
S31508006360704710B5044600F01BFD6E4922000A6806
S3150800637014BF42F0200222F020020A6061490C7024
S31508006380BDE8104000F01EBD4B48008970474A49D9
S3150800639008816749086070474748408970474649F9
S315080063A048816449086070476348007870475248D6
S315080063B0816A41F0020181620121016070474E48FD
S315080063C000210160816A21F0020181625020FEF7F6
S315080063D094BD38B5594C5A4821695A4D0180E1692E
S315080063E04180E96C818000202061FFF7E0FF0120F1
S315080063F0E0610020606220624CF25D00E864286873
S3150800640040F4004028604FF40040206048F2020043
S31508006410206031BD80B5FFF7D2FF48484FF40041F0
S3150800642001600021016047490A6822F400420A60B7
S31508006430434A9388CB64118801615188C16101BDC3
S31508006440204902000A6814BF42F0020222F0020242
S315080064500A6019490870704738B504467F2C0AD176
S31508006460394800F01BF8BDF80000C00554BFBDF858
S3150800647000406FF04A0400F093FC0546FFF72AFB3C
S3150800648030B964B204F19A0080053049000C0860FE
S315080064900948C470284600F095FC31BD01880223DE
S315080064A07F226846FEF724BE034890F9030070472A
S315080064B000000000D47F00209274002040A0004015
S315080064C0C87A002080200040302000400C7400204C
S315080064D01020004000E100E004A0004080E100E058
S315080064E0A820004010E000E004ED00E0D57F002081
S315080064F064100040E410004060200040A8730020AB
S315080065005C100040D37F00209C730020D2810208D3
S31508006510A77F0020C77400201C10004028100040E8
S315080065200C10004084200040D47A002098200040B7
S315080065309420004090200040E47400201810004089
S31508006540787F0020C0100040D68102085410004011
S31508006550704700007068792D636F6D6D6F6E2E63DE
S3150800656000000000FEF7C80138B503F0F9FC6C4AD4
S315080065706C4892B2002100F066FD6B4A6B4892B2F5
S31508006580002100F060FD0120FEF700FB0020FEF769
S315080065904BFC674C206840F008002060FDF780FE41
S315080065A0FEF732FC00F022F80D8805604D8845603C
S315080065B088881060C88850600889186048895860BB
S315080065C000F056F8206820F010002060FDF723FE42
S315080065D003F01AFDFEF771FBFDF760FEBDE83140DA
S315080065E0FDF7BBBE40F2016003F010BD56495248A4
S315080065F00A78C2604B78514AD360514B8978D96082
S3150800660052497047F0B50F249D0004FA05F516683F
S31508006610284212D0002505EB830720FA07F7FF0763
S3150800662008D5AF0004FA07F731F813C0BE4307EAE6
S315080066300C073E436D1C042DEDD31660F0BDF0B576
S31508006640FF25DE00B540146828420FD0002505EB6B
S31508006650C30620FA06F7FE0705D50126AE40CF5C2D
S31508006660B4433E4034436D1C082DF0D31460F0BD8E
S315080066702DE9F84300210A2001F0D2FF01F0E5FFD9
S31508006680334C2068A0B100262A4FDFF8AC9000F002
S315080066902FF8761C032EFAD3DFF8A88000260027E9
S315080066A000F034F800F02CF8761C7F1C032FF7D383
S315080066B0BDE8F1832DE9F84301F0CAFF244C2068B0
S315080066C0A0B10026204FDFF8709000F011F8761C74
S315080066D0032EFAD3DFF874800026002700F016F898
S315080066E000F00EF8761C7F1C032FF7D3BDE8F18364
S315080066F009EB462000F10C022068334639469EE72E
S31508006700761C2068F3B22A1D41467BE709EB47252C
S315080067102068F3B22A46414674E70320FEF7E2BD35
S315080067209012000098000020000000000000000001
S3150800673000BC00402473002000B0004000B20040B6
S3150800674000B400401873002014730020087300205A
S315080067509075002010B503F043FC044603F044FC92
S31508006760C0B208B9012C07D1072C11D8DFE804F00C
S3150800677004100608080A0C0E002010BD092010BDDA
S31508006780022010BD032010BD0B2010BD062010BD31
S3150800679044F0800010BD00002A490A6852085200D9
S315080067A00A600A68104308604FF4004126480160F1
S315080067B0002101606420FEF7A0BB2DE9F047234DB8
S315080067C0204FD5F80090224C8046286840F40040B7
S315080067D02860386820F480503860207868B162787C
S315080067E01C48A17800EB820200EB880012F82A2CDC
S315080067F010F82A0C891A461802E001202026207073
S31508006800B0B2FFF7C9FF0FF2500A02E0B0B2FFF7C5
S31508006810C3FF386B042805D0386B400754BF761E73
S31508006820761CF3E7F86A38B184F80180A6701FFA77
S3150800683089F02860BDE8F0874FF49071504600F063
S31508006840C7FAE6E7D0100040181000401C100040B8
S31508006850D07F00202C490008616E616C6F677565F2
S315080068602D76636F2E63000081014FF4FE5289B2C4
S315080068700C20FDF7B6BD2DE9F84F8B4CDFF82CB28E
S31508006880A56820681FFA80FA00F04FFA0127B020A1
S31508006890ADB200264FF00A08B946206308E016F1A3
S315080068A0190FB8BF4FF00A08464436B27019A060EF
S315080068B0DBF80000000702D559EA070028D00120B6
S315080068C0FEF71BFBB9F1000F11D0AAF103008742AE
S315080068D002DAFF1CBFB213E00AF500402060062169
S315080068E0092000F0CBF957464FF000090BE0DBF81A
S315080068F00000000707D5042FA6BFFF1EBFB200275A
S3150800690007F5004020601A2EC9DB6FF00908CBE7AF
S31508006910A560C4F800A00820CBF800006448006809
S3150800692080B2BDE8F28F80B55E4B62491B784FF0A6
S31508006930FF326BB1002819BF4A605F48486041F2D0
S31508006940111008605D4841880088BDE8044092E758
S31508006950002819BF4A600A604860086000F0E5F937
S31508006960BDE804400621092000F0D9B938B5012050
S31508006970FFF7D9FF04460020FFF7D5FF054601209B
S31508006980FFF7D1FF4042001B00EB450000B232BDC5
S315080069902DE9F04F4A4C4B4D424F83B0A06AADF8F3
S315080069A002004FF000082068ADF80000D5F800B0E6
S315080069B0387858B14FF6FF7200210820FDF70AFD16
S315080069C08046C022C0210820FDF70BFD3E48DFF8AF
S315080069D0FC90007818B148F26070C9F80000788811
S315080069E0364E40F4404040F04C00C9F83C000220C6
S315080069F0A0620120206040F24C40FEF77EFA01209A
S31508006A00E86028600020308040207080387800B127
S31508006A102020FFF729FFFFF7A9FF82464020308094
S31508006A207F207080FFF720FFFFF7A0FF00F050F8E7
S31508006A30FE2148430190AAEB060A387848B1304649
S31508006A4002F079FF00F044F8019980B201EB861153
S31508006A5003E000F03EF8019980B2B1FBF0F080B295
S31508006A60401CC6031FFA8BF028600020E86002204D
S31508006A702060BDF800002060BDF80200A06200207A
S31508006A80C9F83C00387828B14FF6FF72414608200D
S31508006A90FDF7A7FC40F24C40FEF72FFA300CBDE894
S31508006AA0FE8F00008E740020C010004018A0004021
S31508006AB00070004038100040EEEEFFFF747F0020A3
S31508006AC06020004028100040C8740020D010004004
S31508006AD00646504602F02FBF41003F2289B201E028
S31508006AE001463F220220FDF77CBC2DE9F04F564CAB
S31508006AF0564D95B0E06CADF810004FF6FF7820685B
S31508006B00ADF80E004246E86AADF80C0000210120F7
S31508006B10FDF760FCADF80A00424600210B20FDF7A0
S31508006B2059FCADF8080000264FF4004020600DF12E
S31508006B30140B00202861686148F2020000F088F80A
S31508006B404CF68C30E0644FF4805248F2F000E8626C
S31508006B5011460120FDF745FC424600210B20FDF7B2
S31508006B6040FC0621062000F0DAF8019000F082F8D1
S31508006B7000904CF69C30E0640020FFF7ADFF06213C
S31508006B80062000F07BF8B0B2FFF7A6FF0621062024
S31508006B9000F074F800F08DF82BF81600761C202EFD
S31508006BA0F1DB00F086F81020FFF796FF00F062F898
S31508006BB00099019A401ABBF820108E1A404306FB2A
S31508006BC006094FF0100A112700F04EF800F052F8A7
S31508006BD000F043F805DB1FFA87FA7F1C202F814651
S31508006BE0F2DBBAF1100F0ED10F2700F03DF800F0D6
S31508006BF041F800F032F806DB1FFA87FA7F1E3FB22B
S31508006C00002F8146F1D5BDF81000E0644246BDF874
S31508006C100E002060BDF80C00E8620120BDF80A10DD
S31508006C20FDF7DFFBBDF8081042460B20FDF7D9FB40
S31508006C3001202861002000F00BF84FEA4A00C0B294
S31508006C4015B0BDE8F08F0000C010004018100040D5
S31508006C50286040F24C40FEF750B90099401A40436C
S31508006C6006FB0600484570473BF817000199461A87
S31508006C70B8B231E70621072000F051B870B50546CD
S31508006C800E4603F01BFA3F4C206C20F008002064E7
S31508006C9003F016FA00F084F8E90141F001013A4AD6
S31508006CA041EA0631116008212160BDE8704000F014
S31508006CB089B82DE9F041354C354D324E25E003F0C3
S31508006CC0FDF9344904200860306C40F0080030644F
S31508006CD02F68286840084000286000F06BF8D4F850
S31508006CE00080206820F04000206000F05FF8C4F8BB
S31508006CF000802F6000F05EF8306C274920F008000D
S31508006D0030640420086003F0DBF930680007D6D544
S31508006D10082030602148006880B2BDE8F08180B55F
S31508006D20FFF7ACFFBDE80140C3E71748016849080B
S31508006D30490001607047F8B50746FEF79EF8044615
S31508006D4039460320FFF7EBFF054639460120FFF7D2
S31508006D50E6FF0646FDF73DFB39460020FFF7DFFF55
S31508006D600746FDF735FB08480168490849000160F0
S31508006D70781B0004711BB0FBF1F060434000000C67
S31508006D80F2BD000018A000400470004000800040DA
S31508006D9094ED00E000E100E080E200E000700040D1
S31508006DA0EFF31180602181F31188704700BF30BF6F
S31508006DB000BF7047BFF35F8FBFF34F8FBFF36F8F6F
S31508006DC07047000080F311887047000042DE704764
S31508006DD038B504460D46FDF76CFAFFF7E1FF29467C
S31508006DE0204603F094F92B4622466B49012003F00E
S31508006DF0CCFC29462046BDE83440E7E767482DE93C
S31508006E00F047674D01682E1D4FF420687165016AC9
S31508006E10B16564490968F165416A3166816A7166D6
S31508006E20C16AB166016BF166806B306796F834000B
S31508006E3040074CBFF46BB46B03F01EF90022F264F2
S31508006E408442594A014624BFA2F1200AA245274690
S31508006E50316505F18C03DFF854C1DFF854E118D326
S31508006E60A0693064E4697464746DC4F30804062C7C
S31508006E7013D1704511D360450FD200884DF6426490
S31508006E80A0420AD13068586040F20178706898606C
S31508006E9003E000273764776407464648814202D2F2
S31508006EA0014600E0091D0846904203D20C68B4F179
S31508006EB0CD3FF7D04049081AB0640021002005EB01
S31508006EC08004401C0628A167F9D3002003E0C0B25D
S31508006ED005EB8004A167974222D252F8041D71453A
S31508006EE0F9D36145F7D2CC07F5D5002405EB84091B
S31508006EF0D9F87890894502D0641C062CF6D3062C5E
S31508006F00E9D1002814BF401E0520E0E7716F002470
S31508006F1005EB8402641CD76F9767052CF8D31960B4
S31508006F200146481EC9B20029F0D1706DC0F30800A9
S31508006F3002280AD0032815D0042816D0052817D009
S31508006F40062818D00C281CD01EE01C4801688907A2
S31508006F5048BF40F602181CD40068C00719D540F28D
S31508006F60025816E040F6012813E040F6022810E021
S31508006F7040F603280DE0B8F5206F0AD140F604283C
S31508006F8007E040F6052804E018B1242838BF40F683
S31508006F9007284046BDE8F087247C020804ED00E097
S31508006FA00000002000E300E058720020227C02085E
S31508006FB09041000898000020587200201CA000404C
S31508006FC0814233D210441144401E491E10E011F884
S31508006FD0013900F80139121F11F8013900F8013991
S31508006FE011F8013900F8013911F8013900F80139A9
S31508006FF092B2042AEBDA93B2002B1EBF11F80139BC
S3150800700000F80139521EF6D1704711F8013B00F815
S31508007010013B121F11F8013B00F8013B11F8013B37
S3150800702000F8013B11F8013B00F8013B92B2042A33
S31508007030EBDA93B2002B1EBF11F8013B00F8013BB7
S31508007040521EF6D17047130003D00A46194603F0BC
S315080070502BBC704710B500E0521E93B223B100F066
S3150800706012F8F9D0181B10BD002010BD10B500E0AD
S31508007070521E93B22BB100F006F8F9D0181B40B295
S3150800708010BD002010BD10F8013B11F8014BA342BA
S31508007090704700004148018A40F6A772914202BF34
S315080070A0408A4FF47F41084203D1022801DB0120C0
S315080070B07047002070472DE9F84F82468846384DBC
S315080070C0DFF8D4B0FFF76CFE2F680446286840083E
S315080070D040002860FFF76EFE01208BF80000FFF7DE
S315080070E0D9FF28B940F207110FF2B800FFF770FE72
S315080070F02A48D0F8289041464AF48070C847064680
S315080071002F60FFF757FE2046FFF75CFE00208BF83E
S3150800711000000FF298040EB1A05D04E041464AF45F
S315080071200070C847205CBDE8F28F2DE9F84F80460D
S3150800713089464FEA420A1A4EFFF732FE3768054675
S315080071403068400840003060FFF734FEFFF7A2FFC2
S3150800715028B94FF4A6710FF24C00FFF739FE0F4815
S31508007160D0F824B00023524649464046D84704463C
S315080071703760FFF71FFE2846FFF724FE0FF22C059F
S315080071800CB1285D05E05346002249464046D847DB
S31508007190285CBDE8F28F0000C27F002000000808C6
S315080071A094ED00E0666C6173682E630000020202CB
S315080071B04B4B46472DE9F84F8046DFF87C90222254
S315080071C0FF214846FFF73FFFDFF870B04FF4A37280
S315080071D0FF215846FFF737FF22250024184EDFF80F
S315080071E064A01AF804001849375D095D401C00EBD5
S315080071F0D070401001B11930C01C00FB07F21348CB
S3150800720030F81410124803F086FB012F1CBF2BF828
S3150800721014507D19641C222CE3DB0E4822234FF4FC
S31508007220805240F2126103F076FB49464046BDE8BB
S31508007230F44F00F017BB00BFDC77002094760020DF
S315080072407C7E0208587E0208347E0208F07D020819
S31508007250747D0208907D020810B5DFF83C4CDFF813
S315080072603C3C24881B68001B03EB4000002304E019
S3150800727030F8134021F813405B1C9342F8DB0020DA
S3150800728010BDDFF8142CDFF8141C12880968801A60
S3150800729001EB40010220FFF70EBFF8B504460F4682
S315080072A01546DFF8F86BE8B2E8B14FF6FF70ADF8AF
S315080072B00000002017F8011B0DF80010401C6D1E79
S315080072C0C0B2022802DAE9B20029F3D1DFF8C83BD6
S315080072D030681B88A4B2E31A00F0F4FE641C0100AF
S315080072E0E1D000F0ECBB0120F2BD70B582B00446D7
S315080072F00D461646F0B278B100F00FF8641C00206F
S315080073001DF8001005F8011B401C761EC0B20228A5
S31508007310F0DAF1B20029F3D173BD01226946A0B2B1
S315080073209AE7DFF87C1BDFF87C2B095C125CDFF838
S31508007330DC3C185C10B102F5997292B241EAC210AF
S3150800734080B27047DFF8583BDFF8C42C1B5C012B72
S315080073501CBF32F81000081802EB4000704730B521
S3150800736091B004460D4604E0401C80B2202809DB93
S315080073702034A1B28D420ED32022FFF7CFFF002082
S315080073804FF6FF723DF810109142EDD0A0B2FFF70C
S3150800739078FF203CECE711B030BD10B50446618893
S315080073A02088FFF7DCFF0120A071DFF8681C208821
S315080073B009780818DFF8FC1C098800EB4100801DD5
S315080073C0A08010BD10B5DFF8504C00F088F800F02A
S315080073D051F900F04CF904F10801DFF8DC0C816082
S315080073E0446004F11001C16010BD2DE9F04301F0BD
S315080073F01CF885B00578A846B8F1070F03DB40F2FC
S31508007400D32100F013FB0020A0716A1C208892B2D9
S3150800741001A9FFF721FFBDF804004FF6FF76B04239
S3150800742018BF002856D00DF10409301A39F818107B
S3150800743081424FD1012704E0BDF80410884249D1A2
S315080074407F1C474514DA39F817000100F4D1DFF834
S315080074506C1C0A88208807FB02214118711807FB53
S31508007460020089B280B2FFF77AFF0220A071E7E72F
S31508007470A079022830D020882818C01C00F0D0FF38
S31508007480BDF80000000B404524D120882818401D6F
S3150800749000F0C6FFBDF80010BDF80000711A000A1A
S315080074A001F0FF01884215D10320A071012220882E
S315080074B02818401C0DF1020180B2FFF7CDFEBDF879
S315080074C00200FF2802D10420A07105E0B04218BFCF
S315080074D0002801D000F003F805B0BDE8F083204687
S315080074E05BE770B5DFF8304BDFF8CC5BDFF8AC69EB
S315080074F00020A071A073A07582B004F10800A860EE
S315080075006C6004F11000E8602046FFF76EFF04F196
S315080075100800FFF76AFF04F11000FFF766FFA1797C
S31508007520A07B042908D100210428ADF800102ED12B
S31508007530FFF748FF012076BDA17D042813D100205E
S315080075400429ADF80000F3D0FFF7C9FF00F08FF863
S315080075503068DFF8C06A238900F08FF8060028D162
S315080075600320A07336E004292BD10020ADF80000D3
S31508007570FFF7B5FF00F07EF83068DFF8986A238ACF
S3150800758000F07BF8060014D10320A07519E0A07D51
S315080075900428CDD000F06EF800F069F83068DFF8FE
S315080075A0746A238800F069F8060002D10320A071E6
S315080075B00AE0304603F02BFA1EB140F2C73100F05C
S315080075C035FAA079032805D1A07B012804BFA07D40
S315080075D0012843D0A079032801BFA17B0329A17DF7
S315080075E001293BD0022801BFA17B0329A17D0129DE
S315080075F00DD0012801BFA17B0329A17D012906D051
S31508007600012801BFA17B0329A17D032904D104F127
S31508007610080004F1100125E0012801BFA17B022919
S31508007620A17D03290DD0012801BFA17B0129A17DD8
S31508007630032906D0032801BFA17B0129A17D0329BF
S3150800764004D104F11000214608340BE0032801BFD9
S31508007650A07B0128A07D02287FF46AAF204604F1AA
S31508007660080110346860EC60A960002076BD04F15A
S31508007670100092E604F108008FE63678F318DFF872
S31508007680186836885B1C9B1B0122694600EB430081
S31508007690FFF74BBD2DE9F04F00F0C7FEDFF8209A43
S315080076A00078DFF87CAC85B00D46ADF80C000122F9
S315080076B02088BDF80C100818461D0DF10201B0B25D
S315080076C0FFF7CAFDBDF80200000AADF80200761CF5
S315080076D0DFF8E009B0F80080BDF8020040451CBF9D
S315080076E00120287000271BE0401CC1B2414515D275
S315080076F0C0B283463AF81B10BDF80A209142F3D16E
S31508007700FFF70FFE4FF680710840BDF808104FF6D8
S3150800771080721140884208BF09F80B707F1CBFB2FF
S31508007720BDF80200874207DA022202A9B0B2FFF7C3
S3150800773093FDB61C0020D8E7002101E0491C89B258
S31508007740414509DA19F801008842F7D00120287066
S3150800775002E022F8176006466088C01EB6B2B0423C
S315080077604FF6FF7A6BDB012269463046FFF774FD58
S31508007770BDF80000FF27504561D0701C01220DF1AD
S31508007780060180B2FFF768FDBDF80010BDF80600D7
S31508007790AAEB0101884261D1BDF80010BDF80000CE
S315080077A001F07F0ABDF80210F61C000A884255DA75
S315080077B0002100E0491C414504DA19F801208242FB
S315080077C0F8D1CFB22388BDF80CC0634403EB400060
S315080077D0801D00F066FDBDF804006188C0F3C7107F
S315080077E0401C00EBD07006EB600082B2914235D3A4
S315080077F0FF2FB0D0DFF8B81CC95DBAF17F0F0CBFF8
S31508007800002252468A4208DABDF80020DFF8FC3723
S31508007810DB5D1206D20F9A4202D0012129709AE73F
S315080078200129DFF8902C94D0BAF17F0F32F817109F
S3150800783008BF4FF0000A514422F811608BE7A68072
S315080078406088B1B288420BD301226946B0B2FFF70D
S3150800785003FDBDF80000761C5045F1D001202870C4
S3150800786000F016BDF8B58DF80000DFF8E41BDFF868
S315080078702806DFF8A0370288DFF89C07DFF83848C3
S31508007880028009884180DFF82C181E780D88DFF8F9
S31508007890C43BB21802EB4502921D82800022827117
S315080078A0DFF8142C12880281B21802EB4502921DE9
S315080078B01B888281438100228273DFF8003CDFF84F
S315080078C0002C12880282B21802EB4501891D1B881A
S315080078D0818243820021817503F0EAF800284DD1A0
S315080078E0FFF7FFFD9DF8001008438DF80000012200
S315080078F0606800883018801CA11C80B2FFF7ACFCB9
S315080079009DF8000000283CD16068DFF804776946D6
S31508007910FFF7C0FEDFF8AC0B0688A068817903295B
S3150800792021D16946FFF7B6FE6168DFF8842B00208F
S315080079300FE0A84202DA135C012B09D137F81030A0
S31508007940B1F800E0734524BFB1F802C09C450AD2DD
S31508007950401CB042EDDB02208871A1686068616056
S31508007960E168A160E06000204FF6FF7200E0401C6D
S31508007970B04206DA37F810109142F8D101208DF896
S315080079800000607828B101208DF8000000206070A2
S3150800799002E09DF80000B8B14D2003F038F8608881
S315080079A0401C6080E068FFF7F8FC9DF8000000F0D6
S315080079B053F838B100F087F820B19DF8000000F0C0
S315080079C073FA08B90120F2BD0020F2BDF8B50D46DC
S315080079D0DFF8E016098817467F2F08BF00278D4273
S315080079E03EBFDFF8BC14495D8F4204461E4605D2E9
S315080079F0DFF8B014495D8E4200D11CB940F25361DC
S31508007A0000F014F839462846FFF79CFCDFF8481AB8
S31508007A100088495D29B10146284600F067FC2060C8
S31508007A20F1BD32462146BDE8F8405EE40FF6C820AF
S31508007A30FFF7CEB910B5044608461146FFF782FC93
S31508007A40DFF85424DFF8801A008812880968801A3B
S31508007A5001EB4000206010BDF8B5DFF85C16DFF8D2
S31508007A603C44DFF8BC58002814BFC8688868DFF8AB
S31508007A70A415008809780818861DB6B2002702E002
S31508007A80B61CB6B27F1C00F0BEFA874215DAF8B209
S31508007A90FFF747FCADF80000022235F81700DFF8BB
S31508007AA02C3AB3F800C0ADF80200A6EB0C03206828
S31508007AB000F009FB0100E3D001E00120F2BD02F06D
S31508007AC0A6FF0020F2BD2DE9FF47DFF8E805DFF83D
S31508007AD0441500880978DFF8C483ADF80A00002544
S31508007AE0DFF8D405C06800880818BDF80A1000EB4E
S31508007AF04100861DB6B200E06D1CBDF80A0085423D
S31508007B0080F2B780DFF80405405D8DF808004FF075
S31508007B10000A6BE0ADF802004FF6FF70BDF80210E0
S31508007B20401AADF806004FF6FF72DB480488D8F80D
S31508007B300000311B00EB4100BDF80010761C914295
S31508007B40B6B218D100F0AEF801001ED100F0A3F8C5
S31508007B5000F0BAFA010018D1B61CB6B2D1483E8078
S31508007B60425DDFF86C0950F825103046FFF795FBA3
S31508007B70002834D186E0CB49495D491C01EBD17117
S31508007B804FEAC15900F08EF8010078D100F083F869
S31508007B9000F09AFA010072D1B61CB6B23E809DF882
S31508007BA00800002844D000200390DFF80C05007870
S31508007BB028B103AA6946A8B202F07EFF05E0BDF81F
S31508007BC00010E8B200F092FB0390331BD8F80000CF
S31508007BD04FEA196203A900F077FA01004FD1DFF8DE
S31508007BE0F408405D8619B6B20AF1010AAC48445D4C
S31508007BF05FFA8AF0A042BFF47FAF5FFA8AF1E8B273
S31508007C00FFF7A0FB07463888ADF800009DF8080086
S31508007C10C00140EA0520ADF80200012CBDF80200BB
S31508007C200EBF40F07F005FFA8AFA4AEA000071E761
S31508007C3000270EE000F029F8FFF70EFBD8F8000041
S31508007C40BB191B1B012201A900F03EFA010016D13F
S31508007C507F1CFFB2B7EB196FC1DADFF85C04007856
S31508007C600028BDF80000E5D000F00FF802F022FF6A
S31508007C70E4E7DFF84404C0688680012002E002F0E9
S31508007C80C6FE002004B0BDE8F087411CADF8001020
S31508007C90012201A97047D8F80000331B01220DF113
S31508007CA00601704701220DF10201FFF73EBA2DE9E0
S31508007CB0F64F8046DFF82038DFF818081B680C26D0
S31508007CC085B0415CDFF814080288500892FBF6F686
S31508007CD03618B3424FF00009019128BF481808D258
S31508007CE0182692FBF6F2801A834203D301EB510061
S31508007CF080B201900026DFF8C07300E0761C00F021
S31508007D0082F9864280F2B580002447E001220DF10F
S31508007D1002011FFA8BF0FFF79FFABB68DFF878C1FC
S31508007D2000F0B5F8BCF800C00068EB18A3EB0C032C
S31508007D3001220DF1020100F0C7F901000BF1010B58
S31508007D4019D16D1C0498EDB28542DFDBBDF8001031
S31508007D50BB684FF6FF70401AADF8020001224E4884
S31508007D60058800F094F800689B1E5B1B0DF1020164
S31508007D7000F0AAF9010074D1BB6800F088F8006821
S31508007D80DB1E5B1B00F09EF901006AD1B868039AF6
S31508007D9081881180818851448180641C4048855DB2
S31508007DA0E0B2A842AAD2E1B2F0B2FFF7CBFA03904A
S31508007DB0B0F800B03B48805D401C00EBD070C005B1
S31508007DC0000E0490BDF81400864202BF9DF81810F4
S31508007DD0E0B28842E1D078680288934524BF40889B
S31508007DE05845DAD301981FFA88F880454DDADFF846
S31508007DF0E40610F806A0B868828841885244D21C66
S31508007E00914203DA0120787045202AE07F49895D8E
S31508007E10CA0142EA0622ADF80020012DBDF800206D
S31508007E200EBF42F07F02E4B22243ADF80020D044F0
S31508007E308288D21C4FF001098280C1B15946F0B23E
S31508007E4000F054FA029002A9BB68134D00F01FF81F
S31508007E502D880068049A5B1B00F036F901003FF490
S31508007E6075AF02F0D4FD002007B0BDE8F08F0025FD
S31508007E7068E7B9F1000F08D1796802208871B968F6
S31508007E8078687960F968B960F8600120ECE703481A
S31508007E909B88704700000000DE8102088873002076
S31508007EA07C7E0208587E02082DE9FE4F5FEA00082C
S31508007EB0814DDFF8146614BFE868A8680122B0F897
S31508007EC0009000F0A0F8C0F1FF0101F0FF0141EABF
S31508007ED00020ADF802000DF102014E4890F800B0FE
S31508007EE0DFF8E805048830680BEB09077B1D1B1BC8
S31508007EF000F0EAF801005CD140F6227040EA0B3047
S31508007F00ADF80200FB1C30681B1B01220DF10201B3
S31508007F1000F0DAF801004CD13068BB1C1B1B0122AB
S31508007F20A91C00EB4300FFF700F9010041D1781CBA
S31508007F30001B400001904FF6FE7A5FEA08000AD05F
S31508007F40FF20ADF8020001223068019B00F066F8B8
S31508007F5001002ED109E06868008801226946FFF70A
S31508007F607BF9BDF80000012802D1ADF800A002E0B7
S31508007F70401EADF800004FF6FF70BDF80010401A1D
S31508007F80ADF808003B1B3068012202A900F09CF8F6
S31508007F9001000ED1BBF1000FABF101030ED01FFAA1
S31508007FA083FB30680BEB09031B1B00F08BF8010001
S31508007FB0F0D002F02CFD0020BDE8FE8FB8F1000FCE
S31508007FC01CD0E968032088716868FFF7E6F9A86895
S31508007FD0FFF7E3F9EA686868A968019BAA60A860E0
S31508007FE06960E8606A600020ADF80200E960012275
S31508007FF0306800F013F80100DBD102E0A96803201D
S3150800800088710120D8E72B4800887047347E02081B
S3150800801094760020FD810208247400200DF10201E7
S315080080201818FFF782B8F8B50446DFF8A80482B036
S31508008030455CA088134662882E18F61CB24204DAFC
S315080080401D4901204870452030E0C01CDFF8902407
S31508008050A08080B2525C1946FFF71FF948B3DFF8D3
S315080080606C04DFF864740688A3883868DB1E9B1BDB
S31508008070012202A900F028F8010017D1BDF808105E
S315080080804FF6FF70401AADF800000122A388386841
S315080080909B1E9B1B00F017F8010007D10899A088C2
S315080080A00880A0882818A0800120FEBD02F0AFFC39
S315080080B00020FEBDEA8102087C7A0020DC810208E5
S315080080C0DC7700200122694600EB4300FFF72DB854
S315080080D02DE9F84F84B0044688469146FCF7E9F83E
S315080080E0FFF791FFADF806000127B9F17F0F08BF2A
S315080080F04FF0000984423EBFDFF8B413095D894595
S3150800810009D2DFF8DC139DF81000095D884202D118
S31508008110B8F1000F03D140F6C401FFF787FC4946C2
S315080081202046FFF70FF901250646DFF8B8038179DF
S31508008130B6F800A002291FBF817B0229807D02288C
S3150800814002D1432002F063FCC348005D80B3514668
S31508008150204600F0CBF8D8F80010814256D0AAF194
S31508008160030000F09EF8DFF88053DFF8683368688C
S3150800817042881B5D8188D21ED21A8A4207DB31B13A
S31508008180A9680A889245A4BF4988514575DBE868FD
S315080081908079D5F808A0022839D1442002F037FCA6
S315080081A0E8688079012832D0452002F030FC55E095
S315080081B09DF8100002904FF0000B22E00BEBDB70ED
S315080081C00AEB600000F02CF908EB0B0018F80B100E
S315080081D0407801EB00200299491E8B4580B207D1F1
S315080081E0BDF8001001F0FF0100F0FF00ADF8001027
S315080081F0BDF8001088420BF1020018BF00255FFA8F
S3150800820080FB02988345D9DB002DA8D040E0A868FA
S315080082108179012914D10020FFF71EFC002837D0E8
S315080082200020FFF741FE002832D0B048BDF80630DE
S31508008230007800EB4300C01D4A46214680B204E0A0
S31508008240032911D14A4621460020FFF730FD28B1FF
S3150800825000F021F85046FFF7E6FEC8B93846471E33
S31508008260C0B2002812D113E002290CBF40F6B311A0
S3150800827040F6B511FFF7DAFB0AE000F00CF8FFF755
S31508008280D2FE28B93846471EC0B200287FF447AF49
S3150800829005B0BDE8F08F00964246BDF80430214689
S315080082A07047012201A980B2FEF7D6BF70B582B029
S315080082B0044600251926FFF730F8BDF80000641CAF
S315080082C030B14FF47F41401A07D0FF3803D006E09B
S315080082D0AD1C761EEFD168B276BD6D1CFBE7BDF806
S315080082E00000C0B200B96D1CED43F4E738B50C4682
S315080082F0002100917A490D5C2A4669462046FEF718
S31508008300F4FF681C00EBD07004EB600080B2FFF746
S31508008310CDFF002848BFC043009940B2401832BD7F
S31508008320F07D0208F0B5724909880446614883B0B1
S31508008330254630F815608C4202D24748405D18B988
S3150800834040F66A21FFF772FB6548455D681C00EB3D
S31508008350D07006EB6007B8B2FFF7A8FF322815D22F
S31508008360BFB2C10707EB6000584F574B3F881B68E1
S315080083704CBF00214FF47F41ADF80410C01B012209
S3150800838001A903EB4000FEF7D0FE60B13146204656
S31508008390FFF7ACFF00902B46401C00907F226946F1
S315080083A02046FFF795FEF7BD70B500F03EF8067853
S315080083B082B0354629464D1E2088022922DBEDB2B9
S315080083C0281800F02DF8BDF800000028F2D0494919
S315080083D02088098805FB010080B2FEF752FF0020BD
S315080083E0ADF80000012238482388384C00682488F4
S315080083F0EB181B1BFFF767FE010018BF02F007FB0F
S31508008400284676BDFEF73DFF0120A0713849208831
S315080084100988301800EB4100801DA080E8B276BDBF
S315080084200122694680B2FEF717BF04462F487047F7
S315080084302C488179022908D0817B022908BF083097
S3150800844003D0817D022901D11030ADE700207047A5
S31508008450E0810208E4810208347E020870B5FFF75D
S31508008460E4FF067882B000250CE02088F6B23018C2
S31508008470FFF7D6FFBDF8000000281EBF4FF6FF71B4
S3150800848088426D1C3046461E0028EED1E8B276BDFD
S3150800849014488179022908D0817B022908BF08304F
S315080084A003D0817D022901D11030D7E7002070471B
S315080084B07C7E020894760020E2810208E8810208A0
S315080084C0E6810208EC81020888730020DE81020832
S315080084D0E0800208C47D0208C07D0208DA8102082D
S315080084E0587E0208247400207C7A0020FD81020848
S315080084F0EA810208DC81020873696D2D6565707270
S315080085006F6D322D696E7465726E616C2E63000034
S3150800851010B50446E0060BD502F007FC000607D5A1
S315080085203B480079C00703D5FDF78AFD44F48074FB
S31508008530200648BF012002D4600602D50020FDF7B8
S31508008540CCFAA00748BF012002D4E00702D50020D4
S31508008550FDF78AFD600706D5A0064CBF232022201A
S31508008560012100F076FE200704D5A00654BF24207A
S31508008570252005E0E00508D5A0064CBF27202620C3
S31508008580BDE81040012100F064BE10BD10B50468B6
S315080085901A4214BF214324EA0101016010BD1D4A95
S315080085A01268002914BF104322EA000002E01948A5
S315080085B00068704770B5184E0446307882B00125B9
S315080085C028B9164802F07EFA02F07AFC357002F0F5
S315080085D0ACFB009034F4864001D0022076BD4FF4FF
S315080085E00073224680216846FFF7D0FF4FF4804388
S315080085F022464FF400716846FFF7C8FF009802F05C
S315080086007CFB10B1034804600025284676BD0000AF
S315080086101875002058720020967F002011850008E2
S3150800862000207047012070470020704701207047DE
S315080086300020704780B502F078FB400A00F0010080
S3150800864002BD01464FF48040A9E7002002F0B8BAFF
S31508008650012002F0B5BA00002DE9F84305460E469A
S315080086603000144605D1FDF719F92018C0F3130098
S315080086704DE02F46022F0FF23C1803DB40214046FF
S31508008680FEF7A6FB102C05D22846B047BDE8F143F5
S31508008690FDF704B9DFF8109159F8270018B14821F9
S315080086A04046FEF795FBB4F5002F03D34921404613
S315080086B0FEF78EFB49F827603C4F3D4E95B9FEF70D
S315080086C06FFB0546FDF7EAF82418A0B27860200C7F
S315080086D03860022030602846FEF774FB306C40F0A4
S315080086E0020011E0FEF75CFB0546FDF7D7F82418F3
S315080086F0A0B2F860200CB860042030602846FEF767
S3150800870061FB306C40F004003064C4F31300BDE82C
S31508008710F28370B504462646022E0D4604DB6C210C
S315080087200FF29000FEF754FBFEF73AFB1E4951F88C
S315080087302620AA4210D1002241F82620002C1C49E6
S315080087400A6C04D122F002020A64022203E022F033
S3150800875004020A6404220A60BDE87040FEF732BBD0
S3150800876070B5134C104E2068216C01EA0005ADB2B5
S31508008770A80709D5206C20F002002064316808009B
S3150800878002D000203060884768070AD5206C20F0A0
S31508008790040020647168080003D00020706001207E
S315080087A08847256070BD0000307D002040200040CD
S315080087B008A0004073796D626F6C2D74696D6572DF
S315080087C02E630000DFF8A01500200870FF21DFF8EF
S315080087D09C05017001717047F8B5044602F0ACFBC0
S315080087E00546DFF88C05DFF884750688204602F012
S315080087F0ADFCB0F5006F16D1204602F0CBFC00F0B8
S31508008800C9FAFF280DD000F037FA2146381D03F0C3
S3150800881079F8DFF85405017881B10089A9190E1A8B
S3150800882010E09320F2BDFF21384603F096F805289C
S3150800883002DA21463846EAE73920F2BD0581314693
S3150800884003F0EAF8B2B20321204602F0F6FB03224F
S315080088500521204602F0FCFB204602F079FD0020A7
S31508008860F2BDF8B50446DFF804050078FF2813D0F2
S31508008870DFF8005529680E5C3746384602F07BFC5F
S31508008880014608222046FEF7E5FB08B90120F2BD9D
S315080088902868C75DB742F0D10020F2BD2DE9F8433C
S315080088A0044602F0FCFB000B00F00106204602F02D
S315080088B086FC0546204602F071FCB0F5404F14D1FF
S315080088C0002E62D02946002000F091F90446FF2CBC
S315080088D05BD0002103F026FB002856D000F0ADF946
S315080088E040F080020521204646E0284603F09CFE1B
S315080088F0054600F04FFA0446FF2C08BF002045D075
S3150800890001200021224603F0BDFEDFF86C24D2E9DF
S31508008910008948EA000349EA0107C2E90037A6B315
S31508008920DFF85864336833F814704FF4E6631F426F
S315080089302BD0BB0623D5280A8DF801008DF80050E8
S315080089406946012000F053F90546FF2D08D1306825
S3150800895030F814104FF6DF72114020F8141014E0A6
S31508008960002103F0DFFA80B10521284602F077FBE3
S3150800897040F080020521284602F06AFB05E0D2E9AC
S31508008980024520432943C2E902010120BDE8F283DA
S3150800899038B5044602F0DAFBB0F5006F0CBF0125C6
S315080089A00025204602F0E7FB04462146284600F04B
S315080089B01EF9FF2810D18DB1204603F035FE00F0D0
S315080089C0E9F9FF280AD0DFF8B413096831F810006E
S315080089D04FF4E261084201D0012032BD002032BDC9
S315080089E02DE9F04107460C4602F0B0FBDFF87C5350
S315080089F0B0F5006F0CBF281D28460078FF2846D022
S31508008A00DFF870130968085C0646B7423CD1FEF7E2
S31508008A10C7F980460521304602F021FB00F07F00A9
S31508008A20471EFAB20521304602F012FB200018BF95
S31508008A30312C01D0FFB207BBFEF7B2F90746304624
S31508008A4002F084FBB0F5006F314605D1281D02F00F
S31508008A5084FF00F0F6F802E0284602F07EFF38466A
S31508008A60FEF7B0F94046FEF7ADF92146304604F068
S31508008A70CBFD304602F07AFC04E000F0E2F840460E
S31508008A80FEF7A0F9012003E08E5D8642BDD10020E5
S31508008A90BDE8F08110B502F04FFAB34C2189208168
S31508008AA0411A88B200F0F1F84FF6FF71884202D1F8
S31508008AB00020207010BD01462046BDE8104002F097
S31508008AC0ABBF4FF6FF70E0E02DE9F84F00F089F8EC
S31508008AD008BF824200F0838001278346002480462F
S31508008AE0FEF75EF9A44A8246D2E9000100250BEAA0
S31508008AF0010207EA0006AA4208BFAE421CD0FE439E
S31508008B006FEA0B099C4A304001EA0901C2E90001F3
S31508008B100125D2E902010BEA010307EA00024345EF
S31508008B2008BF424508D0944AA846D2E90201304017
S31508008B3001EA0901C2E902015046FEF743F9002D90
S31508008B403FD08E48006830F81400810739D58C4923
S31508008B50096831F81450B8F1000F06D000F498707F
S31508008B60102808BF4FF0010A01D04FF0000A8548C7
S31508008B700078C0070AD584490968002041F824000E
S31508008B8082480068015D41F0F00101558AF0010054
S31508008B9018EA000F09D07948006830F8141041F433
S31508008BA0006120F8141003F00FFA002000902B46FD
S31508008BB01A226CA1032001F0E8FE5146284605F06A
S31508008BC0E0F94FEA4B0040EAD77B7F00641C402C53
S31508008BD005DA00F006F808BF82427FF480AFBDE8E8
S31508008BE0F18F6548D0E900230020834270472DE9BC
S31508008BF0F04188465D4900281ABF091D0225082547
S31508008C000878FF2816D05B4E31680F5C3C4600F0AA
S31508008C1014F800060AD4204602F0ADFA01462A46A0
S31508008C204046FEF717FA08B9204604E03068045DA6
S31508008C30BC42ECD1FF20BDE8F0810521204602F0B8
S31508008C400EBA70B50021202005F064FA474800796D
S31508008C50FF2810D0474C21680D5C2E46304602F09E
S31508008C6099FA00F097F8FF2801D000F005F8206877
S31508008C70865DAE42F2D170BD4049096831F81020D0
S31508008C8042F0200221F8102070472DE9F84F80465F
S31508008C900FF2FC00354E0068364F00904FF6FF7A0B
S31508008CA0344600E0341DFEF77BF8814606E0204690
S31508008CB002F03DFE2946684602F024FE204602F0F0
S31508008CC081FE40B938682178455C0321284602F0C0
S31508008CD0ABF98045EBD2301D844208BFFFF7B1FFE0
S31508008CE04846FEF76FF82078FF2819D0396811F83A
S31508008CF000904D460321284602F096F9A0EB080B92
S31508008D001FFA8BF20321284602F097F93868455D69
S31508008D1051461FFA8BFA8A4588BF8A464D45E9D1DE
S31508008D20301D8442BED1684602F04CFEA8B968469A
S31508008D3002F0FDFD044602F0BCF900F096F8FFF7D4
S31508008D407CFF000603D44221204604F05DFC204641
S31508008D5002F00CFB00F0BAF8E5E71FFA8AF0BDE866
S31508008D60F28F000042574200947C0020587400207D
S31508008D706C740020A4720020F8740020AC720020E5
S31508008D80A8720020E47D0020B0720020F87200204E
S31508008D90FF000000F8B50F4D2E68040001D1FF2032
S31508008DA0F2BDFDF7FDFF0C4F29683A7821F812400D
S31508008DB036F8021BA142FBD1FEF704F829683A7877
S31508008DC0B01E401A4010C1B2914208BFFF20C0B27F
S31508008DD0F2BD00BFA8720020AB7400202DE9F84F41
S31508008DE0DFF8EC46DFF8EC562068DFF8ECB6DFF87B
S31508008DF0EC96DFF8ECA6E861286200264FF6FF78C5
S31508008E0027E02068F6B24821714347184822002116
S31508008E103846FEF718F999F800003870A7F8028066
S31508008E20002038737873761C0B20B8730320F87308
S31508008E304FF6FE703882A7F8128000F097FD387654
S31508008E4000F094FD787600F091FDB8769BF8000066
S31508008E50F876F0B29AF800108842D2D3281DBDE8F9
S31508008E60F84F0222FF21FEF7EEB82DE9F041DFF8B0
S31508008E7074560FF29068044695F9000010F1010F38
S31508008E8003DA5D214046FDF7A3FFDFF8547639780B
S31508008E908C42264605D3FE2E03D05F214046FDF7B9
S31508008EA097FF2878DFF82C16401C287040B2084433
S31508008EB0047438788442DFF81806006828BF0E78EC
S31508008EC0482272431044C861BDE8F08110B5DFF846
S31508008ED0144694F90000002802D5702100F0A3F882
S31508008EE02078DFF8F015401E207040B2DFF8F04514
S31508008EF00A78247800284EBF10460818007CA0423D
S31508008F0038BF0246DFF8C805006848235A431044AC
S31508008F10C86110BD10B50020DFF8B81500E0401C88
S31508008F2000F07BF80AD2DFF8A835C0B21B68CA6918
S31508008F304824444323449A42F1D110BD8B2168E06A
S31508008F40DFF8A00590F9000010F1010F01D101200A
S31508008F50704700207047FE2087E7DFF8780500781D
S31508008F60704738B50446FFF7EBFFDFF8685550B988
S31508008F70DFF8700590F900002844007CFE2802D02E
S31508008F80A72100F050F8DFF8581509788C4201D36C
S31508008F90B12032BDDFF838052C70482100686143DE
S31508008FA00844E861002032BD38B5DFF83805DFF837
S31508008FB0245590F900402819007CFE2807D0FFF7B1
S31508008FC0BFFF20B9C42100F02EF8FF2032BD611E74
S31508008FD000E0491E49B2080004D46818007CFE283F
S31508008FE0F7D032BD287832BD10B50020DFF8E4147A
S31508008FF000E0401C00F011F80AD2DFF8D434C0B201
S315080090001B680A6A4824444323449A42F1D110BD96
S31508009010E32100F008F8FF2010BDDFF8C4341B7800
S31508009020C2B29A4270470FF2DC40FDF7D1BE10B5C6
S31508009030FBF7D6FBDFF89C44216A897B884203D07C
S315080090400846FBF7C5FB50B9FBF7CDFB0146206A7E
S3150800905090F90F00814204D0FBF7C9FB08B1012043
S3150800906010BD206A008AFDF792F9206A408AFDF74A
S3150800907096F9206A007B012818BF0020FDF771F9D0
S31508009080002010BDDFF8581410B509788842044648
S3150800909003D340F20711FFF7C6FFDFF84C04007848
S315080090A008B9702010BDDFF828040068482161431C
S315080090B00844DFF820140862BDE81040B7E7DFF877
S315080090C028140870704710B5DFF820440020207077
S315080090D003F064FA20B92046BDE8104002F092BCBD
S315080090E000F054F8DFF8F8130978884206D3FFF73A
S315080090F011FF044600F010F818B12046BDE81040EC
S31508009100C0E710BDDFF8CC03006A008A7047DFF8B5
S31508009110C403006A408A7047DFF8B4130968482216
S3150800912050430844407B02281CBF1128432801D11C
S315080091300120704700207047DFF894130968482219
S3150800914050430844007B01281CBF0228032801D18C
S31508009150012070470020704710B5002400E0641C09
S3150800916000F028F810D2FFF7D7FF0028F7D0D84824
S31508009170E4B20068482161430844007B012818BF0F
S315080091800228ECD1204610BDFF2010BD10B50024E2
S3150800919000E0641C00F00EF80AD2FFF7CDFF0028A5
S315080091A0F7D0E0B2FFF7B8FF0028F2D0E0B210BD62
S315080091B0FF2010BDCA490978E0B28842704770B5E9
S315080091C000240025C64E08E0FFF74FFE05F027FBF2
S315080091D000B10124FFF77AFE6D1C3178E8B28842A7
S315080091E0F2D3204670BD80B5FFF7D0FFFF2801D027
S315080091F0012002BD002002BD38B5BD4C05462068D9
S315080092000321A94088432060FFF784FE2168A8400F
S315080092100843206031BDB6490968C14001F0030022
S31508009220704738B504460D46FE20FFF71EFE294650
S31508009230204605F0A8FCBDE8314047E610B50446CF
S31508009240FE20FFF712FE204605F0C2FDBDE81040DD
S315080092503CE682B08DF80010DDE9002311461A4677
S3150800926002B005F017BE32B586B004468DF8042064
S3150800927005F014FA0546204605F01EFA80F00101AD
S315080092800D420DD0BDF8180005F0EAFA8DF8000079
S31508009290FF2804BF00208DF80000CDF808D01AE09A
S315080092A0294308BF06A815D0054214D0BDF81800F2
S315080092B005F0D6FA8DF80000FF2804BF00208DF8C7
S315080092C000009DF800008DF80C00BDF81800ADF8F8
S315080092D00E0003A80290FE20FFF7C7FDDDE9010195
S315080092E00A460146204605F0D5FDFFF7EFFD07B013
S315080092F030BDF8B57A4E774D044630786870002749
S315080093000DE0FFF7B2FDE8694169FFB244F837108E
S3150800931004EBC701C07E08717F1CFFF7D7FD3178C3
S31508009320F8B28842EDD3F1BDF8B504460025694E7A
S315080093300DE02846FFF799FDF06954F837104161AA
S315080093406D1C04EBC7010979C176FFF7BFFD6449B7
S31508009350707809788142EDB238BF08462F468742B1
S31508009360E7DBF1BD38B5FFF7D5FD5D4A594B1278F5
S31508009370002100E0491CCCB294420ED29C78C9B2B6
S315080093800C1994FBF2F502FB1544E4B21C4425794A
S31508009390854202D0FF2DEDD1207131BD70B54D4CFF
S315080093A04F4EA0783178204405798D4203D340F298
S315080093B02A21FFF738FEA0782218FF211171401CD8
S315080093C0317890FBF1F201FB1200A070284670BDBF
S315080093D04048817808440079FF2801D00120704769
S315080093E00020704710B5FFF7FEFE70B1394CE069F2
S315080093F0007B042809D11420FFF7FEFE04F10800BB
S31508009400BDE81040642102F007BBBDE8104002F039
S315080094107DBE80B52F49002008721420FFF7FBFE99
S31508009420FFF723FD02F072FEBDE801404EE500009D
S315080094302DE9F8438146FFF76DFDB9F1040F0FF2E8
S31508009440C4082C4C234F2C4D2C4E37D8DFE809F096
S31508009450030A0A1B1B00F86900F1280100200860AE
S31508009460886032E0FFF7BFFE20B140F26121404636
S31508009470FDF7AEFCF869316840F8281F216881605D
S315080094802978017116E02A783568F9690E2303FBF5
S3150800949002F6354443432B4441F8283F236803EB3F
S315080094A08202174B1B7802EB830202EB800088606E
S315080094B001200871BDE8F14305F0D0BD4046BDE87E
S315080094C0F44340F27521FDF783BCBDE8F183000043
S315080094D0D072002028780020BC7400209F7F0020CE
S315080094E0B0740020CA740020C97400204C7800208B
S315080094F054780020D8720020B1740020D47200205D
S31508009500AB740020656D6265722D6D756C74692D7E
S315080095106E6574776F726B2E63000000DFF85C036C
S31508009520002120F8801B0022FF2101704170C270C3
S31508009530027141718271704770B50446402C154618
S31508009540CE4E03D171782A20FFF76AF806F1850016
S31508009550290018BF012104704170C948007802F03B
