S021000066697273745F73746167655F62746C5F65666D333274673131622E733337FC
S3150FE100000A4880F308880A4800470000000000000C
S3150FE1001000000000000000000000000000000000EA
S3150FE100200000000000000000BC05E10F9004002075
S3150FE10030A505E10F10B56C4901226C4B02E00029D1
S3150FE1004005D0491E1C691440F9D1002901D10220BE
S3150FE100500CE058601A6018690621014008D0410783
S3150FE1006001D5002002E0800702D50120C04310BD73
S3150FE10070002010BDF3B500230021019C002C3ED0DA
S3150FE10080594C5A4D002A13D1019A934237D202683D
S3150FE10090EA60001D5B1C08222A60220002E0002AAA
S3150FE100A02BD0521E2E69F607F9D4002AECD124E0A3
S3150FE100B0EFF31082009272B60EE02E6919273740E0
S3150FE100C0102F00D12A6010222E693607F5D5066862
S3150FE100D0EE602A60001D5B1C019A9342F3D30098F0
S3150FE100E0002800D162B6220002E0002A05D0521E96
S3150FE100F02869C007F9D4002A01D10221C9430800B2
S3150FE10100F6BDF9B581B000240020354B1D681B689B
S3150FE10110344F3B6801251D433D60920800920E0066
S3150FE1012002E06419A900761800998C4219D2019858
S3150FE10130A10045182800FFF77DFF010015D1F80C46
S3150FE101406905490D401A85080098001BA84200D29F
S3150FE1015005006846027A29003000FFF78BFF0100A0
S3150FE10160DFD03968012291433960FEBD30B51E49B2
S3150FE101701B4A1368126801221A4B1C6814431C6050
S3150FE1018098605A600120C0435C69640704D5196819
S3150FE1019008401860002016E002245D69254004D06E
S3150FE101A019680840186001200DE05C6002E0002943
S3150FE101B005D0491E5C691440F9D1002905D11968AA
S3150FE101C0084018600220C04330BD19680840186026
S3150FE101D0002030BD80B50023FFF793FF02BD00007D
S3150FE101E004300E4008000040809698000C00004055
S3150FE101F01B481C49816301680122914301607047E5
S3150FE10200174801680122914301600021816370471C
S3150FE1021010B50400FFF7ECFF2000FFF7A7FF04007E
S3150FE10220FFF7EEFF601E8041C00F10BD10B582B023
S3150FE102308408A400800704D508040B490143009103
S3150FE1024002E00A4808430090FFF7D2FF042269460D
S3150FE102502000FFF7BFFF0400FFF7D2FF200016BD16
S3150FE1026008000040711B0000FFFF00000000FFFFC8
S3150FE10270F8B5050014000E00C107C90FD207D20F5A
S3150FE102800A432ED1002C2AD0A80708D53188280099
S3150FE10290FFF7CCFF002824D1AD1CA41EB61C042CFD
S3150FE102A015D3A00880000090FFF7A2FF009A310056
S3150FE102B02800FFF78FFF0700FFF7A2FF009840081E
S3150FE102C04000361800982D18241A002F09D1002C5A
S3150FE102D005D031882800FFF7A9FF002801D10120B9
S3150FE102E0F2BD0020F2BD0000F8B53548026810698D
S3150FE102F0816AD268009291422CD38023DB01D21816
S3150FE10300914227D2009A891A0C182E4F2168B942C9
S3150FE1031020D12D4E0025ED432A00E16800F05AF871
S3150FE10320B04217D129480068294941188022D201E4
S3150FE1033091420DD20168B9420AD18168A268914210
S3150FE1034006D32A00C168009800F044F8B04201D004
S3150FE103500120F2BD0020F2BDF8B519480068C46866
S3150FE103600769B86A001BC519260005E03000FFF7DB
S3150FE103704FFF802000013618EA68A0188642F5D3B0
S3150FE1038039002000FFF774FF002817D00F480068E7
S3150FE103900F4941188022D20191420CD20168094AD4
S3150FE103A0914208D10022D243C168200000F012F831
S3150FE103B00549884201D00020F2BD0120F2BD0000BF
S3150FE103C02800E10F07B0CD5EE320BBDE2808E10F81
S3150FE103D000F81EF030B50A4B1C68202525431D6039
S3150FE103E00123084C2360A260636002E00278A261F8
S3150FE103F0401C0A00511E002AF8D1E06930BD00BF4A
S3150FE10400B0400E4000C00140194800681949086024
S3150FE1041019484021C16001684903FCD4FFF79CFFED
S3150FE104200028FBD0154800F035F800BF10B5144C85
S3150FE104301448206000F043F81349096880225202FC
S3150FE1044091420AD01149884202D00939884204D132
S3150FE10450FFF74AFF002800D010BD0D482060016864
S3150FE1046081F3088881F3098840688047FEE7000039
S3150FE10470880000208C00002004300E4002020000AC
S3150FE1048008ED00E00000E10F04500E400902000004
S3150FE104900008E10F8021890508801248488012483B
S3150FE104A00168124A0A40010D11430160BFF34F8FF4
S3150FE104B00F4810490860BFF34F8F00BFFDE780205B
S3150FE104C080054188074A914201D10088704700298A
S3150FE104D004D10088012801D10748704780208000A8
S3150FE104E0704700000FF0000000500E40FFF8FFFFCD
S3150FE104F00400FA050CED00E00202000030B4012120
S3150FE105000268001D002A0FD00368C318446808303B
S3150FE105100C4202D04D466D1E64191D6825601B1DE8
S3150FE10520241D121FECD0F8E730BC704710B5074910
S3150FE1053079441831064C7C44163404E0081D0A68E8
S3150FE10540891888470100A142F8D110BD08000000C3
S3150FE1055018000000A9FFFFFF100000007400000063
S3150FE1056080000020000000000120C046002801D0D5
S3150FE10570FFF7DCFF002000BF00BFFFF745FF00F0EC
S3150FE1058000F880B500F002F801BD000007463846D5
S3150FE1059000F002F8FBE700002021090326311820BD
S3150FE105A0ABBEF9E702488047024880470248004759
S3150FE105B0ED05E10F2D04E10FE105E10FAD1007B0F8
S3150FE105C001000000000006010008E10F00800000B5
S3150FE105D0006CDC0200800000C0EA2101C0EA2101C3
S3130FE105E000BF00BF00BF00BFFFF7BEFF7047B1
S7050FE105E124
