:10000000001000203BB60400BF4100001750000064
:100010008F500000B75700008FCA0000000000009A
:10002000000000000000000000000000CFFF000002
:100030002B09010000000000372D01004B3B01009F
:10004000B7450100A52604001B4C01001761010003
:10005000C1220400E5260400AB260400AD260400FE
:10006000A7260400CD750400ED7804001B64010090
:10007000BD84040065850400DB6901009F880100E0
:10008000AB8A01004B9D01000979040057CD0100A6
:10009000C7F70100B3500200375602007356020042
:1000A0003B740200EB780200BF830200BBA1020098
:1000B000E7260400A92604009BB5020019270400C6
:1000C000A7190300B1B504002B7B0300DF9C0300DC
:1000D000ABA703006BAE03006FB503008BB6030044
:1000E0001BC00300D7C603007FC8030093C80300EA
:1000F000BFC8030033EE030087EE030013EF0300D5
:100100005B000400E30F040000000000000000009A
:1001100000000000000000000000000000000000DF
:1001200000000000000000000000000000000000CF
:1001300000000000000000000000000000000000BF
:1001400000000000000000000000000000000000AF
:10015000000000000000000000000000000000009F
:10016000000000000000000000000000000000008F
:10017000000000000000000000000000000000007F
:10018000000000000000000000000000000000006F
:10019000000000000000000000000000000000005F
:1001A000000000000000000000000000000000004F
:1001B000000000000000000000000000000000003F
:1001C000000000000000000000000000000000002F
:1001D000000000000000000000000000000000001F
:1001E000000000000000000000000000000000000F
:1001F00000000000000000000000000000000000FF
:100200000298CA030298D00302984C070298580239
:100210000298E80302980E040298E80302989804F2
:1002200002981006029838060298F2030298A60671
:10023000029818070298F8030763076390B9637977
:1002400000B920DB227100C2AC0008400E7A02EC3B
:1002500000C909B801D9447208D9407110D9047293
:100260002E7AE031076102EC00CD114502EC00CCA2
:1002700001DB067102986603411103B804D91C72B0
:100280000731911210DA087102DD10721C7002B889
:100290000698A0113038127208B80698321000C0C3
:1002A00024000840207800F802EC00CA05B840DBC2
:1002B000127120DA0E7110DAE27201DA0A7100B8F6
:1002C000247023DAD67202EC00C8911110D916718D
:1002D00000C1001F0021141111500A7108DB0672C1
:1002E0000AB8B87007689111173111402111C03157
:1002F0001140011990B820DA04716178411108D9D0
:100300000471627820D904726578273123DD087280
:10031000C0DA0471607803B8411107310872A11581
:100320002035C07102DD2872A11120D9B67102D921
:100330001E72CCDAAE7206B820DB0C71026D511160
:10034000FFD9A0720765054D9A72029866032111C4
:100350004049C0D93E71A031411540350165514138
:100360000361076308DA1E7204DA28721049A115C6
:100370000235067102DB0E7201340A7101DB147161
:1003800090B8677800C00D0F0C0D0698A21101D827
:10039000087207B802989A00CC32204A00C00517AC
:1003A00008500698A211113001420DDA68712088B8
:1003B00000C1DE1B250180BC04DA107208DA0A7263
:1003C00000C120841000E024A024FFBB0763414348
:1003D000016401DA06711E49024B00C0501F002162
:1003E00007633810BC2002DA127100B9FF21A11393
:1003F00080DB087100C100FCFF0118100298F202B6
:1004000000C3F81E0021341080D84671EFBA069858
:10041000220F00920362DDDA9272A11101D93271CA
:1004200000C23810084024120423281302EC00C82C
:1004300004D9167104BA183008710060FD20012A31
:1004400002EC00C8FF22FA7604DC067218B8737852
:1004500090B843780298660306988A0900B8011A92
:1004600091101730011900C2020200000698EA0735
:1004700004D9067101B802A800C0F81E00210413B7
:1004800080DB06710298380001DB5E7100C2541FE8
:10049000002124111114FF3402EC00C8FF24FA7665
:1004A00007610698B011036111380F300361111410
:1004B000011141100698B01101D8087203B80298D2
:1004C0009A00042202DB16712410112811280698C4
:1004D000C41100C218000840FF2008124110076034
:1004E0000698B01101D8087120BC10DB0672029882
:1004F000660300BB00C1501F00211415C021112C40
:100500005112076A0F320E714088511406989603F3
:100510004143009451120765036A0F320E71411175
:10052000511406989603036C41430765513B00C183
:100530000C1F00211411111231100F30127100BA6A
:10054000046101D80471114200600FD8F4723110B7
:1005500002601E30047201B8003A087204B80298B2
:100560009A000298000200C05C1F002104110F31A4
:1005700003DD1A7200C000600840041007D80E7234
:1005800000C01040084004B9181000F80698200F69
:1005900000B8477800F830885088FF34087102ECC2
:1005A000FF24F87002EC00CD141001BB5150FFD8AD
:1005B000047131440760006B10DBF2710421FF22EB
:1005C000E4720F4C0095009300A006988A0900F889
:1005D00006988A0900C5981F0021541506988A0CB0
:1005E00000C59C1F002100F806988A0906987E0D18
:1005F000187006988A090E7006988A09069856118E
:1006000006987E0D069882060698440C00F8069817
:100610008A0910B902BA0698EC070698A80500C521
:100620009C1F002100F89112033288B903DE40724A
:100630007179A11020D8087106988A0C6C7000C3DB
:10064000F81E0021341380DB1A7100C3A810084083
:10065000A1141034024C481300BC481391140764D1
:1006600048138CBB627B40D80671517900BA076A87
:1006700000C0A000084006987C040420087809788F
:10068000041121411810911102D90C7200C1701F80
:1006900000210698AE0500A006988A0900BD0698BC
:1006A000DC0A10B903DC047100B902BA0698EC0741
:1006B00004D9067100404272811008D81071069862
:1006C000DC0A03DC08720698500828700698CA05F0
:1006D000FFD80E7288B84778457800B844784470DF
:1006E000911010D80E7100BB00C46C5008400698E1
:1006F000240820B802A800F800C0F81E0021041346
:1007000020DB2071911010D80E710760FFD808729D
:100710008CB84478947008DB9072A11328DB8A723D
:1007200003BD06989C0506987E0D00C5A01F0021FC
:100730000698DC0A00BA03DC2A72042500C00C51BA
:10074000084006984A09211400C01400084004100B
:100750000268042334111128F82334110698DC119F
:10076000412A5415212D00C0F8600840041101D918
:1007700024718020D820041100C0FC0069001050B2
:10078000147200C0140008400411FD21087606BA56
:10079000066A212D0698280B0298461091100155E3
:1007A00003355150011900A000C16C1F0021141124
:1007B00001D9167100C0246008400412215107615C
:1007C0000F3107691152281000A0811180D90672DB
:1007D00001B800A000C10C5008401410063030725F
:1007E00064211412EC21141007600760403020725D
:1007F000811080D8DC711410014A076203608030D8
:1008000021508C480A717F2155211410013000A01D
:1008100006988A0906987E0D00BD06989C0588B842
:100820004778457800B8447800C5A81F00215415C2
:100830000698280B0298461006988A0900C4BC1F27
:10084000002144141DB3315B302C207506982E090D
:1008500000C0600008400410016801D80E7100C09B
:1008600064000840237808B865780698CA05FFD860
:10087000067208B8607800C2000002020698EA0713
:1008800000F800B900C29C10084018121C220AB9D6
:10089000181288BA911104310472487A507A517A48
:1008A0008CB9427900A006988A090698DC0A07DC10
:1008B0000A7200C59C1F002100F80698440C01B97B
:1008C000911004D8047100B900C20000020006981B
:1008D000EC070040207100C0F81E0021041120D94F
:1008E0001471076101D9E0728110076001D8D872D4
:1008F0008CB864780698820600C5AC1F0021541598
:1009000000C01C51084006984A09212D06988A0CFF
:1009100000C5B01F002100F806988A09811108D986
:100920000C710698500820B802A800F806988206B4
:1009300000BD06989C0588B84778457800B844788B
:1009400000C5B41F0021541502984610B11007606D
:1009500001D80A7108B87F78020C7E7806988A0957
:100960000698800901F8911010D846710698FC0D80
:1009700006980A0E0698AA0E00C51C51084054118C
:1009800000C5305008405412E82554151159112D56
:1009900006760122212D00C1041F00211411112D02
:1009A000D07518B875788CB8447801B802A800F8EA
:1009B000B110076810D8307100C04810084000C35B
:1009C00000000840311460242824441134110761C8
:1009D00001D9FA7144122810076228100762281002
:1009E00007622810E8700298A60D0C700698F80AA5
:1009F00011380472076A00BB00C1081F002100C43F
:100A000040510840141120391C72417B811220DAB8
:100A10001272007C00C46C50084000C2000001014A
:100A2000281400A00698440800C2F81E00212412D1
:100A300040DA0C72617B811220DA0472007C88BA81
:100A4000527A00A088BA727A811204DAFC7200A08D
:100A500088B86B7800C0640008402F7800A0B110FF
:100A600001D8047200A000C028700840041110884A
:100A700000C1001800401810442004111088A8205C
:100A8000041110884CBA757A18103DB11088F4B86A
:100A9000427844207278D8207378E82073784FB277
:100AA00000C4FFFF8080413A4FAA01BC016441139A
:100AB000076300C06C70084003B9181001100110E2
:100AC00001B9181001100110011001109820041133
:100AD000076101B80160003A0471044904D9047245
:100AE00041520760003A0471084908D90472315232
:100AF0000460003B0E7200630064314241424FAA21
:100B0000B2704FAA44B801685378F8B853784020BF
:100B1000527800913DA9009100C01470084018104F
:100B20000091582018100091BC20181000A04024FB
:100B3000066400C0FFFF0000013C1DB00220015808
:100B4000402806751EAC01EC00A000C218500840F9
:100B500024111DB4111324113051F871066C402476
:100B600004100158112800C3901F00213411069869
:100B7000DC1100B88020013A0662215A412A00A007
:100B800000C200010840317A00A0009000C6C01FDA
:100B9000002100888CB8707801B007680F305CB114
:100BA00011130F330111C0480698E20A06983E0857
:100BB00000C4641F002103DD087214BA281400A0C9
:100BC00000BA03DF227100DF06722814311953B016
:100BD00080BB006B30380A7109DD06710298380F4E
:100BE0008CB8507800A04413281441150698F80AD0
:100BF0000060B83000C4E0100840441207620132BF
:100C000021400824287CF8255412F03240DE04727A
:100C1000404804DB08720DDD0C72044BEF301448C1
:100C2000069880090088811140D91E72B1123032B5
:100C3000CF4A2138B1D8127208D8067104D80A7187
:100C40009C24D424237C347098244412FF32C32281
:100C5000047580B8D82481D8247140D90472237CCB
:100C6000084B04BA80DC067180D8367206B904A934
:100C700001D82E7264242824307C4E7008D80C7160
:100C800007BA24D8047106BA187004D80C7101BAD6
:100C900040D80E7102BA0A7005BA20D8047203BA9D
:100CA000E0244411402418140761181491111831DC
:100CB000114200C100600840141110D90471404A6B
:100CC00020311142281408140090308802480698F8
:100CD000800F009308DB047100F800A05CB00F30B7
:100CE00000A01088B111076980D90A7100C1800085
:100CF00008400811009100A000C400010840441001
:100D000000A000C020300E40041104101050F472F6
:100D100000A000C028400E400413315107610C317F
:100D200007691153381000A00698580C00C0F41F32
:100D3000002104110698120B217A237A00C30000C7
:100D400010000698520B00C0781F00211DB118102A
:100D500000A0511400C0B81F00210410012C0A7516
:100D600000B826A806982E0900C0741F00211DB1E6
:100D7000181028B010B9115911380EB9114028A80F
:100D800080B800C144300840081100C1F01F0021A4
:100D90001410303B06710760076000C4083008403B
:100DA00044111150FF30015118146FB8076826A87C
:100DB000217A050C21102020267800C063EF000066
:100DC000314026A8050C20EC247A20EC217A184822
:100DD00026A828B00AB901510F31115028A8050CD6
:100DE000207A20EC0F0C98B846784178B11080D862
:100DF0003E7100C04C30084000C16D010000181069
:100E00000D0E0D0E00C0703008400411303112710B
:100E1000082025782478960CF82004113031F272DD
:100E2000DC2000C106000000181000B91810069858
:100E3000020B00C2681F002124100151FF31115024
:100E4000081200A00698580C00B826A800C07C1F05
:100E500000211DB1181000A030B840780DB101D9A3
:100E6000FC72427800C074300E4004114CBA407AD3
:100E70001810EC2004115C7A1810A4BB707B4E7B18
:100E80004F7B00C20430084000A00698580C217A1D
:100E9000227A00C0881F00211DB1181000BB0698DF
:100EA000520BA4BB00C040300E4004110331014975
:100EB0002872B112076207623020041121510F31EC
:100EC00018726E7B6F7BF02004114CBA7C7A18107C
:100ED00014200411607A1810B11002D81071707BC0
:100EE00030B8627860780DB001D8FC7100C0F8604D
:100EF0000840041101D90C7100C01800084002B963
:100F0000181008B86E780EB84EB110D90C723EA801
:100F1000140C0FB83EA8107044A8140C01B800C1FE
:100F2000B0300E40081100C077801F003DB2014272
:100F30003DAA00C0FFFFFFFC013A3DAA140C00C00F
:100F400077E01F0001423DAA51B801687D7808B8DA
:100F50007E7800B90698B4050698440806985E089D
:100F600006983E08511406982E09F4B845780A0CE4
:100F700000C0841F00211DB118100298A80551B8A7
:100F800001685D7800C00000000344A83EA800C1CD
:100F9000B0300E40081110B807683DB101393DA9C5
:100FA00008B86F7800A001F8541000DC1271011429
:100FB00006982E0918B8707800B8417800F806989D
:100FC000FC0D008800C5681F002154155112FF3523
:100FD0000762FF320698020B015951290475115915
:100FE00000902129127506980A0E0698AA0E03D8B9
:100FF0000472FF0FCE7018B8727800F800C0F41FAA
:101000000021041000BB1DB400A001D8047200A090
:1010100000C00470084004108020FF30067202985F
:10102000A60E00DF0672011316703111016B115903
:10103000112B016300C1FF070000113B012B00C011
:101040008801000001583128087605B878BD28705D
:10105000F820087605B8C8BD1E70DCBDDC20067619
:1010600006B81470E020067607B80C70E820067603
:1010700008B8047009B800C10060084014122C219F
:101080000732FE2216760768036800C2FF0FFFFFD3
:101090001414213C0144481178BD4C2114122155EF
:1010A000FF355152281101B800A002D8047200A0E7
:1010B00006982E091DB42824408800C0006008400E
:1010C00004100730FD20547500C00870084004105B
:1010D0000760FF3080DC44710698FE11015900C39F
:1010E000EC1F00213415504532715413311006980D
:1010F000FE1111280A75042554155045EE727FB96A
:10110000066100C01C60084006984408041551534D
:10111000113B3155581006983E0802B8009400A0C3
:10112000EBBA00C0641F00210411113A10D90671F6
:1011300018B97479281000A009BA0698F80A00C4F2
:101140006400084091152138267188BB043512725D
:1011500008D804716C7B04D804716A7B2F7C1070F2
:1011600008D804716F7B04D804716D7B217C04DA8C
:101170000A720698561104BAC2700698120B00B88B
:10118000B111076940D9067202982C1000BC08D929
:101190004071202400C160600840111200DC0C7115
:1011A000A022241210DA10710C70BC2224120762E3
:1011B00004DA04710421141200C180000840320CCA
:1011C00028110762281107622811076228114B0CA9
:1011D00000C15C1F0021141200DC1A7120D80671B6
:1011E00001B80C70F0DA0C720CDB087102B80698CA
:1011F0003A10482400C380000840FFB801200421B1
:10120000141111410871014118130824014200C151
:10121000383008401411014100C00060084004103B
:101220003030016801411813281348138CB85078E6
:1012300000B800C15C1F0021141203682150F03077
:101240000152281100A064BC066C415C512C069828
:101250002E095088069826040095B110076820D8FA
:10126000207108B86578911004D808720698500863
:1012700000F888B86E7800C064000840217800F853
:1012800008B86C7820B85A7859785B7800C0F44078
:1012900008407878797800C0E81F0021041040A841
:1012A00046A84EB010D844724DB100C09FFFFFFF5A
:1012B000113840B102D90A72604804BB4154087029
:1012C000204802BB02BC4DA8F8B87078190C3EB19A
:1012D00041413EA9F4B973797378717800C4F8403C
:1012E000084000C200410840227000C20000010016
:1012F00044AA230C00C200000B0044AA00C4104101
:10130000084000C21841084004BB587C050C597CB9
:101310000C240F0C2FAB050CB11008D81471647A93
:10132000657A1CB879787B7820B879787B78607C8E
:10133000F424411306988009511406982E09727BF3
:1013400053B80168050C687840EC00C0801F00218C
:101350001DB1181000F8015053A800C0B860084033
:1013600004110761076180D9047240EC00C4F840A1
:1013700008404EB010D80471182441130C23527C3D
:10138000407B11512FA9050C797C0A0C00C000008C
:1013900001020814787C050C507C08B86D7800A018
:1013A000115910D906710760076008D904710760E8
:1013B00004D90471036002D90471016001D9047178
:1013C000006000A0108804110230067107610761F7
:1013D00000C0FFFF00001138009100A000C2FFFF15
:1013E00000002138213900BA01D806710148112ABC
:1013F0000069006001D8F6720138F67200A0802002
:10140000FF30FF48812000A082040000002801284E
:1014100003280018002A012A0A18292A2718DB2A7B
:10142000DC2A2818DD2ADE2A0118052A02290000F4
:101430000146800B03D002280ED005D306E0080039
:1014400018BF0120C0B2704701207047B1F57F4F2F
:1014500001DB042070470320704700E00846D0F805
:1014600027100029FAD1704780B5FFF7F6FF90F8F2
:101470002C0002BD10B50C46FFF7EFFF80F82C40A2
:1014800010BD10B5FFF7E9FF044600F0F3FD807AC8
:1014900004EB400101F12D0010BD38B5FFF7DDFF71
:1014A000044600F0E7FD054600F0E4FDA97AC07AA5
:1014B000401804EB400202F12D0032BD007BC00851
:1014C000401C32214843C1177047D0B5C27A0FF68D
:1014D0006830910900EBC10402F03F02D4E90067D3
:1014E000A2FB060102FB0711D0BD014600204A7B8A
:1014F000897AD30748BF202009B940F0040070471B
:10150000F0B589B0044600F046FA0546B5F8050086
:10151000ADF80C00FFF78CFF022807D1E8790DF138
:101520000E0102F0F5FC010005D033E010210DF1B1
:101530000E0002F041FE28899DF82310ADF81E0030
:1015400001F0FE01A87A8DF82000E87A8DF82100DC
:10155000287B8DF82200687B00F0010008438DF89D
:10156000230000F03FFC064600F039FC0746D5F8A2
:101570002700002812BF00202846FFF775FF0296BB
:101580000197009005F12D0395F82B2003A9204623
:1015900003F061F909B0F0BD2DE9F04F8DB0804640
:1015A00000F068FDC47A600003F02AFD054600F0F3
:1015B00061FDC07A069003F023FD814600F05AFDDC
:1015C000877A780003F01CFD002182460491039184
:1015D000404600F0E0F90646002003AA02900021F0
:1015E00000920191002304AA404603F095F8834637
:1015F000A8BB00F03FFD0499807A884205D300F033
:1016000039FD0399C07A88420BD2504603F001FDA0
:10161000484603F0FEFC284603F0FBFC4FF4C17083
:1016200077E003A80090CDF808900195534604AAEE
:1016300007A9404603F070F8834680B9BDF81C0046
:10164000A6F80500BDF81C00FFF7F2FE022814D131
:1016500005A90DF11E0002F075FC834650B15046FD
:1016600003F0D7FC484603F0D4FC284603F0D1FC35
:1016700058464EE00598F07101E0FF21F1717A00C3
:10168000BDF82E0030819DF83000B0729DF8310019
:10169000F0729DF832003073717B9DF8330060F377
:1016A000000171735146049886F82B0006F12D0055
:1016B00003F0B2FCD6F8270090B90399C9B23046BE
:1016C000FFF7D8FE3046FFF7DCFE6200294603F044
:1016D000A3FC3046FFF7E1FE069A494603F09CFC66
:1016E00000F0C8FC0499807A814205D300F0C2FC66
:1016F0000399C07A814202D24046FFF701FF50466B
:1017000003F087FC484603F084FC284603F081FC84
:1017100000200DB0BDE8F08F70B50646B6F80500A4
:1017200010B940F2811070BDD6F81F0040B13046AC
:10173000FFF7DBFE00F066F8010021D100F06FFD3D
:101740003046FFF7C2FE0022914208BF904214D1FA
:10175000307B10F0070F10D003F0D9FE0446307B29
:1017600000F00700B0750D463046FFF7A7FE2018C1
:101770006941C6F80E00C6F8121000F050FD0020B6
:1017800070BD2DE9F041064603F0C1FE8046D6F853
:101790001F00002400250F4620B13046FFF7A5FEAC
:1017A00000F030F8B07D002830460FD1FFF78DFEF5
:1017B000A14208BFA04210D03046FFF786FE044683
:1017C000307B00F007000D46B07506E0FFF776FEAF
:1017D0000446B07D0D46411EB175204603F0A8FEBB
:1017E00018EB0000794100229542C6F80E0004BFB4
:1017F0009442DFF83448C6F812102046BDE8F041A4
:1018000003F096BE0146D6F81F203046104710B5AB
:1018100000F030FC044600F02DFCC07AA17A00EB09
:10182000400000EB41002D3010BD10B5DFF8FC4743
:101830002068406820B103F0D2FD21680020486094
:1018400000202168086010BD2DE9FC470446884649
:1018500091461E46FFF7DBFF054600F00BFCDFF864
:10186000CC7740794543284603F0B7FD3968486096
:10187000294602F0A1FC4FF0000AFF2528E0386855
:101880000168491C0160504600F085F858F82A109C
:10189000017039F81A20A0F80120002236F81A1039
:1018A000A0F80310A0F80520C5714FF6FF71018163
:1018B0008572C272027300F12B01427B02F0FE02BC
:1018C00042730AF1010A00220A704A70C0F8272008
:1018D000A245D4D3A046002600270EE005EB490020
:1018E000C188504601F0FEF908B1C0F8274009F15F
:1018F000010928798145F1D37F1C01F02CF9874239
:1019000017D2384601F02AF982461621DFF820075F
:10191000714345185046298801F0E4F90028EBD0BE
:101920006988504601F0DEF90400E5D04FF0000967
:10193000DFE7761C082ECFD3684602F094FEC0B1D4
:10194000009E00984645C8BF464640451CBF4046DD
:1019500002F0BFFE002403E02046FFF71DFE641CDA
:10196000B442F9D346450FD23046FFF7C9FD761C85
:10197000F8E7404602F083FE0024444504D22046A6
:10198000FFF7BEFD641CF8E7BDE8F387DFF89C06AF
:1019900001680868704710B50446FFF738FFDFF8A4
:1019A0008C160A6853684443181910BD00787047B4
:1019B000C0F81710C0F81B20C0F81F307047D0F8CF
:1019C0001B30002B18BF184700207047F0B585B0BA
:1019D000D0F8174084B1DDF834E0DDF830C00E9C5B
:1019E0000B9D0A9ED0F81770CDF80CE0CDF808C01A
:1019F000049401950096B84705B0F0BD10B50446B3
:101A0000FFF705FFDFF8242613685968641AB4FB52
:101A1000F0F010BDB0F803007047B0F80100704757
:101A200090F82B00704700EB4100B0F82D00704794
:101A300038B504460D4600F01DFB94F82B10807A53
:101A4000814202D14FF4C17032BD481C04EB410108
:101A500084F82B00A1F82D502046FFF7CFFFFFF7A9
:101A60004FFD002032BDF8B5044604F12B050E46AB
:101A70002A780020A91C00E0401C90421BDA31F8B3
:101A80001030B342F8D1121A521E04EB400304F195
:101A90002D07520003F12F0107EB400003F08CFEED
:101AA00029784A1E2A702089B04204BF204600F0DF
:101AB00058F82046E4E14FF4C070F2BDB0F80110D0
:101AC0004FF6FF7291421FD1B0F80300801E17D06D
:101AD00040F6FE71401A062884BF083801280FD945
:101AE000C01E022884BF801F042809D940F2EF21BC
:101AF000401A05D0801E012884BFC01E012801D8CD
:101B0000012070470020704704F0B9B838B50500CF
:101B10000C4618BF002C02D14FF4C07032BDB5F88E
:101B200005002080FFF784FC022804D1E879A11C7D
:101B300002F0EEF903E01021A01C02F03DFB288921
:101B40006082A97A2175E87A6075297BA175687B26
:101B5000E17D00F0010001F0FE010843E075002086
:101B600032BD10B5040086B008BF4FF4C0701AD063
:101B70000020ADF8000010210DF1020002F01CFB66
:101B80009DF817004FF6FF7100F0FE00ADF812103F
:101B900000228DF81700ADF814208DF81620694644
:101BA000204600F002F806B010BD7CB504000D46DA
:101BB00018BF002D10D0698A4FF6FF72914206D0EF
:101BC000012001F0F7F910B140F6024076BD287D02
:101BD000802804DBFF2802D04FF4C07076BDB4F833
:101BE0000500FFF725FCFF26022803D1E07902F06B
:101BF0000DFAE6712888FFF71BFC022813D169460D
:101C0000A81C02F09FF928B90098E071009802F032
:101C1000EDF909E06946A81C02F0B2F9010028D1EB
:101C20000098E07100E0E6712888A4F80500698A50
:101C30002181287DA072697DE172A87D617B20737E
:101C4000E87D60F3000161732046FFF73EFC00224F
:101C5000914208BF904206D0207B00F00700A0759B
:101C60002046FFF78EFD2046FFF7C8FEFFF748FC31
:101C7000002076BD70B5044600252046FFF7F4FB32
:101C8000854220D22046FFF7EFFB401EA84214BF3A
:101C9000002601262046FFF7F4FB314630F81500F8
:101CA00004F04AFB2046FFF7ECFB30F81500FFF785
:101CB000BFFB022805D12046FFF7EFFB405D02F095
:101CC000A5F96D1CD9E700212046FFF7D3FB20467C
:101CD000FFF794FEFFF714FC002070BD2DE9FC41D6
:101CE000054688461446FFF7BFFB07464046FFF708
:101CF0009FFB022808BF002C03D14FF4C070BDE841
:101D0000F6814046FFF794FB022816D1694620462B
:101D100002F018F900285AD10026BE4257D200F02E
:101D20005EF830F81600804505D100F05BF80099A8
:101D3000805D814249D0761CEFE70026BE4246D244
:101D400000F04DF830F81600804518BF761CF5D12C
:101D50003BE04046FFF76CFB022816D1694620465F
:101D600002F0F0F838B900F03DF80099C15500983C
:101D700002F03CF90DE06946204602F001F901004D
:101D8000BDD100F02FF8009902E000F02BF8FF2100
:101D9000C15500F024F820F8178000F06EF8401CC0
:101DA000C1B22846FFF766FB2846FFF727FE01462B
:101DB000404600F00FF918B90121404604F0B8FA86
:101DC0002846FFF71BFEFFF79BFB002097E700F07C
:101DD00051F9C07A8742BCD14FF4C1708FE72846D1
:101DE000FFF74FBB2846FFF758BBF8B505460E4630
:101DF00014463046FFF71CFB022808BF002C00D118
:101E000059E6002401E0641CE4B200F036F8844294
:101E100030DAFFF7E4FF074637F81400B042F2D19A
:101E20003046FFF705FB022804D1FFF7DBFF005D1A
:101E300002F0ECF800F021F8014607EB44000C1B1F
:101E4000641E6200811C03F0B7FC00F016F8411E0E
:101E5000C9B22846FFF70EFB2846FFF7CFFD014623
:101E6000304600F0B7F818B90121304604F064FAA2
:101E7000284605E040F60240F2BD2846FFF7F4BAD6
:101E8000FFF7BCFDFFF73CFB0020F2BDFFF7ECBA0B
:101E9000F8B504460D4616461F46FFF7F2FA30F82D
:101EA00015003080FFF7C4FA022806D12046FFF75C
:101EB000F4FA3946405D02F02BF80020F2BD2DE91E
:101EC000F04703F024FB0025574CDFF860A1A8463B
:101ED00006460F46DAF80000016888453BD24046C6
:101EE000FFF759FD8146B9F8050000281EBFB9F873
:101EF00008004FF6FF7188422AD04846FFF7E5FAFE
:101F00000022914202BF904299F8160000281FD08B
:101F100000F027F88F4202D310D886420ED200F08C
:101F200020F8801BB9418D4212D301D884420FD3CF
:101F300000F017F8841B61EB070509E04846FFF73E
:101F400020FC8D4204D301D8844201D304460D46BF
:101F500008F10108BEE720462946BDE8F04703F036
:101F6000DCBAD9F80E00D9F812107047010002D07F
:101F7000D0F8230070470020704708B1C0F8231044
:101F800070472DE9F04780464FF480350027274CF5
:101F90000CE039F8160080453CBFA8420546761C87
:101FA0005046FFF773FF8642F3D37F1C2068016819
:101FB0008F420CD23846FFF7EEFC824600F05AF80A
:101FC0000026807A0AEB400101F12D09E8E7A8B26A
:101FD000BDE8F0872DE9F04782460C460025134EF8
:101FE0000FE07F1C4046FFF751FF874208D239F8C7
:101FF00017005045F5D1012000E00020BDE8F08732
:102000006D1C306801688D42F7D2A542F8D0284691
:10201000FFF7C1FC804600F02DF80027807A08EB1E
:10202000400101F12D09DDE7FFFFE703DC98032004
:10203000E09A03200000000064000000000000009F
:10204000E80300000000000010270000000000006E
:10205000C02709000000000080B58179112902DB4A
:102060004FF4C17002BD01461C22034802F0E4FF98
:10207000002002BD004870479C9B03200146800B56
:1020800003D002280ED005D306E0080018BF0120B7
:10209000C0B2704701207047B1F57F4F01DB0420CB
:1020A000704703207047DFF8600B017A006801F089
:1020B000010102F07BBADFF8541B4B6809681A5C17
:1020C00001EB001102F023BA78B58FB00D4604463B
:1020D00006AB012284A104F08DF901003FD19DF8E7
:1020E000180085F8400010220DF11901284602F071
:1020F00093FF10220DF1290105F1100002F08CFF71
:1021000002AA042117A004F051F9010027D105F11A
:1021100020000621019000910DF1080213A633461C
:102120001021204604F053F9010018D102AA04211D
:1021300010A004F03BF9010011D105F13000062197
:1021400001900091334602AA1021204604F03FF985
:10215000010004D105F14101204604F0B7F910B0A7
:1021600070BD00006E6B626B00000000696431326C
:10217000380100006E6B696B0000000004F0C6B906
:102180002DE9F041DFF8587CDFF8584CDFF8588C27
:1021900007F15C05687820B3A87810B905F055F907
:1021A000F8B9A87818B1B86D01F015FA0BE000265F
:1021B00006E0304600F0D2FC002100F09DFC761CC9
:1021C000386B8642F5D3A97829700020687003F037
:1021D00098F9A860FFF767FF2978786D07F08CFE03
:1021E0000FE0287801280CD101F00AFA404508D9FF
:1021F00005F02BF9002801BFE8780028796D01F07F
:1022000030FA687808B1322406E02878012803D132
:1022100001F0F6F9A8EB00042046BDE8F08110B506
:10222000DFF8C84B206958B1E06803F065F9002277
:1022300040F2666104F10C0003F014F90020206103
:1022400010BDD8B58FB0DFF8A84BDFF8982B002071
:102250004DF82020401C0F28FAD3DFF8906B40F295
:1022600066620020914230613BD10AF027FD009068
:102270000927FFF785FF01900BF031F8029006F077
:10228000FBFA03900BF0F8FE0490FFF718FE0590A0
:102290000CF03FFA069003F02FFF07900CF00CFDB6
:1022A0000890DFF8540C006810B1804709900A27A5
:1022B000B06818B180474DF827007F1C002005E06A
:1022C0005DF82010A14238BF0C46401CB842F7D33D
:1022D000641C3461224640F2666106F10C0003F092
:1022E000C1F810B0D0BD00000000000038B5FFF705
:1022F0009CFADFF8EC4AA06E18B103F070F80020E9
:10230000A066E06E18B103F06AF80020E066206F66
:1023100018B103F064F800202067606F18B103F073
:102320005EF800206067A06F18B103F058F8002035
:10233000A067E06F18B103F052F80020E067D4F80E
:10234000800020B103F04BF80020C4F8800004F1B5
:102350008405286818B103F042F8002028606868F6
:1023600018B103F03CF800206860A86818B103F0C9
:1023700036F80020A860E86818B103F030F80020B3
:10238000E860286918B103F02AF80020286168691C
:1023900018B103F024F800206861A86918B103F0AF
:1023A0001EF80020A861E86918B103F018F80020B1
:1023B000E861286A18B103F012F800202862686A00
:1023C00018B103F00CF800206862AC2120460DF033
:1023D000FBFD04F1F000002101604FF0FF31616668
:1023E00031BD2DE9FE438146FFF744FE4FF0FF3833
:1023F0000568DFF8EC79684601F05FFF0B2638B31B
:10240000009848452946484602D201F076FF01E08F
:1024100001F05FFF002411E00020019006FB04F5AD
:10242000B86E284400218172204601A901F076FF90
:10243000B86E01992844641CC0F8061000988442C4
:10244000EAD305464D4535D200F044F86D1CF9E756
:102450002946484601F03DFF00254D452AD200F0AF
:1024600039F86D1CF9E70020ADF8040001A92846F1
:1024700001F0AEFFB86EBDF8042006FB05F108447C
:102480006D1C828000988542EDD305464D451ED2D5
:102490000021284601F0BCFF6D1CF7E7484601F01B
:1024A00079FF00254D4512D20021284601F0B0FFEA
:1024B0006D1CF7E7684601F060FF0028EED0009839
:1024C00048453CBF484601F074FF0025DAE700208C
:1024D000BDE8FE83BA6E06FB05F00244002191724E
:1024E000B96E08440121C0F806802846BDE27CB5DB
:1024F000FFF7C0FDDFF81457447C2868210101F084
:102500005BFE6868214601F057FE684601F0A5FFB2
:10251000D8B10098A0423CBF204601F0BDFF002684
:1025200008E068682968821901EB0611304601F05D
:10253000C3FF761C00988642F3D30546A5420FD20E
:102540002846FFF7B8FD6D1CF8E7204601F094FF20
:102550000025A54204D22846FFF7ADFD6D1CF8E723
:10256000002076BD2DE9F84F88B005460C46FFF7F0
:1025700081FDDFF86C684079800002F041FD814602
:10258000FFF778FD4079400002F03AFD8046FFF702
:1025900071FD4079400002F033FD8246307858B139
:1025A000504602F036FD404602F033FD484602F048
:1025B00030FD40F28110C6E006944FF0FF3006F186
:1025C00050046061FFF756FD07790B2010FB07F7F9
:1025D000384602F002FFA061394601F0EDFDFFF739
:1025E00049FD807900F034FAE061FFF743FD80791E
:1025F00000F02EFA2062FFF73DFD807940010DF0DA
:10260000C5FF6062FFF736FD9221807948430DF0E7
:10261000BDFFA062FFF72EFD80790DF0B7FFE062ED
:10262000FFF728FD00F013FA2063FFF723FDC079C0
:1026300040010DF0ABFF6063FFF71CFD00F007FAEF
:10264000A063FFF717FD00F002FAE063FFF712FD49
:10265000C0790DF09BFF2064FFF70CFD007A00F0BD
:10266000F7F96064FFF706FD007A40010DF08EFF78
:10267000A064FFF7FFFC007A0DF088FFE064FFF72D
:10268000F9FC4E21407A48430DF080FF2065FFF7AA
:10269000F1FC407C00010DF079FF6065FFF7EAFC7A
:1026A000407C0DF073FFA0651C22294606F1340022
:1026B00002F0C2FC00202070069A107010222969D6
:1026C00006F1140002F0A8FCDFF8480B006860B3C4
:1026D000DFF8441B0B68082B27D3002500274FF099
:1026E0000A0C16E0A3EB0C0104291ED300EB0C0E20
:1026F000821C9EF803E012F80C204FEA8E0B0BEBC5
:10270000420B0BF1040B59450FD37244DC44D7192B
:102710006D1C9C45E6D3FFF7ADFC0079A84204D3BD
:10272000FFF7A8FC4079B84210D24FF4C075FFF70C
:10273000DDFD504602F06DFC404602F06AFC484662
:1027400002F067FC284609B0BDE8F08F356304212C
:10275000A06901F031FD00239C460A2014E049F8ED
:102760002C306D1C31F80EB028F81CB001F1020BB2
:102770003BF80EB02AF81CB00CF1010C0EF1040E5F
:10278000BD42ECD310185B1C4FF6FF72DFF8881ABD
:10279000ADF814200D68A84230D2DFF8787AA2692B
:1027A0003D680B2159432D1855500022A7693D1D46
:1027B0004FF0000E6A52DFF85C1A09688A1C155C3B
:1027C0000A18D7780097BA0002EB4502121D071DC0
:1027D0000EE049F82C300EF1010EBDF814B028F8C7
:1027E0001CB031F807B02AF81CB00CF1010CBF1C6A
:1027F000AE45EED3BE46009F0025C1E75346424694
:1028000049466046FFF720F8DFF8080A01683161A1
:10281000FFF730FC0546FFF72DFCFFF72BFC616A44
:10282000321D049200230393E26A0292AA79009176
:1028300001EB02130193002182790698236A007844
:102840000DF0E7FEFFF716FC0546FFF713FCFFF758
:1028500011FC616B06F108020492E36B0393226C96
:102860000292EB7901EB0312019200910121C279EE
:102870000698236B00780DF0CCFEFFF7FBFB06F10A
:102880000C010022049103920025E36C0293A16CD9
:10289000019100920221027A0698636C00780DF093
:1028A000B8FE24E0FFF7E6FBFFF7E4FB4927A06A48
:1028B000626A07FB05F1014402EB0510FFF704FC17
:1028C000002843D1FFF7D6FB8346FFF7D3FB9BF8E5
:1028D00006208079A16A636AAA1857432818C91983
:1028E00003EB0010FFF7F0FB00282FD16D1C706880
:1028F0008542D7D30025B068854280F0A280FFF7DB
:10290000B9FB01F009F8FA79C079A16B636BAA18D9
:102910002818114403EB0010FFF730FC002815D1F4
:10292000FFF7A8FB00F0F8FFFA79A16BC079636BA1
:10293000AA180A44511C281803EB001202F11000D7
:10294000FFF71CFC002808BF6D1CD4D076E0307067
:1029500000202073606001F002FE30B106F15C01DE
:1029600006F1540001F00CFE05E001F0FBFD002132
:10297000002001F01BFE306BFFF733FD00280546F9
:1029800059D1FFF7B4FD0028054654D1FFF772FB7B
:102990008779002005E0E269BDF8141022F81010D4
:1029A000401CB842F7D301F00EFE002840D0694623
:1029B000002001F019FE0098874238BF4FF4C1751E
:1029C0003ED3E069002101F00FFE0098B84203D227
:1029D000E069394601F026FE684620210DF0F4FA40
:1029E0001E21684601F046FA50B968460DF082FF94
:1029F00030B168460DF07EFF0146684601F068FA86
:102A0000322240F26661DFF8580ADFF8584A02F0D5
:102A100029FD206800280AD03178032907D10FF05A
:102A2000B0FE01282168CCBF00200120884780E645
:102A300001F0CCFDCCE7002D02D17AE64FF4C6754B
:102A400075E67068002814BF032001207FE7C07975
:102A500040000DF09BBDDFF8BC0701680888704797
:102A6000DFF8B0070168088970472DE9F041DFF809
:102A700070730C4680460B26B96E06FB08F631448F
:102A8000887A58B9FFF7F6FAB96E00688A1D91196D
:102A9000401E0A68821822EA00000860B86E811D94
:102AA00031440D6814B1681C086002E03044807A3B
:102AB00048B9B86E821D4046915901F045FCB96E87
:102AC0003144012088722846BDE8F08180B508B9FC
:102AD00000F0A5BD00F090F8BDE804400121C4E776
:102AE000002800D1704780B500F086F80021FFF77C
:102AF000BCFFC0F1807002BD10B50C4600B993E078
:102B000000F07AF8B64A936E0B2141430B44C3F8A8
:102B100006400124936E0B449C72926E0A44D2F8D4
:102B20000610BDE8104001F00FBC70B50C4600B9AE
:102B300060E1AB4E00F060F80B25B26E45432A44CD
:102B4000917A09B9FFF791FFB06E4119D1F80600EB
:102B50002060002070BDA248006B7047A0490A6B3E
:102B6000904204D28B6E0B214843184470470020DA
:102B7000704758B50446FFF781FA01280ED1984AEC
:102B8000936E002100E0491C106B814206D20B209D
:102B9000484318448688B442F5D152BD002052BD46
:102BA00080B5FEF703FF8E4A936E0B21484318440D
:102BB00002BD80B50021ADF800100020FFF7CEFF68
:102BC00010B1694600F00BF8BDF8000002BD002806
:102BD00018BF002900D109E00268108809E0002828
:102BE00018BF002900D101E0808802E04FF4C070D6
:102BF0007047088000207047794A916E401A0B2375
:102C000090FBF3F0704700006CA10320BCA10320EF
:102C100010B50C4600B907E08480FFF7EDFF2146B0
:102C2000BDE8104001F0F4BB4FF4C07010BD2DE9B9
:102C3000F8430C46FFF7E0FF0025064600274FF655
:102C4000FF78FEF7A3FE874219D23846FEF7A3FEAF
:102C50008146FEF7ABFEB0420FD1200007D0012C19
:102C60000AD14846FEF7D9FE404506D004E0484662
:102C7000FEF7D3FE404500D16D1C7F1CE1E72846DE
:102C8000BDE8F2832DE9F0470D469246FFF7B4FF09
:102C90000027814600264FF6FF7801E07F1C761C56
:102CA000FEF774FE86421AD23046FEF774FE0446E2
:102CB000FEF77CFE4845F2D1280005D12046FEF7FC
:102CC000ACFE4045EBD106E0012D04D12046FEF7D5
:102CD000A4FE4045E3D05745E0D1204600E0002067
:102CE000BDE8F087F8B50C46FFF786FF05460026DD
:102CF00000E0761CFEF74AFE864215D23046FEF70B
:102D00004AFE0746FEF752FEA842F2D13846FEF7C9
:102D100084FE4FF6FF718842EBD13846FEF77AFE0B
:102D2000A042E6D13846F2BD0020F2BD2DE9F041C7
:102D30000C461546FFF760FF0646002700E07F1CA3
:102D4000FEF724FE874213D23846FEF724FE804663
:102D5000FEF72CFEB042F2D14046FEF75EFEA042E6
:102D6000EDD14046FEF756FEA842E8D1404600E0CD
:102D70000020BDE8F08138B50C46DFF8685B50B143
:102D8000022801D002D30EE0686A32BDFFF772F963
:102D90002969C07903E0FFF76DF929688079444318
:102DA00001EB041032BD002032BD70B54FF6FF7349
:102DB000984200D11EE0644BDC6E002200E0521C01
:102DC0005D68AA4209D234F81250C5F30B06864258
:102DD000F5D12D0B0D70002070BD0020087070BD66
:102DE00018A10320FFFFE703004605000499032014
:102DF000FEFFE7034FF4C07070BD2DE9FC414FF6B4
:102E0000FF72054695424FF0FF3028D04E4C636864
:102E100000260CE0E76E37F81670974204BF10F1F9
:102E2000010F3046C7F30B07AF420FD0761C9E420E
:102E3000F0D30BD110F1010F08BF4FF4C17046D091
:102E4000E26E0646C5F30B0022F81600C5F30B0729
:102E5000E26E32F81600000B04D1012906D04FF4BF
:102E6000C07034E0012806D1022906D147EA0137B3
:102E700022F8167024E00228F1D10329EFD14FF097
:102E8000000812E06A464146012000F037F800F0E1
:102E90001AFCBDF80200A84205D1BDF800100022BE
:102EA000012000F0D9FA08F10108A0688045E9D3B3
:102EB00000222946002000F0CFFAE06E20F81670BC
:102EC000FFF7D8F88179E06E01F0ACFB0020BDE897
:102ED000F681022803D1DFF8FC0A016808470128BF
:102EE000194901D18868704708B9486870470020BF
:102EF00070471548C0687047F4DD032038B500F00E
:102F000051F80AD1C868516D1278930711D48442E0
:102F100018D231F81400288012E0012802D1886804
:102F2000116CF4E7002819BF002000214868116BDC
:102F3000EDE7DFF8A00A01688847844202D22C80BE
:102F4000002032BD2BE0000018A1032038B500F0AE
:102F500029F806D1C868516D127893070DD4002264
:102F600014E0012802D18868116CF8E7002819BF25
:102F7000002000214868116BF1E7DFF8580A01686A
:102F8000884784420BD22C6007E0521C824206D252
:102F900031F81230A342F8D12A60002032BD4FF43C
:102FA000C07032BD0C461546DFF8201C022801F126
:102FB0004002704780B56A46FFF7C8FF08B14FF47A
:102FC000C07002BDF8B5154606466A46FFF7BEFF5B
:102FD000002408BBDFF80C796EB1022E01D005D3B6
:102FE00012E0786A009900EB01140DE0FFF742F857
:102FF0003969C27903E0FFF73DF8396882790098B2
:1030000002FB050501EB051434B110222146DFF85F
:10301000100C0FF05FFE00B955E00020F2BDF8B5CE
:1030200007460E4615461C466A4639460020FFF7FD
:103030008DFF20B932463946FFF7C4FF00B142E0A8
:10304000DFF8887B65B1FFF715F883790098796F11
:1030500003FB0603102201EB0311284601F0DCFFFD
:10306000FFF708F800998379BA6F03FB0616492029
:103070004643951914B195F840002070079818B18F
:103080001022294601F0C8FF089820B1102205F14E
:10309000100101F0C1FF099820B1102205F12001B3
:1030A00001F0BAFF0A9820B1102205F1300101F0B9
:1030B000B3FF069828B105F141010A6802604A6829
:1030C00042600020F2BD4FF4C070F2BDF8B5064674
:1030D0000D4617461C466A4631460120FFF736FF6B
:1030E00028B92A4631460120FFF76CFF00B1EAE714
:1030F000DFF8906CFEF7BEFFC3790098316803FBE0
:103100000503102201EB0311384601F085FFFEF79D
:10311000B1FFC2790098716802FB050548190CB12E
:10312000017821700020F2BD80B50B46010004D06B
:1031300019460FF0F5FF70B104E0DFF8900AC1689E
:10314000012901D000F0F4BDD0F8981010221846E3
:1031500001F062FF002002BD1CB50C4601466A4624
:103160000220FFF7F3FE08B100F028BEDFF85C0A8A
:10317000D0F89810009801EB00111022204601F0C1
:103180004BFF002016BDDFF84C285368184718B5D0
:1031900004000846114685B01A4610D0022C01D012
:1031A00008D315E01146DFF82C28536806B0BDE8B7
:1031B0001040184706B0BDE81040002386E7002302
:1031C00004930293019300930394FFF728FF01E017
:1031D0004FF4C07006B010BD38B5144605466A46B7
:1031E000FFF7B4FE00B1DAE6DFF8480C022D08BFA5
:1031F000006A07D0012D08BF406903D0002D0CBF25
:10320000006800200099405C00F001002060002070
:1032100032BD00000C9103202C3C04002DE9F8473E
:1032200085B01446054604AAFFF790FE20B14FF47E
:10323000C07006B0BDE8F087DFF8906906F18C0732
:10324000022D08BF386907D0012D08BF786803D068
:1032500028000CBFF06F00200499405C24B1C10726
:1032600004D440F0010005E0C10701D40020E0E7EC
:1032700040084000022D08BF396907D0012D08BF62
:10328000796803D029000CBFF16F0021049A88549B
:103290002846022805D1F468D7F810904FF00008AE
:1032A00013E0012805D1B468D7F80080D7F804905E
:1032B0000BE0280019BF0024A04674684FF00008F6
:1032C00028000CBFD6F87C90C1460121FFF753FDC2
:1032D000824600212846FFF74EFD022D034608BF17
:1032E000BA6808D0012D08BFD6F8802003D0280086
:1032F0000CBF326F00220394CDF80880CDF8049003
:10330000CDF800A0294600F067FBAFE72DE9F04FAC
:1033100099B01C4600231746059380460D4604AA23
:10332000FFF714FE10B14FF4C0708AE005AA2946D9
:103330004046FFF751FF5FEA000956D1059810B1EA
:103340004FF4C6707DE000F03AFC0BD17069049B2D
:103350001022214600EB031001F05EFEEC68D6F867
:1033600018A04EE0B8F1010F1AD169462046FEF7C9
:1033700005FF5FEA000936D1FEF77CFE90F807C032
:103380000498336800F060F8FEF774FEC37904987F
:10339000726803FB0707D0199DF80020027028E02F
:1033A00006A92046FEF790FE5FEA00091BD1FEF752
:1033B00061FE90F806C004986B6F00F045F8FEF7C8
:1033C00059FE049B8079AC6F492200FB07375743B5
:1033D00006A9E01901F020FE5FEA08000ED00024E3
:1033E0000027A2460EE05FEA090029D1B8F1010FDB
:1033F000F2D1AC68B768D6F80CA003E06C68D5F8D9
:103400007CA0002700F0E4FB8346002100F0E1FBF4
:103410004146022908BF326909D0012908BFD5F801
:10342000802004D05FEA08010CBF2A6F00220394B9
:1034300002970346CDF804A0CDF800B000F0CCFA16
:10344000484619B0BDE8F08F0CFB070C102221464E
:1034500003EB0C1001F0E0BDDFF8C43756E70000C5
:1034600010990320DCDD0320F0B585B0002316465B
:1034700000F064F8070014D1009810B14FF4C67042
:1034800036E001AB012229462046FFF780FE070007
:1034900007D101AB002229462046FFF737FF07007E
:1034A00001D0384624E03346012229462046FFF762
:1034B0002DFF070002D000F03DF8F2E7BCB900F0A4
:1034C0003BFC12E06088A8420CD104F12D0004F10D
:1034D0000C01212201F0A0FD04F10C020121A01C2D
:1034E00000F0A0FB204600F036FC0400EAD10020EA
:1034F00005B0F0BD30B585B0002300F01FF8010025
:1035000016D1009810B14FF4C67011E001AB002243
:1035100029462046FFF73BFE010009D101AB0122FD
:1035200029462046FFF7F2FE010001D100F002F823
:1035300005B030BD0022294620468DE700930446A1
:103540000D466A4648E62DE9FC4782460B9E002060
:103550008DF800008946306090461F460021FFF735
:1035600029FD002400B90124DFF8C45B287A48450E
:1035700006D04146484600F074F8012030600CE067
:103580002968414509D20CB1287B30B1404600F092
:1035900022F8002028730121316069465046FFF768
:1035A00004FC9DF80000012805D10A9801280CD1DF
:1035B0002FB1022104E0022808BF002F05D103210A
:1035C0005046FFF71AFC01203060BDE8F387DFF8B2
:1035D000FC05406D7047DFF8F4154865FEF763BDE4
:1035E00080B5DFF8E81581F85C00FEF718FEBDE84D
:1035F0000140FEF758BDDFF8D40590F85C00704735
:1036000080B501F07EFFDFF8C42592F85F1019B98C
:10361000516E11F1010F00D101E0401A02BD4FF0CF
:10362000FF3002BD10B5044601F06BFF041BDFF84C
:103630009C05446610BDDFF8940590F85F00704764
:1036400000B10120DFF8841581F85F007047DFF8D2
:103650007C0590F860007047DFF8701581F8600015
:10366000704730B5DFF8643503F15C04227882429C
:1036700004BF5D6D8D4205D062781AB90125657071
:10368000A0709965002030BD7CB504460025DFF8A8
:103690003C6504E0BDF80010012000F019F8B068A6
:1036A00085420FD26A4629460120FFF727FC38B928
:1036B00000F009F8002804BFBDF80200A042E9D0DC
:1036C0006D1CECE773BDBDF800000DF102015BE37A
:1036D0002DE9F04389B007460E4602AAFFF736FCF3
:1036E00010B14FF4C070F8E0314638460EF091FE4C
:1036F0003146384609F074FBDFF8D044022F04F15C
:10370000840514D1E268286900F0FDF8686902991F
:10371000E26800EB01100299521A521E120100F1E8
:10372000100102F049F8E068401EE060D4E0012F8B
:1037300077D1002710E04A4601214046FFF7A2FA60
:103740003146FEF790F909F1010901214046FFF7E2
:103750006EFA8145EFD37F1C206B874219D2384621
:10376000FFF7FCF980464FF0000909E04A460021C6
:103770004046FFF787FA3146FEF775F909F101096E
:1037800000214046FFF753FA8145EFD34FF000097F
:10379000DBE700270FE03846FEF7FDF8804603A977
:1037A000FEF7B4F9002801BFBDF81E00B042404644
:1037B000FEF7D7F97F1CFEF7E9F88742EBD3A26842
:1037C000D4F8800000F09FF80026FEF753FC00F0CC
:1037D000A3F8A26802992B68C079521AF97900F00F
:1037E00083F8FEF747FC00F097F8FF796B68A26852
:1037F0000299C07907FB0617521AD919029F00FBDC
:103800000670521E491C184401F0D6FF761C012E8A
:10381000DBD9A268A86800F076F8A068401EA06016
:103820005AE03046FFF730FF03A80FF06EF8BDF8FE
:103830001400B04207D1002200230192009300211E
:1038400030460FF06AF84FF6FF70626886420DD07E
:10385000E36E002100E0491C914207D233F8115079
:10386000C5F30B05B542F6D123F81100206F029B7A
:10387000D21A00EB4300521E5200811C01F09CFF43
:1038800000264925FEF7F6FB00F046F8626802992B
:10389000636F8079521AB97900F026F8FEF7EAFBD7
:1038A00000F03AF8BF79626802998079A36F07FB4C
:1038B0000617521A6F43521ED919029F00FB067059
:1038C00068436A434931184401F076FF761C012EA3
:1038D000D8D96068401E6060002009B0BDE8F08360
:1038E000000000008CA10320029F01FB0671521E04
:1038F00003EB011C00FB067012010CF1100103EB3D
:10390000001001F059BF0299521A00EB4100521EFB
:103910005200811C01F050BF0746FEF7ABBB2DE9FA
:10392000F04F85B00023049304460E4604AAFFF727
:1039300053FC5FEA000A49D1049810B14FF4C670F5
:1039400045E031462046FFF7C3FE5FEA000A3DD15D
:1039500020469E4D022805F18C0B04D1EE68DBF861
:103960001080002712E0012805D1AE68DBF8007056
:10397000DBF804800AE0200019BF002600276E68EB
:10398000002720000CBFD5F87C80B8460121FFF746
:10399000F2F9814600212046FFF7EDF9022C03469B
:1039A00008BFDBF8082008D0012C08BFD5F880201C
:1039B00003D020000CBF2A6F002203960297CDF897
:1039C0000480CDF80090214600F006F8504605B07E
:1039D000BDE8F08F0499032000200CF0D0BE2DE943
:1039E000F04780460C46174698B010220FF2B87187
:1039F00038460FF06FF910B94FF4C070DCE004AA3C
:103A000021464046FFF7A2FA10B940F60140D3E044
:103A100000F0D5F816D1FEF72DFBEB68007A834253
:103A200052D0316921F8134010227069394600EBF9
:103A3000031001F0F1FAEC68641CEC600027D6F882
:103A4000189098E0B8F1010F38D1FEF713FBA96880
:103A5000C079814238D069463846FEF78FFB00288E
:103A60003AD1D5F88000A96800F0E6F93068AA6874
:103A700000F0B2F8FEF7FEFA3946C079AF68336855
:103A800000F0AFF8FEF7F6FA7068A968014400206C
:103A90000870FEF7EFFAAB68C07972681B181A4419
:103AA0009DF8000010704FF6FF70B768AC6827F8FB
:103AB0001400641CAC60D6F80C905CE0FEF7DAFAF7
:103AC00069688079814202D140F6034074E005A91B
:103AD0003846FEF7F9FA10B14FF4C6706CE0286F63
:103AE000696800F0A9F9686F6A6800F075F8FEF778
:103AF000C1FA394680796F686B6F00F072F8FEF793
:103B0000B9FA6A68A86F49277A434921104400F03E
:103B100053FBFEF7AFFAD5F804C08079AB6F604471
:103B20004743492205A9D81901F076FA6868401C74
:103B30006860002710E038460FF0B6FB044650B12D
:103B40000FF04AFC38B10FF0FCFF20B16868214645
:103B5000401E09F01FFC7F1C0FF0A2FB8742EAD336
:103B60005FEA080003D000270024B94603E06C6830
:103B7000D5F87C90002700F02BF88246002100F059
:103B800028F8B8F1020F034608BF32690AD0B8F12D
:103B9000010F08BFD5F8802004D05FEA08000CBFF1
:103BA0002A6F002203940297CDF80490CDF800A06C
:103BB0004146FFF711FF002018B0BDE8F087034D24
:103BC000B8F1020F05F184067047000018A1032028
:103BD00001214046FFF7CFB8102100EB021000F0A2
:103BE000EBBA3F18102203EB071001F015BAD0B55D
:103BF0000026DFF87845074600E0761CFEF73AFA23
:103C0000F1B2407A814209D2D4F8A010F2B24E202B
:103C1000424388180388BB42EFD1D0BD0020D0BDFD
:103C2000A841000070B504468AB0208902900D4674
:103C3000E18801911646A0880FF25C52009009219C
:103C4000638803A810F0FAF8218806AB2A46002002
:103C5000FFF79DFA010005D13346092203A906A802
:103C600002F0C8FB0AB070BD2DE9F0418AB00546EC
:103C70000E4690461F46FEF701FA012818BF4FF482
:103C8000C07049D12846FFF7B2FF040007D10020D9
:103C9000FFF7ADFF040008BF40F603403CD0002012
:103CA000ADF80000FEF75AFF6946FEF798FF10983E
:103CB0002EB1BDF80020BC462B46074603E0BDF8F8
:103CC00000302A468446A280A4F808C0E3806781B9
:103CD000A4F8028001AA0121A01CFFF7A3FF0100A4
:103CE0001AD104F10C0001A9212201F095F900225A
:103CF00041460020FFF766F960B901AA0021A01C27
:103D0000FFF790FF010007D104F12D0001A9212246
:103D100001F082F9258000200AB0BDE8F08180B56D
:103D2000FFF765FF00B903E000210180002002BD1C
:103D30004FF4C07002BD5AE780B5FEF79BF9407A98
:103D400040B1DFF82804D0F8A000018811B9BDE81F
:103D5000024000E002BD10B500F055F9DFF80C1488
:103D6000D1F8A020417A4E20414350184E38844269
:103D700005D234F84E1F0029F9D0204610BD00208E
:103D800010BD00009CA103201CB50C4601466A46EC
:103D90000120FFF7DBF810B140F6024016BDDFF856
:103DA000CC03D0F88C10009831F810004FF6FF715A
:103DB000884200D102E02080002016BD4FF4C07080
:103DC00016BD70B586B0002305460C46049305AABF
:103DD00029460120FFF7BAF810B140F6024027E06B
:103DE00004AA29460120FFF7F7F9010020D1049821
:103DF00010B14FF4C6701BE0DFF87053059905F160
:103E00008406B06800F018F800F0FDF8A868B16802
:103E1000336803900291F06801900020E17903EB90
:103E2000011200920121D5F880200CF0A8FC00209E
:103E300006B070BD94A1032020F81140FEF71AB916
:103E400038B5044600F0CCFE40F6024518B12046D5
:103E500000F0D2FE0546284632BD38B5044600F0D3
:103E6000E7FE40F6024518B1204600F0EDFE05469B
:103E7000284632BD7CB504460D4600F0EAFE40F609
:103E80000246A0B16946002000F0EFFE06000ED108
:103E90000098A84209D20021204600F0E6FE060064
:103EA00005D100990020605401E04FF4C1763046FE
:103EB00076BDAF487047AD48808C7047AB49888469
:103EC0007047AA4991F82C0008B101F12800704709
:103ED0001FB5002818BF0029A44C03D1002084F886
:103EE0002C000DE06A4602F061FA10B14FF4C67082
:103EF00006E004F12801009A0A60012284F82C20CF
:103F000004B010BD99480078704798480170704718
:103F100038B505460C46FEF7ADF8407C854206D222
:103F200094494A68505D002818BF002C01D1FFF762
:103F300036B8086800EB05111022204601F06CF835
:103F4000002032BD70B505460C46002600E0761C08
:103F5000FEF790F8407C86420FD2864B5968885D08
:103F60000028F4D018681022294600EB06100EF045
:103F7000B1FE0028EBD1266070BD40F6024070BD56
:103F8000F8B507460C4600267A4DFEF773F8407CDC
:103F9000864223D26968885D002818BF761CF4D158
:103FA0001CE028681022394600EB061001F034F8B6
:103FB0006868012181553046FEF77DF807000AD078
:103FC0002868102100EB061000F0F6F86868002160
:103FD00081553846F2BD26600020F2BDFEF74AF852
:103FE000407C8642DDD14FF4C170F2BD10B500F0C7
:103FF0000AF8407C844202D200F01AF808B9FEF7B1
:1040000013BE401C0EE00446FEF734B810B5FFF7AF
:10401000FAFF407C844202D200F00AF808B9FEF7A9
:1040200003BE401E08552046FEF745F8002010BD8F
:104030004E48D0F8A810085D704710B54E4C226865
:10404000904208BF00290BD10EF09BFB012807D13D
:1040500000224A4920460FF014FD08B100202060DC
:1040600010BD38B5444D01462868002419B1022915
:1040700015D006D315E070B10FF024FD04000AD16D
:1040800007E040B900223D4928460FF0FAFC040041
:1040900001D00020286000F006F8204632BD002044
:1040A00032BDFEF77CBF78B5354C20688BB000B1CF
:1040B00080470EF066FB01282FD1206868B30024EA
:1040C000304D25E01F20ADF808000DF10602214615
:1040D0000020FEF713FFD0B9BDF8060001A90EF0CD
:1040E00083FAA0B99DF80400022810DA02A9009111
:1040F000BDF806209DF8040003AB062110F039F945
:10410000BDF808202E68002303A92046B047641C90
:104110000020FEF7DEFE8442D4D30CB070BD1348FD
:1041200090F8401011F0020018BF01207047000005
:104130006CA103200D4890F84010880758BF0EF07E
:1041400010BB05207047094890F8500070470E4892
:104150000E490F4A416082600E490160034890F8A1
:10416000402042F0020280F84020704718A103204E
:104170002CA10320BCA1032098DE03203B400000BB
:10418000ECDD0320E4DD0320049903202931000045
:1041900005EE010049310100012573622573622596
:1041A0007362257362000000000000000000000040
:1041B0000000000000000000002210F0CDB9FEE772
:1041C0000146800B03D002280ED005D306E008007C
:1041D00018BF0120C0B2704701207047B1F57F4F72
:1041E00001DB0420704703207047014648780A78B5
:1041F000000440EA02608A78C97840EA0220084355
:10420000704710B50A0E0C0A02700B0C84704370D4
:10421000C17010BD014648780A788978000240EAEA
:104220000240084370470A0C02700B0A4370817009
:10423000704710B5DFF8C02B02EB8004616811B93C
:1042400010F029FC6060606810BD38B5DFF8AC5B29
:10425000044655F8241019B910F01BFC45F8240049
:1042600055F8240032BD70B5DFF88C4B207808B1CA
:1042700000F00BF80020DFF8841B00F012F801209A
:104280002070BDE8704010F07BBA70B5DFF8684B65
:10429000DFF8681B002000F004F810F07BFA2670AD
:1042A00070BD0023251D002682B245F82230401C37
:1042B00041F822600E28F7DB704710B50446002055
:1042C00010F0DCFB20B10020FFF7B3FF20600120DD
:1042D00010BD70B50446DFF8205BDFF8206B0020CE
:1042E00068600B4630600322214610F0C4FA0100DA
:1042F00002D16C600321316070BD10B50B46DFF850
:10430000F82A002151600024DFF8F01A0C60014601
:10431000BDE810400322002010F0B6BA38B50446BC
:104320000D460020FFF785FF844200D322E06A4655
:104330002146002010F01AFB040003D16846FFF765
:1043400069FF2860204632BD38B50D46B5F1807F43
:10435000044604D20020FFF76CFF844200D309E03A
:1043600029466846FFF75FFF6A462146002010F0A5
:104370005DFB32BD4FF4C07032BD10B50446052060
:1043800010F07CFB28B10520FFF75FFF400820609C
:10439000012010BD0246DFF8601A0020886100236A
:1043A000DFF8580A4361012352000121052010F073
:1043B00062BA0246DFF8401A002088610023DFF865
:1043C0003C0A4361012352000121052010F05CBA30
:1043D000F8B506460D46FEF7BEFB0746022000F084
:1043E0000FFEBE42044600D332E00220009073006C
:1043F00022460021052010F070FA060004D1207832
:10440000617841EA0021298000F022FA3046F2BDAD
:10441000F8B505460E46FEF79EFB0746022000F063
:10442000EFFDBD42044602D2B6F5004F00DB0FE0BF
:10443000300A20706670022100916B002246002134
:10444000052010F0A0FA054600F002FA2846F2BD59
:1044500000F0DFFD4FF4C070F2BD10B50446082037
:1044600010F00CFB38B10820FFF7EFFE1121B0FB74
:10447000F1F02060012010BD0246DFF87C19002019
:1044800048620023DFF874090362012302EB021281
:104490000121082010F0EFB90246DFF85C19002076
:1044A00048620023DFF854090362012302EB021281
:1044B0000121082010F0E8B92DE9FC4180460C46A6
:1044C0001546FDF7D7FD477C112000F099FDB84552
:1044D000064604D300F09DFD4FF4C07015E0112096
:1044E000009008EB081332460021082010F0F5F97F
:1044F000070006D110223146204600F08DFD307CA9
:104500002870304600F085FD3846BDE8F6812DE97B
:10451000FC41044688461646FDF7ACFD457C11205B
:1045200000F06EFDAC42074604D300F072FD4FF47C
:10453000C07012E01022414600F06EFD3E74112062
:10454000009004EB04133A460021082010F01BFAF7
:104550000446384600F05DFD2046BDE8F6810120A6
:1045600010F08CBADFF89018002088600022DFF885
:104570008C084260012305220121012010F07BB943
:104580007CB504460D466A460021012010F0EEF984
:10459000060009D19DF8000000F0010028700DF11F
:1045A0000100FFF722FE2060304676BDE0B501F045
:1045B000010100F052F8FFF724FE6A4600210120B5
:1045C00010F034FA0EBD092010F058BADFF82818A0
:1045D000002088620022DFF82408426201231022B2
:1045E0000121092010F047B97FB504460D46684601
:1045F000002100220023002680E84E006A460920A0
:1046000010F0B4F906000AD19DF8002005B12A6027
:104610002CB152000DF10101204600F0FDFC3046A6
:1046200004B070BDF8B54A00531C102B84B088BF8D
:104630004FF4C1700FD86B460024002500260027D8
:1046400083E8F00000F009F800F0E6FC6A4600217B
:10465000092010F0EBF905B0F0BD8DF8001001460F
:104660000DF10100704710B50446022010F006FA63
:1046700020B10220FFF7DDFD2060012010BD70B5E4
:1046800000F07FF9857AFDF7F5FCC67A06EB460661
:10469000FDF7F0FC06EB45060546FDF7EBFCC07A9E
:1046A000A97A00F0CFF80A36B04202D24FF4C170B6
:1046B00070BD00F027F80546FDF7DCFCC27AA97A48
:1046C00000F01AF8BDE8704001230A32022010F011
:1046D000D2B838B5044600F015F80546FDF7CAFC17
:1046E000C27AA97A01B000F007F8BDE83040012392
:1046F0000A32022010F0C8B802EB420202EB41027B
:1047000021467047DFF8F0160020C8600022DFF86D
:10471000EC068260FDF7AEBC2DE9F84F06460D466B
:1047200092469946FDF7A6FC00F02BF9C07AA17AD3
:1047300000F088F800F064FC04460220FFF779FDE1
:10474000864204D300F084F84FF4C07078E022462B
:104750003146022010F00AF95FEA00086DD1277A8D
:104760007E0004F10900815D00915DB305F1120046
:104770002178017061784170A11C08782870487810
:10478000E97D687001F0FE01207941EAD010E875FA
:10479000207900F07F0B2888FFF712FD022807D14F
:1047A000A91C5846FFF7B4FB5FEA000845D103E0B7
:1047B0001021A81CFFF700FD60792875A1796975A3
:1047C000E079A875BAF1000F18BFCAF80070B9F106
:1047D000000F0ED000210AE004F1090202EB4103B0
:1047E00009EB41051A782A70491C5A786A70B94257
:1047F000F2D30A9808B1009901600B980C9900282F
:1048000008BF002919D0009B002214E002EB4205EA
:10481000AD19254458B105F10A0C00EB420E9CF885
:1048200000708EF800709CF801708EF8017009B16C
:104830002D7B8D54521C9A42E8D300F009F8404673
:10484000BDE8F28F00EB400000EB41000A307047FA
:10485000204600F0DEBB2DE9F84F0A9E82460F4647
:1048600091469846FDF706FC00F08BF8C57AA17AD0
:1048700005EB450505EB41050A35284600F0C0FB70
:10488000044600200090FDF7F5FB8346FDF7F2FBA0
:10489000C07A9BF80A1000EB400000EB410006EBE9
:1048A000460101EB49010A300A31884204D2FFF780
:1048B000CFFF4FF4C17062E00220FFF7BAFC8245DF
:1048C00004D3FFF7C5FF4FF4C07058E029462046D7
:1048D000FFF772FC07F112000178217041786170D6
:1048E000A11C38780870787848703888FFF768FC21
:1048F000022806D16946B81CFFF724FB054610B113
:104900003AE07F200090F87DC107009848BF40F052
:1049100080002071387D6071797DA1710021B87DA2
:10492000E07184F80890092008E008EB41022318A0
:1049300015781D70801C52785A70491C4945F4D373
:1049400026540B990C9A401C00230DE001EB430503
:10495000271895F800E087F800E0801C6D787D70DE
:10496000D55C2554401C5B1CB342EFD32246514614
:10497000022010F05BF80546FFF76AFF2846BDE805
:10498000F28F0446FDF776BB032010F077B880B5B0
:10499000FDF770FB807940000830282802D94FF4D9
:1049A000C17002BDDFF85014002008610022DFF85A
:1049B0004C04C2600123BDE80050282201210320DD
:1049C0000FF059BF2DE9F0418AB007460C46154655
:1049D0001E466A46002103200FF0C8FF804648BBF0
:1049E0009DF8072017B19DF80000387014B19DF8AC
:1049F0000110217015B19DF80210297016B19DF8B3
:104A000003003070109810B19DF8041001701198D7
:104A100010B19DF805100170129810B19DF80610A4
:104A20000170139800B10260149818B1520002A9E5
:104A300000F0F2FA40460AB0BDE8F0812DE9F04FEF
:104A40008BB0179F7C000834282C88BF4FF4C170AE
:104A50002AD88DF800008B46DDF86080169C159DE5
:104A6000149E99469246282101A80BF0ADFA9DF8B4
:104A700000008DF804008DF806A001A880F801B0B0
:104A800080F803908DF808608DF809508DF80A4081
:104A90008DF80B707A00414603A800F0BDFA01AA18
:104AA000002103200FF0C2FF0BB0BDE8F08F10B55E
:104AB000044604200FF0E2FF20B10420FFF7B9FB09
:104AC0002060012010BD0146DFF82C23002050613A
:104AD0000023DFF8280303610123182204200FF0CC
:104AE000CABE0146DFF81023002050610023DFF822
:104AF0000C0303610123182204200FF0C5BE2DE929
:104B0000F843074686B00E4614461D460420FFF7BC
:104B100090FB874228BF4FF4C07027D26A463946BF
:104B200004200FF023FF5FEA00081ED19DF80270F9
:104B30009DF8039016B19DF80000307014B19DF8F7
:104B40000100207005B12F600E9818B13A4601A9F6
:104B500000F062FA0F9808B1C0F80090109820B1E8
:104B600001A94A46C91900F057FA404607B0BDE806
:104B7000F0832DE9F04786B089460F9C1F46E11966
:104B8000091D1829924688BF4FF4C17025D8804668
:104B90000420FFF74EFB804528BF4FF4C0701CD2A5
:104BA000109D0E9E182100F07DF88DF800908DF874
:104BB00001A08DF802708DF803403A46314601A8F5
:104BC00000F02AFA01A822462946384400F024FAC7
:104BD0006A46414604200FF029FF06B0BDE8F08781
:104BE00080B506200FF04AFF20B10620FFF721FB19
:104BF000012800D0002002BD38B598B004466A46AE
:104C0000002106200FF0B2FE05000AD140226946BD
:104C1000204600F001FA202210A904F1400000F023
:104C2000FBF9284619B030BD2146684600F0F4B9BA
:104C300080B507200FF022FF20B10720FFF7F9FA17
:104C4000012800D0002002BD0246002107200FF0FD
:104C50008DBE80B50B200FF011FF20B10B20FFF7A8
:104C6000E8FA012800D0002002BD70B588B00546E2
:104C70000C461E2100F016F86A4600210B200FF0AA
:104C800075FE06000AD168460BF034FE024604B1F8
:104C900022601DB16946284600F0BEF9304608B0D2
:104CA00070BD202168460BF08FB910B504460A206C
:104CB0000FF0E4FE20B10A20FFF7BBFA20600120CC
:104CC00010BD10B5FFF75DFEC079400013302028FD
:104CD00002D94FF4C17010BD47490020C8620022BC
:104CE0004648214682620123BDE8104020220A2066
:104CF0000FF0C1BD0146404A0020D06200233F486A
:104D00008362012320220A200FF0BEBD70B5044645
:104D10001646701C202888B00D4604D80A20FFF7DC
:104D200088FA844202D34FF4C0700EE0FFF7B9FF57
:104D30008DF80060324629460DF1010000F06CF953
:104D40006A4621460A200FF071FE08B070BD2DE9B9
:104D5000FE4F05460E46FEF73AFC040014BF671EE0
:104D60000027A81CFFF741FA814605F10900FFF76B
:104D70003CFA82463009A14518BFB9454FF00008FA
:104D8000019006F00F0B33D10BEBCB00924C29882E
:104D900021522718B87869F30000B870A81DFFF7F2
:104DA00039FA009003226946F81C00F035F9B8780A
:104DB0006AF34100B87005F10D00FFF72BFA00907F
:104DC00003226946B81D00F027F9BBF10F0F05D289
:104DD000824801684A68521E964209D301992246C8
:104DE0000C200FF023FE8046902120460BF0ECF8BB
:104DF0004046BDE8FE8F000050E203208CE2032015
:104E0000F8B504460D46FEF7E2FB0646208800276B
:104E100048B3A07806F0010100F0010090EA010F0C
:104E20001DD13146A81CFFF7ECF90322E11CFFF766
:104E3000FCFE0099A81DFFF7F6F9314605F10900BF
:104E4000FFF7DFF90322A11DFFF7EFFE009905F13F
:104E50000D00FFF7E8F920882880012703E01021E2
:104E60002846FFF7A9F93846F2BD10B5FDF702F95B
:104E7000847BFDF7FFF82409807B00F096F818BFCB
:104E8000641C2146BDE81040012390220C200FF045
:104E9000F2BC38B5002500245048006841688C42B7
:104EA0000ED20268214602EB0410FFF750FF050006
:104EB00006D1FDF7DFF8807B844238BF641CEBD35A
:104EC000284632BD2DE9F04FA9B0044605A890212F
:104ED0000BF07AF801A810210BF076F83F4E3068FD
:104EE000D0F80480FDF7C6F80025807B804558D2B5
:104EF000FDF7C0F8A946877BFDF7BCF83F09807B2A
:104F0000009400F052F818BF7F1C2EE04FEA0B10FF
:104F1000BDF804103AF80020914207D15044811C9A
:104F200007220DF106000DF0D5FE88B10BF1010B43
:104F3000306841688B45E9D3102201A90AEB0810BB
:104F400000F06AF8306808F101086D1CC0F80480B0
:104F5000FDF790F8807B404502D3641C102C11D3E0
:104F6000009800B1058009F10109B94519D205AAD7
:104F700049460C200FF0FAFC0146BDF8140080B140
:104F800079B9002405A804EBC40201A91044FFF775
:104F900037FF0028E1D03068D0F800A04FF0000BB8
:104FA000C6E7002029B0BDE8F08FC10800EB117200
:104FB0001209B0EB021070470D200FF05FBD0849D9
:104FC0000020886300220748426301230222012156
:104FD0000D200FF050BC0000C4E20320F498032021
:104FE00050E203208CE20320024600210D200FF046
:104FF000BDBC01B56A4600210D200FF017FD02BDB2
:1050000080B510F099FC009008B911F081F8009873
:1050100002BD10F0ECBDFEE762B38B0708D0521E54
:1050200011F8013B00F8013B00F024808B07F6D11A
:10503000830740F0208000BF103A07D330B4B1E8B6
:105040003810103AA0E83810F9D230BC530724BF0A
:10505000B1E80810A0E8081044BF51F8043B40F83C
:10506000043BD20724BF31F8022B20F8022B44BFA7
:105070000B7803707047083A07D3B1E80810083A74
:1050800040F8043B40F804CBF7D25307E4E7FEE7CF
:1050900041F0004111F0FEB81CB50024009441F02D
:1050A000004111F0A6F816BD00210020FDF7C9B897
:1050B0000146DFF89006806800E0406900281CBFC8
:1050C00002688A42F9D1704780B5DFF87826936884
:1050D00000E00B46596921B18142FAD14A695A610F
:1050E00002E018B14169916011F095F9002002BD0C
:1050F0002DE9F843DFF84C7604467868401C0D46ED
:1051000091469846786004D10120786001E0761CD1
:105110007E607E683046FFF7CBFF0028F7D118206D
:1051200011F05DF9B96841617A68026004718560C7
:10513000C0F80C90C0F81080B8607868BDE8F283C1
:1051400010B522F0004240F29A21521A184621D09E
:1051500048F66751521A10D0521E02D0921E16D035
:105160001AE0FFF7A5FF040016D021692068E26865
:1051700090472046FFF7A8FF0EE0FFF799FF58B1D0
:10518000816800228260084600F013FA04E000F013
:1051900006FA01E004F0A4FE002010BD10B504469C
:1051A000DFF8A405016809B120468847DFF89C05AF
:1051B000016819B12046BDE81040084710BD10B580
:1051C000DFF88045207868B901212170012011F0B5
:1051D00006F9024604F12000BDE81040DFF8701522
:1051E00011F05EB810BD10B50146DFF86845102219
:1051F00004F12800FFF710FF04F12803BDE8104078
:105200001022002142F2300011F006BAF0B58142BE
:1052100012D3140010D0052A0EDC022B0CDA059EE6
:10522000340009D0082E07DA069D042DA4BF079C80
:10523000042C01DBA54202D24FF4C070F0BDDFF8B0
:1052400014753880BE713D817C8179803A717B71A3
:105250000020F0BD2DE9F0478CB005460E46169CA7
:105260009146984605A81C210AF0AEFE290030D0D0
:105270004FF4B0500FF0C4FC78B342F2300A04ABE4
:1052800003AA0021504611F0B1FA002804BF9DF88E
:105290000C001028DFF8BC7424D012F01FF801466F
:1052A00006226846FFF7B8FE0A220FF2FC4107F11A
:1052B0002800FFF7C1FE0622694607F13200FFF71A
:1052C000ABFE07F1280310220021504611F0A4F98B
:1052D0000EE02000D1D0B007CFD44FF4C0700CB096
:1052E000BDE8F0870499102207F12800FFF794FE2B
:1052F000149A159917988DF82E208DF82F100028E4
:105300009DF8202014BF0621002107F12803114336
:1053100007F10E02099305928DF8201007F1100392
:10532000DFF834248DF82A5000288DF82B608DF892
:105330002C908DF82D80ADF828400693079207F148
:105340000C0105A804D10EF0E1FF040004D108E02F
:105350000EF0E8FF040001D02046C0E7684600F0E8
:105360008FF9199E189D002007F090FBFFF79CFE17
:10537000387B2870FEF7C6FD307078890290398935
:105380000191B87900907B793A797988388812F060
:10539000BBF8E1E70FF21C41085C12F0DEB90FF236
:1053A0001442105C12F0EAB9F8B51446069ADFF818
:1053B000AC63DFF8AC730E6027601D460FF2F43467
:1053C000205C0023D2B2A9B212F090F90020F2BD05
:1053D0000FF2E031085C12F0B3B912F045BA704731
:1053E000F0B5DFF870638BB004460D4600278DF8EA
:1053F0000C7004A81C210AF0E7FD9DF81C100FF2A8
:105400009437089741F002018DF81C1006F1100244
:1054100006F10E010491059204A8CF49069106F108
:105420000C0112F0BFFC01001AD103A800F028F90A
:10543000002007F02BFBFFF737FE307B20700020A9
:105440000AF017FF286070893189737932790290E8
:105450000191B07971880090308812F055F80020E1
:105460000BB0F0BD3EB504460D46510CD00300F024
:10547000CCF8CDE900012A46BA49204600F001F8EF
:105480003EBD70B51346DDE9044506460A460021D7
:105490000220FFF72DFE234630600246BDE8704033
:1054A00049F20201B048F7E5884201D00120704777
:1054B0000020704738B50446A24DAC4B224605F19A
:1054C000200010F06AFE2046FFF7F2FD040011D024
:1054D0002079012808D1E869401CE861A06838B14A
:1054E00012F05FFE0020A0602046BDE83240EBE5F0
:1054F000E06032BD002032BD00E0000049F2020150
:10550000D8E7E0B5684613F029F900980EBD80B5DC
:1055100013F01BF9964A116804BD10B54FF47A7464
:10552000A4FB002304FB0133D20B42EA434010BD2D
:10553000410CC0034FF47A72002313F039B980B5DF
:105540000A460146104613F0E2F9002002BD38B5C4
:105550007C4DA869A968401C0024A86106E0087970
:10556000012802BF886800280C4649690029F6D145
:10557000E3681BB122692168002098472046FFF7A5
:10558000A3FDE8680168E96012F00BFE05F1200058
:10559000BDE83840002249F2040110F07BBE6949A1
:1055A000C86828B14A69521C4A61724911F0ECBFBF
:1055B0007047644A01461069401C1061D068002899
:1055C0001CBF02F10C0012F0A3BFD160E7E770B579
:1055D0001E46036813B140F6054070BD13460A46E7
:1055E000049D01460120FFF783FD044605B12C60B0
:1055F000710CF00300F009F80346224649F201015C
:105600005948FFF749FD002070BD4FF47A7200231E
:1056100013F0CEB849F201014CE718B509B481B0D6
:10562000062010F0DCFE024602A8534C016811600F
:10563000101D06A90B7803704B7843700221204699
:10564000FFF726FD00218DF80010ADF802100520AF
:1056500010F0C5FE9DF800200270411C01AA1378CD
:105660000B7053784B700DF10202C11C13780B7054
:1056700053784B70024603212046FFF709FD1FBDFA
:105680003EB5002504468DF80050019507E09DF8D1
:10569000001001980DF102020DF0EDFC6D1CE8B256
:1056A00000F5015001AB6A46002180B211F09EF86E
:1056B0000028ECD0257000203EBD78B5A3B00024B2
:1056C0000194002501AE009602ABA2B2012103A80D
:1056D0000DF09DFC019868B1C2B204F5015003AB16
:1056E000002180B210F098FF98B90198641C00283E
:1056F0002546E8D1EDB20DF02AFDA9B2814208D2CB
:1057000005F501504FF6FF7180B210F02FFF6D1CB0
:10571000F1E724B070BD10B51849194A0C6811683A
:1057200038B1022008710A1D164B0B601846164945
:1057300003E0164808600A1D154913F079F9B4F919
:10574000040010BD90DD0320B4DD032034DE03200F
:105750004151000028980320303C0400955300007C
:105760009F53000043220000B0DD0320A954000035
:10577000C8E103204F5500008CDD032064DB0320CB
:1057800060DB032020010302558D04002000030389
:10579000698D040053696C69636F6E204C6162739C
:1057A000205072760000000053696C61627344659A
:1057B000762D00000E09FEE781423ABF5318984249
:1057C000FFF72ABC8018990707D0521E24BF13F890
:1057D000011D00F8011DF6D8704781071CD1103A51
:1057E00007D330B433E93210103A20E93210F9D23D
:1057F00030BC1032121F24BF53F8041D40F8041DA2
:10580000F8D838BF121D521E24BF13F8011D00F82E
:10581000011DF8D8704700BF083A07D333E90210DA
:10582000083A40F804CD40F8041DF7D20832EAE700
:105830000146800B03D002280ED005D306E00800F5
:1058400018BF0120C0B2704701207047B1F57F4FEB
:1058500001DB04207047032070472DE9F8438046A0
:10586000894614460026DFF83C5400E0761C286880
:1058700041688E4211D21C2781687743C859FCF7D2
:10588000CCF84045F2D129688868C059FCF7C2F8C5
:105890004845EBD12660002001E04FF4C070BDE820
:1058A000F28330B5002200E0521CDFF8F8331B68A9
:1058B0005C68A24208D29B681C2454431D5985424F
:1058C000F2D10A60002030BD4FF4C07030BD2DE928
:1058D000F8430D4691464FF6FF718945804621D029
:1058E000402D1FDA0024DFF8BC7300E0641C386828
:1058F00041688C4216D21C26806866438059404518
:10590000F4D1FCF78AF84845F0D13868816801EB9A
:10591000D5039B1905F007011879C840C207E5D5E2
:10592000012000E00020BDE8F283F8B5012984B031
:105930000646154618D103A9FFF7B3FFA0B9DFF853
:10594000640301688A6803991C2041435018C468A5
:1059500054B10E980C990D9F029000910B9B0A9ADE
:10596000019729463046A04705B0F0BDF8B592B082
:1059700000220C460A9205460BA9FFF792FF06008B
:1059800061D10CA92846FCF7C1F806005BD1284676
:10599000FCF70CF8FDF7E2F80DF12201FDF71FF915
:1059A000060050D1BDF8220010B94FF4C0764AE08D
:1059B000BDF8420009A9FEF7E7F9060043D1B94F47
:1059C000386881680B981C267043084402691AB134
:1059D00008A9284690470A900A9810B94FF4C6764D
:1059E00031E09DF820000443BDF830008DF82040E0
:1059F000FFF71EFF3C680B9AA16802280CBF0DF14F
:105A000032000020564331448B699DF844200793AF
:105A1000002349690691059201909DF820100A9A89
:105A2000BDF830000491039202930090BDF822303B
:105A3000BDF82420BDF8421024680120A0470600CC
:105A400004BF00200A900AA812F0ABFC304613B045
:105A5000F0BD2DE9F84F0546164690B088461C4625
:105A60003046FFF7E5FE02280CBF002C002D54D075
:105A700009A92846FFF715FF00284ED10027284620
:105A8000FBF7CEFF874235D239462846FBF7CBFFDE
:105A9000404518BF7F1CF2D12CE00DF12201404699
:105AA000FEF772F9010022D1DDF874B0DDF870A0C4
:105AB0001B9FDDF868900AA92846FCF727F89DF897
:105AC0003C00CDF81CB0CDF818A0059004970194C7
:105AD0000021744CBDF820302568BDF822200096C6
