S020000066697273745F73746167655F62746C5F65666D33326A6731622E73333738
S1130000900400204D0500009505000099050000AE
S11300109D050000A1050000A505000000000000EA
S1130020000000000000000064050000A9050000B5
S1130030AD05000000000000B1050000B50500009A
S11300406849694A01E021B1491E1369DB07FAD402
S113005001B9BAE0506001201060106910F0060F79
S113006005D0410700D5B3E0800700D5B3E00020F8
S11300707047F0B513460022002936D0594C5A4D2A
S11300808BB98B4231D250F8046BEE605B1C0826AE
S11300902E60264601E036B3761E2F69FF07FAD498
S11300A0002EEED11FE0EFF3108672B600230EE0AF
S11300B02F6907F01907102F08BF2F602F693F071A
S11300C0F6D550F8047BEF605B1C10272F608B4241
S11300D0F4D306B962B6264601E026B1761E286935
S11300E0C007FAD40EB96FF002021046F0BD2DE934
S11300F0F84F3B4F0D4639680446002041F001019A
S11301009B4639604FEA92088146AA4602E0B14410
S11301100AEB860AC14517D204EB89063046FFF77D
S11301208FFF010022D1C6F30A00C0F500608608E3
S1130130A8EB0900B04238BF06465A46314650463D
S1130140FFF797FF0100E2D021682A68914209D0A5
S11301502046FFF775FF010004D15A4601212846C5
S1130160FFF787FF3968490849003960BDE8F28F15
S11301701B491C4A0B6843F001030B608860012093
S113018048604869400704D5086840084000086092
S11301901EE04869800704D50868400840000860EC
S11301A019E00220486001E022B1521E4869C007EC
S11301B0FAD422B9086840084000086005E00868DD
S11301C0400840000860002070476FF0020070474C
S11301D04FF0FF3070476FF001007047002386E74F
S11301E008000E40809698000C000E40084841F626
S11301F0713181630168490849000160704704480E
S113020001684908490001600021816370470000CA
S113021008000E4010B50446FFF7E8FF2046FFF73C
S1130220A7FF0446FFF7EBFF601E8041C00F10BD1F
S113023010B58408800782B005D5080440F47F40D7
S113024040F0FF0003E041F07F4040F47F00009065
S1130250FFF7CCFF04226946A000FFF7BFFF044666
S1130260FFF7CDFF204616BD2DE9F04104460E46AA
S1130270154604F0010005F00101084328D12DB30F
S1130280A00707D536F8021B2046FFF7D1FFF8B9BF
S1130290A41CAD1E042D13D3AF08FFF7A7FFBF00A6
S11302A03A4631462046FFF799FF8046FFF7A7FFFD
S11302B03C19ED1B7808B8F1000F06EB400607D196
S11302C025B131882046FFF7B3FF08B9012000E0CB
S11302D00020BDE8F0810000F8B528200168086915
S11302E0CC68826AA24221D304F560518A421DD2AD
S11302F0111B4518224E2968B14217D1E968214FD4
S11303004FF0FF3200F04EF8B8420FD100F042F83F
S11303100AD20168B14207D18168AA68914203D325
S113032000F032F8B84201D00120F2BD0020F2BD45
S1130330F8B5282000680569C468A86A001B2E184F
S1130340274604E03846FFF765FF07F50067F268C3
S113035010198742F6D329462046FFF785FF70B16E
S113036000F018F808D20168054A914204D100F05F
S11303700BF80449884201D00020F2BD0120F2BDEF
S113038007B0CD5EE320BBDEC1684FF0FF322046EC
S113039000F008B840F628000068A0F50061B1F547
S11303A0605F704710B50A4B1C6844F020041C6061
S11303B00124084B1C609A605C6002E010F8012B79
S11303C09A610A46511E002AF8D1D86910BD00BFAF
S11303D0B0400E4000C0014016481749006808604C
S11303E0FFF7A6FF0028FBD040F2022000F02AF815
S11303F000BF10B5114C0020206000F043F81049F4
S11304000968B1F5803F0AD040F20921884218BF3B
S1130410B0F5007F03D1FFF75FFF00B110BD4FF4CB
S113042000602060016881F3088881F309884068CE
S11304308047FEE7880000208C00002008ED00E0E3
S113044004500E404FF0005108804FF20F004880D6
S11304500948016821F4E06141F480610160BFF35F
S11304604F8F0648064A016801F4E06111430160B8
S1130470BFF34F8F00BFFDE700500E400CED00E0CE
S11304800400FA054FF000504FF20F0241889142E8
S113049001D100887047002904BF0088012802D1D7
S11304A040F2022070474FF40070704710B450F8C7
S11304B0041B79B10268436802440830DC0744BF76
S11304C0A9F10104E31852F8044B43F8044B091F43
S11304D0F9D1ECE710BC704710B5074979441831DD
S11304E0064C7C44163404E00A68081D114488470D
S11304F00146A142F8D110BD080000001800000018
S1130500ADFFFFFF1000000070000000800000201D
S1130510000000000120C046002801D0FFF7DCFFE6
S11305200020AFF30080FFF757FF00F000F800F061
S113053001B800000746384600F002F8FBE7000067
S11305402021090326311820ABBEF9E70248804771
S11305500248804702480047B9050000F303000041
S113056089050000AD1007B001000000000006017D
S11305700008000000800000005A620200800000B1
S1130580C0EA2101C0EA2101AFF30080AFF300808B
S1130590FFF7C0FFFFF7FEBFFFF7FEBFFFF7FEBF89
S11305A0FFF7FEBFFFF7FEBFFFF7FEBFFFF7FEBF7B
S10D05B0FFF7FEBFFFF7FEBF704720
S90305896E
