S021000066697273745F73746167655F62746C5F65666D33326A673132622E73333705
S3150FE100000A4880F308880A4800470000000000000C
S3150FE1001000000000000000000000000000000000EA
S3150FE1002000000000000000006C05E10F90040020C5
S3150FE100305505E10F6449654A01E021B1491E13698E
S3150FE10040DB07FAD401B9B0E0506001201060106906
S3150FE1005010F0060F05D0410700D5A9E0800700D5BE
S3150FE10060A9E000207047F0B513460022002936D0EB
S3150FE10070554C564D8BB98B4231D250F8046BEE602D
S3150FE100805B1C08262E60264601E036B3761E2F69E5
S3150FE10090FF07FAD4002EEED11FE0EFF3108672B60A
S3150FE100A000230EE02F6907F01907102F08BF2F6005
S3150FE100B02F693F07F6D550F8047BEF605B1C1027DD
S3150FE100C02F608B42F4D306B962B6264601E026B11C
S3150FE100D0761E2869C007FAD40EB96FF002021046F0
S3150FE100E0F0BD2DE9F0479A46354B364F1C681B6834
S3150FE100F03B688046002043F001033B60950881464B
S3150FE101000C4602E0B14404EB8604A94517D208EB8D
S3150FE1011089063046FFF78EFF010014D1C6F30A00B8
S3150FE10120C0F500608608A5EB0900B04238BF064668
S3150FE10130524631462046FFF796FF0100E2D0396875
S3150FE10140490849003960BDE8F0871D491E4A0B6829
S3150FE1015009681C490B6843F001030B6088600120B5
S3150FE1016048604869400704D50868400840000860C0
S3150FE101701EE04869800704D508684008400008601A
S3150FE1018019E00220486001E022B1521E4869C0071A
S3150FE10190FAD422B9086840084000086005E008680B
S3150FE101A0400840000860002070476FF0020070477A
S3150FE101B04FF0FF3070476FF001007047002390E773
S3150FE101C004300E4008000E40809698000C000E4059
S3150FE101D0084841F6713181630168490849000160B8
S3150FE101E070470448016849084900016000218163AD
S3150FE101F07047000008000E4010B50446FFF7E8FF10
S3150FE102002046FFF7A2FF0446FFF7EBFF601E804192
S3150FE10210C00F10BD10B58408800782B005D508045C
S3150FE1022040F47F4040F0FF0003E041F07F4040F4AF
S3150FE102307F000090FFF7CCFF04226946A000FFF78D
S3150FE10240BDFF0446FFF7CDFF204616BD2DE9F04170
S3150FE1025004460E46154604F0010005F00101084378
S3150FE1026028D12DB3A00707D536F8021B2046FFF795
S3150FE10270D1FFF8B9A41CAD1E042D13D3AF08FFF7B8
S3150FE10280A7FFBF003A4631462046FFF797FF804664
S3150FE10290FFF7A7FF3C19ED1B7808B8F1000F06EB46
S3150FE102A0400607D125B131882046FFF7B3FF08B9DC
S3150FE102B0012000E00020BDE8F0810000F8B53048EC
S3150FE102C001680869CC68826AA24221D304F510411C
S3150FE102D08A421DD2111B45182A4E2968B14217D100
S3150FE102E0E968294F4FF0FF3200F054F8B8420FD1C9
S3150FE102F000F03EF80AD20168B14207D18168AA68D7
S3150FE10300914203D300F02EF8B84201D00120F2BD9D
S3150FE103100020F2BDF8B51A4800680569C468A86AF5
S3150FE10320001B2E18274604E03846FFF765FF07F551
S3150FE103300067F26810198742F6D329462046FFF780
S3150FE1034085FF70B100F014F808D201680D4A9142A9
S3150FE1035004D100F007F80C49884201D00020F2BD24
S3150FE103600120F2BDC1684FF0FF32204600F012B80E
S3150FE103700648074900680918B1F5104F70470000A4
S3150FE103802800E10F07B0CD5EE320BBDE2808E10FC1
S3150FE1039000F81EF010B50A4B1C6844F040041C60CF
S3150FE103A00124084B1C609A605C6002E010F8012B97
S3150FE103B09A610A46511E002AF8D1D86910BD00BFCD
S3150FE103C0B0400E4000C0014019481A490068086064
S3150FE103D040211948C16001684903FCD4FFF79AFF30
S3150FE103E00028FBD040F2022000F030F800BF10B534
S3150FE103F0124C1348206000F049F812490968B1F52B
S3150FE10400803F0AD040F20921884218BFB0F5007F3C
S3150FE1041003D1FFF753FF00B110BD0B482060016810
S3150FE1042081F3088881F3098840688047FEE7000079
S3150FE10430880000208C00002004300E4008ED00E01B
S3150FE104400000E10F04500E400008E10F4FF000519C
S3150FE1045008804FF20F0048800948016821F4E061F6
S3150FE1046041F480610160BFF34F8F0648064A016888
S3150FE1047001F4E06111430160BFF34F8F00BFFDE768
S3150FE1048000500E400CED00E00400FA054FF000506D
S3150FE104904FF20F024188914201D10088704700293E
S3150FE104A004BF0088012802D140F2022070474FF4C1
S3150FE104B00070704710B450F8041B79B102684368B5
S3150FE104C002440830DC0744BFA9F10104E31852F8EE
S3150FE104D0044B43F8044B091FF9D1ECE710BC704705
S3150FE104E010B5074979441831064C7C44163404E0BB
S3150FE104F00A68081D114488470146A142F8D110BD8B
S3150FE105000800000018000000ADFFFFFF100000001B
S3150FE105107000000080000020000000000120C046AE
S3150FE10520002801D0FFF7DCFF0020AFF30080FFF7D3
S3150FE105304BFF00F000F800F001B80000074638461F
S3150FE1054000F002F8FBE7000020210903263118200D
S3150FE10550ABBEF9E7024880470248804702480047A9
S3150FE105609D05E10FEF03E10F9105E10FAD1007B027
S3150FE1057001000000000006010008E10F0080000005
S3150FE10580005A620200800000C0EA2101C0EA21019F
S3130FE10590AFF30080AFF30080FFF7C0FF7047B7
S7050FE1059174
