S0110000626F6F746C6F616465722E733337B8
S3150FE10800901000203932E10FC711E10F2909E10FED
S3150FE108102B13E10F1F1DE10F271DE10F0000000054
S3150FE1082000000000000000004008E10F632CE10F1B
S3150FE10830D32CE10F000000004F2FE10FA331E10FA1
S3150FE1084007B0CD5E0100000000000601A02A0000FE
S3150FE108500000000000000800F0000100990AE10F16
S3150FE108609D0AE10FC90BE10FB31CE10FE11CE10F8B
S3150FE108708C08E10F454652333200000001000000BB
S3150FE10880010000000040040000B003000001000079
S3150FE10890E10DE10F390EE10F630EE10F810EE10F6D
S3150FE108A0C50EE10F6730E10F612FE10F3F31E10F28
S3150FE108B0DF0EE10F0B0FE10F6B0FE10F0F0DE10FE5
S3150FE108C0210DE10F3D0DE10F810DE10F10B50A4B42
S3150FE108D01C6844F040041C600124084B1C609A60BC
S3150FE108E05C6002E010F8012B9A610A46511E002A5C
S3150FE108F0F8D1D86910BD00BFB0400E4000C001402D
S3150FE1090006480068006970470548064A00680168AD
S3150FE10910914201D100697047002070472808E10F25
S3150FE109202800E10FAD1007B04FF4017000F07EF82B
S3150FE1093000BF314831490068086082B0304801682C
S3150FE1094041F48071016040212E48C160016849037D
S3150FE10950FCD400F0A1F800F064F800F0A4F810B9A7
S3150FE1096040F201200FE0284901E00099491E00916C
S3150FE1097000990129F9DA40F20541884214BF4FF493
S3150FE10980017040F2032000F051F800BF38B51F485F
S3150FE1099000680124012540050CD500F069F840F205
S3150FE109A00221401A04D0C01E02D0C01E012801D870
S3150FE109B0002400250420006810F1010F06D1BDE8DF
S3150FE109C032404FF4027000F025B831BD25B1002059
S3150FE109D000F0FAF80400F2D0002CF6D00C49002012
S3150FE109E0086000221046016881F3088881F30988BF
S3150FE109F040688746FEE70000880000208C00002053
S3150FE10A0000000E4004300E4000350C0004500E403D
S3150FE10A1008ED00E04FF0005108804FF20F004880DB
S3150FE10A2070470F494CF23C30088070474FF0005148
S3150FE10A3008804FF20F0048800A48016821F4E0610F
S3150FE10A4041F480610160BFF34F8F0748074A0168A0
S3150FE10A5001F4E06111430160BFF34F8F00BFFDE782
S3150FE10A600200002000500E400CED00E00400FA05F4
S3150FE10A704FF000504FF20F024188914201D10088A9
S3150FE10A807047002904BF0088012802D140F20220F5
S3150FE10A9070474FF40070704700F037B900F08FB927
S3150FE10AA04FF48820704710B5DEB04FF4BC7269463B
S3150FE10AB0002000F014FA0021684600F026FA40F211
S3150FE10AC001218842F7D040F20321884240F20544E2
S3150FE10AD01AD19DF801009DF8001071B1A0B10C4833
S3150FE10AE0006801998068884208D25A9800F0A8FAFE
S3150FE10AF050B140F20920FFF799FF28B103995A98AF
S3150FE10B0000F0B4FA00B1002420465EB010BD00003B
S3150FE10B102808E10F2DE9F041044667480068884649
S3150FE10B20016916468C4222BF37194069B84216D37E
S3150FE10B30E00AB4EBC02004BF204600F0E3FA04F567
S3150FE10B400060C50AED0204E0284600F0DBFA05F580
S3150FE10B500065BD42F8D332464146204630E0BDE856
S3150FE10B60F0812DE9F04188465449554B0968154600
S3150FE10B700A689A4222D1096946184F4909684A69B2
S3150FE10B80AF19BA421AD310B9086900F0BBFAF00AE5
S3150FE10B90B6EBC02004BF304600F0B4FA06F50060AC
S3150FE10BA0C40AE40204E0204600F0ACFA04F500645E
S3150FE10BB0BC42F8D32A464146304601E0BDE8F08112
S3150FE10BC0BDE8F04100F0C8BA50B585B004466846B5
S3150FE10BD00FF20411102200F007FB22686068616BC7
S3150FE10BE002F16042B2F1011F29D2334A126812694A
S3150FE10BF0904224D3334B984221D202F140008142F5
S3150FE10C000E4601D3994205D30020C046401E8041CE
S3150FE10C10C00F1BE00020C04698B900F057F8A0B905
S3150FE10C20706990B102280CD1B069001D011B4FF01C
S3150FE10C30FF322046FFF74AFE2349884205D00020BE
S3150FE10C4004E0204600F004F800E0012005B050BDB5
S3150FE10C5050B59FB0044668460FF28C01102200F0A2
S3150FE10C60C3FA666B00F032F818B9706901280AD138
S3150FE10C70B669114800680069864228BFA64202D3C9
S3150FE10C80B6F5002F01D9002013E004A800F0D7FA3A
S3150FE10C90321B214604A800F0DCFA04A800F0DBFAC7
S3150FE10CA006F12002314604A800F0D8FA401E804131
S3150FE10CB0C00F1FB050BD00002808E10F2800E10F5B
S3150FE10CC0AD1007B001000800E320BBDE1022694634
S3150FE10CD0304600F0F9BA000013B779FAC925DDB746
S3150FE10CE0ADF3CFE0F1B614B813B779FAC925DDB78D
S3150FE10CF0ADF3CFE0F1B614B80FF2C800704708189C
S3150FE10D00054988428041C00F70470020704703486C
S3150FE10D10006800F001007047010008001C000E405A
S3150FE10D2070B500F028F810B940F2024070BD3246B6
S3150FE10D302146284600F048FA002070BDF8B500F0CC
S3150FE10D401AF840F20247A0B1002000E0001DB042C0
S3150FE10D5007D20119096811F1010FF7D040F20340EB
S3150FE10D60F2BD32462946204600F0F6F908B10020D9
S3150FE10D70F2BD3846F2BD0D46164604463146BEE78C
S3150FE10D8038B504460D46680501D1600502D040F23B
S3150FE10D90044032BD2046FFF7B2FF48B1204600F0CE
S3150FE10DA0B1F9B5F5006504F5006404D00028F5D175
S3150FE10DB040F2024032BD0028FAD0002032BD0020B9
S3150FE10DC07047000001020300280000002800000020
S3150FE10DD000080000000008007408E10F020000009F
S3150FE10DE010B504000CD04FF4803020600020606015
S3150FE10DF09C48017821724068E060FFF77DFF206132
S3150FE10E0010BD70B504464FF4B47026180D46A2B066
S3150FE10E10B1683068802301AA00F023F8009580239A
S3150FE10E2001AA214604F1240000F0F6FBF060B06858
S3150FE10E308030B06022B070BD10B540F2014231B1E1
S3150FE10E40884B5C68A04204D30020086048601046D6
S3150FE10E5010BD03EBC00082680A60C06848600020DD
S3150FE10E6010BD38B500F021F800D325E000F017F8F2
S3150FE10E7000D224E080682018BDE83840FFF750BF64
S3150FE10E8038B500F012F800D316E000F008F800D2FA
S3150FE10E9015E080682018BDE83840FFF74FBF03EB38
S3150FE10EA0C0001519C368AB4270470C4611461A4686
S3150FE10EB06C4B5D68A842704740F2014032BD40F28B
S3150FE10EC0024032BD67494A68904202D340F201407F
S3150FE10ED0704701EBC000C1688068FFF751BF30B5BD
S3150FE10EE004460D4683B01146284600F0E2FE58B996
S3150FE10EF069462046FFF7A0FF30B94FF4B470284496
S3150FE10F0004600199416000203EBD7FB504460D4660
S3150FE10F100FF288100FC86E4686E80F0002954FF460
S3150FE10F20B6702518A86888B96868296888420DD20D
S3150FE10F3069462046FFF765FFA86800281CBF41F206
S3150FE10F40070188420CD140F2012009E0A01C01788B
S3150FE10F5000291DBF4078002840F2032040F202200D
S3150FE10F6004B070BD012018707047F0B585B0044626
S3150FE10F7000208DF800000D4616460FF230100FC80F
S3150FE10F8001AF87E80F00CDF804D0002030601C21B7
S3150FE10F90284600F0C5FE4FF4B670271803E001A905
S3150FE10FA02046FFF72EFF9DF8000048B994F86A0036
S3150FE10FB0112805D0B86818B9786839688842EED330
S3150FE10FC0207808B160683060607828B11C2204F19E
S3150FE10FD00801284600F008F99DF80000002804BF33
S3150FE10FE06078002801D1207808B1002001E040F2B5
S3150FE10FF0064005B0F0BD70B504460D46202304F159
S3150FE11000FC0204F1B40104F1240000F0C9FA4FF433
S3150FE11010B670261803E029462046FFF7F2FEB068C0
S3150FE1102018B9706831688842F5D3A01C0178002998
S3150FE110301CBF4078002801D0012070BD002070BD93
S3150FE1104010B5094AE2B0126892688A4202D200F0FC
S3150FE110501AF808B1002003E00FF2600000F017F86C
S3150FE1106062B010BD7C08E10F2808E10F10B5E2B0C0
S3150FE1107000F009F808B1002003E00FF2500000F08C
S3150FE1108006F862B010BD4FF4BC7204A927E70FC88A
S3150FE110906C4684E80F00694604A8ACE7000000003F
S3150FE110A0000000000000000000000000000000004A
S3150FE110B0650FE10F650FE10F650FE10F000000000E
S3150FE110C00000000000000000630BE10F00000000CC
S3150FE110D0150BE10F0000000000000000084841F683
S3150FE110E0713181630168490849000160704704481D
S3150FE110F001684908490001600021816370470000DA
S3150FE1110008000E4010B50446FFF7E8FF204600F051
S3150FE1111096FE0446FFF7EBFF601E8041C00F10BD40
S3150FE1112010B58408800782B005D5080440F47F40E6
S3150FE1113040F0FF0003E041F07F4040F47F00009074
S3150FE11140FFF7CCFF04226946A00000F0B1FE04468A
S3150FE11150FFF7CDFF204616BD2DE9F04104460E46B9
S3150FE11160154604F0010005F00101084328D12DB31E
S3150FE11170A00707D536F8021B2046FFF7D1FFF8B9CE
S3150FE11180A41CAD1E042D13D3AF08FFF7A7FFBF00B5
S3150FE111903A463146204600F08BFE8046FFF7A7FF21
S3150FE111A03C19ED1B7808B8F1000F06EB400607D1A5
S3150FE111B025B131882046FFF7B3FF08B9012000E0DA
S3150FE111C00020BDE8F081FEE762B38B0708D0521E1F
S3150FE111D011F8013B00F8013B00F024808B07F6D1B3
S3150FE111E0830740F0208000BF103A07D330B4B1E84F
S3150FE111F03810103AA0E83810F9D230BC530724BFA3
S3150FE11200B1E80810A0E8081044BF51F8043B40F8D4
S3150FE11210043BD20724BF31F8022B20F8022B44BF3F
S3150FE112200B7803707047083A07D3B1E80810083A0C
S3150FE1123040F8043B40F804CBF7D25307E4E710B587
S3150FE11240044600F0DBFE2046BDE81040002100F029
S3150FE1125053BF00F054BF014600F052BF70B5040012
S3150FE112600D4618BF002DA2B0164600D016B940F2B2
S3150FE11270016023E00121124800F0C6FF402111A8C9
S3150FE1128000F04EFD00F0F8FF014611A801F0E8FA73
S3150FE1129000F0F4FF014619A801F0E2FA294601A888
S3150FE112A001F0DEFA314609A801F0DAFA01A8009059
S3150FE112B011AB20222146034801F0E1FA22B070BDBD
S3150FE112C000050A0000000F400300002013F0030F92
S3150FE112D009D0521E22BF13F8010B11F801CBB0EB67
S3150FE112E00C00F3D07047121F22BF53F8040B51F8CD
S3150FE112F004CB6045F7D0121D0AD200BA9CFA8CFCDA
S3150FE11300B0EB0C0038BF6FF0000088BF01207047CB
S3150FE11310521E22BF13F8010B11F801CBB0EB0C00F3
S3150FE11320F6D0521C08BF10467047FEE72DE9F84389
S3150FE113301F460446786800280D4616464CD015F030
S3150FE11340030018BF41F2020046D1FFF7D9FA216E29
S3150FE11350001D721882421DD300F11803994219D26A
S3150FE113608446884238BF8C469A4288BF1A46ACEB10
S3150FE113700101ACEB000005EB0108A2EB0C092044DF
S3150FE113804A4641466830FFF71FFFFF22494640466E
S3150FE1139001F0ECFBFFF7B8FA216E001D884222BF80
S3150FE113A07218031D9A420DD3411A05EB0108042267
S3150FE113B0414604F18000FFF707FFFF220421404673
S3150FE113C001F0D4FB29463B68206E7D683246A8477B
S3150FE113D0206E301820660020BDE8F28330B54B68E9
S3150FE113E08C689C4206D200F140021B1B14781B1934
S3150FE113F0412B01D3002030BD537814788D68E31863
S3150FE114000C68645D03F03F03C4548B685B1C8B600F
S3150FE1141013785B1C13704C688B68A342ECD30120E5
S3150FE1142030BD90F840004A6889681018401A704735
S3150FE114302DE9F0410F46144698460546FFF7F1FFB1
S3150FE11440404505F1400607D239462846FFF7C6FF64
S3150FE1145000284DD0002049E000200BE07178695C4F
S3150FE114602154401C7178491C01F03F0171703178AC
S3150FE11470491E3170317809B14045EFD3B9687A68C1
S3150FE11480914238BF404507D23A68515C2154401C1E
S3150FE11490B968491CB960F1E7404529D1B26C4146BB
S3150FE114A02046FFF713FAB064069820B1F06842467A
S3150FE114B02146FFF7CEFE079800281CBFF0780028DB
S3150FE114C005D0B06843462246214601F0A1FBF078EC
S3150FE114D038B1F069B1694044F061884224BF002018
S3150FE114E0F07070694044706141F20300BDE8F0812C
S3150FE114F01220B07141F20200F8E7F0B585B004466B
S3150FE115000020019000901546082302AA00F0BEFBC9
S3150FE1151041F20306B0423CD194F8430004F1480787
S3150FE1152038B100F038F83868082302AA02A901F0A9
S3150FE115306FFB9DF80A109DF80B00090441EA006064
S3150FE115409DF8091040EA01209DF80810084328602C
S3150FE115509DF80E209DF80F10120442EA01619DF8E5
S3150FE115600D2041EA02219DF80C201143696094F8A0
S3150FE11570431049B9DFF8A41688421CBFDFF8A0165D
S3150FE11580884201D000F007F86868B8600020F8607B
S3150FE11590304605B0F0BD7868082202A9FFF759BEBB
S3150FE115A0F8B5044604F140070020B8713870787039
S3150FE115B0F870787138710D4603F02000B870164651
S3150FE115C04FF0FF30B864FF220020386278621821AD
S3150FE115D004F1680001F0CAFAFF22042104F1800048
S3150FE115E001F0C4FAFF22042104F1840001F0BEFAEE
S3150FE115F0BD60FE600020C04600B11DB10020C046AF
S3150FE1160018B116B941F20B00F2BD16B1F868FFF742
S3150FE1161016FE0020F2BD00002DE9FA4F99B00446FF
S3150FE1162003A80021002300252AC01A98DDF890A00F
S3150FE116300392049004F1420604F1480741F20308CC
S3150FE116400DF120090EE000F005FB40452CD107987E
S3150FE11650DFF8D015B8600020F8600698884270D19F
S3150FE116600220307105981A99884280F0D28230793A
S3150FE116701228F7D8DFE810F014001500C90043016E
S3150FE1168017016501FB00580165015301650153011E
S3150FE116902B02CA029102A702AA02D301CA02E1E70B
S3150FE116A0D1E700F0D7FA404540F0B482B07820B1E7
S3150FE116B00698DFF86C15884243E03078C0074BD5C2
S3150FE116C07078002848D10698DFF8581588421CBF74
S3150FE116D0DFF85415884222D0DFF8501588421CBF37
S3150FE116E0DFF84C1588421AD0DFF84815884222D028
S3150FE116F0DFF82815884263D0DFF83C15884213D00E
S3150FE11700DFF8381588420DD0DFF81415884215D069
S3150FE11710DFF82C1588421CBFDFF82815884200F048
S3150FE11720EE8011E00E209CE70F203071B86838612A
S3150FE117300020786196E71220307163E00020C04601
S3150FE11740002840F0DC8036E01220307106A8002038
S3150FE11750C046002856D0AAE10698DFF8CC14884295
S3150FE117601AD0DFF8C814884214D0DFF8C4148842BF
S3150FE1177014D0DFF8A81488421FD0DFF8A4148842EA
S3150FE1178012D0DFF8BC1488420CD0DFF8B8148842C7
S3150FE1179006D017E0042064E7062062E7072060E73A
S3150FE117A009205EE70B205CE70020C046002804BF56
S3150FE117B070780028C5D10C2053E770780028C0D186
S3150FE117C010204EE706A80020C046A0B1069878641F
S3150FE117D01120307106980020C04605463078800604
S3150FE117E0A8D5002DA6D069680800A3D02046884762
S3150FE117F000289FD05BE112203071707810B141F271
S3150FE11800040007E241F2080004E2F868082831D241
S3150FE1181000200190082300F03CFA4045F4D199F8F5
S3150FE1182003000006B0F1407F04D01220307141F27F
S3150FE118300900EFE199F8050099F8041041EA002053
S3150FE118400290C00704D5307840F00100307002E015
S3150FE118500020C04630B90020C0460028D5D00298F6
S3150FE11860C005D2D41220307141F20A00D2E1BB6831
S3150FE11870F868984280F0C88101200190009000F04D
S3150FE1188003FA4045F2D119981C2208A90830FFF74F
S3150FE11890ABFC199901204870E9E705203071012069
S3150FE118A0F0700020F861F8680828BFF4DBAE01207C
S3150FE118B001900090082300F0E7F94045D6D1199938
S3150FE118C0DFF884230120087000F0C8F91999486000
S3150FE118D0DFF87803006801689142DED199F80620B6
S3150FE118E099F80710C068120442EA016199F80520D8
S3150FE118F041EA022199F8042011438142CDD0122009
S3150FE119003071D4E0012000F0BCF94045AED100F0D2
S3150FE11910A5F90290B868052824BF0298B861F8685E
S3150FE119200428EFD30A209CE60020F861082098E608
S3150FE11930DAF80030F8695A4608A9E047F8695844D9
S3150FE11940F861B868F968814294D2A0EB010BBBF15B
S3150FE11950040F03A9204604D3FFF763FD042804D23D
S3150FE119606CE0FFF75EFD584568D3BBF1410F28BF29
S3150FE119704FF0400B00F081F9584502D200F07DF9A6
S3150FE119808346BBF1040F24BF4FEA9B004FEA800B5E
S3150FE1199000F086F9404540F03D813079082804D1C1
S3150FE119A0DAF808C0BCF1000FC2D1CBF10400BBF1EC
S3150FE119B0040F009007D2014608A8FF22584401F010
S3150FE119C0D5F80098834430790A2806D153465A460A
S3150FE119D008A92046FFF7AAFCB3E70528B1D1DAF843
S3150FE119E00C000028ADD0F869052812D20BEB0001E7
S3150FE119F007290ED308A9091D081A009001460422EA
S3150FE11A0004F18400FFF7E0FB0098FF22042101F0C7
S3150FE11A10ADF8DAF80030F869DAF80CC08BE7307810
S3150FE11A20800634D5786C0020C04605002FD13EE004
S3150FE11A304FF0010B00F021F9584504D203A92046D6
S3150FE11A40FFF7CCFCE5E0B868F968A0EB010BBBF159
S3150FE11A50410F28BF4FF0400B00F00FF9834502D33A
S3150FE11A6000F00BF9834600F01BF9404521D13078A0
S3150FE11A7080060CD5DDB1D5F808C0BCF1000F16D044
S3150FE11A8053465A4608A92046E047002811D1F8687F
S3150FE11A90B968884230780DD28006C9D5002DC7D0F6
S3150FE11AA029690800C4D0204688478346C2E741F238
S3150FE11AB00100AFE0800609D5002D07D0EA681000D6
S3150FE11AC004D05146204690470028F2D19CE00020F1
S3150FE11AD000F0D7F8404507D1386C5D49884204D00C
S3150FE11AE01220307141F2050094E00020C04618B98A
S3150FE11AF019990120C87003E01998C078002846D0DB
S3150FE11B00F07850B1DAF80C50280006D0DAF8003048
S3150FE11B10042204F184010420A847B86900281CBFF8
S3150FE11B20DAF80400002832D04FF0FF30029004F1CA
S3150FE11B3080050422294602A8FFF7C6FB50B1FEF73E
S3150FE11B40E3FE38B12946DAF80030DAF80450042218
S3150FE11B50001DA847042204F1680102A8FFF7B4FBB0
S3150FE11B60A8B1FEF7CDFEDAF80030DAF80450142208
S3150FE11B7004F16C010830A847FEF7C2FE04F16801D3
S3150FE11B80DAF80030DAF804400422001DA04719996B
S3150FE11B90012088700D2030713BE0F868102833D2B0
S3150FE11BA000200190102300F074F8404532D100F087
S3150FE11BB067FB8021009001910123386809AA022170
S3150FE11BC001F007F8E9E7012070701DE0B078D8B9A8
S3150FE11BD001900090402300F057F840451AD17868FC
S3150FE11BE0FFF739FB786810AA08A9FFF737FB38B179
S3150FE11BF019990020C8701220307141F2060009E0F0
S3150FE11C0019990120C870B07001202AE541F2070049
S3150FE11C1000E000201BB0BDE8F08F0000F70A0AF7DD
S3150FE11C20FC0404FCEB17A603F40A0AF4F50909F51B
S3150FE11C30F60808F6F70909F7F90707F9FA0606FAB2
S3150FE11C40FD0303FDFE0101FEAD1007B02800E10F14
S3150FE11C50E320BBDE06AA03A920464EE499F802105B
S3150FE11C6099F80300090441EA006099F8011040EA86
S3150FE11C7001209DF820100843704703A92046FFF77E
S3150FE11C80D0BB01900090042308AA03A92046FFF7D1
S3150FE11C90CFBB0120009008AA03A92046FFF7C8BBD6
S3150FE11CA00120019000905B4608AA03A92046FFF7A1
S3150FE11CB0BFBB10B5B1F5BC7F044602D240F2052099
S3150FE11CC010BD4FF4BC7100F02BF804F1FC0204F1E6
S3150FE11CD0B40104F12400BDE810400023FFF760BC16
S3150FE11CE010B582B00446009104F124002146FFF7B6
S3150FE11CF093FC00281CBF41F207018842C4F8740126
S3150FE11D000CD1A01C017839B1407810B140F2032013
S3150FE11D1016BD40F2022016BD40F2012016BDFEE7C8
S3150FE11D20002200F085BFFEE76449654A01E021B173
S3150FE11D30491E1369DB07FAD401B9B0E050600120FF
S3150FE11D401060106910F0060F05D0410700D5A9E024
S3150FE11D50800700D5A9E000207047F0B513460022B1
S3150FE11D60002936D0554C564D8BB98B4231D250F8AE
S3150FE11D70046BEE605B1C08262E60264601E036B347
S3150FE11D80761E2F69FF07FAD4002EEED11FE0EFF38F
S3150FE11D90108672B600230EE02F6907F01907102F90
S3150FE11DA008BF2F602F693F07F6D550F8047BEF6028
S3150FE11DB05B1C10272F608B42F4D306B962B6264619
S3150FE11DC001E026B1761E2869C007FAD40EB96FF085
S3150FE11DD002021046F0BD2DE9F0479A46354B364FD4
S3150FE11DE01C681B683B688046002043F001033B609B
S3150FE11DF0950881460C4602E0B14404EB8604A945F9
S3150FE11E0017D208EB89063046FFF78EFF010014D192
S3150FE11E10C6F30A00C0F500608608A5EB0900B042DB
S3150FE11E2038BF0646524631462046FFF796FF010078
S3150FE11E30E2D03968490849003960BDE8F0871D49A4
S3150FE11E401E4A0B6809681C490B6843F001030B60D6
S3150FE11E508860012048604869400704D50868400852
S3150FE11E60400008601EE04869800704D5086840080D
S3150FE11E704000086019E00220486001E022B1521EDD
S3150FE11E804869C007FAD422B90868400840000860DB
S3150FE11E9005E00868400840000860002070476FF0D1
S3150FE11EA0020070474FF0FF3070476FF00100704747
S3150FE11EB0002390E704300E4008000E40809698000C
S3150FE11EC00C000E4010B54A688B68CC680968016052
S3150FE11ED002600360046010BD10B502680368046810
S3150FE11EE000680A608C604B60C86010BD38B5044667
S3150FE11EF00D46FFF7E7FF05F110012046FFF7E2FF79
S3150FE11F0005F120012046FFF7DDFF05F130012046FF
S3150FE11F10BDE83440D6E72DE9F04F91B080468946CA
S3150FE11F2016461C4600F0A5FE074614B1012C02D059
S3150FE11F3003E0002000E00420386000207860F864B8
S3150FE11F40786820F44060786000203863786300F0A9
S3150FE11F50B9FE04464FF482703D1841462846FFF715
S3150FE11F60B1FF08F110012846FFF7ACFF204600F05C
S3150FE11F70ADFE2048386500254FF4D27007EB000A15
S3150FE11F800CE000F09FFE044659465046FFF7AEFFC0
S3150FE11F90204600F09BFE184838656D1CB54211D2FC
S3150FE11FA009EB851B1BF00300EBD04022594668462F
S3150FE11FB0FFF70AF900F086FE044669465046FFF739
S3150FE11FC095FFE5E700F07EFE04464FF480703E187C
S3150FE11FD041463046FFF780FF08F110013046FFF723
S3150FE11FE07BFF204600F072FE384600F04BFE11B043
S3150FE11FF0BDE8F08F888AC801070D810100281CBF53
S3150FE120006C21FFF78DBE704780B500F120020023EA
S3150FE120101360536031B1012180F8681020220FF26D
S3150FE12020681104E080F8681020220FF23C1168E095
S3150FE120302DE9F0411600044688461CD000F077F8EA
S3150FE12040A7B1AE4212D300F067F804F1280120469A
S3150FE1205000F053F8A844761B002707E0B5090123E2
S3150FE1206000F056F808EB8518A6EB8516402EF5D24B
S3150FE120700EB100F056F848E07CB5044604F12000B5
S3150FE120800D4642680168D20042EA51728DF803208B
S3150FE12090C900130E8DF80030160A130C0A0E8DF8CF
S3150FE120A004208DF801300A0C8DF805208DF80260B9
S3150FE120B00A0A8DF806208DF80710007800F044F82B
S3150FE120C034BFC0F13802C0F178022046FFF7B0FF06
S3150FE120D088B9082269462046FFF7AAFF58B901E0F9
S3150FE120E000F038F894F86810002914BF1C2120215C
S3150FE120F08842F5D3002076BD86E7012331E097E7E5
S3150FE12100BAE7FFF771F8002002BD0020BDE8F081C4
S3150FE121102A4641462046FEE6E0192A462830FFF7D1
S3150FE1212053B8E019324641462830FFF74DB8206AD9
S3150FE1213000F03F073018B042C7F14005206202D2E6
S3150FE12140606A401C606270470FF25C0100F03F006D
S3150FE1215038287047810854F8211009BA2950001D13
S3150FE1216070470122D7E6000067E6096A85AE67BBCD
S3150FE1217072F36E3C3AF54FA57F520E518C68059B73
S3150FE12180ABD9831F19CDE05BD89E05C107D57C3648
S3150FE1219017DD703039590EF7310BC0FF111558683D
S3150FE121A0A78FF964A44FFABE80000000000000007B
S3150FE121B00000000000000000000000000000000029
S3150FE121C00000000000000000000000000000000019
S3150FE121D00000000000000000000000000000000009
S3150FE121E00000000000000000890001EB401000F143
S3150FE121F0844002607047DFF874104A68D20702D450
S3150FE122000A680242FCD1704770B5020A0C4602F029
S3150FE122100F020021521E092ADFF8545014D8DFE8C5
S3150FE1222002F005141313071619131C20DFF83850A3
S3150FE12230C0F3043611B10846FFF7DDFF22463146FA
S3150FE122402846BDE87040CFE770BD1035F0E7303571
S3150FE122500121EDE738351021EAE740354FF48031BA
S3150FE12260E6E7DFF81050E3E700400E4040410E404D
S3150FE12270B0400E4050410E40024870470248704749
S3150FE12280024870474A43E00F6A43E00F8642E00F88
S3150FE1229010B54A688B68CC68096801600260036013
S3150FE122A0046010BD10B502680368046800680A602F
S3150FE122B08C604B60C86010BD38B504460D46FFF71C
S3150FE122C0E7FF05F110012046BDE83440E0E738B5F8
S3150FE122D004460D46FFF7E6FF05F110012046BDE87E
S3150FE122E03440DFE78C220FF2F87150430844007A4D
S3150FE122F070478C220FF2E87150430844407A7047D9
S3150FE1230010B500F010F8BDE8104000F10C0106E041
S3150FE1231010B500F008F8BDE8104000F12C012022BD
S3150FE123201846FEF751BF0B468C240FF2B47160438A
S3150FE1233008447047F8B504460D46164600F0C2FC50
S3150FE1234007464FF4847029462044FFF7B5FF4FF453
S3150FE12350867031462044FFF7AFFF384600F0B6FCF2
S3150FE12360DFF8E8062065012060656069000E00F080
S3150FE12370010080F00100F2BD2DE9F04F89B004466E
S3150FE1238088469246994600F09DFC83464FF482704B
S3150FE12390271808F1400100F08AF94FF486702518E5
S3150FE123A0514600F025F94FF4887026180AF12001FD
S3150FE123B03046FFF781FF00F023F900F024F9834659
S3150FE123C0414600F074F94FF4847004EB000A08F10A
S3150FE123D0200100F013F908F140013046FFF76CFFD9
S3150FE123E000F00EF9DFF868062065DFF8680600F001
S3150FE123F04BF883464FF48070261809F1400100F03F
S3150FE12400F4F869465046FFF762FF00F0F9F800F07D
S3150FE1241059FC834600F0EBF800F0F2F8DFF83806E6
S3150FE124202065DFF838066065DFF8340600F0F3F86B
S3150FE12430054600F03AF900F0DDF8DFF828062065E9
S3150FE12440DFF8240600F020F8054649465046FFF727
S3150FE124503EFF00F0CFF800F035FC054669463846F9
S3150FE12460FFF72AFF00F0C6F8DFF800062065DFF870
S3150FE12470000600F009F8044600F0B5F8204600F032
S3150FE1248025FC09B0BDE8F08F60650120A06500F07D
S3150FE1249019BC2DE9F04F99B004468846914600F0F4
S3150FE124A011FC05464FF48270271800F0FEF800F094
S3150FE124B0A1F8DFF8C0052065DFF8BC056065DFF838
S3150FE124C0BC05FFF7E3FF06464FF48070251808A910
S3150FE124D000F002FB00F0E6F800F0F4FB064600F030
S3150FE124E086F800F0DFF8DFF898052065DFF8940548
S3150FE124F060654FF48670FFF7C9FF82464FF4867029
S3150FE12500261810A93046FFF7E2FE694600F0E4FA15
S3150FE12510504600F0DBFB00F0D5FB824608F14001A7
S3150FE1252000F0C5F8504600F0D1FBDFF85C052065F9
S3150FE125300120606500F0C6FB83464FF4847004EB1F
S3150FE12540000A414600F05AF800F05AF8DFF83C0568
S3150FE125502065DFF83C056065DFF8380500F05BF8CC
S3150FE12560834669465046FFF7A7FE10A93046FFF7A7
S3150FE12570A3FE00F045F8DFF820052065DFF81C051E
S3150FE125806065DFF81C05FFF781FF83464FF488701E
S3150FE1259049462044FFF79BFE00F032F800F092FB2C
S3150FE125A0834600F082F808F1400100F027F808A908
S3150FE125B03046FFF781FE00F023F8DFF8E8042065E7
S3150FE125C0DFF8E404606500F07DFB044609F14001A4
S3150FE125D02846FFF77CFE00F006F8204600F076FB72
S3150FE125E019B0BDE8F08F09F1200130466FE641469B
S3150FE125F0284661E6284600F069BB314650465BE660
S3150FE12600584600F063BBDFF86C042065DFF89C04E5
S3150FE126106065DFF89C04A0650120E06500F052BB20
S3150FE126202DE9F04105460F461C46904620212046EE
S3150FE12630FFF776FB0120206000F044FB06464FF4DE
S3150FE12640807041462844FFF737FE4FF482703946D2
S3150FE126502844FFF731FE4FF484702F18214600F01E
S3150FE1266026F800F01FF8DFF84C0428650BE0DFF8D9
S3150FE1267048042865DFF844046865DFF84404A86573
S3150FE12680DFF84004E8656869C001F0D500F01AFB90
S3150FE12690054621463846FFF71AFE2846BDE8F041C2
S3150FE126A000F014BB304600F011BB08F120013846AB
S3150FE126B002E650F8043B934203D007E050F8042BAF
S3150FE126C022B9091F0129F9DA012070470020704765
S3150FE126D02DE9F04188B004460E461546984620216D
S3150FE126E06846FFF71DFB0120009020210E9F38461B
S3150FE126F0FFF716FB202107F12000FFF711FB202141
S3150FE1270007F14000FFF70CFB3046FFF7EBFD00F05A
S3150FE12710A3F800F09CF88C210FF2C43011FB06F1FF
S3150FE1272008444068461E00E0761E012E16DB00F0D7
S3150FE127303EF8F9D512E0202229463846FEF754FD38
S3150FE12740202205F1200107F12000FEF74DFD2022A1
S3150FE12750694607F14000FEF747FD761E002E23D4AA
S3150FE127603A4639462046FFF794FE00F020F8F4D5B5
S3150FE12770002220213846FFF79CFF70B1002220216D
S3150FE1278007F12000FFF795FF38B10022202107F16D
S3150FE127904000FFF78EFF0028CDD13B462A4639464A
S3150FE127A02046FFF7E9FDD8E708B0BDE8F081301123
S3150FE127B006EBD060401158F82010A6EB4010C1404F
S3150FE127C0C80770472DE9F04104460F4690B016460B
S3150FE127D01D463846FFF786FD00F03EF800F037F864
S3150FE127E069463846FFF78CFD08AB6A4606F14001AC
S3150FE127F02046FFF715FF00F065FA80464FF4827029
S3150FE1280008A92044FFF758FD4FF486702718314683
S3150FE12810FFF74DFF4FF4887006F120012044FFF7D3
S3150FE128204BFD404600F052FAFFF7EDFE06464FF438
S3150FE12830807005F120012044FFF749FD294638460E
S3150FE12840FFF745FDFFF72EFF10B0BDE8F081002041
S3150FE1285020602063606370470146204600F03ABA74
S3150FE1286038B50D4604462021FFF75AFAFFE71F2038
S3150FE128704242295C2244401ED177F9D531BD2DE97B
S3150FE12880F04F0F00984618BFB8F1000FB9B00446E4
S3150FE12890154603D0429E0EB1012D02DA40F20160D8
S3150FE128A0D1E0FFF7D4FF606840F0100060600020D0
S3150FE128B0FFF71FFDFFF7D0FF606820F4406040F49B
S3150FE128C00060606009A9606820F4407040F4007010
S3150FE128D060600020FFF71CFD09AA31462046FFF78D
S3150FE128E029FD30B909AA06F120012046FFF722FD9D
S3150FE128F010B140F20260A6E0212DA8BF20252021CC
S3150FE1290011A8FFF70DFA002014E02A1A521E01A9A9
S3150FE129109208A5F1010C01EB8201ACEB000C3B5CDB
S3150FE129200A6C4FEACC0C0CF0180C03FA0CF31A43B1
S3150FE129300A64401CA842E8DB00F0C4F905464FF4EF
S3150FE129408470271811A93846FFF7B6FCFFF752FE38
S3150FE129505D48206500F0B6F981464FF48070251881
S3150FE1296011A900F0B9F8484600F0B0F919AB09AA78
S3150FE1297006F120012046FFF753FE00F0A3F9834647
S3150FE129804FF4827019A92044FFF796FC4FF4887033
S3150FE1299004EB000911A94846FFF78EFC4FF4867048
S3150FE129A004EB000AFFF729FEFFF72AFE47482065E9
S3150FE129B04748606500F086F9834611A94846FFF757
S3150FE129C086FC19A900F088F8FFF71AFE21A80090F6
S3150FE129D011AB0FF2581200212046FFF779FE01A83D
S3150FE129E0009019AB424600212046FFF771FE21AB5D
S3150FE129F021AA00212046FFF7E5FE01AB21AA01A995
S3150FE12A002046FFF7B9FC01AB01AA00212046FFF7EB
S3150FE12A10D9FE00F057F905460020FFF76AFCFFF7EC
S3150FE12A201BFF01A93846FFF747FCFFF7E6FDFFF766
S3150FE12A30E1FD28482065234860656069C0014CBF08
S3150FE12A40002040F2046039B0BDE8F08F3035DA107E
S3150FE12A50D01482CB1481E11C8CE11C811C84D91C1E
S3150FE12A608391D11CE014D8141482E11C84D314820F
S3150FE12A70D11CE0148AD11C81821CC00C0C0C010004
S3150FE12A80C00C0C83D91C83D88AD11C83DA0C811430
S3150FE12A9082D11C81C80C0C818CE11CD01484E31407
S3150FE12AA082D11C01D81483D11CC00C01D91C83D14E
S3150FE12AB01C81E11C39398401D02484FC1C82FED8A7
S3150FE12AC08B1C81A03938010030D00C0130E11C8418
S3150FE12AD030D91C013035DA142846FFF7F8BB000070
S3150FE12AE02000000000010000050C0000FFFFFFFFC2
S3150FE12AF0FFFFFFFFFFFFFFFF0000000000000000E8
S3150FE12B000000000001000000FFFFFFFF512563FCFD
S3150FE12B10C2CAB9F3849E17A7ADFAE6BCFFFFFFFF62
S3150FE12B20FFFFFFFF00000000FFFFFFFF96C298D8EF
S3150FE12B304539A1F4A033EB2D817D0377F240A463F0
S3150FE12B40E5E6BCF847422CE1F2D1176BF551BF37F9
S3150FE12B506840B6CBCE5E316B5733CE2B169E0F7CCC
S3150FE12B604AEBE78E9B7F1AFEE242E34F62F30F22B7
S3150FE12B7062F31F42401810F0030308D0C91A1FD39E
S3150FE12B80DB0748BF00F8012D28BF20F8022D1300FF
S3150FE12B9030B414461546103928BF20E93C00FAD85F
S3150FE12BA0490728BF20E90C0048BF40F8042D8900EA
S3150FE12BB028BF20F8022D48BF00F8012D30BC704721
S3150FE12BC0C91818BF00F8012DCB0728BF00F8012D52
S3150FE12BD07047F8B505460E4617461C4600F0EDF868
S3150FE12BE0079A0699284600F0EEF805F12400002130
S3150FE12BF0016006750C22394605F13900FEF7E4FA54
S3150FE12C0005F14500210C01708470210A4170F1BD77
S3150FE12C1010B584B01C460191029200F12801009192
S3150FE12C2000F1380300F12402214600F0E9F81FBD57
S3150FE12C3000B500BF130096469446103928BFA0E8A9
S3150FE12C400C50FAD85FEA417C28BF0CC048BF40F868
S3150FE12C50042BC90728BF20F8022B48BF00F8012B28
S3150FE12C6000BDFEE7890001EB401000F184400260F0
S3150FE12C70704780B5FFE7012200210B48FFF7F2FF0E
S3150FE12C800A4802BD0949884209D100200FF2240101
S3150FE12C9001EBC000002241680348E3E770470449AE
S3150FE12CA08842FBD10120F1E7B0400E4000000F4012
S3150FE12CB000040F4000000F400000000000040F4029
S3150FE12CC001000000EFF3108072B6704700B962B6EB
S3150FE12CD07047FEE742685209042941EA421209D9CF
S3150FE12CE0491F022908D9C91E032903D9091F022938
S3150FE12CF002D970474260704742F010014160704758
S3150FE12D00890001EB401000F184400260704710B575
S3150FE12D104A688B68CC6809680160026003600460E9
S3150FE12D2010BD10B502680368046800680A608C601C
S3150FE12D304B60C86010BD38B5102A04460D460ED15A
S3150FE12D4001220021FFF7DCFF4FF488700444294686
S3150FE12D502046FFF7DCFF05F11001204606E00022D1
S3150FE12D600021FFF7CDFF294604F12400BDE83440E9
S3150FE12D70CDE71FB50C4614F0030108D06946FFF7FE
S3150FE12D80D0FF102269462046FEF71EFA1FBD2146E7
S3150FE12D90FFF7C7FF1FBD1FB5044611F0030008D0AB
S3150FE12DA010226846FEF710FA69462046FFF7AFFF95
S3150FE12DB01FBD2046FFF7ABFF1FBD00281CBF242117
S3150FE12DC0FEF7AEBF704770B504000D4618BF002D74
S3150FE12DD0164602D16FF0210070BD2421FEF7A0FF48
S3150FE12DE0802E18BFB6F5807F02D06FF0220070BD3E
S3150FE12DF02660F2082946201DFEF7E6F9002070BD90
S3150FE12E002DE9FF4F81B0002A14BF17680027002470
S3150FE12E1000281CBF0F9D002D0AD0DDF84090B9F1B7
S3150FE12E20000F1EBF002BDDF83880B8F1000F02D17D
S3150FE12E306FF0210070E00068802818BFB0F5807F41
S3150FE12E4004D06FF0220067E000F069F8029884423F
S3150FE12E505ED2002FF8D1FFF70CFF06460020706017
S3150FE12E604FF0000B4FF440403060FFF72BFF8246E7
S3150FE12E7001980068802801980CBF08221022011DD5
S3150FE12E803046FFF758FF049906F18400FFF783FFF9
S3150FE12E9000F050F80298001B0009009014E000F0D2
S3150FE12EA04CF80BF1010BFFF70DFF8246291906F1DD
S3150FE12EB0A000FFF770FF09EB040106F18000FFF7B1
S3150FE12EC058FF00F037F8103400988345E7D302989E
S3150FE12ED0001B0FD05FB900F030F8FFF7F3FE824623
S3150FE12EE0414606F18000FFF744FF00F023F800F0BA
S3150FE12EF016F8ECE7FFF7E6FE8246049906F1840041
S3150FE12F00FFF737FF00F016F83046FFF7BBFE9DE7F8
S3150FE12F10039800B10760002005B0BDE8F08F285D8A
S3150FE12F2018F80710484009F80400641C781C00F0F3
S3150FE12F300F0770475046FFF7C9BE4820B06005201E
S3150FE12F40B06030698007FCD40320B0607047FEE7BC
S3150FE12F500248016841F470010160704788ED00E0B5
S3150FE12F602DE9F04399B000F0E4F868461421FEF735
S3150FE12F70D7FE6846FDF734FF039802284FF0FF3876
S3150FE12F8009D2002020600120A8423CBF44F82080EE
S3150FE12F90401CF9D35CE0A84238BF40F2045058D345
S3150FE12FA0FDF77EFD07460498C068C6190C2205A9F0
S3150FE12FB03846FDF7B5FE00284BD10598DFF860914D
S3150FE12FC048451FD00C2205A93046FDF7A9FE00287A
S3150FE12FD03FD10598484507D00020A8423CBF44F8A9
S3150FE12FE02080401CF9D31DE0079A05A93046FDF76D
S3150FE12FF097FE00F099F860BB079A05A93846FDF7E9
S3150FE130009DFE30BB079A05A93846FDF789FE07995C
S3150FE13010424605A8FDF75AFC4249884205D00020F1
S3150FE1302000F01AF840F2055013E0079810388008BF
S3150FE13030A84288BF2846002106E005AA02EB8102D5
S3150FE13040D26844F82120491C8142F6D300F004F8F6
S3150FE13050002019B0BDE8F08302E044F82080401C5F
S3150FE13060A842FAD37047F0B599B000F062F82C4850
S3150FE130700590142101200690502007906846FEF72F
S3150FE130804FFE6846FDF7ACFE0398A84207D3022828
S3150FE130900AD22068002818BF10F1010F02D040F2C2
S3150FE130A004503AE0002038E04FF4882006460498B1
S3150FE130B0C0688719112D28BF1025002006E005AA43
S3150FE130C054F8201002EB8002401CD160A842F6D3DF
S3150FE130D04FF0FF3004E005A901EB85016D1CC860D7
S3150FE130E0102DF8D302464C2105A8FDF7EFFBC0439F
S3150FE130F0189000F019F880B9502205A93846FDF766
S3150FE131001DFE50B90498C1683046FDF739FE20B966
S3150FE13110502205A93046FDF711FE19B0F0BD0000AA
S3150FE1312039528FE1E320BBDE0498C1683846FDF7DB
S3150FE1313027BE04460D4605A85021FEF7F1BD30B571
S3150FE1314095B0044668461421FEF7EAFD6846FDF799
S3150FE1315047FE039D022D20D3294605A8FFF700FF61
S3150FE1316000281CBF40F20551884218D1002005A95D
S3150FE1317000E0401CA84210D251F8202012F1010FB5
S3150FE1318006D141F82040294605A8FFF76CFF06E076
S3150FE13190A242EED140F2035001E040F2025015B0E7
S3150FE131A030BDFEE74EF68851CEF20001086840F4D5
S3150FE131B070000860BFF34F8FBFF36F8F4FF0007052
S3150FE131C0E1EE100A704700000120C046002801D049
S3150FE131D000F008F80020AFF30080FDF7AAFB00F03E
S3150FE131E015F8000010B5074979441831064C7C44AF
S3150FE131F0163404E00A68081D114488470146A142C6
S3150FE13200F8D110BD800000009000000000F000B87A
S3150FE132100746384600F002F8FBE7000020210903D4
S3150FE1322026311820ABBEF9E700F049020080000015
S3150FE13230C0EA2101C0EA210180B5FFF789FEFDF75A
S3150FE13240A5FBBDE8014000F000B8AFF30080FFF742
S3150FE13250A9FFFFF7B9FF10B450F8041B79B1026863
S3150FE13260436802440830DC0744BFA9F10104E318BF
S3150FE1327052F8044B43F8044B091FF9D1ECE710BCA4
S3150FE1328070470000D3FFFFFF100000009CFFFFFF18
S3110FE132908000002000000000000000009C
S7050FE1324B8D
